:100000006F40E07B130000001300000013000000AD
:100010001300000013000000130000001300000094
:100020001300000013000000130000001300000084
:10003000130000006F40A0781300000013000000C0
:10004000BE47000000000000700D0000000D000021
:1000500000000000700D0000000000000000000023
:10006000700D0000700D0000000000000000000096
:10007000500F000000000000A80D0000000000006C
:10008000700D0000700D0000700D0000700D00007C
:10009000700D0000700D0000480E00007C0E000086
:1000A000B00E0000E40E0000180F0000700D0000FC
:1000B000700D0000700D0000700D0000700D00004C
:1000C000700D0000700D0000840F0000700D000026
:1000D000700D0000700D0000700D0000700D00002C
:1000E000700D0000700D0000700D0000700D00001C
:1000F000700D0000700D0000700D0000700D00000C
:10010000700D0000700D0000700D0000700D0000FB
:10011000700D0000700D0000700D0000700D0000EB
:10012000700D0000700D0000700D0000700D0000DB
:10013000700D0000700D0000700D0000700D0000CB
:10014000700D0000700D000000000000700D000038
:10015000700D00000C020000FFFFFFFF1D2D2D2D74
:10016000204D6563726973702D5175696E74757376
:1001700020312E312E31202D2D2DB7270240984BC6
:100180001367070898CB8280B72702403707674577
:1001900013073712D8C33797EFCD1307B79AD8C3D1
:1001A0008280B7270240D847058B75FFD847418B1F
:1001B00019CFEF10003F1645726173696E672066B4
:1001C0006C617368206572726F7220210A008280F0
:1001D000511106C42AC22EC0453F37250240D137EF
:1001E0000C49114793070004D98D0CC90C49DD8DCA
:1001F0000CC9453F0C491307B0FFF98D0CC9B53F39
:10020000A24012458245310182800000C4020000F4
:10021000000000000768666C61736821511106C414
:100220002AC22EC0F11480C0EF20E00CA2878040CB
:100230009104B9CF9567636DF404228580409104E1
:10024000A2858040910493771500B9E38357050098
:1002500041677D17639EE702C167FD176385F5025D
:1002600025378137370700083A95B7270240984B62
:100270001367170098CB2310B500984B1377E7FF4F
:1002800098CB0537DD3DA240124582453101828081
:10029000EF1020312A57726F6E67206164647265B7
:1002A0007373206F72206461746120666F722077AF
:1002B000726974696E6720666C61736820210A0038
:1002C0006F302019FC0200000000000006666C611F
:1002D00073682100711106C0F11480C0C040C1676D
:1002E000FD177D8CF11480C0C0400D3F09049C4077
:1002F000C1839CC0253782401101828088030000A1
:10030000000000000E666C6173687061676565725D
:1003100061736500711106C0F11480C0EF10B07DEB
:10032000A287804091049DCB95676369F402953D57
:10033000A13DB7270240984B1367270098CB37079A
:1003400000083A94C0CB80409104984B136707048F
:1003500098CB813D1D35824011018280EF106024D1
:100360002257726F6E6720616464726573732066D2
:100370006F722065726173696E6720666C61736865
:1003800020210A006F30E00C04040000000000008F
:100390000A6572617365666C617368001565C16595
:1003A0001306F0FF1441638EC602F11480C02A8444
:1003B000F11480C0EF10E01E104572617365206279
:1003C0006C6F636B206174202000EF100037EF101A
:1003D000401D0C2066726F6D20466C6173680A00C8
:1003E000153F1105E310B5FCEF10A01B1246696E16
:1003F00069736865642E20526573657420210A0054
:100400006F40E03B24040000000000000E657261B4
:100410007365666C61736866726F6D0022858040DB
:100420009104B5BF3804000020040000037370403D
:10043000F11480C0268482804C0400002004000057
:1004400003737021A28480409104828060040000C4
:100450002000000003727040F11480C00A84828082
:10046000740400002000000003727021228180408B
:1004700091048280880400006104000003647570A8
:10048000F11480C0828000009C0400006104000020
:100490000464726F7000804091048280B404000094
:1004A00061040000043F6475700019C0F11480C03D
:1004B00082800000CC0400006204000004737761B5
:1004C0007000A28780409CC082800000DC04000095
:1004D00062040000036E697091048280F4040000DD
:1004E00062040000046F76657200F11480C0C040A1
:1004F000828000000C050000620400000474756333
:100500006B009C40F114C0C09CC082802405000098
:100510004300000003726F749C40D84080C0DCC070
:100520003A8482804005000043000000042D726F71
:1005300074009C40D84098C0C0C03E8482800000B7
:100540005805000020040000047069636B000A0471
:1005500026940040828000007C050000000000001E
:10056000056465707468B70700209387C726858F78
:10057000F11480C013D4274082800000A40500003D
:10058000000000000672646570746800B707002000
:100590009387C746B3872740F11480C013D4274000
:1005A00082800000BC05000020000000023E7200B6
:1005B000711122C08040910482800000D4050000A7
:1005C0002000000002723E00F11480C002441101BC
:1005D00082800000E8050000200000000272400058
:1005E000F11480C002448280FC050000200000005D
:1005F000057264726F7011018280000014060000A1
:100600002000000005727069636B0A040A940040C0
:10061000828000002C0600006104000002303D00D2
:100620001334140033048040828000004006000030
:100630006104000003303C3E133414007D148280BA
:10064000500600006104000002303C007D8482807E
:100650006806000062040000023E3D009C409104D8
:1006600033A487007D1482808006000062040000AD
:10067000023C3D009C4091043324F4007D148280B0
:100680009806000062040000013C9C40910433A4E1
:100690008700330480408280B006000062040000BE
:1006A000013E9C4091043324F40033048040828056
:1006B000C80600006204000003753E3D9C409104A2
:1006C00033B487007D148280E006000062040000DD
:1006D00003753C3D9C4091043334F4007D148280CA
:1006E000FC0600006204000002753C009C4091047E
:1006F00033B4870033048040828000001807000074
:100700006204000002753E009C4091043334F40002
:10071000330480408280000034070000620400003F
:10072000023C3E009C4091043D8C133414007D1427
:10073000828000005007000062040000013D9C40E0
:1007400091043D8C133414003304804082800000F7
:100750006807000062040000036D696E9C4091040C
:100760006343F4003E84828080070000620400003E
:10077000036D61789C40910463C387003E8482804E
:100780009C0700006204000004756D696E009C40C7
:1007900091046363F4003E8482800000B807000087
:1007A0006204000004756D6178009C40910463E36D
:1007B00087003E8482800000180800006206000066
:1007C000012B9C4091043E9482803707040013075C
:1007D0003741B707F40093873743711106C06111A1
:1007E0003AC23EC0930700803377F4006303F700FA
:1007F00011E75204924721015D8C11A8F11480C0C9
:100800003D44EF104033F11480C002442101824086
:1008100011016F10503C0000340800006206000017
:10082000012D9C4091043384874082801344F4FF5F
:10083000050461BF5C0800006206000003736C746D
:100840009C40910433A4870082803727040013075B
:100850003741B727F4009387374341B78808000032
:100860006206000004736C7475009C40910433B4FC
:10087000870082803737040013073741B737F40009
:100880009387374399BF0000980800006104000077
:1008900002312D007D148280A80800006104000050
:1008A00002312B0005048280B808000061040000BA
:1008B00002322D0079148280C80800006104000013
:1008C00002322B0009048280DC0800006104000071
:1008D0000563656C6C2B110482800000F408000035
:1008E00061040000066E6567617465003304804032
:1008F0008280000004090000610400000373687234
:100900000580828014090000610400000373686C94
:1009100006048280240900006104000002322A00DB
:100920002294828038090000610400000563656C30
:100930006C730A0482800000480900006104000012
:1009400002322F00058482806009000061040000EB
:10095000036162739357F4413E943D8C82800000A2
:100960007809000061040000046576656E009377E5
:1009700014003E948280000098090000810000006D
:10098000046261736500F11480C037540020711453
:1009900082800A0000000000AC0900000000000096
:1009A0000662696E61727900894715A0C00900006E
:1009B0000000000007646563696D616CA94701A8C8
:1009C000D80900000000000003686578C147375768
:1009D000002071171CC38280F8090000000000008D
:1009E0000565696E743FF11480C07324003021885E
:1009F000133414007D1482800C0A000020040000CF
:100A00000465696E7400736004308280200A0000FF
:100A1000200400000464696E7400737004308280E6
:100A2000340A000020040000037766697300501048
:100A300082800000640A00000000000008637963FF
:100A40006C6573363400F11480C0F32700C873243A
:100A500000C0732700C8E39AE7FEF11480C03E840B
:100A600082800000800A00000000000006637963B5
:100A70006C657300F11480C0732400C08280000094
:100A8000980A000000000000056D69736140F114D0
:100A900080C0732410308280B40A0000000000007F
:100AA000076D696D70696440F11480C0732430F182
:100AB00082800000D00A000000000000086D617212
:100AC000636869644000F11480C0732420F182805F
:100AD000E80A000000000000056D657063217310D6
:100AE0001434804091048280000B0000000000005C
:100AF000056D65706340F11480C0732410348280EA
:100B00001C0B000000000000076D636175736540F9
:100B1000F11480C07324203482800000380B000060
:100B200000000000066D7476616C4000F11480C016
:100B30007324303482800000680B00000000000045
:100B4000086D656D6661756C7400711106C0EF000B
:100B50005025134D656D6F72792061636365737302
:100B6000206572726F7261A0B40B0000000000007B
:100B700013756E68616E646C65642D6E6F6E76655C
:100B800063746F72711106C0EF00B02122556E6858
:100B9000616E646C656420496E7465727275707400
:100BA00020286E6F6E2D766563746F726564290000
:100BB0003DA80000F80B00000000000009756E68F9
:100BC000616E646C6564711106C0EF00901D1E5566
:100BD0006E68616E646C656420496E7465727275CE
:100BE00070742028766563746F726564290091289B
:100BF0008240110182800000D00C00000000000043
:100C0000056661756C74711106C0EF00901913557B
:100C10006E68616E646C65642045786365707469A4
:100C20006F6E0520F327103403D7070013F7370042
:100C30007517890711E389077390173482401101F2
:100C40008280711106C0EF00D01509206D636175B7
:100C500073653A20753DEF00502EEF009014066D3D
:100C60006570633A2000413DEF00302DEF007013B6
:100C7000076D7476616C3A20553DEF00102CEF0043
:100C8000501202210A008240110182803AD63ED4DD
:100C900042D246D04ACE4ECC52CA56C85AC65EC47C
:100CA00062C266C083A00000E7800000824C124C44
:100CB000A24B324BC24A524AE249724982581258F8
:100CC000A2573257C2501301410373002030000075
:100CD000100D000081000000096972712D666175B8
:100CE0006C74F11480C03754002061148280060CAB
:100CF00000000100130000001300000013000000BA
:100D00001301C1FC06D8B7500020E11041B7000024
:100D1000480D0000810000000D6972712D6E6F6E2C
:100D2000766563746F72F11480C0375400205114DB
:100D30008280840B000001001301C1FC06D8B7506B
:100D40000020D110A1B70000800D0000810000003C
:100D50000E6972712D636F6C6C656374696F6E00E0
:100D6000F11480C03754002041148280C60B00006B
:100D70001301C1FC06D8B7500020C11001BF00000C
:100D8000B80D0000810000000C6972712D736F6650
:100D9000747761726500F11480C0375400203114FB
:100DA0008280C60B000001001301C1FC06D8B750B9
:100DB0000020B110E1BD0000EC0D0000810000003A
:100DC000096972712D74696D6572F11480C03754B0
:100DD000002021148280C60B000001001301C1FC19
:100DE00006D8B7500020A11055B50000240E000011
:100DF000810000000C6972712D6D656D6661756C06
:100E00007400F11480C037540020111482804A0B02
:100E1000000001001301C1FC06D8B750002091105A
:100E2000B5B50000580E000081000000096972711C
:100E30002D6578746930F11480C037540020011496
:100E40008280C60B000001001301C1FC06D8B75018
:100E50000020811025BD00008C0E000081000000E4
:100E6000096972712D6578746931F11480C0375445
:100E700000201304C4FD8280C60B00001301C1FCD6
:100E800006D8B75000209380C0FD09B5C00E000001
:100E900081000000096972712D6578746932F1145E
:100EA00080C037540020130484FD8280C60B0000EC
:100EB0001301C1FC06D8B7500020938080FDF9B320
:100EC000F40E000081000000096972712D657874CC
:100ED0006933F11480C037540020130444FD82802C
:100EE000C60B00001301C1FC06D8B7500020938048
:100EF00040FD69BB280F0000810000000969727184
:100F00002D6578746934F11480C0375400201304BF
:100F100004FD8280C60B00001301C1FC06D8B75047
:100F20000020938000FD9DB3600F00008100000051
:100F30000B6972712D7379737469636BF11480C0DE
:100F4000375400201304C4FC8280C60B000001004B
:100F50001301C1FC06D8B75000209380C0FC3DB3FC
:100F6000940F000081000000076972712D616463B5
:100F7000F11480C037540020130484FC8280C60B17
:100F8000000001001301C1FC06D8B7500020938077
:100F900080FCEDB9B80F00008100000009686F6F98
:100FA0006B2D656D6974F11480C0375400201304F3
:100FB00044FC828058110000DC0F0000810000001A
:100FC00008686F6F6B2D6B657900F11480C0375422
:100FD0000020130404FC8280901100000410000023
:100FE000810000000A686F6F6B2D656D69743F00AA
:100FF000F11480C0375400201304C4FB8280CA114E
:1010000000000000281000008100000009686F6FD8
:101010006B2D6B65793FF11480C0375400201304A9
:1010200084FB828004120000501000008100000048
:101030000A686F6F6B2D706175736500F11480C065
:1010400037540020130444FB82805C100000000031
:101050006010000000000000036E6F7082800000CE
:101060007C1000000000000004656D697400B75733
:101070000020938747FC9C4367800700981000007E
:1010800000000000036B6579B7570020938707FCC9
:101090009C43678007000000B410000000000000BF
:1010A00005656D69743FB75700209387C7FB9C4364
:1010B00067800700D010000000000000046B657915
:1010C0003F00B7570020938787FB9C43678007004A
:1010D0004411000000000000057061757365B7578A
:1010E0000020938747FB9C4367800700B7170240A7
:1010F000E1071167110798C337076000B717014070
:10110000938707812390E70037578448130747FBED
:10111000B71701409387478098C3B747014093872B
:1011200007801307500498C73147D8C7056798CB85
:10113000D84789675D8FB747014093870780D8C735
:10114000828000007C110000000000000B736572BB
:1011500069616C2D656D6974711106C0BD20A2872F
:1011600080409104E5DFB7470140938707802382E1
:10117000870080409104824011018280B4110000F8
:10118000000000000A73657269616C2D6B6579005F
:10119000711106C08528A28780409104E5DFF11413
:1011A00080C037440140130404800304440082409B
:1011B00011018280F0110000000000000C736572C4
:1011C00069616C2D656D69743F00711106C0013F46
:1011D000F11480C0374401401304048000401374AC
:1011E0000408133414007D14824011018280000031
:1011F00028120000000000000B73657269616C2DFD
:101200006B65793F711106C0D93DF11480C0374438
:1012100001401304048000401374040213341400CA
:101220007D148240110182804812000000000000FD
:10123000057265736574B7F700E0938707D13707C8
:10124000008098C36F30A057E41200000000000037
:101250000661636365707400411106C62AC42EC21C
:1012600032C08C40910401460535228580409104AE
:101270009307F0076300F50493070002636DF50020
:10128000E37486FEF11480C02A84D5332380A50040
:1012900085050506D1BFA5476315F50013050002B6
:1012A000C5B7A9476308F502B5476305F502A1472D
:1012B000E31CF5FA55DAF5240308200855D6FD1588
:1012C0007D1603C5050093770508D9DF93770504DC
:1012D000C1FFEDB73284B24022459245024641013A
:1012E0007DA200000013000040000000037469624A
:1012F000F11480C0370400201304C446828000002B
:101300002013000081000000033E696EF11480C0CC
:1013100037540020130404FB82800000000000000A
:1013200050130000820000000E63757272656E74C7
:101330002D736F7572636500F11480C037540020FF
:10134000130484FA8280000000006C040020000076
:10135000781300000000000009736574736F7572E4
:101360006365B7570020938787FA80C38040910454
:10137000C0C3804091048280A813000000000000D8
:1013800006736F757263650071112AC037550020AE
:10139000130585FAF11480C04041F11480C000416A
:1013A0000245110182800000DC13000000000000F3
:1013B000057175657279711106C0893F81471CC03E
:1013C000804091043537F11480C0F11480C01304BB
:1013D000800C59358240110169B700004C1400009F
:1013E0000000000007636F6D7061726551112AC4BF
:1013F0002EC232C022858C40D0408044B1046305A7
:10140000C500130400002DA81DC903C6050013372D
:10141000160411E71337B60519C3130606028347EE
:10142000040013B7170411E713B7B70519C393875F
:101430000702E318F6FC7D1585050504F1B77D5418
:101440002245924502463101828000006814000066
:101450000000000002637200711106C09922010AA7
:101460008240110182800000801400000000000012
:1014700002626C00F11480C013040002828000003C
:101480009814000000000000057370616365F1149A
:1014900080C013040002E1BEC01400000000000080
:1014A0000673706163657300711106C06355800037
:1014B000F93F7D14E5BF8040910482401101828094
:1014C000D414000050000000065B636861725D0088
:1014D00009A80000F814000000000000046368611F
:1014E0007200711106C07529804091040344040004
:1014F00082401101828000000C15000050000000A5
:101500000128F11480C01304900209A82C150000D2
:1015100050000000015CF11480C00144711106C04C
:101520006929C040A1048240110182805C1500003D
:1015300030000000022E2200F11480C017040000C9
:1015400013046406711106C01927F11480C0130436
:101550002002A521824011016F00100578150000BE
:101560003000000002632200F11480C01704000064
:101570001304A405C1BF0000941500003000000052
:1015800002732200F11480C0170400001304240623
:1015900055BF0000B81500000000000004282E22EE
:1015A0002900F11480C0068483C700008500BE9026
:1015B00093F71000BE9045A0DC150000000000006D
:1015C000042863222900F11480C0068483C7000028
:1015D0008500BE9093F71000BE9082800016000038
:1015E00000000000042873222900F11480C0068442
:1015F00083C700008500BE9093F71000BE9075A0D1
:10160000481600000000000004286E222900611125
:1016100006C22AC083470400A5CF05043305F400A1
:101620008347040013D747002A9703470700BD8B61
:10163000AA97E114C0C098C003C407000D3C053C44
:101640000504E31FA4FCA9A064160000000000002C
:10165000056374797065611106C22AC003450400F0
:10166000050431A89C160000000000000474797085
:101670006500611106C22AC022858040910409C913
:10168000F11480C003440400DD3205047D156DF9BA
:10169000804091049240024521018280B8160000EA
:1016A0000000000005636F756E740504F11480C0BE
:1016B0000344F4FF82800000DC16000000000000FC
:1016C0000A736B6970737472696E670083470400F4
:1016D00005043E94937714003E9482802C170000FA
:1016E0000000000006726973632D7600711106C058
:1016F0004D3D324D6563726973702D5175696E741D
:10170000757320312E312E3120666F72205249536D
:10171000432D56206279204D61747468696173208D
:101720004B6F63680A0082401101828078170000C5
:1017300000000000046865782E00411106C62AC426
:101740002EC232C022858040910493050002F1141C
:1017500080C01354C5013D8829466363C4001D043D
:101760001304040329321205F115F5F1B2402245A4
:1017700092450246410121BBEC1700000000000029
:10178000032E7273511106C42AC22EC0193D0F5286
:10179000657475726E737461636B3A205B20B70772
:1017A00000209387C746B387274063C8070293D5B5
:1017B00027008505F11480C02E844137DD33025D9A
:1017C000200081CD370500201305C546F11480C0E7
:1017D0000041A5377115FD15F5F9E13304202A3EC6
:1017E0000A00A24012458245310182807C18000027
:1017F0000000000005776F726473711106C05533E5
:10180000010AEF00F07F713B0941646472657373F4
:101810003A20F11480C015376933064C696E6B3A73
:101820002000F11480C00040093FA53B07466C61D1
:1018300067733A20F11480C0404001379D3306435E
:101840006F64653A2000F11480C021044135F535FC
:10185000893B064E616D653A2000F11480C0210479
:10186000DD3B8133010AEF00307DA2878040910487
:10187000D9DB80409104824011018280B8180000B9
:101880000000000006756E7573656400711106C076
:10189000EF00F021EF003042A2878040910499E3ED
:1018A000C16731A0EF00F022A28780409104338409
:1018B0008740824011018280D018000000000000A3
:1018C00003682E7397070000938767E705A8000059
:1018D000E818000000000000022E730097270000A7
:1018E0009387E70621A8000094190000000000007B
:1018F00003752E739727000093874704311106C89C
:101900002AC62EC432C236C03E856139095374617D
:10191000636B3A205B203757002071171443A947A7
:101920001CC3B70500209385C526858D63CE0502AF
:101930008981F11480C02E84EF2020019D31025D49
:10194000200037570020711714C363CF050089CDDD
:101950003706002013068626F11480C00042E700F7
:1019600005007116FD15EDF92D390620544F533A37
:101970002000F11480C02284E70005001D310420FE
:101980002A3E0A00C2403245A24512468246510113
:1019900082800000AC1900000000000005746F6B2D
:1019A000656EF11480C01304000201A8841A0000BF
:1019B00000000000057061727365411106C62AC4FB
:1019C0002EC232C0D132A2858840C040A1043D3A27
:1019D0001040804091043307C50093070002631E46
:1019E000F400638AC502B307C50083C70700639686
:1019F000870005063307C500EDB7638EC500B30742
:101A0000C50083C707000506E39987FE3304C500B8
:101A1000198C7D1421A03304C500198CF11498C0D1
:101A2000F53010C080409104B240224592450246F4
:101A300041018280611106C22AC022858040910442
:101A4000856793870780E18F99C385673E94F1147A
:101A500080C0FD777D8C1364747BF11480C02A8470
:101A6000EF00D00F5204B7870700938777465D8C4D
:101A7000F11480C02A8411049240024521016F00B4
:101A8000F00D0000C41A00002000000005646F651E
:101A9000733EF11480C0B7270000678407AA8280D4
:101AA000711106C0F11480C0370400207104004099
:101AB0002104937724003E94B53FDD2D110182402F
:101AC00011018280F41A000000000000073C6275DA
:101AD000696C6473711106C0EF00F02D4D29892ADD
:101AE000EF007005F11480C02144EF00D010824057
:101AF000110182801C1B000000000000066372655B
:101B000061746500711106C0F137F11480C0B72708
:101B10000000678407AA8240110182800C1C00002B
:101B2000000000001072656769737465726C6974F7
:101B30006572616C2C0019E06F107074611106C23F
:101B40002AC0228580409104930700803377F400F7
:101B50006303F70021E381573377F4006303F70051
:101B600005E39377F4018A071357F40132071164F0
:101B700005045D8C598C1E05498CEF00B00159A0FD
:101B800052049167CD0713177500D98F5D8CEF0054
:101B900090048DA8856793870780E18F99C3FD77AF
:101BA0003D8C89476307F50281773377F40063033F
:101BB000F70005E3F11480C0298485679387C70780
:101BC0007D8C996785075D8C13177500598CD92713
:101BD00019A8F11480C0FD777D8C1364740313176A
:101BE0007500598CCD2F520401E48040910419A84E
:101BF0009167CD0713177500D98F1317F500D98F8B
:101C00005D8CD12F9240024521018280401C000052
:101C100000000000086C69746572616C2C00711121
:101C200006C03920F11480C021448240110121B73F
:101C3000F11480C017F4FFFF1304C48461A80000EE
:101C4000C41C0000000000000563616C6C2C711165
:101C500006C0F11480C0A12DEFE0BFBCEF106014EE
:101C6000A2878040910481CB9104896785075D8CB0
:101C70008240110105A7EF108006A28780409104E1
:101C800081CB91049307F00E5D8C82401101A1A7D6
:101C900080409104856793870780E18F99C38567AA
:101CA0003E94F11480C0FD777D8C1364747B2527EE
:101CB0005204B78707009387770E5D8C824011012D
:101CC00019AF00005C1D00000000000007696E6C89
:101CD000696E652C711106C08357040005671307F0
:101CE00017176399E7008357240031671907639337
:101CF000E700110483570400116713072708639F47
:101D0000E70083572400130710116399E7008357F6
:101D10004400216713072708638DE70283570400F7
:101D20002167130727086386E7028357040013F728
:101D3000370075176318E000F11480C003540400E5
:101D4000912D0904F11480C003540400A125090455
:101D500061B780409104824011018280981D00008B
:101D6000000000000E736B6970646566696E6974CB
:101D7000696F6E008357040013F737007517630906
:101D8000E00009042167130727086385E700DDB732
:101D90001104CDB7828000000C1E0000000000007E
:101DA00007737472696E672C311106C82AC62EC477
:101DB00032C236C01375F40F8C409104A92015204F
:101DC00009C9F11480C003C4050021287D158505CB
:101DD000C5BF0D20C2403245A24512468246510180
:101DE00082803314C400C18E804091042106C14713
:101DF000631DF60009CA711106C0F11480C0368453
:101E0000512B824011010146814682801C1E000038
:101E100050000000035B275D39A00000581E000041
:101E2000000000000127511106C42AC22EC0953EB1
:101E30008840A285EF007025A2878040910419E4B4
:101E4000F11480C088C02E846F10E04AA240124571
:101E50008245310182800000A01E00003000000099
:101E600008706F7374706F6E6500711106C0653F06
:101E700013F707011DE313F7070209CB4D33F114E4
:101E800080C017040000130424E501A8493BF114A5
:101E900080C0170400001304C4DB8240110145BB5D
:101EA000C81E0000300000000465786974007111DC
:101EB00006C0F11480C03744110113042408212BFB
:101EC0008240110109A80000E41E0000000000008B
:101ED000047265742C00F11480C02164130424087A
:101EE00055A90000041F0000300000000772656360
:101EF00075727365F11480C03704002071040040CE
:101F0000B9B30000241F0000810000000573746154
:101F10007465F11480C037540020130444FA8280A1
:101F200000000000441F00008100000004287370BE
:101F30002900F11480C037540020130404FA828071
:101F400000000000541F000000000000015DFD576C
:101F500001A800006C1F000010000000015B814719
:101F600037570020130747FA1CC382809C1F0000CC
:101F700000000000013A711106C037570020130716
:101F800007FA04C30D2D824011018547D1BFF1141A
:101F900080C0371406C01304141735A9F41F0000BD
:101FA00030040000013B711106C0375700201307B1
:101FB00007FA1C4363819702EFF0AFDE15205374DC
:101FC00061636B206E6F742062616C616E63656427
:101FD0002E0A6F10004837570020130747FA18439E
:101FE00085476314F700C53D11A0D135D122824049
:101FF0001101B5B7102000000000000007657865EA
:1020000063757465A28780409104678007000000B3
:10201000282000001000000009696D6D6564696189
:102020007465C14735A20000402000005000000048
:1020300006696E6C696E65009307000211AA0000C4
:102040005820000050000000076E6F6672616D65D9
:1020500093070040F5A80000742000001000000065
:102060000B636F6D70696C656F6E6C79930700031D
:10207000C5A0000090200000500000000A302D662E
:102080006F6C6461626C650093070004D1A000006E
:10209000AC200000500000000A312D666F6C6461B6
:1020A000626C65009307100465A00000C820000062
:1020B000500000000A322D666F6C6461626C65002E
:1020C0009307200471A00000E420000050000000ED
:1020D0000A332D666F6C6461626C6500930730048F
:1020E00085A8000000210000500000000A342D6681
:1020F0006F6C6461626C65009307400491A80000F6
:102100001C210000500000000A352D666F6C6461D0
:10211000626C65009307500425A800003821000078
:10212000500000000A362D666F6C6461626C6500B9
:102130009307600431A800005821000050000000FF
:102140000A372D666F6C6461626C650093077004DA
:10215000F11480C03E84D1A07C210000000000006A
:1021600008636F6E7374616E7400711106C0A121F3
:102170007D349533113F824011011DA8A02100003C
:10218000000000000932636F6E7374616E74711128
:1021900006C01521A28780409CC05134D1BF0000E9
:1021A000082200000000000006736D75646765007A
:1021B000711106C049220126A28780409104A9E33B
:1021C000FD208327C4FF1307F0FF8040910463962E
:1021D000E700F11480C00144FD2AF11480C03704E7
:1021E0000020130404020040F11480C037040020D2
:1021F000210400401104EFE0EF8D82401101828044
:10220000F11480C0014405A88022000000000000F5
:1022100008736574666C616773003757EA051307C6
:10222000E71D6318870017240000130404696FF08A
:102230000FBE711106C04124A2878040910489EF2E
:1022400037070020130707021C43C18F1CC38040BF
:102250009104824011018280370700202107184332
:102260005C4371112AC07D556393A700A287C18F7B
:10227000024511015CC380409104824011018280BB
:10228000A02200004100000007616C69676E656470
:10229000937714003E94937724003E94828000004C
:1022A000BC22000000000000046865726500F114A3
:1022B00080C037040020004082800000E02200003F
:1022C000000000000D666C6173687661722D6865B0
:1022D0007265F11480C03704002041040040828000
:1022E000FC220000000000000C61646472696E66EC
:1022F0006C6173683F000147C16739A8282300005B
:10230000000000000A61646472696E72616D3F00D2
:1023100037070020B75700206366E4006374F400B9
:102320007D548280014482808823000000000000E8
:1023300005616C69676E711106C0953F9377140053
:102340003E943707002000C3098801C40544992042
:1023500019A080409104824011018280711106C051
:102360009C40E114C0C09CC01928A28780409CC03A
:102370004180A28780409CC00904824011017111F4
:1023800006C0F11480C005A0CC23000000000000AE
:1023900002682C00711106C0193FF11480C0F114BD
:1023A00080C009448928813FA2878040910481C769
:1023B000EFD0DFE601A8A287804091042390870038
:1023C000804091048240110182800000E8230000D7
:1023D00000000000012C711106C0F11480C05D3FA7
:1023E0004180824011017DB764240000000000009C
:1023F00005616C6C6F74611106C22AC02285804031
:1024000091045528A2878040910495E33707002066
:102410001C43AA97416563EEA702EFF08F980B4625
:102420006C6173682066756C6C0A6F10800255359C
:10243000370700201C43AA9763EB8700EFF06F96E5
:102440000952616D2066756C6C0A6F1080008040C7
:1024500091041CC39240024521018280F11480C086
:10246000114451BFA02400000000000009666F72F3
:1024700067657472616D711106C095203707002081
:10248000B7070020938747531CC337070020210755
:1024900097E7FFFF938747CC1CC3824011018280DE
:1024A000C8240000000000000D636F6D70696C654A
:1024B000746F72616D3F711106C0D53B2D3D1344A1
:1024C000F4FF8240110182804025000000000000DE
:1024D0000C636F6D70696C65746F72616D00711162
:1024E00006C0D13FA28780409104B5EF3707002096
:1024F0005C43184B63E6E702EFF0AF8A2320566196
:10250000726961626C657320636F6C6C69646520CD
:10251000776974682064696374696F6E6172790A9F
:10252000F11480C03704002018405C4058C01CC023
:1025300018445C4458C41CC401448240110165BD68
:102540006C250000000000000E636F6D70696C6503
:10255000746F666C61736800711106C0A93FA28731
:1025600080409104D5FF8240110182808C250000BB
:102570004000000008286C61746573742900F11430
:1025800080C037040020210482800000A4250000C0
:1025900040000000042864702900F11480C0370452
:1025A00000208280A426000000000000082863723A
:1025B000656174652900711106C0EFF08FBE05E0FA
:1025C000EFE03FFE1520437265617465206E65651E
:1025D0006473206E616D6520210A6F0090679C40D6
:1025E000E114C0C09CC0552480409104A287804063
:1025F000910495C39C40E114C0C09CC0EFE07FFAF9
:10260000095265646566696E6520EFF08F86EFE0BC
:102610005FF9022E20000533793DA28780409104A6
:10262000A1E7370700201307070281471CC3413188
:10263000F11480C02144C133EFD0BFEFEFF0CFF6EB
:102640003705002021050C4190419306F0FF6319E6
:10265000D600F11480C0F11480C02E84EFD09FC743
:1026600000C1804091042DA09931F11480C037043D
:10267000002021040040853337070020210700C3D4
:1026800080409104F11480C07D54B133EFF0CFF15C
:10269000393937070020710700C380409104824018
:1026A00011018280C02600000000000008766172DF
:1026B0006961626C6500F11480C005440DA80000DA
:1026C000DC26000000000000093276617269616258
:1026D0006C65F11480C0094419A80000302700007F
:1026E00000000000096E7661726961626C655111CB
:1026F00006C42AC22EC0C1357D3BA287804091040A
:10270000D5E33D88711122C00A048520EFF0AFFCAB
:1027100022858040910411C580C191056D397115E4
:1027200065FDF11480C0024411011364040825A85A
:10273000E827000000000000076275666665723ACF
:10274000511106C42AC22EC0A136B535AD33A287B9
:1027500080409104ADE31128EFF0EFF7AD39F114AB
:1027600080C013040014553CB1A837050020410572
:102770000C41818D370700201307475363DEE500C6
:10278000EFE03FE20F4E6F7420656E6F7567682053
:1027900052414D0A6F00F04B0CC1F11480C02E84E1
:1027A0006FF0EFC72D2022858040910419C5253197
:1027B0007D1575FD19A021283D39F11480C0130441
:1027C0000008A13CA240124582453101D5B27111E9
:1027D00006C09536EFF0CFC5F11480C02164130414
:1027E000744682401101C5BE202800000000000090
:1027F0000F64696374696F6E617279737461727466
:10280000711106C04D398240110111E417E4FFFF38
:1028100013048494828037040020210400408280C5
:1028200058280000000000000E64696374696F6E30
:102830006172796E657874009307F0FF1840E38C3D
:10284000E7129307F00F03478700E386E712004083
:10285000F11480C0014482807C28000081000000C7
:1028600009686F6F6B2D66696E64F11480C0375410
:1028700000201304C4F98280A828000098280000D2
:10288000000000000466696E6400B757002093875B
:10289000C7F99C4367800700302900000000000052
:1028A000062866696E642900411106C62AC42EC234
:1028B00032C081450146611122C0804022C2C04021
:1028C000A1043D3F4840FD576383A704F11480C035
:1028D0002104EFE09FDDE114C0C0124480C0024437
:1028E000EFE0DFB0A2878040910495C3F11480C06F
:1028F0002104EFE0BFDDA285804091042A86F11417
:1029000080C02E84CD3AA2878040910491C72D3794
:10291000A28780409104DDD72E84F11480C03284D8
:102920002101B240224592450246410182800000C9
:102930004429000020000000016BF11480C02244F3
:10294000828000005829000020000000016AF11474
:1029500080C00244828000006C290000200000003A
:102960000169F11480C00E8482800000D429000027
:1029700030000000056C65617665511106C42AC2FD
:102980002EC03705002061050C412687F1141C4339
:10299000232EF7FE1107E31CB7FE2687F1141C4314
:1029A000232EF7FE1107E31CB7FE1132453C2287A8
:1029B00080409104F11598C1F11595479CC10CC157
:1029C00083A7C5FF850723AEF5FEA24012458245C9
:1029D00031018280EC290000200000000428646F8F
:1029E0002900611112C20EC082800000042A00007A
:1029F0002000000006756E6C6F6F700082411242FD
:102A000021018280682A000030000000052B6C6FD5
:102A10006F708D47631DF44680409104611106C2BA
:102A20002AC0F11480C01704000013046401EFF001
:102A30000FA237850700130535068DA0634C0400EF
:102A400033874140A29180409104B3874140B3B79E
:102A5000E700828033874140A29180409104B38790
:102A60004140B337F7008280DC2A000030000000CC
:102A7000046C6F6F70008D47631BF44080409104BD
:102A8000611106C22AC0F11480C0378411001304FA
:102A90003419913237954100130535060938EFD0C6
:102AA0005FD8092C498C053A22858040910401C5E4
:102AB000592E7D15EDBFF11480C0170400001304DA
:102AC00024F4EFF02FA137070020610700C38040F6
:102AD000910492400245210182800000342B0000C5
:102AE0003000000002646F00711106C01D2037071E
:102AF00000206107F11480C00043F11480C001443C
:102B000004C3EFF0CFFAF11480C00D4482401101EC
:102B10008280F11480C0170400001304C4006FF019
:102B20006F9B611112C20EC0A28103A20400C040BB
:102B3000A10482807C2B000030000000033F646F02
:102B4000711106C0F937F11480C037844140130475
:102B5000347B5130370700206107F11480C00043F7
:102B6000EFF0EFF4E538F11480C00944F11480C0AF
:102B7000054437070020610704C361B7982B0000A4
:102B800030000000046361736500F11480C00144EB
:102B9000F11480C021448280C02B0000300000006E
:102BA000033F6F66A1476314F42E804091047111B6
:102BB00006C0711122C080409104392E89A0000006
:102BC000242C000030000000026F6600A147631053
:102BD000F42C80409104711106C0711122C0804014
:102BE0009104F11480C01704000013040403EFF0F3
:102BF0006F8EEFF0CFEB9D30F11480C009442D248F
:102C0000F11480C0024411010504F11480C0254470
:102C1000824011018280A28780409104818F93B706
:102C200017008280602C00003000000005656E6493
:102C30006F66A547631DF42480409104711106C09E
:102C4000711122C0804091048D2CF11480C0024487
:102C50001101F11480C021448240110182800000E2
:102C6000C82C00003000000007656E646361736566
:102C7000A147631EF42080409104611106C22AC05E
:102C80002285804091044D2201C5752A7D15EDBF36
:102C90009240024521018280EFE0BF900D4A756DA0
:102CA0007020746F6F206661720A65A7711106C08B
:102CB0003D2021A0711106C0A928A287804091045F
:102CC000E1DF824011018280FC2C00004100000005
:102CD0000C756A2D656E636F64696E673F00B70798
:102CE000F8FF3377F4006304F7006312074A7111A9
:102CF00006C02D2882401101BDA900008C2D0000C6
:102D0000410000000C73622D656E636F64696E672D
:102D10003F00FD773377F4006304F700631907463B
:102D2000711106C0252882401101B1A19357C4003A
:102D300093F7F70F1397C7009357B400858BD2070B
:102D40005D8F9357140093F7F73FD6075D8F935726
:102D50004401858BFE073364F70082809357B400EB
:102D6000858B1397770093571400BD8BA2075D8F57
:102D70009357540093F7F703E6075D8F9357C4000A
:102D8000858BFE073364F70082800000382E000038
:102D9000410000000C636A2D656E636F64696E67A5
:102DA0003F00930700803377F4006304F70063105B
:102DB000073E711106C02120824011016DAE93576C
:102DC0005400858B13972700935714009D8B8E0713
:102DD0005D8F93577400858B9A075D8F93576400BE
:102DE000858B9E075D8F9357A400858BA2075D8F0F
:102DF000935784008D8BA6075D8F93574400858B76
:102E0000AE075D8F9357B400858BB2073364F7002C
:102E10008280711106C0F11480C021641304247AE9
:102E2000EFF04FD782401101F11480C017D4FFFF9B
:102E30001304A4666FE01FEAAC2E0000300000000F
:102E4000047468656E00711106C0A2878040910409
:102E50001547639AE700EFF08FC59C401D8CB9358C
:102E60001364F40631A809476393E702EFF02FC417
:102E70009C401D8C8135B7870700938737065D8C92
:102E8000A28780409CC0824011016FF02FCDEFE0FF
:102E90004FF1175374727563747572657320646FA4
:102EA0006E2774206D617463680A65A3CC2E0000E0
:102EB0003000000004656C736500711106C0352890
:102EC000EF00303D82401101BDBF0000EC2E00003C
:102ED0003000000002696600711106C01D3FEFF06E
:102EE0000FBDF11480C0094405A00000142F00009C
:102EF00030000000056168656164711106C0EFF083
:102F00000FBBF11480C01544EFF04FD58240110182
:102F100082800000302F00003000000006726570D3
:102F200065617400711106C0AD208240110121BF9E
:102F30004C2F000030000000057768696C65711146
:102F400006C0593F824011016F00B034842F000049
:102F50003000000005756E74696C711106C0A2879F
:102F6000804091040547E394E7F26535EFF02FB414
:102F7000EFD03F8B8133B7870700938737065D8C8F
:102F800005A80000B82F000030000000056167614F
:102F9000696E711106C0A287804091040547E398CD
:102FA000E7EEEFF0CFB0EFD0DF8709331364F4061C
:102FB000824011016FF02FC2DC2F000030000000B2
:102FC00005626567696E711106C0EFF04FAEF114CE
:102FD00080C005448240110182800000043000005E
:102FE0006206000003616E649C4091047D8C8280C7
:102FF0003777040013073741B777F40093873743D7
:103000006FD0AFFD243000006206000003626963E8
:103010009C4091041344F4FF7D8C82801344F4FFA0
:10302000C1BF00004C30000062060000026F720059
:103030009C4091045D8C8280376704001307374100
:10304000B767F400938737436FD02FF974300000CF
:103050006206000003786F729C4091043D8C828070
:103060003747040013073741B747F40093873743C6
:103070006FD0AFF6983000004100000003636C7A17
:103080009307000219C481476345040006048507BD
:10309000E5BF3E8482800000B03000006104000083
:1030A00003726F729317F40105805D8C82800000BB
:1030B000C83000006104000003726F6C9357F40184
:1030C00006045D8C82800000EC3000006206000087
:1030D00007617273686966749C40910433D48740B9
:1030E0008280B757044093873741A1A01031000078
:1030F0006206000006727368696674009C40910461
:1031000033D487008280B75704009387374115A0D6
:103110003C31000062060000066C7368696674004A
:103120009C409104339487008280B71704009387F2
:1031300037417D8852045D8C6FF0EFA9503100005B
:1031400061040000036E6F741344F4FF828000007A
:10315000683100006104000006696E7665727400D3
:103160001344F4FF828000008031000060040000FE
:10317000047472756500F11480C07D548280000073
:1031800098310000600400000566616C7365F114FD
:1031900080C0014482800000FC310000000000007B
:1031A000086576616C7561746500711106C0EFE0A9
:1031B000AF9DA2879840C040A10461113AC23EC0B1
:1031C00037570020130707FB1C4371113EC081478E
:1031D0001CC3EFE00F99952037570020130707FB1A
:1031E000824711011CC3824712472101E114C0C06C
:1031F00098C03E84824011016FE0AF9628320000F3
:10320000810000000E686F6F6B2D696E74657270BF
:1032100072657400F11480C037540020130484F9DF
:1032200082805C3200000000483200000000000094
:1032300009696E74657270726574B7570020938760
:1032400087F99C43678007002034000000000000DD
:103250000B28696E7465727072657429711106C0ED
:10326000370500201305C526637E9500EFE06FB398
:1032700010537461636B20756E646572666C6F7752
:103280000A00C1AA370500201305C506636D950025
:10329000EFE02FB10F537461636B206F7665726638
:1032A0006C6F770A7DA23707002051078323070040
:1032B00063950300A68323207700EFE08FEE11E4EF
:1032C000C040A1048240110182809C40E114C0C032
:1032D0009CC0EFF08FDBA2859040C040A10405EABE
:1032E0008840A285812C22868040910435FAE11421
:1032F000C0C088C02E84EFE0CFB7EFE08FAA0C20CB
:103300006E6F7420666F756E642E0A0099A2B756B0
:103310000020938646FA9442A1E637070020510721
:1033200081432320770093070003B3F6F5006391F0
:10333000F602EFE00FB4EFE0CFA61220697320632E
:103340006F6D70696C652D6F6E6C792E0A0011A21D
:10335000C040A104F11480C03284EFE0BFCA09B7B5
:10336000C040A10413F5050819E9B386934089828A
:1033700013F5050419C913F5F50063E8A600F11467
:1033800080C03284EFE01FC8E1BD13B51600631D95
:10339000A00013F5052009C9F11480C03284EFE0C4
:1033A0007F9DEFE03FC66DBD91203757002013078A
:1033B00047FA184385476319F70013F7054009E7F3
:1033C000EFE0FFBCEFE0BFB8F11480C0328413F629
:1033D000050101C6EFE01FC361B513F6050201C682
:1033E000EFE05F8FB5BDEFE09F869DBD711106C018
:1033F00091CEFD16F11480C03684EFD04F95EFE0EA
:103400001F82E5FA9384C3FF8040910437070020B0
:103410005107814323207700824011018280000000
:10342000443400008100000009686F6F6B2D7175D6
:103430006974F11480C037540020130444F9828069
:10344000BC340000AC340000000000000471756959
:103450007400370100201301C146B7040020938493
:10346000C426375700207117A9471CC337570020BF
:10347000130747FA81471CC33707002051071CC3B5
:1034800037570020130707FB1CC3375700201307CB
:1034900087FA1CC3B70700209387C7465CC3B7579A
:1034A0000020938747F99C4367800700D0340000D1
:1034B000000000000628717569742900EFD0BFEF85
:1034C000AD3BEFE00F8E05206F6B2E0AC5BF0000ED
:1034D0002435000000000000056469676974130466
:1034E00004FD63640402A9476363F4026514636E18
:1034F000F40093074002636CF4000114A94763666B
:10350000F400930740026364F40001448280B757DB
:103510000020F1179C43E37AF4FEF11480C07D543F
:1035200082800000C436000000000000066E756D49
:1035300062657200111106CC16CA1AC82AC62EC4BA
:1035400032C236C0B7570020F1179C4371113EC0FC
:10355000A28580409104228505448546814201432D
:103560008D47639FF50093077002034705006319B9
:10357000F700034725006315F700834215007DA07F
:10358000D5C5034605000505FD159307D002631454
:10359000F600FD56F5B7930730026318F600A94709
:1035A0003756002071161CC2E1BF93074002631812
:1035B000F600C1473756002071161CC2D1B79307D9
:1035C00050026318F60089473756002071161CC256
:1035D00045BF9307E0026314F600094455B793070B
:1035E000C002630CF608F11480C03284CD3DA2877E
:1035F00080409104BDC3E114C0C023A054001A84CC
:10360000F11480C03754002071140040F11480C0C0
:103610000144D925EFC05FF0F11480C00144AD2D05
:10362000228383A20400C040A10499BF634DD0004F
:10363000E114C0C023A054001A842925228383A248
:103640000400C040A104F11423A054008547630581
:10365000F400F11423A0640011A001448247110179
:103660003757002071171CC3E240D2424243324513
:10367000A245124682467101828016838142094426
:10368000D5D5FD15B307B50003C607009307E002C3
:10369000E308F6FEF11480C032849135A2878040A1
:1036A0009104C5DFF11423A05400F11480C03754F5
:1036B000002071140040EF007005A282C040A104F8
:1036C000C1B70000F436000000000000062E646957
:1036D00067697400A9476375F400130404038280CA
:1036E000930740026375F40013047403828013048B
:1036F00030028280483700000000000004686F6CD0
:10370000640071112AC037050020130545020347E4
:103710000500930770046374F70205072300E500B2
:103720003A958547630BF7007D1583470500A30095
:10373000F5007D178547E319F7FE230085008040DB
:1037400091040245110182808437000000000000CE
:1037500005686F6C643C71112AC0370500201305A1
:10376000450203470500930770046378F7000507D7
:103770002300E5003A95230085008040910402452E
:1037800011018280A4370000000000000473696703
:103790006E00634504008040910482801304D002CF
:1037A0008DB70000C43700000000000002233E0077
:1037B000B70700209387470203C4070085079CC012
:1037C00082800000E83700000000000003662353F9
:1037D000611106C22AC01305000229287D1575FD56
:1037E0009240024521018280103800000000000054
:1037F00002662300711106C0F11480C03754002006
:1038000071140040512AF93582401101A9B7000016
:10381000303800000000000002235300711106C080
:1038200029287DFC9C40EDFF824011018280000030
:1038300060380000000000000123711106C0F1147F
:1038400080C03754002071140040F11480C001443E
:103850000527812480409104B53D8240110155B572
:103860007C38000000000000023C230037070020E5
:103870001307470281472300F70082809438000035
:103880000000000002662E00F11480C01304000244
:1038900001A80000E43800000000000003662E6E5E
:1038A000611106C22AC0228580409104EFC07FC505
:1038B000BD2EF11480C00144553F8D3780409104E6
:1038C0001304C002493D01C535377D1575FD02451C
:1038D000110180409104753DF11480C0F11480C045
:1038E00035A80000FC380000000000000375642EBD
:1038F000711106C0A53F1D3715A000002C3900002E
:103900000000000002642E00711106C0EFC07FBFEE
:10391000392EA93F2137EFC03FC0A53D513DEFD023
:103920005FD5824011016FD09FB600004039000082
:103930000000000002752E00F11480C001444DBF4C
:103940005439000000000000012EF11480C07D8475
:1039500065BF00008C39000062060000012A9C400F
:103960009104338487028280B707F4029387374338
:10397000711106C0F1149CC0F11480C03D44EFE009
:103980008F9B824011016FE01FA50000A839000045
:103990006204000003756D2A9C403387870298C03B
:1039A00033B4870282800000C43900006204000042
:1039B000026D2A009C403387870298C033948702A7
:1039C00082800000E039000062040000066D756C22
:1039D000687375009C40910433A4870282800000C4
:1039E000003A000062060000012F9C40910433C49D
:1039F00087028280B747F4029387374395BF000060
:103A0000203A000062060000036D6F649C40910440
:103A100033E487028280B767F4029387374389BF14
:103A20003C3A00006204000005752F6D6F649C40F5
:103A300033F7870298C033D487028280583A000057
:103A400062040000042F6D6F64009C4033E787021E
:103A500098C033C487028280703A0000620400007C
:103A60000432647570009C40E114C0C09CC0828028
:103A7000843A000062040000053264726F70C04036
:103A8000A1048280A43A000044000000053273774C
:103A90006170A287C040DCC09C4098449CC498C020
:103AA00082800000BC3A00006204000004326E69AB
:103AB00070009C40A1049CC082800000D83A0000A5
:103AC0004400000005326F766572E114C0C09C4866
:103AD0009CC0C04482800000FC3A0000440000000A
:103AE00005327475636B98409C44E11498C098C883
:103AF000D844D8C09CC4C0C482800000203B0000D1
:103B0000460000000432726F74009C4098449CC4CC
:103B10009C4898C89CC0D840C0C0C044D8C48280CB
:103B2000443B00004600000005322D726F7498403F
:103B30009C4898C8984498C09CC4D844C0C4C0400D
:103B4000D8C08280603B00002000000003323E723B
:103B5000611122C0804022C2C040A10482800000C6
:103B60007C3B0000200000000332723EE114C0C024
:103B7000124480C00244210182800000943B000076
:103B80002000000003327240E114C0C0124480C023
:103B900002448280A83B00002000000006327264CC
:103BA000726F700021018280C43B0000420000005F
:103BB0000364322F9C401317F40105848583D98F49
:103BC0009CC08280E03B0000420000000364322A77
:103BD0009C4013D7F701BE972294598C9CC08280D9
:103BE000003C0000420000000464736872009C40C6
:103BF0001317F40105808583D98F9CC08280000053
:103C0000203C000042000000046473686C009C408B
:103C100013D7F701BE972294598C9CC08280000074
:103C2000343C000042000000046461627300634B96
:103C3000040082805C3C00004200000007646E6566
:103C4000676174659C4093C7F7FF1344F4FF1387C3
:103C5000170098C0B337F7003E9482808C3C000078
:103C60004400000002642D0071112AC09C44984059
:103C70003385E74088C433B5E700DC4033848740B0
:103C8000098CA1040245110182800000B83C0000AB
:103C90004400000002642B0071112AC09C4498402B
:103CA0003385E70088C43335F500DC403E942A9420
:103CB000A104024511018280CC3C000041000000BB
:103CC00003733E64F11480C07D848280E83C000070
:103CD000440000000375642A711106C02928C04001
:103CE000A1048240110182804C3E0000440000008B
:103CF0000475646D2A00011106CE16CC1ACA1EC8BE
:103D00002AC62EC432C236C0F11480C0C040F1149D
:103D100080C080485131A2858840C040A104F11480
:103D200080C08040F11480C0C044BD31A286904064
:103D3000C040A104F11480C08040F11480C08048CC
:103D4000A1398147B302860033B3C2003386F20043
:103D5000B3335600B3677300B382060033B3D200A7
:103D6000B386F200B3B35600B3677300804091048A
:103D70008147B382850033B3B200B385F200B3B399
:103D80005500B3677300B302060033B3C200338635
:103D9000F200B3335600B3677300B382060033B347
:103DA000D200B386F200B3B35600B367730080400D
:103DB0009104F11480C0C040F11480C0C044E93EB9
:103DC0008147B302860033B3C2003386F200B333B7
:103DD0005600B3677300B382060033B3D200B386D4
:103DE000F200B3B35600B36773008040910481477B
:103DF000B382850033B3B200B385F200B3B355008C
:103E0000B3677300B302060033B3C2003386F20017
:103E1000B3335600B3677300B382060033B3D200E6
:103E2000B386F200B3B35600B367730080409104C9
:103E3000368490C0CCC088C4F240E2425243C243B0
:103E40003245A2451246824605618280783E0000D6
:103E500043000000022A2F00711106C0711122C018
:103E600080409104813EF11480C002441101D120B0
:103E70009104824011018280A43E000043000000B2
:103E8000052A2F6D6F64711106C0711122C0804028
:103E900091040D36F11480C00244110182401101D9
:103EA00049A80000D03E00004300000003752A2FFF
:103EB000711106C0711122C080409104F13CF114CF
:103EC00080C0024411019920910482401101828036
:103ED000FC3E00004300000006752A2F6D6F640051
:103EE000711106C0711122C0804091047534F11423
:103EF00080C0024411018240110109A8243F000042
:103F00004300000006756D2F6D6F6400711106C0CF
:103F1000F11480C00144A92880409104910482409A
:103F200011018280603F000043000000056D2F6D8D
:103F30006F64711106C0F11480C07D84CD20804073
:103F40009104910482401101828041112AC62EC43D
:103F500032C236C08146D0408C4401451DA00000CD
:103F600010400000440000000675642F6D6F64006F
:103F700041112AC62EC432C236C081460146CC4009
:103F8000884431110EC812C616C41AC21EC022823D
:103F900083A104001304000486069357F601DD8E06
:103FA000060693D7F5015D8E86059357F501DD8DE5
:103FB00006056366D20063EA4602636836028147FB
:103FC000B3023640333336003386F240B3B3F200E7
:103FD000B3677300B382464033B34600B386F24002
:103FE000B3B3F200B367730005057D1455F42E8456
:103FF00088C0D4C090C4C2413242A242124382431C
:1040000051013245A245124682464101828000009C
:10401000684000004400000005642F6D6F6471115A
:1040200006C0635304023939AD34635A04001939A8
:104030008D343D3FB93C39318240110199BC913CEE
:10404000053F82401101FDBEA934635B0400DD3EE3
:104050008934393FC53E353CF5368240110115BCE7
:104060000D3C8240110129B780400000440000004F
:1040700002642F00711106C05D378240110115BC2A
:10408000CC4000004400000002662A00711106C006
:1040900063500402453EF53A635004026536A13987
:1040A000804091049C4091049CC082401101828018
:1040B000CD32E35604FE79363D39804091049C4070
:1040C00091049CC082401101B5BE00000C4100006B
:1040D0004400000002662F00711106C0635D0400F9
:1040E0009536453A635D0400B13E6532B93DD13243
:1040F000824011018280713AE35904FEA136513A9F
:10410000A9358936824011016DB2000028410000B6
:1041100000000000023221009C40D8401CC058C062
:104120008044B10482800000404100000000000093
:1041300002324000F1145C409CC0004082800000CC
:1041400078410000440000000364753C71112AC0EE
:104150009C44984033B5E700DC4033B7A700898F13
:10416000B3B7870033E4E7007D141344F4FFB104D0
:1041700002451101828000009041000044000000CF
:104180000364753E711106C02932824011017DBF62
:10419000BC4100004400000002643C00511106C410
:1041A0002AC22EC01355F441CC40FD854537298CD9
:1041B0002D8CA2401245824531018280D4410000FD
:1041C0004400000002643E00711106C0D9308240F4
:1041D0001101E9B7E8410000620400000364303CCB
:1041E00091047D84828000000442000042000000AF
:1041F0000364303D9C4091045D8C133414003304FF
:1042000080408280284200004400000003643C3E5D
:10421000DC403D8C9C409844B98FB1045D8C1334D4
:1042200014007D14828000004C4200004400000015
:1042300002643D00DC403D8C9C409844B98FB10441
:104240005D8C133414003304804082809842000057
:104250004300000007326C73686966741374F403DA
:1042600071C8130704FE63490700DC403394E7007C
:10427000910423A004008280DC4033978700D8C0DB
:1042800013070002018FB3D7E7009840331487006B
:104290005D8C910482800000E84200004300000031
:1042A00007327273686966741374F40341C41307A8
:1042B00004FE634907009C40B3D7E70091049CC00B
:1042C000014482809C4033D7870098C013070002C6
:1042D000018FB397E700D840335787005D8FD8C070
:1042E00080409104828000003C43000043000000B5
:1042F000083261727368696674001374F4031DC830
:10430000130704FE634A07009C4013D4F741B3D758
:10431000E74091049CC082809C4033D7874098C07E
:1043200013070002018FB397E700D8403357870087
:104330005D8FD8C0804091048280000090430000CF
:1043400000000000046D6F76650071112AC022879D
:104350009C40C040A10405CB6307F40263ED8700D5
:104360003A94BA970345F4FFA38FA7FE7D14FD1777
:104370007D176DFB09A8034504002380A7000504F1
:1043800085077D176DFB80409104024511018280F5
:10439000B8430000000000000466696C6C002287CE
:1043A0009C40C040A10491C72300E4000504FD1710
:1043B000E5FF8040910482803C440000200600001C
:1043C000014000408280B727040093873740611185
:1043D00006C22AC03E85711122C080409104FD169C
:1043E000EFF0CF80F11480C002441101EFD05F8460
:1043F000930700803377F4006303F70011E7B78772
:10440000F0FFFD177D8D05A0856793870780E18FFD
:1044100099C385673E94F11480C0FD777D8C136449
:104420007443EFD05FFB8567FD17E18FD2073364DC
:10443000F5009240024521016FD0FFF9E8440000E9
:104440002006000001219C401CC0C040A1048280C5
:104450003727870013073702B727F70093873702FC
:10446000611106C22AC0FD1691E63A851520EFE0DB
:10447000BF9B19A83E85A28780409CC0F11480C0D4
:104480003D44EFD04FEB292092400245210182802C
:10449000711106C0930700803377F4006303F700BF
:1044A00011E7B787F0FFFD177D8D05A0856793871E
:1044B0000780E18F99C385673E94F11480C0FD7732
:1044C0007D8C13647473EFD01FF19377F4019E0712
:1044D0005D8D85678117E18F9583E6073364F5006D
:1044E000824011016FD03FEF044500000000000042
:1044F000022B21009C401840BA971CC0C040A10468
:104500008280000020450000200600000268400074
:10451000035404008280B75704009387374045BD99
:1045200044450000200600000868407369676E6516
:104530006400031404008280B71704009387374097
:1045400079B50000704500002006000002682100D7
:104550009C402310F400C040A104828037178700DC
:1045600013073702B717F70093873702D5BD00004E
:10457000904500000000000003682B219C40035779
:104580000400BA972310F400C040A1048280000008
:10459000AC45000020060000026340000344040014
:1045A0008280B74704009387374015B5D045000097
:1045B000200600000863407369676E6564000304A9
:1045C00004008280B70704009387374009B50000D4
:1045D000FC45000020060000026321009C402300EF
:1045E000F400C040A1048280370787001307370218
:1045F000B707F70093873702A5B500001C460000F7
:104600000000000003632B219C4003470400BA977D
:104610002300F400C040A10482800000384600005E
:10462000000000000462697321009C401840D98F8B
:104630001CC0C040A1048280584600000000000059
:104640000462696321009C4093C7F7FF1840F98F0B
:104650001CC0C040A104828074460000000000001D
:1046600004786F7221009C401840B98F1CC0C04074
:10467000A104828094460000000000000462697476
:1046800040001C40804091047D8C133414007D1444
:1046900082800000B44600000000000005686269E6
:1046A00073219C4003570400D98F2310F400C040AD
:1046B000A1048280D84600000000000005686269FD
:1046C00063219C4093C7F7FF03570400F98F231021
:1046D000F400C040A1048280F84600000000000001
:1046E0000568786F72219C4003570400B98F23102E
:1046F000F400C040A10482801847000000000000C0
:1047000005686269744083570400804091047D8C81
:10471000133414007D14828038470000000000002C
:104720000563626973219C4003470400D98F23000D
:10473000F400C040A10482805C470000000000003B
:104740000563626963219C4093C7F7FF0347040038
:10475000F98F2300F400C040A10482807C47000050
:10476000000000000563786F72219C40034704003D
:10477000B98F2300F400C040A10482809C47000050
:1047800000000000056362697440834704008040B4
:1047900091047D8C133414007D148280005000003D
:1047A000FFFFFFFF182D2D2D20466C6173682044FC
:1047B000696374696F6E617279202D2D2D00FD473C
:1047C000739007BC8D477390478097C7FFFF93870F
:1047D000678793E737007390573089679387878897
:1047E00073A00730B717024098431367170098C3A8
:1047F000D843B706FFF8758FD8C39843B706F7FEBE
:10480000FD16758F98C39843B706FCFFFD16758F8C
:1048100098C3D843B70681FFFD16758FD8C33707F5
:104820009F0098C70100EFC07F8C814037010020B6
:104830001301C14681410142814201438143130476
:10484000A002B70400209384C42601458145014697
:1048500081460147814737070020B707002093872B
:1048600047531CC337070020210797C7FFFF9387D3
:10487000A78E1CC3F11480C017C4FFFF1304C48D9E
:10488000B75300204C40FD566389D50893F60510B8
:10489000ADC2711122C02104EFC05FE3EFD08FCD14
:1048A00083560400035524004205C98EB383D340C8
:1048B000024411019DA02F010000000000203301DF
:1048C000202425442403671890790000000007364F
:1048D00031098AA04224A031B003862094830100CC
:1048E000060008000018200A2E275F2D60285C2F84
:1048F000293C93F6050895C2BD898A05B383B34068
:10490000F11480C02104EFC07FDCEFD0AFC6E1140A
:10491000C0C023A074002E840D3CEFD0FFF122858F
:104920008040910425D137050020310500C1804029
:1049300091043705002041052320750041659565E8
:104940001306F0FF6307B50071151441E38CC6FE32
:104950001105B7050020910588C1EFC09FC44A4DDD
:104960006563726973702D5175696E74757320314A
:104970002E312E3120666F7220524953432D56201E
:1049800052563332494D43206F6E20434833324CE8
:1049900031303343385436206279204D6174746865
:1049A000696173204B6F63680A00370100201301AF
:1049B000C146B70400209384C426375700207117DE
:1049C000A9471CC337570020130747FA81471CC368
:1049D0003707002051071CC337570020130707FB78
:1049E0001CC337570020130787FA1CC3B7070020E2
:1049F0009387C7465CC3F11480C0170400001304FA
:104A00008402F11480C01144EFD03FE8804091044B
:104A100009C4EFD02FDF6FE09FA8804091046FE0C2
:104A20005FA3696E697401001300000013000000A9
:104A3000130000001300000013000000130000002A
:00000001FF
