:100000006F40A07E00000000000000006F00504123
:100010006F00904411BFF9F70000000000000000DD
:1000200000000000000000000000000000000000D0
:10003000000000006F00503B000000006F00503EC9
:10004000000000006F00D0366F0090366F00503611
:100050006F0010366F00904A6F0090356F0050436C
:100060006F0090466F00D0346F00904C6F0050349A
:100070006F0010346F00104F6F0090336F005033DB
:100080006F0010336F00D0326F0050516F0050324C
:100090006F0010326F00D0313715004093027005A9
:1000A000230055009302800A2300550082803715F3
:1000B0000040230005008280E0000000FFFFFFFFFA
:1000C0001D2D2D2D204D6563726973702D5175693D
:1000D0006E74757320312E312E30202D2D2D0000A1
:1000E00008010000810000000E686F6F6B2D696EC3
:1000F0006974666C61736800F11480C03704032072
:1001000071148280740E00002C0100008100000038
:100110000B686F6F6B2D666C61736821F11480C082
:1001200037040320611482806E44000054010000F3
:10013000810000000F686F6F6B2D666C75736866C9
:100140006C617368F11480C03704032051148280FD
:10015000740E0000740100000000000009696E695F
:1001600074666C617368B7070320F1179C4367805E
:1001700007000000E80100000000000006666C6156
:1001800073682100937734008DC7EF10C0251F6678
:100190006C61736821206E6565647320342D65760B
:1001A000656E206164647265737365732E0A6F30C7
:1001B000802215676368E400B7070320E1179C43BA
:1001C00067800700EF1020221943616E6E6F742064
:1001D000777269746520696E746F20636F72652031
:1001E000210A6F30401F00000802000000000000DC
:1001F0000A666C757368666C61736800B7070320E4
:10020000D1179C4367800700300200008100000086
:100210000C686F6F6B2D68666C6173682100F11458
:1002200080C037040320411482807C450000000018
:10023000A0020000000000000768666C617368217E
:100240009377140085C7EF10001A1D666C61736800
:1002500021206E65656473206576656E2061646437
:100260007265737365732E0A6F30E01615676368E5
:10027000E400B7070320C1179C4367800700EF1015
:1002800080161943616E6E6F7420777269746520F1
:10029000696E746F20636F726520210A6F30A0133E
:1002A000B40200002004000003737040F11480C009
:1002B00026848280C802000020040000037370219D
:1002C000A284804091048280DC02000020000000B3
:1002D00003727040F11480C00A848280F002000032
:1002E00020000000037270212281804091048280EE
:1002F000040300006104000003647570F11480C001
:100300008280000018030000610400000464726F22
:10031000700080409104828030030000610400007E
:10032000043F6475700019C0F11480C08280000021
:100330004803000062040000047377617000A28724
:1003400080409CC0828000005803000062040000CE
:10035000036E6970910482807003000062040000E3
:10036000046F76657200F11480C0C0408280000086
:100370008803000062040000047475636B009C40F5
:10038000F114C0C09CC08280A003000043000000A4
:1003900003726F749C40D84080C0DCC03A84828075
:1003A000BC03000043000000042D726F74009C40E9
:1003B000D84098C0C0C03E8482800000D4030000B2
:1003C00020040000047069636B000A042694004056
:1003D00082800000F80300000000000005646570E2
:1003E0007468B70702209387C726858FF11480C0F1
:1003F00013D4274082800000200400000000000089
:100400000672646570746800B70702209387C74658
:10041000B3872740F11480C013D4274082800000A6
:100420003804000020000000023E7200711122C05A
:1004300080409104828000005004000020000000F1
:1004400002723E00F11480C002441101828000005B
:10045000640400002000000002724000F11480C01B
:10046000024482807804000020000000057264725B
:100470006F701101828000009004000020000000D5
:1004800005727069636B0A040A9400408280000060
:10049000A80400006104000002303D001334140081
:1004A0003304804082800000BC040000610400002E
:1004B00003303C3E133414007D148280CC040000D1
:1004C0006104000002303C007D848280E40400006E
:1004D00062040000023E3D009C40910433A487006A
:1004E0007D148280FC04000062040000023C3D0098
:1004F0009C4091043324F4007D1482801405000094
:1005000062040000013C9C40910433A48700330442
:10051000804082802C05000062040000013E9C4067
:1005200091043324F40033048040828044050000A9
:100530006204000003753E3D9C40910433B4870083
:100540007D1482805C0500006204000003753C3D60
:100550009C4091043334F4007D14828078050000BF
:100560006204000002753C009C40910433B4870093
:100570003304804082800000940500006204000083
:1005800002753E009C4091043334F40033048040F3
:1005900082800000B005000062040000023C3E00C2
:1005A0009C4091043D8C133414007D148280000023
:1005B000CC05000062040000013D9C4091043D8C8C
:1005C000133414003304804082800000E4050000EE
:1005D00062040000036D696E9C4091046343F40063
:1005E0003E848280FC05000062040000036D617897
:1005F0009C40910463C387003E84828018060000FB
:100600006204000004756D696E009C409104636390
:10061000F4003E8482800000340600006204000082
:1006200004756D6178009C40910463E387003E840B
:10063000828000009406000062060000012B9C40AE
:1006400091043E9482803707040013073741B707AF
:10065000F40093873743711106C061113AC23EC05E
:10066000930700803377F4006303F70011E7520427
:10067000924721015D8C11A8F11480C03D44EF1018
:10068000C034F11480C002442101824011016F1076
:1006900050430000B006000062060000012D9C409F
:1006A00091043384874082801344F4FF050461BFC2
:1006B000D80600006206000003736C749C4091042D
:1006C00033A4870082803727040013073741B727F8
:1006D000F4009387374341B7040700006206000027
:1006E00004736C7475009C40910433B4870082805D
:1006F0003737040013073741B737F4009387374380
:1007000099BF0000140700006104000002312D00B1
:100710007D148280240700006104000002312B0058
:1007200005048280340700006104000002322D00BD
:1007300079148280440700006104000002322B001B
:100740000904828058070000610400000563656C9D
:100750006C2B11048280000070070000610400000F
:10076000066E656761746500330480408280000016
:1007700080070000610400000373687205808280B6
:1007800090070000610400000373686C0604828017
:10079000A00700006104000002322A002294828037
:1007A000B4070000610400000563656C6C730A0403
:1007B00082800000C40700006104000002322F00A4
:1007C00005848280DC07000061040000036162731D
:1007D0009357F4413E943D8C82800000F407000062
:1007E00061040000046576656E00937714003E9402
:1007F0008280000014080000810000000462617320
:100800006500F11480C037040320311482800A008F
:100810000000000028080000000000000662696E69
:1008200061727900894715A03C08000000000000B3
:1008300007646563696D616CA94701A854080000ED
:100840000000000003686578C147370703203117AF
:100850001CC3828074080000000000000565696EFA
:10086000743FF11480C073240030218813341400C5
:100870007D14828088080000200400000465696EF1
:1008800074007360043082809C0800002004000023
:100890000464696E7400737004308280B0080000D4
:1008A0002004000003776669730050108280000006
:1008B000E008000000000000086379636C6573368F
:1008C0003400F11480C0F32700C8732400C07327DC
:1008D00000C8E39AE7FEF11480C03E8482800000E5
:1008E000FC08000000000000066379636C6573007B
:1008F000F11480C0732400C082800000140900003D
:1009000000000000056D6570632173101434804091
:10091000910482802C09000000000000056D6570C4
:100920006340F11480C073241034828048090000B1
:1009300000000000076D636175736540F11480C0AD
:10094000732420348280000064090000000000004D
:10095000066D7476616C4000F11480C073243034ED
:10096000828000009409000000000000086D656DA1
:100970006661756C7400711106C0EF00D026134DCE
:10098000656D6F7279206163636573732065727240
:100990006F7261A0E00900000000000013756E682E
:1009A000616E646C65642D6E6F6E766563746F72D4
:1009B000711106C0EF00302322556E68616E646CC1
:1009C000656420496E7465727275707420286E6F4C
:1009D0006E2D766563746F72656429003DA8000012
:1009E000300A00000000000009756E68616E646CDA
:1009F0006564711106C0EF00101F1E556E68616EB0
:100A0000646C656420496E74657272757074202818
:100A1000766563746F7265642900EF002006F32722
:100A2000203405677D17F98F824011018280000014
:100A3000100B000000000000056661756C747111F8
:100A400006C0EF00501A13556E68616E646C6564E1
:100A500020457863657074696F6EEF002002F3279C
:100A6000103403D7070013F737007517890711E310
:100A7000890773901734824011018280711106C07A
:100A8000EF00701609206D63617573653A20EFF011
:100A9000FFEAEF00902FEF001015066D6570633AC6
:100AA0002000EFF01FE8EF00502EEF00D013076D8D
:100AB0007476616C3A20EFF03FEAEF00102DEF0002
:100AC000901202210A008240110182803AD63ED45F
:100AD00042D246D04ACE4ECC52CA56C85AC65EC43E
:100AE00062C266C083A00000E7800000824C124C06
:100AF000A24B324BC24A524AE249724982581258BA
:100B0000A2573257C2501301410373002030000036
:100B1000500B000081000000096972712D6661753B
:100B20006C74F11480C037040320211482803E0AC3
:100B3000000001001300000013000000130000007B
:100B40001301C1FC06D8B7000320A11041B7000073
:100B5000880B0000810000000D6972712D6E6F6EB0
:100B6000766563746F72F11480C03704032011142A
:100B70008280B009000001001301C1FC06D8B70053
:100B800003209110A1B70000C00B000081000000FD
:100B90000E6972712D636F6C6C656374696F6E00A2
:100BA000F11480C03704032001148280F209000090
:100BB0001301C1FC06D8B7000320811001BF00005B
:100BC000F80B0000810000000B6972712D737973BE
:100BD0007469636BF11480C0370403201304C4FDEF
:100BE0008280F209000001001301C1FC06D8B700A1
:100BF00003209380C0FDD9BD300C000081000000AF
:100C00000C6972712D736F66747761726500F114EF
:100C100080C037040320130484FD8280F2090000A1
:100C20001301C1FC06D8B7000320938080FD79BD75
:100C3000680C0000810000000C6972712D6D656DFB
:100C40006661756C7400F11480C0370403201304CE
:100C500044FD8280760900001301C1FC06D8B7006C
:100C60000320938040FD9DB5A00C00008100000092
:100C70000A6972712D74696D65723100F11480C05A
:100C800037040320130404FD8280F20900000100F0
:100C90001301C1FC06D8B7000320938000FD3DB5C9
:100CA000D80C0000810000000A6972712D74696D12
:100CB00065723200F11480C0370403201304C4FCB1
:100CC0008280F209000001001301C1FC06D8B700C0
:100CD00003209380C0FCDDBB0C0D000081000000F0
:100CE000096972712D7573627373F11480C03704D2
:100CF0000320130484FC8280F20900001301C1FC6C
:100D000006D8B7000320938080FCC9B3400D0000D3
:100D100081000000096972712D7573626873F114A6
:100D200080C037040320130444FC8280F2090000D1
:100D30001301C1FC06D8B7000320938040FC79B3AF
:100D4000740D000081000000086972712D687370D5
:100D50006900F11480C037040320130404FC82806E
:100D6000F20900001301C1FC06D8B70003209380EC
:100D700000FCA9BBAC0D0000810000000A69727183
:100D80002D73657264657300F11480C0370403200D
:100D90001304C4FB8280F209000001001301C1FCAE
:100DA00006D8B70003209380C0FB0DB3D00D000020
:100DB0008100000009686F6F6B2D656D6974F11417
:100DC00080C037040320130484FB8280780F000066
:100DD000F40D00008100000008686F6F6B2D6B65DB
:100DE0007900F11480C037040320130444FB82808F
:100DF000B40F00001C0E0000810000000A686F6F35
:100E00006B2D656D69743F00F11480C037040320B9
:100E1000130404FB8280F20F00000000400E00006B
:100E20008100000009686F6F6B2D6B65793FF114CD
:100E300080C0370403201304C4FA82802C10000001
:100E4000680E0000810000000A686F6F6B2D7061F2
:100E500075736500F11480C037040320130484FA0D
:100E60008280740E00000000780E00000000000078
:100E7000036E6F7082800000940E0000000000007E
:100E800004656D697400B7070320938787FB9C4353
:100E900067800700B00E000000000000036B65795A
:100EA000B7070320938747FB9C4367800700000038
:100EB000CC0E00000000000005656D69743FB707A7
:100EC0000320938707FB9C4367800700E80E000020
:100ED00000000000046B65793F00B707032093878B
:100EE000C7FA9C4367800700640F00000000000001
:100EF000057061757365B7070320938787FA9C4374
:100F00006780070037A5070013050512B7172707E5
:100F1000938707E0B3D7A7021545B387A702898750
:100F20003737004085462307D74095072945B3D773
:100F3000A7022316F740930770FC2301F7408D4763
:100F4000A301F74093070004A300F740B717004040
:100F5000F84F13670718F8CFB84313670710B8C3E3
:100F600082800000A00F0000000000000B7365727B
:100F700069616C2D656D6974711106C0EF006007C1
:100F8000A28780409104FDDB37370040130787407C
:100F9000230087008040910482401101828000007C
:100FA000DC0F0000000000000A73657269616C2D9F
:100FB0006B657900711106C0EF004007A287804081
:100FC0009104FDDB3737004013078740F11480C0E0
:100FD00003440700824011018280000018100000C5
:100FE000000000000C73657269616C2D656D697499
:100FF0003F00711106C0EFF01FF0F11480C03734CC
:1010000000401304B440030404001D473334870038
:101010007D14824011018280501000000000000009
:101020000B73657269616C2D6B65793F711106C038
:10103000EFF07FECF11480C0373400401304A4407B
:1010400003040400133414007D14824011018280D3
:101050007810000000000000057265736574EFF001
:10106000AF83371700401907930710042300F700D8
:10107000EFF0EF836F306077181100000000000080
:101080000661636365707400411106C62AC42EC2EE
:1010900032C08C4091040146EFF09FE022858040F1
:1010A00091049307F0076301F50493070002636E50
:1010B000F500E37386FEF11480C02A84EFF0BFDCF4
:1010C0002380A50085050506C1BFA5476315F5006A
:1010D00013050002F9BFA9476309F502B547630686
:1010E000F502A147E31AF5FA45DAEF00C02F03082D
:1010F00020085DD2FD157D1603C505009377050810
:10110000C1DF93770504C9FBEDB73284B2402245B5
:1011100092450246410145AA3411000040000000FA
:1011200003746962F11480C0370402201304C446BA
:10113000828000005411000081000000033E696EAF
:10114000F11480C037040320130444FA82800000A5
:101150000000000084110000820000000E63757220
:1011600072656E742D736F7572636500F11480C0C3
:10117000370403201304C4F98280000000006C04CB
:1011800002200000AC11000000000000097365742B
:10119000736F75726365B70703209387C7F980C3C0
:1011A00080409104C0C3804091048280DC11000023
:1011B0000000000006736F757263650071112AC02C
:1011C000370503201305C5F9F11480C04041F1141F
:1011D00080C000410245110182800000141200000D
:1011E00000000000057175657279711106C0EFF09D
:1011F0003FF581471CC080409104EFF0BFF2F1142D
:1012000080C0F11480C01304800CEFF0FFE782402F
:10121000110151B7841200000000000007636F6DD8
:101220007061726551112AC42EC232C022858C4071
:10123000D0408044B1046305C500130400002DA80C
:101240001DC903C605001337160411E71337B60589
:1012500019C3130606028347040013B7170411E7E6
:1012600013B7B70519C393870702E318F6FC7D157A
:1012700085050504F1B77D542245924502463101AA
:1012800082800000A01200000000000002637200D3
:10129000711106C0EF002015010A82401101828001
:1012A000B81200000000000002626C00F11480C05F
:1012B0001304000282800000D01200000000000031
:1012C000057370616365F11480C01304000265BE8C
:1012D000FC1200000000000006737061636573007B
:1012E000711106C063568000EFF0FFFD7D14DDBF75
:1012F00080409104824011018280000010130000A0
:1013000050000000065B636861725D0009A8000080
:101310003413000000000000046368617200711162
:1013200006C0EF0040508040910403440400824016
:101330001101828048130000500000000128F114C0
:1013400080C01304900209A86C1300005000000034
:10135000015CF11480C00144711106C0EF00204E01
:10136000C040A1048240110182800000A01300004F
:1013700030000000022E2200F11480C0170400008B
:101380001304A406711106C0EF002076F11480C08A
:1013900013042002EF00A04A824011016F00100BDD
:1013A000BC1300003000000002632200F11480C072
:1013B000170400001304A405F1B70000D8130000BF
:1013C0003000000002732200F11480C017040000F6
:1013D0001304240645BF0000FC13000000000000B9
:1013E00004282E222900F11480C0068483C700003F
:1013F0008500BE9093F71000BE9055A02014000009
:1014000000000000042863222900F11480C0068433
:1014100083C700008500BE9093F71000BE908280C5
:101420004414000000000000042873222900F11475
:1014300080C0068483C700008500BE9093F710002B
:10144000BE9055A8901400000000000004286E22F1
:101450002900611106C22AC083470400BDCF0504DC
:101460003305F4008347040013D747002A97034746
:101470000700BD8BAA97E114C0C098C003C4070041
:10148000EFF07FA0EFF03FA00504E31DA4FCB1A0A6
:10149000AC140000000000000563747970656111F0
:1014A00006C22AC003450400050431A8E814000060
:1014B00000000000047479706500611106C22AC042
:1014C00022858040910411C9F11480C003440400B6
:1014D000EFF07F9B05047D1565F9804091049240F3
:1014E0000245210182800000041500000000000078
:1014F00005636F756E740504F11480C00344F4FF36
:101500008280000028150000000000000A736B694B
:1015100070737472696E67008347040005043E941B
:10152000937714003E9482807C1500000000000038
:1015300006726973632D7600711106C0EFF0BFEA81
:10154000324D6563726973702D5175696E74757370
:1015500020312E312E3020666F7220524953432D98
:1015600056206279204D61747468696173204B6FF5
:1015700063680A008240110182800000CC150000DF
:1015800000000000046865782E00411106C62AC4D8
:101590002EC232C022858040910493050002F114CE
:1015A00080C01354C5013D8829466363C4001D04EF
:1015B00013040403EFF03F8D1205F115EDF1B24075
:1015C0002245924502464101FDB900004C1600003B
:1015D00000000000032E7273511106C42AC22EC0EF
:1015E000EFF07FE00F52657475726E737461636B18
:1015F0003A205B20B70702209387C746B38727406E
:1016000063CB070293D527008505F11480C02E8493
:10161000EFF0BFF7EFF03FDD025D200089CD370529
:1016200002201305C546F11480C00041EFF0FFF51C
:101630007115FD15EDF9EFF01FDB04202A3E0A00BD
:10164000A24012458245310182800000F816000058
:101650000000000005776F726473711106C0EFF02F
:101660009FD8010AEF10400DEFF0FFD709416464E5
:10167000726573733A20F11480C0EFF01FF1EFF040
:101680009FD6064C696E6B3A2000F11480C0004072
:10169000EFF0BFEFEFF03FD507466C6167733A207C
:1016A000F11480C04040EFF05FEEEFF0DFD306436F
:1016B0006F64653A2000F11480C02104EFF0DFE58B
:1016C000EFF0BFECEFF03FD2064E616D653A2000BF
:1016D000F11480C02104EFF09FDCEFF0DFD0010AAD
:1016E000EF104009A28780409104BDDF8040910443
:1016F00082401101828000003417000000000000C9
:1017000006756E7573656400711106C0EF003028B0
:10171000EF00F049A2878040910499E3C16731A0AE
:10172000EF003029A28780409104338487408240B3
:10173000110182804C1700000000000003682E7326
:10174000970700009387A7E405A80000641700002E
:1017500000000000022E7300972700009387A71A4D
:1017600021A80000181800000000000003752E7367
:101770009727000093870718311106C82AC62EC480
:1017800032C236C03E85EFF01FC609537461636BE9
:101790003A205B203707032031171443A9471CC3A5
:1017A000B70502209385C526858D63CF0502898103
:1017B000F11480C02E84EF20C014EFF0DFC2025D70
:1017C000200037070320311714C363CF050089CDEC
:1017D0003706022013068626F11480C00042E70077
:1017E00005007116FD15EDF9EFF0FFBF0620544F0F
:1017F000533A2000F11480C02284E7000500EFF086
:101800009FBE04202A3E0A00C2403245A24512462D
:101810008246510182800000301800000000000064
:1018200005746F6B656EF11480C01304000201A88B
:101830000C19000000000000057061727365411111
:1018400006C62AC42EC232C0EFF05F97A285884038
:10185000C040A104EFF0DF8E1040804091043307B8
:10186000C50093070002631EF400638AC502B30734
:10187000C50083C707006396870005063307C500C8
:10188000EDB7638EC500B307C50083C70700050623
:10189000E39987FE3304C500198C7D1421A033041D
:1018A000C500198CF11498C0EFF09F8910C08040DA
:1018B0009104B24022459245024641018280611165
:1018C00006C22AC0228580409104856793870780DD
:1018D000E18F99C385673E94F11480C0FD777D8CBC
:1018E0001364747BF11480C02A84EF0070155204D5
:1018F000B7870700938777465D8CF11480C02A84F0
:1019000011049240024521016F009013501900000C
:101910002000000005646F65733EF11480C0B72796
:101920000000678487928280711106C0F11480C024
:1019300037040220710400402104937724003E9470
:10194000EFF0FFF7EF00C0731101824011018280B8
:101950008419000000000000073C6275696C647324
:10196000711106C0EF007035EF00004EEF00201639
:10197000EF00700AF11480C02144EF00D0168240BD
:1019800011018280B019000000000000066372653A
:1019900061746500711106C0EFF09FFCF11480C006
:1019A000B72700006784879282401101828000007F
:1019B000A81A000000000000107265676973746562
:1019C000726C69746572616C2C0019E06F20A0065E
:1019D000611106C22AC022858040910493070080CD
:1019E0003377F4006303F70021E381573377F40082
:1019F0006303F70005E39377F4018A071357F401B3
:101A00003207116405045D8C598C1E05498CEF006A
:101A1000F00671A052049167CD0713177500D98F96
:101A20005D8CEF00100AA5A8856793870780E18F7A
:101A300099C3FD773D8C89476308F5028177337739
:101A4000F4006303F7000DE3F11480C02984856777
:101A50009387C7077D8C996785075D8C1317750081
:101A6000598CEF00B00121A8F11480C0FD777D8C66
:101A70001364740313177500598CEF00900452041B
:101A800001E48040910421A89167CD0713177500E8
:101A9000D98F1317F500D98F5D8CEF00900292401B
:101AA0000245210182800000DC1A000000000000D5
:101AB000086C69746572616C2C00711106C0EF00CE
:101AC0000001F11480C0214482401101FDBDF114D8
:101AD00080C017F4FFFF1304A48269A8641B0000F0
:101AE000000000000563616C6C2C711106C0F114DC
:101AF00080C0EF00C069EFE09FBAEF10C020A2875E
:101B00008040910481CB9104896785075D8C824078
:101B10001101ADA7EF10E012A2878040910481CBA4
:101B200091049307F00E5D8C8240110159AF804003
:101B30009104856793870780E18F99C385673E94F9
:101B4000F11480C0FD777D8C1364747BEF006077A7
:101B50005204B78707009387770E5D8C824011018E
:101B60008DA70000001C00000000000007696E6CDB
:101B7000696E652C711106C0835704000567130751
:101B800017176399E7008357240031671907639398
:101B9000E700110483570400116713072708639FA8
:101BA000E70083572400130710116399E700835758
:101BB0004400216713072708638FE7028357040057
:101BC0002167130727086388E7028357040013F788
:101BD000370075176319E000F11480C00354040046
:101BE000EF00C0690904F11480C003540400EF0041
:101BF000E068090451B7804091048240110182805D
:101C00003C1C0000000000000E736B697064656688
:101C1000696E6974696F6E008357040013F73700AB
:101C200075176309E0000904216713072708638516
:101C3000E700DDB71104CDB782800000BC1C0000B6
:101C40000000000007737472696E672C311106C8BA
:101C50002AC62EC432C236C01375F40F8C409104CC
:101C6000EF004005EF00A00211C9F11480C003C4C9
:101C70000500EF00C0017D158505FDB7EF004002AE
:101C8000C2403245A2451246824651018280331439
:101C9000C400C18E804091042106C147631EF60036
:101CA00011CA711106C0F11480C03684EF00005DC6
:101CB000824011010146814682800000CC1C000058
:101CC00050000000035B275D39A00000081D0000E4
:101CD000000000000127511106C42AC22EC0EFF0F7
:101CE0009FB48840A285EF00102EA2878040910407
:101CF00019E4F11480C088C02E846F10E057A24010
:101D00001245824531018280581D000030000000DC
:101D100008706F7374706F6E6500711106C0EFF01C
:101D20009FFB13F707010DE713F7070211CBEFF045
:101D3000DFD8F11480C0170400001304E4E309A8FD
:101D4000EFF0BFD7F11480C017040000130424DAA9
:101D50008240110159BB0000801D000030000000CE
:101D6000046578697400711106C0F11480C03744AD
:101D7000110113042408EF00C0548240110101A88E
:101D80009C1D000000000000047265742C00F1141A
:101D900080C0216413042408D5A10000BC1D0000EC
:101DA000300000000772656375727365F11480C0BE
:101DB00037040220710400400DBB0000DC1D000050
:101DC00081000000057374617465F11480C03704EC
:101DD0000320130484F9828000000000FC1D000031
:101DE00081000000042873702900F11480C03704BA
:101DF0000320130444F98280000000000C1E000040
:101E000000000000015DFD5701A80000241E000035
:101E100010000000015B814737070320130787F993
:101E20001CC38280581E000000000000013A71119E
:101E300006C037070320130747F904C3EF00E06724
:101E4000824011018547C9BFF11480C0371406C014
:101E500013041417BDA10000B81E000030040000D8
:101E6000013B711106C037070320130747F91C43D4
:101E700063819702EFF02FD71520537461636B20B5
:101E80006E6F742062616C616E6365642E0A6F1000
:101E9000805437070320130787F9184385476315D4
:101EA000F700EFF0DFEE19A0EFF0FFEBEF00401DC1
:101EB000824011018DB70000D41E00000000000018
:101EC0000765786563757465A287804091046780B3
:101ED00007000000EC1E00001000000009696D6D95
:101EE000656469617465C14735A20000041F000084
:101EF0005000000006696E6C696E65009307000271
:101F000011AA00001C1F000050000000076E6F6641
:101F100072616D6593070040F5A80000381F00004E
:101F2000100000000B636F6D70696C656F6E6C79EB
:101F300093070003C5A00000541F000050000000DC
:101F40000A302D666F6C6461626C65009307000453
:101F5000D1A00000701F0000500000000A312D6663
:101F60006F6C6461626C65009307100465A00000EB
:101F70008C1F0000500000000A322D666F6C6461F7
:101F8000626C65009307200471A00000A81F000088
:101F9000500000000A332D666F6C6461626C65004E
:101FA0009307300485A80000C41F00005000000003
:101FB0000A342D666F6C6461626C6500930740049F
:101FC00091A80000E01F0000500000000A352D66B7
:101FD0006F6C6461626C65009307500425A8000073
:101FE000FC1F0000500000000A362D666F6C646113
:101FF000626C65009307600431A800001C2000009B
:10200000500000000A372D666F6C6461626C6500D9
:1020100093077004F11480C03E84F1A848200000AA
:102020000000000008636F6E7374616E74007111BC
:1020300006C0EF008048EFF05FA8EFF05FD5EFF04B
:10204000FFF0824011012DA8702000000000000068
:102050000932636F6E7374616E74711106C0EF00A4
:10206000C045A28780409CC0EFF03FA5E9B70000C3
:10207000E42000000000000006736D7564676500D1
:10208000711106C0EF002019EF006032A287804076
:102090009104A9E7EF00A00F8327C4FF1307F0FF07
:1020A000804091046397E700F11480C00144EF0081
:1020B0004021F11480C037040220130404020040C0
:1020C000F11480C037040220210400401104EFE025
:1020D0006F8BEFE0AF92824011018280F11480C0DB
:1020E000014405A860210000000000000873657429
:1020F000666C616773003757EA051307E71D6318BD
:102100008700172400001304A47E6FF08FB47111B0
:1021100006C0EF00C029A2878040910489EF3707ED
:102120000220130707021C43C18F1CC38040910487
:1021300082401101828037070220210718435C4347
:1021400071112AC07D556393A700A287C18F0245F4
:1021500011015CC380409104824011018280000023
:10216000802100004100000007616C69676E6564B2
:10217000937714003E94937724003E94828000006D
:102180009C21000000000000046865726500F114E5
:1021900080C037040220004082800000C02100007F
:1021A000000000000D666C6173687661722D6865D1
:1021B0007265F11480C0370402204104004082801F
:1021C000DC210000000000000C61646472696E662E
:1021D0006C6173683F000147C16739A8082200009D
:1021E000000000000A61646472696E72616D3F00F4
:1021F00037070220B70703206366E4006374F40026
:102200007D54828001448280702200000000000022
:1022100005616C69676E711106C0EFF05FF7937727
:1022200014003E943707022000C3098809C40544FE
:10223000EF00C00419A08040910482401101828007
:10224000711106C09C40E114C0C09CC0EF00800129
:10225000A28780409CC04180A28780409CC0090426
:1022600082401101711106C0F11480C01DA0000050
:10227000B82200000000000002682C00711106C0A6
:10228000EFF0FFF0F11480C0F11480C00944EF00BA
:102290008005EFF05FF4A2878040910481C7EFD002
:1022A0003FFA01A8A28780409104239087008040D4
:1022B0009104824011018280D822000000000000B9
:1022C000012C711106C0F11480C0EFF03FFB41807A
:1022D0008240110165B70000582300000000000093
:1022E00005616C6C6F74611106C22AC02285804042
:1022F0009104EF00C00BA2878040910495E337075B
:1023000002201C43AA97416563EFA702EFF0AF8D4F
:102310000B466C6173682066756C6C0A6F10A00BBD
:10232000EFF03FE9370702201C43AA9763EB8700D1
:10233000EFF06F8B0952616D2066756C6C0A6F103F
:102340008009804091041CC3924002452101828093
:10235000F11480C0114441BF982300000000000028
:1023600009666F7267657472616D711106C0EF0066
:10237000C00637070220B7070220938747531CC3C4
:1023800037070220210797E7FFFF938727D31CC356
:102390008240110182800000C42300000000000080
:1023A0000D636F6D70696C65746F72616D3F711153
:1023B00006C0EFF0DFDDEFF01FE21344F4FF8240D0
:1023C0001101828040240000000000000C636F6D4A
:1023D00070696C65746F72616D00711106C0EFF009
:1023E0001FFDA28780409104C1E3370702205C43B0
:1023F000184B63E6E702EFE01FFF23205661726986
:1024000061626C657320636F6C6C696465207769C9
:1024100074682064696374696F6E6172790AF1147B
:1024200080C03704022018405C4058C01CC01844CB
:102430005C4458C41CC40144824011016DB50000C5
:1024400070240000000000000E636F6D70696C6501
:10245000746F666C61736800711106C0EFF03FF530
:10246000A28780409104C5FF824011018280000054
:10247000902400004000000008286C6174657374AB
:102480002900F11480C0370402202104828000005A
:10249000A824000040000000042864702900F11402
:1024A00080C0370402208280BC25000000000000AC
:1024B00008286372656174652900711106C0EFF028
:1024C0008FB605E0EFE03FF2152043726561746559
:1024D000206E65656473206E616D6520210A6F0052
:1024E000906F9C40E114C0C09CC0EF00C02D8040A4
:1024F0009104A2878040910495C39C40E114C0C020
:102500009CC0EFE05FEE095265646566696E652008
:10251000EFE0BFFAEFE03FED022E2000EFF0BFCF7B
:10252000EFF0FFE8A28780409104B1E7370702206F
:102530001307070281471CC3EFF07FC5F11480C069
:102540002144EFF05FDAEFD09FE6EFF02FF0370590
:10255000022021050C4190419306F0FF6319D6003B
:10256000F11480C0F11480C02E84EFD0BFC100C12F
:102570008040910405A8EFF09FC1F11480C037049A
:10258000022021040040EFF0DFD3370702202107AB
:1025900000C380409104F11480C07D54EFF07FD2DD
:1025A000EFF0CFEAEFF0BFBE37070220710700C39C
:1025B000804091048240110182800000D8250000F3
:1025C00000000000087661726961626C6500F114B8
:1025D00080C005440DA80000F425000000000000A4
:1025E00009327661726961626C65F11480C00944D8
:1025F00019A800005026000000000000096E766156
:10260000726961626C65511106C42AC22EC0EFF076
:10261000DFEAEFF0DFD9A28780409104D5EB3D8857
:10262000711122C00A04EF000007EFF04FF6228577
:102630008040910419C580C19105EFF09FC87115C4
:102640007DF9F11480C0024411011364040889A0CB
:102650002027000000000000076275666665723A78
:10266000511106C42AC22EC0EFF09FB0EFF0FFE474
:10267000EFF0FFD3A28780409104B5E7EF00A001FF
:10268000EFF0EFF0EFF0FFC3F11480C0130400147B
:10269000EFF07FA69DA03705022041050C41818DFA
:1026A000370702201307475363DEE500EFE0BFD38F
:1026B0000F4E6F7420656E6F7567682052414D0A2A
:1026C0006F0070510CC1F11480C02E846FF0EFBE0A
:1026D000EF00400322858040910411C9EFF07FBED6
:1026E0007D156DFD29A0EF00E001EFF0DFBFF114D3
:1026F00080C013040008EFF01FA0A24012458245DD
:102700003101BDBA711106C0EFF0FFB0EFF02FBC80
:10271000F11480C02164130474468240110155B63F
:102720005C270000000000000F64696374696F6E2D
:102730006172797374617274711106C0EFF03FC7F2
:102740008240110111E417E4FFFF130424978280F3
:1027500037040220210400408280000094270000FA
:10276000000000000E64696374696F6E6172796EB7
:10277000657874009307F0FF1840E38CE716930721
:10278000F00F03478700E386E7160040F11480C08E
:1027900001448280B82700008100000009686F6F43
:1027A0006B2D66696E64F11480C037040320130436
:1027B00004F98280E4270000D42700000000000014
:1027C0000466696E6400B7070320938707F99C438A
:1027D0006780070070280000000000000628666976
:1027E0006E642900411106C62AC42EC232C081453A
:1027F0000146611122C0804022C2C040A104EFF016
:10280000BFF34840FD576384A704F11480C021043E
:10281000EFE07FCEE114C0C0124480C00244EFE07C
:102820007FA0A287804091049DC3F11480C0210441
:10283000EFE09FCEA285804091042A86F11480C0EB
:102840002E84EFF05F99A2878040910499C7EFF042
:102850007FF2A28780409104CDD72E84F11480C0EE
:1028600032842101B24022459245024641018280D4
:102870008428000020000000016BF11480C0224475
:10288000828000009828000020000000016AF114F6
:1028900080C0024482800000AC28000020000000BC
:1028A0000169F11480C00E848280000018290000A4
:1028B00030000000056C65617665511106C42AC2BE
:1028C0002EC03705022061050C412687F1141C43F8
:1028D000232EF7FE1107E31CB7FE2687F1141C43D5
:1028E000232EF7FE1107E31CB7FEEFF05F8AEFF02F
:1028F0003FA6228780409104F11598C1F1159547B4
:102900009CC10CC183A7C5FF850723AEF5FEA2407D
:1029100012458245310182803029000020000000EC
:102920000428646F2900611112C20EC08280000069
:10293000482900002000000006756E6C6F6F700063
:102940008241124221018280AC2900003000000047
:10295000052B6C6F6F708D476311F44A80409104B2
:10296000611106C22AC0F11480C0170400001304CC
:102970006401EFF08F97378507001305350695A0A2
:10298000634C040033874140A29180409104B38797
:102990004140B3B7E700828033874140A291804035
:1029A0009104B3874140B337F7008280282A0000A2
:1029B00030000000046C6F6F70008D47631FF4429D
:1029C00080409104611106C22AC0F11480C037848E
:1029D000110013043419EFF0DF8E37954100130511
:1029E0003506EFF0CFFAEFD09FCBEF00C022498C35
:1029F000EFF03F8D22858040910409C5EF00203B18
:102A00007D15E5BFF11480C017040000130484F3A2
:102A1000EFF04F9637070220610700C38040910412
:102A20009240024521018280842A0000300000008B
:102A300002646F00711106C0EF00800237070220A8
:102A40006107F11480C00043F11480C0014404C345
:102A5000EFF0EFF3F11480C00D4482401101828049
:102A6000F11480C0170400001304C4006FF08F90AD
:102A7000611112C20EC0A28103A20400C040A104D1
:102A800082800000D42A000030000000033F646F01
:102A9000711106C0EFF0DFFCF11480C037844140B3
:102AA0001304347BEFF0FF81370702206107F11434
:102AB00080C00043EFF0AFEDEFF09F89F11480C0CC
:102AC0000944F11480C0054437070220610704C39C
:102AD00041B70000F02A0000300000000463617379
:102AE0006500F11480C00144F11480C0214482804B
:102AF000182B000030000000033F6F66A147631EE3
:102B0000F42E80409104711106C0711122C08040E2
:102B10009104EF00203389A0802B000030000000DA
:102B2000026F6600A147631AF42C80409104711172
:102B300006C0711122C080409104F11480C01704B6
:102B4000000013044403EFF0EF82EFF04FE4EFF0E6
:102B50003F80F11480C00944EF006023F11480C06D
:102B6000024411010504F11480C025448240110182
:102B70008280A28780409104818F93B71700828062
:102B8000BC2B00003000000005656E646F66A54731
:102B90006315F42680409104711106C0711122C0A2
:102BA00080409104EF002028F11480C002441101FC
:102BB000F11480C021448240110182802C2C00003D
:102BC0003000000007656E6463617365A14763169A
:102BD000F42280409104611106C22AC022858040FF
:102BE0009104EF00C01A09C5EF00601C7D15E5BF18
:102BF0009240024521018280EFE0EFFE0D4A756DA3
:102C00007020746F6F206661720AF1A7711106C09F
:102C1000EF00200329A0711106C0EF00C005A287B4
:102C200080409104F1DB824011018280602C000021
:102C3000410000000C756A2D656E636F64696E67F4
:102C40003F00B707F8FF3377F4006304F700631E13
:102C5000074A711106C0EF00C0038240110151A95B
:102C6000F02C0000410000000C73622D656E636F54
:102C700064696E673F00FD773377F4006304F70003
:102C800063150748711106C0EF00A00382401101CF
:102C90008DA19357C40093F7F70F1397C70093576D
:102CA000B400858BD2075D8F9357140093F7F73FDD
:102CB000D6075D8F93574401858BFE073364F70079
:102CC00082809357B400858B139777009357140035
:102CD000BD8BA2075D8F9357540093F7F703E60768
:102CE0005D8F9357C400858BFE073364F7008280A5
:102CF000A02D0000410000000C636A2D656E636F1B
:102D000064696E673F00930700803377F4006304C3
:102D1000F700631C073E711106C0EF00A00082405F
:102D20001101C1AE93575400858B13972700935719
:102D300014009D8B8E075D8F93577400858B9A07C7
:102D40005D8F93576400858B9E075D8F9357A4001A
:102D5000858BA2075D8F935784008D8BA6075D8FAF
:102D600093574400858BAE075D8F9357B400858BD6
:102D7000B2073364F7008280711106C0F11480C07D
:102D800021641304247AEFF06FCF82401101F11413
:102D900080C017D4FFFF130404586FE0BFDD0000AC
:102DA000182E000030000000047468656E00711178
:102DB00006C0A287804091041547639BE700EFF0AF
:102DC0000FBD9C401D8CEFF07FE41364F40639A81E
:102DD00009476394E702EFF08FBB9C401D8CEFF036
:102DE0009FE3B7870700938737065D8CA2878040F3
:102DF0009CC0824011016FF0AFC4EFE0CFDE1753EB
:102E000074727563747572657320646F6E277420B5
:102E10006D617463680AC1A3382E000030000000A1
:102E200004656C736500711106C0EF00C003EF000C
:102E3000D04182401101A5BF582E00003000000093
:102E400002696600711106C0EFF01FF3EFF02FB4B6
:102E5000F11480C0094439A8802E00003000000021
:102E6000056168656164711106C0EFF04FB2F1143D
:102E700080C01544EFF0CFCD824011018280000068
:102E8000A02E0000300000000672657065617400BD
:102E9000711106C0EF0060078240110109BF0000F8
:102EA000C02E000030000000057768696C65711164
:102EB00006C0EFF03FF9824011016F0010390000A9
:102EC000FC2E00003000000005756E74696C7111F5
:102ED00006C0A287804091040547E390E7F2EFF037
:102EE000BFE9EFF0CFAAEFD08FFBEFF0DFD2B787CB
:102EF0000700938737065D8C0DA80000342F000073
:102F00003000000005616761696E711106C0A2871B
:102F1000804091040547E392E7EEEFF04FA7EFD032
:102F20000FF8EFF0BFCE1364F406824011016FF08A
:102F30004FB90000582F000030000000056265679F
:102F4000696E711106C0EFF08FA4F11480C00544C2
:102F50008240110182800000802F00006206000084
:102F600003616E649C4091047D8C828037770400FD
:102F700013073741B777F400938737436FD0AFED2E
:102F8000A02F000062060000036269639C40910468
:102F90001344F4FF7D8C82801344F4FFC1BF000012
:102FA000C82F000062060000026F72009C4091046E
:102FB0005D8C82803767040013073741B767F400E0
:102FC000938737436FD02FE9F02F0000620600008F
:102FD00003786F729C4091043D8C828037470400D7
:102FE00013073741B747F400938737436FD0AFE6F5
:102FF000143000004100000003636C7A9307000264
:1030000019C481476345040006048507E5BF3E8473
:10301000828000002C3000006104000003726F7297
:103020009317F40105805D8C82800000443000001D
:103030006104000003726F6C9357F40106045D8C09
:103040008280000068300000620600000761727331
:10305000686966749C40910433D487408280B75776
:10306000044093873741A1A08C3000006206000025
:1030700006727368696674009C40910433D48700BB
:103080008280B75704009387374115A0B8300000FD
:1030900062060000066C7368696674009C409104C7
:1030A000339487008280B7170400938737417D8867
:1030B00052045D8C6FF0EFA0CC3000006104000082
:1030C000036E6F741344F4FF82800000E43000004C
:1030D0006104000006696E76657274001344F4FFA3
:1030E00082800000FC3000006004000004747275EF
:1030F0006500F11480C07D5482800000143100000E
:10310000600400000566616C7365F11480C00144C1
:10311000828000007C3100000000000008657661BC
:103120006C7561746500711106C0EFE02F89A2878C
:103130009840C040A10461113AC23EC03707032045
:10314000130747FA1C4371113EC081471CC3EFE0CF
:103150008F84EF00800637070320130747FA824762
:1031600011011CC3824712472101E114C0C098C05D
:103170003E84824011016FE00F820000A831000000
:10318000810000000E686F6F6B2D696E7465727040
:1031900072657400F11480C0370403201304C4F86E
:1031A0008280DC3100000000C83100000000000017
:1031B00009696E74657270726574B707032093872E
:1031C000C7F89C4367800700A4330000000000009C
:1031D0000B28696E7465727072657429711106C06E
:1031E000370502201305C526637E9500EFE0AF9FEB
:1031F00010537461636B20756E646572666C6F77D3
:103200000A00D1AA370502201305C506636D950093
:10321000EFE06F9D0F537461636B206F766572668C
:103220006C6F770A4DAA37070220510783230700E6
:1032300063950300A68323207700EFE0CFDE11E43F
:10324000C040A1048240110182809C40E114C0C0B2
:103250009CC0EFF04FD7A2859040C040A1040DEA7A
:103260008840A285EF0080252286804091042DFAB7
:10327000E114C0C088C02E84EFE02FA4EFE0AF9629
:103280000C206E6F7420666F756E642E0A00A1A20A
:10329000B7060320938686F99442A1E637070220F9
:1032A000510781432320770093070003B3F6F5000D
:1032B0006391F602EFE06FA0EFE0EF9212206973E6
:1032C00020636F6D70696C652D6F6E6C792E0A00CE
:1032D00019A2C040A104F11480C03284EFE0DFBE27
:1032E00001B7C040A10413F5050819E9B38693405E
:1032F000898213F5050419C913F5F50063E8A600E2
:10330000F11480C03284EFE03FBCD9BD13B5160084
:10331000631DA00013F5052009C9F11480C0328493
:10332000EFE09F8FEFE05FBA65BDEF006004370705
:103330000320130787F9184385476319F70013F72C
:10334000054009E7EFE05FB0EFE0FFABF11480C0AC
:10335000328413F6050101C6EFE01FB751B513F62D
:10336000050201C6EFE01F81A5BDEFE00FF88DBD9E
:10337000711106C091CEFD16F11480C03684EFD0D5
:10338000CF84EFE08FF3E5FA9384C3FF804091048C
:103390003707022051078143232077008240110123
:1033A00082800000C83300008100000009686F6F50
:1033B0006B2D71756974F11480C0370403201304F8
:1033C00084F882804434000034340000000000009F
:1033D000047175697400370102201301C146B704F6
:1033E00002209384C426EFC01FD83707032031176B
:1033F000A9471CC337070320130787F981471CC35C
:103400003707022051071CC337070320130747FA69
:103410001CC3370703201307C7F91CC3B7070220D3
:103420009387C7465CC3B7070320938787F89C43FD
:1034300067800700583400000000000006287175FE
:1034400069742900EFD07FDAEFF03FD7EFD0BFF9F2
:1034500005206F6B2E0AFDB7AC34000000000000A1
:10346000056469676974130404FD63640402A94771
:103470006363F4026514636EF40093074002636CA7
:10348000F4000114A9476366F400930740026364E3
:10349000F40001448280B7070320B1179C43E37A0C
:1034A000F4FEF11480C07D54828000005436000088
:1034B00000000000066E756D62657200111106CC89
:1034C00016CA1AC82AC62EC432C236C0B70703208D
:1034D000B1179C4371113EC0A285804091042285A2
:1034E00005448546814201438D47639FF50093075C
:1034F0007002034705006319F700034725006315B1
:10350000F7008342150055A8CDC9034605000505FF
:10351000FD159307D0026314F600FD56F5B7930727
:1035200030026318F600A9473706032031161CC283
:10353000E1BF930740026318F600C1473706032036
:1035400031161CC2D1B7930750026318F6008947A1
:103550003706032031161CC245BF9307E0026314EF
:10356000F600094455B79307C0026300F60AF11448
:1035700080C03284EFF03FEFA28780409104B5C74E
:10358000E114C0C023A054001A84F11480C0370491
:10359000032031140040F11480C00144EF00406F5B
:1035A000EFC05FDFF11480C00144EF00606A228346
:1035B00083A20400C040A10481BF634ED000E11487
:1035C000C0C023A054001A84EF004063228383A26A
:1035D0000400C040A104F11423A0540085476305F2
:1035E000F400F11423A0640011A0014482471101EA
:1035F0003707032031171CC3E240D2424243324511
:10360000A245124682467101828016838142094496
:10361000CDD5FD15B307B50003C607009307E0023B
:10362000E308F6FEF11480C03284EFF0DFE3A287F6
:1036300080409104DDDBF11423A05400F11480C01C
:103640003704032031140040EF005009A282C0402B
:10365000A1047DBF8436000000000000062E6469CE
:1036600067697400A9476375F4001304040382803A
:10367000930740026375F4001304740382801304FB
:1036800030028280D83600000000000004686F6CB1
:10369000640071112AC03705022013054502034753
:1036A0000500930770046374F70205072300E50023
:1036B0003A958547630BF7007D1583470500A30006
:1036C000F5007D178547E319F7FE2300850080404C
:1036D00091040245110182801437000000000000AF
:1036E00005686F6C643C71112AC037050220130510
:1036F000450203470500930770046378F700050748
:103700002300E5003A95230085008040910402459E
:1037100011018280343700000000000004736967E3
:103720006E00634504008040910482801304D0023F
:103730008DB70000543700000000000002233E0057
:10374000B70702209387470203C4070085079CC080
:10375000828000007C3700000000000003662353D5
:10376000611106C22AC013050002EF00E0017D15B9
:103770006DFD92400245210182800000A8370000C3
:103780000000000002662300711106C0F11480C021
:103790003704032031140040EF00801BEFF09FEC52
:1037A0008240110189B70000C83700000000000006
:1037B00002235300711106C0EF00A00175FC9C406C
:1037C000E5FF824011018280003800000000000007
:1037D0000123711106C0F11480C037040320311495
:1037E0000040F11480C00144EF00C075EF00E025F7
:1037F00080409104EFF01FE78240110159BD0000A5
:103800001C38000000000000023C230037070220A3
:103810001307470281472300F700828034380000F5
:103820000000000002662E00F11480C013040002A4
:1038300001A80000903800000000000003662E6E12
:10384000611106C22AC0228580409104EFC03FB3B7
:10385000EF006039F11480C00144EFF03FFBEFF05E
:103860007FF5804091041304C002EFF0DFE709C543
:10387000EFF09FF17D156DFD02451101804091042F
:10388000EFF03FEAF11480C0F11480C0A1A0000065
:10389000AC380000000000000375642E711106C0F2
:1038A000EFF0DFF6EFF01FF135A00000E438000084
:1038B0000000000002642E00711106C0EFC03FAC92
:1038C000EF006032EFF09FF4EFF0DFEEEFC09FAC5F
:1038D000EFF03FE5EFF0DFE6EFD03FBE82401101B1
:1038E0006FD07F9EF83800000000000002752E00A7
:1038F000F11480C001445DB70C39000000000000E5
:10390000012EF11480C07D8445BF000044390000C1
:1039100062060000012A9C40910433848702828061
:10392000B707F40293873743711106C0F1149CC0A6
:10393000F11480C03D44EFE04F89824011016FE0F7
:103940005F980000603900006204000003756D2A72
:103950009C403387870298C033B48702828000007E
:103960007C39000062040000026D2A009C4033870D
:10397000870298C033948702828000009839000043
:1039800062040000066D756C687375009C409104BC
:1039900033A4870282800000B8390000620600006C
:1039A000012F9C40910433C487028280B747F40200
:1039B0009387374395BF0000D839000062060000A6
:1039C000036D6F649C40910433E487028280B76783
:1039D000F4029387374389BFF43900006204000082
:1039E00005752F6D6F649C4033F7870298C033D400
:1039F00087028280103A000062040000042F6D6F7D
:103A000064009C4033E7870298C033C487028280F9
:103A1000283A0000620400000432647570009C4083
:103A2000E114C0C09CC082803C3A000062040000E7
:103A3000053264726F70C040A10482805C3A00005D
:103A400044000000053273776170A287C040DCC07B
:103A50009C4098449CC498C082800000743A000046
:103A60006204000004326E6970009C40A1049CC096
:103A700082800000903A00004400000005326F761A
:103A80006572E114C0C09C489CC0C04482800000A4
:103A9000B43A00004400000005327475636B98402E
:103AA0009C44E11498C098C8D844D8C09CC4C0C4F1
:103AB00082800000D83A0000460000000432726F95
:103AC00074009C4098449CC49C4898C89CC0D840B2
:103AD000C0C0C044D8C48280FC3A00004600000048
:103AE00005322D726F7498409C4898C8984498C0CD
:103AF0009CC4D844C0C4C040D8C08280183B0000D9
:103B00002000000003323E72611122C0804022C2B8
:103B1000C040A10482800000343B0000200000006F
:103B20000332723EE114C0C0124480C0024421013D
:103B3000828000004C3B00002000000003327240F5
:103B4000E114C0C0124480C002448280603B000087
:103B50002000000006327264726F700021018280C2
:103B60007C3B0000420000000364322F9C4013178E
:103B7000F40105848583D98F9CC08280983B000026
:103B8000420000000364322A9C4013D7F701BE971D
:103B90002294598C9CC08280B83B000042000000F7
:103BA0000464736872009C401317F40105808583D8
:103BB000D98F9CC082800000D83B000042000000EA
:103BC000046473686C009C4013D7F701BE9722947D
:103BD000598C9CC082800000EC3B00004200000039
:103BE000046461627300634B04008280143C000033
:103BF0004200000007646E65676174659C4093C76E
:103C0000F7FF1344F4FF1387170098C0B337F7008A
:103C10003E948280443C00004400000002642D0079
:103C200071112AC09C4498403385E74088C433B55D
:103C3000E700DC4033848740098CA1040245110170
:103C400082800000703C00004400000002642B00F1
:103C500071112AC09C4498403385E70088C43335ED
:103C6000F500DC403E942A94A104024511018280B3
:103C7000843C00004100000003733E64F11480C0E6
:103C80007D848280A43C0000440000000375642A07
:103C9000711106C0EF00E001C040A1048240110193
:103CA00082800000103E0000440000000475646D36
:103CB0002A00011106CE16CC1ACA1EC82AC62EC466
:103CC00032C236C0F11480C0C040F11480C08048B8
:103CD000EFF01FC8A2858840C040A104F11480C045
:103CE0008040F11480C0C044EFF09FC6A28690408F
:103CF000C040A104F11480C08040F11480C080480D
:103D0000EFF01FC58147B302860033B3C20033868C
:103D1000F200B3335600B3677300B382060033B3C7
:103D2000D200B386F200B3B35600B367730080408D
:103D300091048147B382850033B3B200B385F200AA
:103D4000B3B35500B3677300B302060033B3C200C8
:103D50003386F200B3335600B3677300B3820600B4
:103D600033B3D200B386F200B3B35600B367730027
:103D700080409104F11480C0C040F11480C0C04460
:103D8000EFF01FBD8147B302860033B3C200338614
:103D9000F200B3335600B3677300B382060033B347
:103DA000D200B386F200B3B35600B367730080400D
:103DB00091048147B382850033B3B200B385F2002A
:103DC000B3B35500B3677300B302060033B3C20048
:103DD0003386F200B3335600B3677300B382060034
:103DE00033B3D200B386F200B3B35600B3677300A7
:103DF00080409104368490C0CCC088C4F240E24236
:103E00005243C2433245A245124682460561828032
:103E1000403E000043000000022A2F00711106C03E
:103E2000711122C080409104EFF05FB4F11480C0A2
:103E300002441101EF00200D9104824011018280A3
:103E40006C3E000043000000052A2F6D6F64711165
:103E500006C0711122C080409104EFF03FB1F1140F
:103E600080C0024411018240110171A89C3E0000F3
:103E70004300000003752A2F711106C0711122C082
:103E800080409104EFF0DFACF11480C002441101D6
:103E9000EF00C0049104824011018280CC3E0000FA
:103EA0004300000006752A2F6D6F6400711106C073
:103EB000711122C080409104EFF09FA9F11480C0DD
:103EC000024411018240110111A80000F83E0000D7
:103ED0004300000006756D2F6D6F6400711106C000
:103EE000F11480C00144EF00E0058040910491048A
:103EF0008240110182800000343F00004300000036
:103F0000056D2F6D6F64711106C0F11480C07D8442
:103F1000EF00200E804091049104824011018280C4
:103F200041112AC62EC432C236C08146D0408C44CC
:103F3000014515A0E43F0000440000000675642F11
:103F40006D6F640041112AC62EC432C236C081464C
:103F50000146CC40884431110EC812C616C41AC29C
:103F60001EC0228283A10400130400048606935716
:103F7000F601DD8E060693D7F5015D8E8605935713
:103F8000F501DD8D06056366D20063EA46026368CB
:103F900036028147B3023640333336003386F2406F
:103FA000B3B3F200B3677300B382464033B3460045
:103FB000B386F240B3B3F200B367730005057D1416
:103FC00055F42E8488C0D4C090C4C2413242A2426B
:103FD0001243824351013245A245124682464101B5
:103FE00082800000604000004400000005642F6DE6
:103FF0006F64711106C0635C0402EFF03FC0EFF024
:10400000DFA4635F0400EFF07FBFEFF01FA4EFF0C9
:104010007FF3EFF09FA3EFF07FBE8240110135B434
:10402000EFF0BFA2EFF01FF282401101C1BEEFF02E
:10403000DFA163510402EFF07FBCEFF01FA1EFF0AE
:104040007FF0EFF0BFBBEFF05FA0EFF03FBB82402F
:104050001101E5BAEFF07F9F82401101E5B5000044
:104060007C4000004400000002642F00711106C073
:10407000EFF03FF882401101CDBA0000D4400000BB
:104080004400000002662A00711106C06354040255
:10409000EFF0DFB6EFF07F9B63540402EFF01FB642
:1040A000EFF03FC1804091049C4091049CC082404D
:1040B00011018280EFF07F99E35404FEEFF01FB40A
:1040C000EFF03FBF804091049C4091049CC082402F
:1040D00011012DB6284100004400000002662F00A7
:1040E000711106C063530402EFF05FB1EFF0FF956A
:1040F00063530402EFF09FB0EFF03F95EFF05FE203
:10410000EFF0BF96824011018280EFF01F94E355DB
:1041100004FEEFF0BFAEEFF05F93EFF07FE0EFF063
:10412000FFAD8240110191B2444100000000000047
:10413000023221009C40D8401CC058C08044B104C9
:10414000828000005C41000000000000023240005C
:10415000F1145C409CC0004082800000944100004B
:10416000440000000364753C71112AC09C449840CF
:1041700033B5E700DC4033B7A700898FB3B78700BA
:1041800033E4E7007D141344F4FFB1040245110148
:1041900082800000B0410000440000000364753ECE
:1041A000711106C0EFF07F8A8240110175BF0000D7
:1041B000E04100004400000002643C00511106C4CC
:1041C0002AC22EC01355F441CC40FD85EFF0DFF933
:1041D000298C2D8CA240124582453101828000003D
:1041E000FC4100004400000002643E00711106C062
:1041F000EFF0BF8582401101D1B7000010420000EE
:10420000620400000364303C91047D8482800000DD
:104210002C420000420000000364303D9C409104A9
:104220005D8C1334140033048040828050420000BF
:104230004400000003643C3EDC403D8C9C409844BC
:10424000B98FB1045D8C133414007D14828000009A
:10425000744200004400000002643D00DC403D8CDC
:104260009C409844B98FB1045D8C1334140033041E
:1042700080408280C04200004300000007326C731F
:10428000686966741374F40371C8130704FE634904
:104290000700DC403394E700910423A004008280EF
:1042A000DC4033978700D8C013070002018FB3D7D3
:1042B000E7009840331487005D8C910482800000F1
:1042C000104300004300000007327273686966748F
:1042D0001374F40341C4130704FE634907009C40B0
:1042E000B3D7E70091049CC0014482809C4033D73F
:1042F000870098C013070002018FB397E700D840EA
:10430000335787005D8FD8C08040910482800000C1
:1043100064430000430000000832617273686966FC
:1043200074001374F4031DC8130704FE634A0700E6
:104330009C4013D4F741B3D7E74091049CC08280DE
:104340009C4033D7874098C013070002018FB39772
:10435000E700D840335787005D8FD8C08040910474
:1043600082800000B843000000000000046D6F76FA
:10437000650071112AC022879C40C040A10405CB72
:104380006307F40263ED87003A94BA970345F4FF9C
:10439000A38FA7FE7D14FD177D176DFB09A80345AC
:1043A00004002380A700050485077D176DFB80406E
:1043B0009104024511018280E043000000000000EA
:1043C0000466696C6C0022879C40C040A10491C7C0
:1043D0002300E4000504FD17E5FF8040910482807E
:1043E0006444000020060000014000408280B7279E
:1043F000040093873740611106C22AC03E857111BF
:1044000022C080409104FD16EFE09FF6F11480C0B9
:1044100002441101EFD0AFEB930700803377F40033
:104420006303F70011E7B787F0FFFD177D8D05A047
:10443000856793870780E18F99C385673E94F11460
:1044400080C0FD777D8C13647443EFD09FE7856750
:10445000FD17E18FD2073364F50092400245210138
:104460006FD03FE6144500002006000001219C406B
:104470001CC0C040A1048280372787001307370281
:10448000B727F70093873702611106C22AC0FD16CD
:1044900099E63A85EF008002EFE07F8F21A83E8504
:1044A000A28780409CC0F11480C03D44EFD0EFD182
:1044B000EF00C0009240024521018280711106C0C8
:1044C000930700803377F4006303F70011E7B787A1
:1044D000F0FFFD177D8D05A0856793870780E18F2D
:1044E00099C385673E94F11480C0FD777D8C136479
:1044F0007473EFD01FDD9377F4019E075D8D8567A0
:104500008117E18F9583E6073364F500824011013E
:104510006FD03FDB3045000000000000022B21007F
:104520009C401840BA971CC0C040A1048280000083
:104530004C450000200600000268400003540400BF
:104540008280B75704009387374075B570450000E7
:10455000200600000868407369676E6564000314F4
:1045600004008280B71704009387374069B50000C4
:104570009C45000020060000026821009C4023109A
:10458000F400C040A1048280371787001307370268
:10459000B717F70093873702C5BD0000BC45000080
:1045A0000000000003682B219C4003570400BA97C9
:1045B0002310F400C040A10482800000D845000010
:1045C0002006000002634000034404008280B747D5
:1045D00004009387374005B5FC4500002006000025
:1045E0000863407369676E65640003040400828099
:1045F000B707040093873740FDBB00002846000042
:1046000020060000026321009C402300F400C0400B
:10461000A10482803707870013073702B707F70026
:104620009387370295B5000048460000000000005F
:1046300003632B219C4003470400BA972300F40036
:10464000C040A10482800000644600000000000019
:104650000462697321009C401840D98F1CC0C0407F
:10466000A1048280844600000000000004626963A7
:1046700021009C4093C7F7FF1840F98F1CC0C04031
:10468000A1048280A04600000000000004786F7240
:1046900021009C401840B98F1CC0C040A1048280FA
:1046A000C0460000000000000462697440001C4025
:1046B000804091047D8C133414007D1482800000AE
:1046C000E0460000000000000568626973219C401C
:1046D00003570400D98F2310F400C040A104828046
:1046E00004470000000000000568626963219C40E7
:1046F00093C7F7FF03570400F98F2310F400C0405D
:10470000A104828024470000000000000568786F43
:1047100072219C4003570400B98F2310F400C0405D
:10472000A10482804447000000000000056862691F
:10473000744083570400804091047D8C133414002E
:104740007D148280644700000000000005636269F8
:1047500073219C4003470400D98F2300F400C0401C
:10476000A1048280884700000000000005636269A0
:1047700063219C4093C7F7FF03470400F98F230090
:10478000F400C040A1048280A8470000000000009F
:104790000563786F72219C4003470400B98F2300A2
:1047A000F400C040A1048280C8470000000000005F
:1047B00005636269744083470400804091047D8CE6
:1047C000133414007D14828000500000FFFFFFFFAF
:1047D000182D2D2D20466C6173682044696374691F
:1047E0006F6E617279202D2D2D0073600430EFB053
:1047F000BF8A37150040210593024004230055006D
:104800003715004029059302200823005500EFB01A
:104810001F8AEFC02FEF0145C165F1151306F0FFA8
:10482000B7C6F9F7938616F183A205006396D20006
:1048300090C1F115E3DAA5FE9302800873A002305F
:1048400097B2FFFF9382427C93E212007390523042
:10485000970200009382020173901234730020309B
:104860008140370102201301C1468141014281424A
:10487000014381431304A002B70402209384C42699
:10488000014581450146814601478147370702209E
:10489000B7070220938747531CC33707022021071D
:1048A00097C7FFFF938787811CC3F11480C017C48B
:1048B000FFFF1304A480B70303204C40FD56638A16
:1048C000D50893F60510ADC2711122C02104EFC0C6
:1048D000BFC4EFD06FB483560400035524004205D3
:1048E000C98EB383D34002441101A5A02F0100005B
:1048F0000000002033012024254424036718907908
:1049000000000000073631098AA04224A031B0031C
:10491000862094830100060008000018200A2E2734
:104920005F2D60285C2F293C93F605089DC2BD8948
:104930008A05B383B340F11480C02104EFC0DFBD0A
:10494000EFD08FADE114C0C023A074002E84EFF02F
:104950005FA2EFD03FE222858040910439DD370528
:104960000220310500C18040910437050220410535
:1049700023207500416595651306F0FF6307B500B8
:1049800071151441E38CC6FE1105B705022091058F
:1049900088C1EFB04FFDEFC01FA55B4D6563726925
:1049A00073702D5175696E74757320312E312E30F0
:1049B00020666F7220524953432D562033322049CE
:1049C0004D4143206279204D6174746869617320A0
:1049D0004B6F63682C20706F7274656420746F2055
:1049E00043483536782062792048616E73204261F1
:1049F0006965720D0A0A370102201301C146B70426
:104A000002209384C426EFB00FF637070320311736
:104A1000A9471CC337070320130787F981471CC325
:104A20003707022051071CC337070320130747FA33
:104A30001CC3370703201307C7F91CC3B70702209D
:104A40009387C7465CC3F11480C0170400001304A9
:104A50008402F11480C01144EFD0FFD6804091044D
:104A600009C4EFD06FC66FE01F9C804091046FE0D7
:104A70009F96696E69740100130000001300000026
:00000001FF
