:100000006F40E05E00000000000000006F00504103
:100010006F00904411BFF9F70000000000000000DD
:1000200000000000000000000000000000000000D0
:10003000000000006F00503B000000006F00503EC9
:10004000000000006F00D0366F0090366F00503611
:100050006F0010366F00904A6F0090356F0050436C
:100060006F0090466F00D0346F00904C6F0050349A
:100070006F0010346F00104F6F0090336F005033DB
:100080006F0010336F00D0326F0050516F0050324C
:100090006F0010326F00D0313715004093027005A9
:1000A000230055009302800A2300550082803715F3
:1000B0000040230005008280E0000000FFFFFFFFFA
:1000C0001D2D2D2D204D6563726973702D5175693D
:1000D0006E74757320312E312E31202D2D2D0000A0
:1000E00008010000810000000E686F6F6B2D696EC3
:1000F0006974666C61736800F11480C03704032072
:1001000071148280740E00002C0100008100000038
:100110000B686F6F6B2D666C61736821F11480C082
:1001200037040320611482807642000054010000ED
:10013000810000000F686F6F6B2D666C75736866C9
:100140006C617368F11480C03704032051148280FD
:10015000740E0000740100000000000009696E695F
:1001600074666C617368B7070320F1179C4367805E
:1001700007000000E80100000000000006666C6156
:1001800073682100937734008DC7EF1000241F6639
:100190006C61736821206E6565647320342D65760B
:1001A000656E206164647265737365732E0A6F30C7
:1001B000000D15676368E400B7070320E1179C434F
:1001C00067800700EF1060201943616E6E6F742026
:1001D000777269746520696E746F20636F72652031
:1001E000210A6F30C0090000080200000000000072
:1001F0000A666C757368666C61736800B7070320E4
:10020000D1179C4367800700300200008100000086
:100210000C686F6F6B2D68666C6173682100F11458
:1002200080C0370403204114828080430000000016
:10023000A0020000000000000768666C617368217E
:100240009377140085C7EF1040181D666C617368C2
:1002500021206E65656473206576656E2061646437
:100260007265737365732E0A6F306001156763687A
:10027000E400B7070320C1179C4367800700EF1015
:10028000C0141943616E6E6F7420777269746520B3
:10029000696E746F20636F726520210A6F20307E53
:1002A000B40200002004000003737040F11480C009
:1002B00026848280C802000020040000037370219D
:1002C000A284804091048280DC02000020000000B3
:1002D00003727040F11480C00A848280F002000032
:1002E00020000000037270212281804091048280EE
:1002F000040300006104000003647570F11480C001
:100300008280000018030000610400000464726F22
:10031000700080409104828030030000610400007E
:10032000043F6475700019C0F11480C08280000021
:100330004803000062040000047377617000A28724
:1003400080409CC0828000005803000062040000CE
:10035000036E6970910482807003000062040000E3
:10036000046F76657200F11480C0C0408280000086
:100370008803000062040000047475636B009C40F5
:10038000F114C0C09CC08280A003000043000000A4
:1003900003726F749C40D84080C0DCC03A84828075
:1003A000BC03000043000000042D726F74009C40E9
:1003B000D84098C0C0C03E8482800000D4030000B2
:1003C00020040000047069636B000A042694004056
:1003D00082800000F80300000000000005646570E2
:1003E0007468B70702209387C726858FF11480C0F1
:1003F00013D4274082800000200400000000000089
:100400000672646570746800B70702209387C74658
:10041000B3872740F11480C013D4274082800000A6
:100420003804000020000000023E7200711122C05A
:1004300080409104828000005004000020000000F1
:1004400002723E00F11480C002441101828000005B
:10045000640400002000000002724000F11480C01B
:10046000024482807804000020000000057264725B
:100470006F701101828000009004000020000000D5
:1004800005727069636B0A040A9400408280000060
:10049000A80400006104000002303D001334140081
:1004A0003304804082800000BC040000610400002E
:1004B00003303C3E133414007D148280CC040000D1
:1004C0006104000002303C007D848280E40400006E
:1004D00062040000023E3D009C40910433A487006A
:1004E0007D148280FC04000062040000023C3D0098
:1004F0009C4091043324F4007D1482801405000094
:1005000062040000013C9C40910433A48700330442
:10051000804082802C05000062040000013E9C4067
:1005200091043324F40033048040828044050000A9
:100530006204000003753E3D9C40910433B4870083
:100540007D1482805C0500006204000003753C3D60
:100550009C4091043334F4007D14828078050000BF
:100560006204000002753C009C40910433B4870093
:100570003304804082800000940500006204000083
:1005800002753E009C4091043334F40033048040F3
:1005900082800000B005000062040000023C3E00C2
:1005A0009C4091043D8C133414007D148280000023
:1005B000CC05000062040000013D9C4091043D8C8C
:1005C000133414003304804082800000E4050000EE
:1005D00062040000036D696E9C4091046343F40063
:1005E0003E848280FC05000062040000036D617897
:1005F0009C40910463C387003E84828018060000FB
:100600006204000004756D696E009C409104636390
:10061000F4003E8482800000340600006204000082
:1006200004756D6178009C40910463E387003E840B
:10063000828000009406000062060000012B9C40AE
:1006400091043E9482803707040013073741B707AF
:10065000F40093873743711106C061113AC23EC05E
:10066000930700803377F4006303F70011E7520427
:10067000924721015D8C11A8F11480C03D44EF1018
:10068000002EF11480C002442101824011016F103C
:1006900050370000B006000062060000012D9C40AB
:1006A00091043384874082801344F4FF050461BFC2
:1006B000D80600006206000003736C749C4091042D
:1006C00033A4870082803727040013073741B727F8
:1006D000F4009387374341B7040700006206000027
:1006E00004736C7475009C40910433B4870082805D
:1006F0003737040013073741B737F4009387374380
:1007000099BF0000140700006104000002312D00B1
:100710007D148280240700006104000002312B0058
:1007200005048280340700006104000002322D00BD
:1007300079148280440700006104000002322B001B
:100740000904828058070000610400000563656C9D
:100750006C2B11048280000070070000610400000F
:10076000066E656761746500330480408280000016
:1007700080070000610400000373687205808280B6
:1007800090070000610400000373686C0604828017
:10079000A00700006104000002322A002294828037
:1007A000B4070000610400000563656C6C730A0403
:1007B00082800000C40700006104000002322F00A4
:1007C00005848280DC07000061040000036162731D
:1007D0009357F4413E943D8C82800000F407000062
:1007E00061040000046576656E00937714003E9402
:1007F0008280000014080000810000000462617320
:100800006500F11480C037040320311482800A008F
:100810000000000028080000000000000662696E69
:1008200061727900894715A03C08000000000000B3
:1008300007646563696D616CA94701A854080000ED
:100840000000000003686578C147370703203117AF
:100850001CC3828074080000000000000565696EFA
:10086000743FF11480C073240030218813341400C5
:100870007D14828088080000200400000465696EF1
:1008800074007360043082809C0800002004000023
:100890000464696E7400737004308280B0080000D4
:1008A0002004000003776669730050108280000006
:1008B000E008000000000000086379636C6573368F
:1008C0003400F11480C0F32700C8732400C07327DC
:1008D00000C8E39AE7FEF11480C03E8482800000E5
:1008E000FC08000000000000066379636C6573007B
:1008F000F11480C0732400C082800000140900003D
:1009000000000000056D6570632173101434804091
:10091000910482802C09000000000000056D6570C4
:100920006340F11480C073241034828048090000B1
:1009300000000000076D636175736540F11480C0AD
:10094000732420348280000064090000000000004D
:10095000066D7476616C4000F11480C073243034ED
:10096000828000009409000000000000086D656DA1
:100970006661756C7400711106C0EF001025134D8F
:10098000656D6F7279206163636573732065727240
:100990006F7261A0E00900000000000013756E682E
:1009A000616E646C65642D6E6F6E766563746F72D4
:1009B000711106C0EF00702122556E68616E646C83
:1009C000656420496E7465727275707420286E6F4C
:1009D0006E2D766563746F72656429003DA8000012
:1009E0002C0A00000000000009756E68616E646CDE
:1009F0006564711106C0EF00501D1E556E68616E72
:100A0000646C656420496E74657272757074202818
:100A1000766563746F7265642900B128F32720340A
:100A200005677D17F98F824011018280040B000059
:100A300000000000056661756C74711106C0EF005E
:100A4000D01813556E68616E646C656420457863D8
:100A5000657074696F6E0520F327103403D70700A3
:100A600013F737007517890711E389077390173457
:100A7000824011018280711106C0EF00101509201B
:100A80006D63617573653A20553DEF00902DEF0061
:100A9000D013066D6570633A20006135EF00702C4D
:100AA000EF00B012076D7476616C3A207535EF0077
:100AB000502BEF00901102210A0082401101828028
:100AC0003AD63ED442D246D04ACE4ECC52CA56C86E
:100AD0005AC65EC462C266C083A00000E780000000
:100AE000824C124CA24B324BC24A524AE2497249E2
:100AF00082581258A2573257C25013014103730053
:100B000020300000500B0000810000000969727164
:100B10002D6661756C74F11480C0370403202114B4
:100B200082803A0A00000100130000001300000058
:100B30001300000013000000130000001300000069
:100B40001301C1FC06D8B7000320A11095BF000017
:100B5000880B0000810000000D6972712D6E6F6EB0
:100B6000766563746F72F11480C03704032011142A
:100B70008280B009000001001301C1FC06D8B70053
:100B80000320911035BF0000C00B00008100000061
:100B90000E6972712D636F6C6C656374696F6E00A2
:100BA000F11480C03704032001148280F209000090
:100BB0001301C1FC06D8B7000320811011B7000053
:100BC000F80B0000810000000B6972712D737973BE
:100BD0007469636BF11480C0370403201304C4FDEF
:100BE0008280F209000001001301C1FC06D8B700A1
:100BF00003209380C0FDE9B5300C000081000000A7
:100C00000C6972712D736F66747761726500F114EF
:100C100080C037040320130484FD8280F2090000A1
:100C20001301C1FC06D8B7000320938080FD49BDA5
:100C3000680C0000810000000C6972712D6D656DFB
:100C40006661756C7400F11480C0370403201304CE
:100C500044FD8280760900001301C1FC06D8B7006C
:100C60000320938040FDA9BDA00C0000810000007E
:100C70000A6972712D74696D65723100F11480C05A
:100C800037040320130404FD8280F20900000100F0
:100C90001301C1FC06D8B7000320938000FD0DB5F9
:100CA000D80C0000810000000A6972712D74696D12
:100CB00065723200F11480C0370403201304C4FCB1
:100CC0008280F209000001001301C1FC06D8B700C0
:100CD00003209380C0FCEDB30C0D000081000000E8
:100CE000096972712D7573627373F11480C03704D2
:100CF0000320130484FC8280F20900001301C1FC6C
:100D000006D8B7000320938080FC5DBB400D000037
:100D100081000000096972712D7573626873F114A6
:100D200080C037040320130444FC8280F2090000D1
:100D30001301C1FC06D8B7000320938040FC49B3DF
:100D4000740D000081000000086972712D687370D5
:100D50006900F11480C037040320130404FC82806E
:100D6000F20900001301C1FC06D8B70003209380EC
:100D700000FCB9B3AC0D0000810000000A6972717B
:100D80002D73657264657300F11480C0370403200D
:100D90001304C4FB8280F209000001001301C1FCAE
:100DA00006D8B70003209380C0FB19BBD00D00000C
:100DB0008100000009686F6F6B2D656D6974F11417
:100DC00080C037040320130484FB8280780F000066
:100DD000F40D00008100000008686F6F6B2D6B65DB
:100DE0007900F11480C037040320130444FB82808F
:100DF000B00F00001C0E0000810000000A686F6F39
:100E00006B2D656D69743F00F11480C037040320B9
:100E1000130404FB8280EA0F00000000400E000073
:100E20008100000009686F6F6B2D6B65793FF114CD
:100E300080C0370403201304C4FA82802410000009
:100E4000680E0000810000000A686F6F6B2D7061F2
:100E500075736500F11480C037040320130484FA0D
:100E60008280740E00000000780E00000000000078
:100E7000036E6F7082800000940E0000000000007E
:100E800004656D697400B7070320938787FB9C4353
:100E900067800700B00E000000000000036B65795A
:100EA000B7070320938747FB9C4367800700000038
:100EB000CC0E00000000000005656D69743FB707A7
:100EC0000320938707FB9C4367800700E80E000020
:100ED00000000000046B65793F00B707032093878B
:100EE000C7FA9C4367800700640F00000000000001
:100EF000057061757365B7070320938787FA9C4374
:100F00006780070037A5070013050512B7172707E5
:100F1000938707E0B3D7A7021545B387A702898750
:100F20003737004085462307D74095072945B3D773
:100F3000A7022316F740930770FC2301F7408D4763
:100F4000A301F74093070004A300F740B717004040
:100F5000F84F13670718F8CFB84313670710B8C3E3
:100F6000828000009C0F0000000000000B7365727F
:100F700069616C2D656D6974711106C0BD20A28711
:100F800080409104E5DF3737004013078740230096
:100F9000870080409104824011018280D40F0000BC
:100FA000000000000A73657269616C2D6B65790041
:100FB000711106C08528A28780409104E5DF37378C
:100FC000004013078740F11480C0034407008240AB
:100FD0001101828010100000000000000C73657287
:100FE00069616C2D656D69743F00711106C0213710
:100FF000F11480C0373400401304B44003040400EB
:101000001D47333487007D14824011018280000027
:1010100048100000000000000B73657269616C2DC0
:101020006B65793F711106C0F935F11480C0373412
:1010300000401304A44003040400133414007D147E
:10104000824011018280000070100000000000004A
:10105000057265736574EFF02F8437170040190728
:10106000930710042300F700EFF06F846F302058CF
:101070000C110000000000000661636365707400DD
:10108000411106C62AC42EC232C08C4091040146CA
:10109000013D2285804091049307F0076300F50429
:1010A00093070002636DF500E37486FEF11480C0BF
:1010B0002A84D13B2380A50085050506D1BFA5471D
:1010C0006315F50013050002C5B7A9476308F502CB
:1010D000B5476305F502A147E31CF5FA55DAF52497
:1010E0000308200855D6FD157D1603C50500937726
:1010F0000508D9DF93770504C1FFEDB73284B2400C
:1011000022459245024641017DA2000028110000BF
:101110004000000003746962F11480C037040220AB
:101120001304C446828000004811000081000000C2
:10113000033E696EF11480C037040320130444FA9F
:101140008280000000000000781100008200000092
:101150000E63757272656E742D736F7572636500C0
:10116000F11480C0370403201304C4F98280000006
:1011700000006C0402200000A0110000000000002C
:1011800009736574736F75726365B707032093877E
:10119000C7F980C380409104C0C38040910482801D
:1011A000D01100000000000006736F7572636500C7
:1011B00071112AC0370503201305C5F9F11480C049
:1011C0004041F11480C000410245110182800000BD
:1011D000041200000000000005717565727971113C
:1011E00006C0893F81471CC0804091043537F11407
:1011F00080C0F11480C01304800C59358240110165
:1012000069B70000741200000000000007636F6DF2
:101210007061726551112AC42EC232C022858C4081
:10122000D0408044B1046305C500130400002DA81C
:101230001DC903C605001337160411E71337B60599
:1012400019C3130606028347040013B7170411E7F6
:1012500013B7B70519C393870702E318F6FC7D158A
:1012600085050504F1B77D542245924502463101BA
:1012700082800000901200000000000002637200F3
:10128000711106C09922010A82401101828000007A
:10129000A81200000000000002626C00F11480C07F
:1012A0001304000282800000C01200000000000051
:1012B000057370616365F11480C013040002E1B628
:1012C000E81200000000000006737061636573009F
:1012D000711106C063558000F93F7D14E5BF804061
:1012E0009104824011018280FC1200005000000035
:1012F000065B636861725D0009A8000020130000AE
:1013000000000000046368617200711106C0752955
:101310008040910403440400824011018280000057
:1013200034130000500000000128F11480C01304A1
:10133000900209A85413000050000000015CF11451
:1013400080C00144711106C06929C040A1048240D7
:10135000110182808413000030000000022E220060
:10136000F11480C01704000013046406711106C054
:101370001927F11480C013042002A5218240110115
:101380006F001005A013000030000000026322006F
:10139000F11480C0170400001304A405C1BF0000AD
:1013A000BC1300003000000002732200F11480C062
:1013B000170400001304240655BF0000E0130000CA
:1013C0000000000004282E222900F11480C00684A9
:1013D00083C700008500BE9093F71000BE9045A023
:1013E0000414000000000000042863222900F11406
:1013F00080C0068483C700008500BE9093F710006C
:10140000BE9082802814000000000000042873228F
:101410002900F11480C0068483C700008500BE90B7
:1014200093F71000BE9075A070140000000000003B
:1014300004286E222900611106C22AC083470400D5
:10144000A5CF05043305F4008347040013D74700F4
:101450002A9703470700BD8BAA97E114C0C098C024
:1014600003C407000D3405340504E31FA4FCA9A040
:101470008C14000000000000056374797065611130
:1014800006C22AC003450400050431A8C4140000A4
:1014900000000000047479706500611106C22AC062
:1014A00022858040910409C9F11480C003440400DE
:1014B000D93A05047D156DF98040910492400245AA
:1014C00021018280E01400000000000005636F75B8
:1014D0006E740504F11480C00344F4FF82800000A0
:1014E00004150000000000000A736B6970737472C9
:1014F000696E67008347040005043E9493771400E7
:101500003E9482805415000000000000067269734A
:10151000632D7600711106C04D3D324D65637269D1
:1015200073702D5175696E74757320312E312E31A3
:1015300020666F7220524953432D56206279204D08
:1015400061747468696173204B6F63680A0082403C
:1015500011018280A0150000000000000468657879
:101560002E00411106C62AC42EC232C022858040F8
:10157000910493050002F11480C01354C5013D8805
:1015800029466363C4001D0413040403ED381205E7
:10159000F115F5F1B240224592450246410121BBC9
:1015A0001416000000000000032E7273511106C4CF
:1015B0002AC22EC0193D0F52657475726E73746124
:1015C000636B3A205B20B70702209387C746B38737
:1015D000274063C8070293D527008505F11480C012
:1015E0002E844137DD33025D200081CD3705022096
:1015F0001305C546F11480C00041A5377115FD15CE
:10160000F5F9E13304202A3E0A00A2401245824542
:1016100031018280A41600000000000005776F727F
:101620006473711106C05533010AEF102000713B3D
:1016300009416464726573733A20F11480C01537F0
:101640006933064C696E6B3A2000F11480C000408B
:10165000093FA53B07466C6167733A20F11480C0CF
:10166000404001379D3306436F64653A2000F11412
:1016700080C021044135F535893B064E616D653AE0
:101680002000F11480C02104DD3B8133010AEF000A
:10169000707DA28780409104D9DB80409104824014
:1016A00011018280E01600000000000006756E75D2
:1016B00073656400711106C0EF003022EF007042C4
:1016C000A2878040910499E3C16731A0EF003023E5
:1016D000A287804091043384874082401101828038
:1016E000F81600000000000003682E739707000042
:1016F000938767E705A800001017000000000000AE
:10170000022E7300972700009387670721A8000027
:10171000BC1700000000000003752E73972700001F
:101720009387C704311106C82AC62EC432C236C0F8
:101730003E85613909537461636B3A205B2037073A
:10174000032031171443A9471CC3B7050220938512
:10175000C526858D63CE05028981F11480C02E8453
:10176000EF20A0019D31025D2000370703203117D3
:1017700014C363CF050089CD3706022013068626E1
:10178000F11480C00042E70005007116FD15EDF967
:101790002D390620544F533A2000F11480C0228482
:1017A000E70005001D3104202A3E0A00C2403245F0
:1017B000A24512468246510182800000D4170000E3
:1017C0000000000005746F6B656EF11480C0130497
:1017D000000201A8AC180000000000000570617252
:1017E0007365411106C62AC42EC232C0D132A28509
:1017F0008840C040A1043D3A104080409104330726
:10180000C50093070002631EF400638AC502B30794
:10181000C50083C707006396870005063307C50028
:10182000EDB7638EC500B307C50083C70700050683
:10183000E39987FE3304C500198C7D1421A033047D
:10184000C500198CF11498C0F53010C08040910487
:10185000B24022459245024641018280611106C292
:101860002AC0228580409104856793870780E18F95
:1018700099C385673E94F11480C0FD777D8C136415
:10188000747BF11480C02A84EF0010105204B787D3
:101890000700938777465D8CF11480C02A84110479
:1018A0009240024521016F00300E0000EC1800004C
:1018B0002000000005646F65733EF11480C0B727F7
:1018C00000006784878C8280711106C0F11480C08B
:1018D00037040220710400402104937724003E94D1
:1018E000B53FDD2D11018240110182801C190000DD
:1018F00000000000073C6275696C6473711106C0DA
:10190000EF00302E4D29892AEF00B005F11480C078
:101910002144EF001011824011018280441900001F
:10192000000000000663726561746500711106C0F5
:10193000F137F11480C0B72700006784878C82409C
:1019400011018280341A00000000000010726567E7
:1019500069737465726C69746572616C2C0019E04E
:101960006F10F074611106C22AC022858040910474
:10197000930700803377F4006303F70021E3815776
:101980003377F4006303F70005E39377F4018A07E4
:101990001357F4013207116405045D8C598C1E0540
:1019A000498CEF00F00159A052049167CD0713173D
:1019B0007500D98F5D8CEF00D0048DA88567938763
:1019C0000780E18F99C3FD773D8C89476307F50256
:1019D00081773377F4006303F70005E3F11480C0E7
:1019E000298485679387C7077D8C996785075D8CF8
:1019F00013177500598CE92719A8F11480C0FD77D9
:101A00007D8C1364740313177500598CDD2F5204F9
:101A100001E48040910419A89167CD071317750060
:101A2000D98F1317F500D98F5D8CE12F92400245B5
:101A300021018280681A000000000000086C6974AF
:101A40006572616C2C00711106C03920F11480C0E0
:101A500021448240110121B7F11480C017F4FFFF27
:101A60001304048A61A80000EC1A000000000000C2
:101A70000563616C6C2C711106C0F11480C0B12D2E
:101A8000EFE0FFC1EF10A014A2878040910481CB4A
:101A90009104896785075D8C8240110115A7EF10BD
:101AA000C006A2878040910481CB91049307F00E79
:101AB0005D8C82401101B1A78040910485679387B6
:101AC0000780E18F99C385673E94F11480C0FD774C
:101AD0007D8C1364747B35275204B7870700938786
:101AE000770E5D8C8240110129AF0000841B00003D
:101AF0000000000007696E6C696E652C711106C0EC
:101B0000835704000567130717176399E700835786
:101B10002400316719076393E70011048357040019
:101B2000116713072708639FE700835724001307F3
:101B300010116399E70083574400216713072708B2
:101B4000638DE70283570400216713072708638624
:101B5000E7028357040013F7370075176318E00096
:101B6000F11480C003540400A12D0904F11480C0B5
:101B700003540400B125090461B7804091048240F8
:101B800011018280C01B0000000000000E736B6911
:101B900070646566696E6974696F6E0083570400CE
:101BA00013F7370075176309E0000904216713076D
:101BB00027086385E700DDB71104CDB782800000F8
:101BC000341C00000000000007737472696E672CFB
:101BD000311106C82AC62EC432C236C01375F40F9E
:101BE0008C409104A920152009C9F11480C003C4B8
:101BF000050021287D158505C5BF0D20C240324551
:101C0000A24512468246510182803314C400C18E1F
:101C1000804091042106C147631DF60009CA711175
:101C200006C0F11480C03684612B82401101014648
:101C300081468280441C000050000000035B275D49
:101C400039A00000801C0000000000000127511195
:101C500006C42AC22EC0953E8840A285EF00B0255A
:101C6000A2878040910419E4F11480C088C02E84BA
:101C70006F10204BA2401245824531018280000046
:101C8000C81C00003000000008706F7374706F6E25
:101C90006500711106C0653F13F707011DE313F7D7
:101CA000070209CB4D33F11480C017040000130460
:101CB00024E501A8493BF11480C017040000130477
:101CC000C4DB8240110145BBF01C00003000000065
:101CD000046578697400711106C0F11480C037443E
:101CE000110113042408312B8240110109A80000BE
:101CF0000C1D000000000000047265742C00F1143B
:101D000080C021641304240865A900002C1D000074
:101D1000300000000772656375727365F11480C04E
:101D20003704022071040040B9B300004C1D0000CC
:101D300081000000057374617465F11480C037047C
:101D40000320130484F98280000000006C1D000051
:101D500081000000042873702900F11480C037044A
:101D60000320130444F98280000000007C1D000061
:101D700000000000015DFD5701A80000941D000057
:101D800010000000015B814737070320130787F924
:101D90001CC38280C41D000000000000013A7111C4
:101DA00006C037070320130747F904C31D2D8240DF
:101DB00011018547D1BFF11480C0371406C0130448
:101DC000141781A11C1E000030040000013B71119A
:101DD00006C037070320130747F91C4363819702A6
:101DE000EFF0AFDE1520537461636B206E6F7420CB
:101DF00062616C616E6365642E0A6F10404837073C
:101E00000320130787F9184385476314F700C53D7E
:101E100011A0D135D12282401101B5B7381E000082
:101E2000000000000765786563757465A2878040CF
:101E30009104678007000000501E000010000000A1
:101E400009696D6D656469617465C14735A20000FB
:101E5000681E00005000000006696E6C696E650027
:101E60009307000211AA0000801E0000500000002D
:101E7000076E6F6672616D6593070040F5A80000FC
:101E80009C1E0000100000000B636F6D70696C6594
:101E90006F6E6C7993070003C5A00000B81E0000A8
:101EA000500000000A302D666F6C6461626C650042
:101EB00093070004D1A00000D41E000050000000D1
:101EC0000A312D666F6C6461626C650093071004C3
:101ED00065A00000F01E0000500000000A322D66D0
:101EE0006F6C6461626C65009307200471A0000050
:101EF0000C1F0000500000000A332D666F6C6461F7
:101F0000626C65009307300485A80000281F00005C
:101F1000500000000A342D666F6C6461626C6500CD
:101F20009307400491A80000441F000050000000E7
:101F30000A352D666F6C6461626C6500930750040E
:101F400025A80000601F0000500000000A362D6622
:101F50006F6C6461626C65009307600431A80000D7
:101F6000801F0000500000000A372D666F6C64610E
:101F7000626C650093077004F11480C03E84E1A098
:101F8000A41F00000000000008636F6E7374616E90
:101F90007400711106C0B1217D349533113F824028
:101FA00011011DA8C81F0000000000000932636F66
:101FB0006E7374616E74711106C02521A287804012
:101FC0009CC05134D1BF000034200000000000004C
:101FD00006736D7564676500711106C0592211267C
:101FE000A28780409104B9E3CD288327C4FF13075B
:101FF000F0FF804091046396E700F11480C0014433
:102000000924F11480C037040220130404020040A4
:10201000F11480C037040220210400401104EFE0D5
:102020006F96EFE0AF9D824011018280F11480C075
:10203000014405A8AC20000000000000087365748E
:10204000666C616773003757EA051307E71D63186D
:102050008700172400001304E4696FF0CFBD7111ED
:1020600006C04124A2878040910489EF37070220EF
:10207000130707021C43C18F1CC380409104824098
:102080001101828037070220210718435C43711138
:102090002AC07D556393A700A287C18F0245110115
:1020A0005CC380409104824011018280CC200000FA
:1020B0004100000007616C69676E656493771400E6
:1020C0003E94937724003E9482800000E820000034
:1020D00000000000046865726500F11480C03704D8
:1020E00002200040828000000C210000000000005F
:1020F0000D666C6173687661722D68657265F114A6
:1021000080C0370402204104004082802821000062
:10211000000000000C61646472696E666C61736833
:102120003F000147C16739A85421000000000000AA
:102130000A61646472696E72616D3F003707022044
:10214000B70703206366E4006374F4007D54828063
:1021500001448280B42100000000000005616C6928
:10216000676E711106C0953F937714003E94370750
:10217000022000C3098801C40544992019A08040A9
:102180009104824011018280711106C09C40E114CB
:10219000C0C09CC01928A28780409CC04180A287F3
:1021A00080409CC0090482401101711106C0F114E5
:1021B00080C005A0F82100000000000002682C008B
:1021C000711106C0193FF11480C0F11480C0094498
:1021D0008928813FA2878040910481C7EFE04F8624
:1021E00001A8A28780409104239087008040910439
:1021F00082401101828000001422000000000000D3
:10220000012C711106C0F11480C05D3F41808240F5
:1022100011017DB7902200000000000005616C6C88
:102220006F74611106C22AC022858040910455282E
:10223000A2878040910495E3370702201C43AA97A8
:10224000416563EEA702EFF04F980B466C6173682F
:102250002066756C6C0A6F108002553537070220B6
:102260001C43AA9763EB8700EFF02F960952616D2C
:102270002066756C6C0A6F108000804091041CC34E
:102280009240024521018280F11480C0114451BF67
:10229000CC2200000000000009666F72676574724E
:1022A000616D711106C0952037070220B707022023
:1022B000938747531CC337070220210797E7FFFF87
:1022C0009387C7DF1CC3824011018280F422000083
:1022D000000000000D636F6D70696C65746F726152
:1022E0006D3F711106C0D53B2D3D1344F4FF824074
:1022F000110182806C230000000000000C636F6DF0
:1023000070696C65746F72616D00711106C0D13FA8
:10231000A28780409104B5EF370702205C43184B39
:1023200063E6E702EFF06F8A23205661726961620B
:102330006C657320636F6C6C696465207769746881
:102340002064696374696F6E6172790AF11480C0E8
:102350003704022018405C4058C01CC018445C443C
:1023600058C41CC401448240110165BD982300007B
:10237000000000000E636F6D70696C65746F666CB1
:1023800061736800711106C0A93FA2878040910463
:10239000D5FF824011018280B82300004000000078
:1023A00008286C61746573742900F11480C03704C7
:1023B0000220210482800000D023000040000000A1
:1023C000042864702900F11480C037040220828040
:1023D000D024000000000000082863726561746565
:1023E0002900711106C0EFF04FBE05E0EFE0FFFDE0
:1023F0001520437265617465206E65656473206E97
:10240000616D6520210A6F0090679C40E114C0C097
:102410009CC0552480409104A2878040910495C3BC
:102420009C40E114C0C09CC0EFE03FFA09526564D3
:102430006566696E6520EFF04F86EFE01FF9022EAA
:1024400020000533793DA28780409104A1E737073A
:1024500002201307070281471CC34131F11480C0D9
:102460002144C133EFD0BFF4EFF08FF637050220DF
:1024700021050C4190419306F0FF6319D600F11439
:1024800080C0F11480C02E84EFD0DFCF00C1804027
:1024900091042DA09931F11480C037040220210449
:1024A0000040853337070220210700C38040910494
:1024B000F11480C07D54B133EFF08FF13939370713
:1024C0000220710700C38040910482401101828084
:1024D000EC24000000000000087661726961626C03
:1024E0006500F11480C005440DA800000825000017
:1024F0000000000009327661726961626C65F11456
:1025000080C0094419A800005C25000000000000FC
:10251000096E7661726961626C65511106C42AC2E6
:102520002EC0C1357D3BA28780409104D5E33D8814
:10253000711122C00A048520EFF06FFC22858040D3
:10254000910411C580C191056D39711565FDF114B6
:1025500080C0024411011364040825A81426000059
:1025600000000000076275666665723A511106C484
:102570002AC22EC0A136B535AD33A2878040910462
:10258000ADE31128EFF0AFF7AD39F11480C01304BB
:102590000014553CB1A83705022041050C41818D3E
:1025A000370702201307475363DEE500EFE0FFE142
:1025B0000F4E6F7420656E6F7567682052414D0A2B
:1025C0006F00F04B0CC1F11480C02E846FF0AFC7C8
:1025D0002D2022858040910419C525317D1575FD7A
:1025E00019A021283D39F11480C013040008A13C32
:1025F000A240124582453101C5B2711106C095361F
:10260000EFF08FC5F11480C021641304744682403A
:102610001101C5BE4C260000000000000F64696374
:1026200074696F6E6172797374617274711106C02E
:102630004D398240110111E417E4FFFF130404A88F
:10264000828037040220210400408280842600001A
:10265000000000000E64696374696F6E6172796EC8
:10266000657874009307F0FF1840E38CE712930736
:10267000F00F03478700E386E7120040F11480C0A3
:1026800001448280A82600008100000009686F6F65
:102690006B2D66696E64F11480C037040320130447
:1026A00004F98280D4260000C42600000000000047
:1026B0000466696E6400B7070320938707F99C439B
:1026C000678007005C27000000000000062866699C
:1026D0006E642900411106C62AC42EC232C081454B
:1026E0000146611122C0804022C2C040A1043D3F8A
:1026F0004840FD576383A704F11480C02104EFE034
:102700005FDDE114C0C0124480C00244EFE09FB01E
:10271000A2878040910495C3F11480C02104EFE0AA
:102720007FDDA285804091042A86F11480C02E842A
:10273000CD3AA2878040910491C72D37A28780406F
:102740009104DDD72E84F11480C032842101B2407F
:102750002245924502464101828000007027000018
:1027600020000000016BF11480C022448280000030
:102770008427000020000000016AF11480C0024498
:102780008280000098270000200000000169F114F9
:1027900080C00E848280000000280000300000000D
:1027A000056C65617665511106C42AC22EC03705D5
:1027B000022061050C412687F1141C43232EF7FEED
:1027C0001107E31CB7FE2687F1141C43232EF7FEE6
:1027D0001107E31CB7FE1132453C2287804091046B
:1027E000F11598C1F11595479CC10CC183A7C5FF90
:1027F000850723AEF5FEA240124582453101828055
:1028000018280000200000000428646F29006111CE
:1028100012C20EC08280000030280000200000009C
:1028200006756E6C6F6F70008241124221018280CA
:102830009428000030000000052B6C6F6F708D47EE
:10284000631DF44680409104611106C22AC0F11450
:1028500080C01704000013046401EFF0CFA1378596
:102860000700130535068DA0634C040033874140F3
:10287000A29180409104B3874140B3B7E7008280C2
:1028800033874140A29180409104B3874140B337E0
:10289000F70082800829000030000000046C6F6F90
:1028A00070008D47631BF44080409104611106C2A3
:1028B0002AC0F11480C037841100130434199132F6
:1028C00037954100130535060938EFD05FDD092C37
:1028D000498C053A22858040910401C5592E7D1509
:1028E000EDBFF11480C017040000130424F4EFF0CE
:1028F000EFA037070220610700C380409104924097
:1029000002452101828000006029000030000000A3
:1029100002646F00711106C01D2037070220610795
:10292000F11480C00043F11480C0014404C3EFF0EF
:10293000CFFAF11480C00D44824011018280F1145D
:1029400080C0170400001304C4006FF02F9B6111B6
:1029500012C20EC0A28103A20400C040A104828062
:10296000A829000030000000033F646F711106C009
:10297000F937F11480C0378441401304347B51305F
:10298000370702206107F11480C00043EFF0EFF435
:10299000E538F11480C00944F11480C005443707BC
:1029A0000220610704C361B7C429000030000000A1
:1029B000046361736500F11480C00144F11480C0A8
:1029C00021448280EC29000030000000033F6F6644
:1029D000A1476314F42E80409104711106C0711157
:1029E00022C080409104392E89A00000502A0000A6
:1029F00030000000026F6600A1476310F42C804095
:102A00009104711106C0711122C080409104F1142B
:102A100080C01704000013040403EFF02F8EEFF0C2
:102A2000CFEB9D30F11480C009442D24F11480C0F7
:102A3000024411010504F11480C0254482401101B3
:102A40008280A28780409104818F93B71700828093
:102A50008C2A00003000000005656E646F66A54793
:102A6000631DF42480409104711106C0711122C0CD
:102A7000804091048D2CF11480C002441101F114A6
:102A800080C021448240110182800000F42A0000AD
:102A90003000000007656E6463617365A147631EC3
:102AA000F42080409104611106C22AC02285804032
:102AB00091044D2201C5752A7D15EDBF9240024556
:102AC00021018280EFE07F900D4A756D7020746F58
:102AD0006F206661720A65A7711106C03D2021A0B2
:102AE000711106C0A928A28780409104E1DF8240CD
:102AF00011018280282B0000410000000C756A2D16
:102B0000656E636F64696E673F00B707F8FF3377E0
:102B1000F4006304F7006312074A711106C02D2800
:102B200082401101BDA90000B82B00004100000047
:102B30000C73622D656E636F64696E673F00FD778D
:102B40003377F4006304F70063190746711106C078
:102B5000252882401101B1A19357C40093F7F70FC4
:102B60001397C7009357B400858BD2075D8F935797
:102B7000140093F7F73FD6075D8F93574401858B79
:102B8000FE073364F70082809357B400858B139758
:102B9000770093571400BD8BA2075D8F93575400A5
:102BA00093F7F703E6075D8F9357C400858BFE0705
:102BB0003364F70082800000642C000041000000B4
:102BC0000C636A2D656E636F64696E673F009307DF
:102BD00000803377F4006304F7006310073E71113F
:102BE00006C02120824011016DAE93575400858BA1
:102BF00013972700935714009D8B8E075D8F935773
:102C00007400858B9A075D8F93576400858B9E07B0
:102C10005D8F9357A400858BA2075D8F9357840027
:102C20008D8BA6075D8F93574400858BAE075D8F14
:102C30009357B400858BB2073364F700828071111B
:102C400006C0F11480C021641304247AEFF04FD73A
:102C500082401101F11480C017D4FFFF1304A46B4C
:102C60006FE0DFE9D82C00003000000004746865D4
:102C70006E00711106C0A287804091041547639AC7
:102C8000E700EFF08FC59C401D8CB9351364F40646
:102C900031A809476393E702EFF02FC49C401D8CD5
:102CA0008135B7870700938737065D8CA287804000
:102CB0009CC0824011016FF02FCDEFE00FF1175350
:102CC00074727563747572657320646F6E277420F7
:102CD0006D617463680A65A3F82C00003000000081
:102CE00004656C736500711106C03528EF00703DF6
:102CF00082401101BDBF0000182D0000300000000F
:102D000002696600711106C01D3FEFF00FBDF1149E
:102D100080C0094405A00000402D000030000000E4
:102D2000056168656164711106C0EFF00FBBF114B5
:102D300080C01544EFF04FD5824011018280000021
:102D40005C2D000030000000067265706561740043
:102D5000711106C0AD208240110121BF782D000005
:102D600030000000057768696C65711106C0593F35
:102D7000824011016F00F034B02D000030000000DF
:102D800005756E74696C711106C0A287804091044C
:102D90000547E394E7F26535EFF02FB4EFD03F90AD
:102DA0008133B7870700938737065D8C05A800003D
:102DB000E42D00003000000005616761696E71114B
:102DC00006C0A287804091040547E398E7EEEFF044
:102DD000CFB0EFD0DF8C09331364F40682401101C9
:102DE0006FF02FC2082E00003000000005626567FA
:102DF000696E711106C0EFF04FAEF11480C005444A
:102E00008240110182800000302E00006206000026
:102E100003616E649C4091047D8C8280377704004E
:102E200013073741B777F400938737436FD0BF82DA
:102E3000502E000062060000036269639C4091040A
:102E40001344F4FF7D8C82801344F4FFC1BF000063
:102E5000782E000062060000026F72009C40910410
:102E60005D8C82803767040013073741B767F40031
:102E7000938737436FD02FFEA02E0000620600001C
:102E800003786F729C4091043D8C82803747040028
:102E900013073741B747F400938737436FD0AFFB31
:102EA000C42E00004100000003636C7A9307000207
:102EB00019C481476345040006048507E5BF3E84C5
:102EC00082800000DC2E00006104000003726F723B
:102ED0009317F40105805D8C82800000F42E0000C1
:102EE0006104000003726F6C9357F40106045D8C5B
:102EF00082800000182F00006206000007617273D4
:102F0000686966749C40910433D487408280B757C7
:102F1000044093873741A1A03C2F000062060000C7
:102F200006727368696674009C40910433D487000C
:102F30008280B75704009387374115A0682F00009F
:102F400062060000066C7368696674009C40910418
:102F5000339487008280B7170400938737417D88B8
:102F600052045D8C6FF0EFA97C2F0000610400001B
:102F7000036E6F741344F4FF82800000942F0000EE
:102F80006104000006696E76657274001344F4FFF4
:102F900082800000AC2F0000600400000474727591
:102FA0006500F11480C07D5482800000C42F0000B1
:102FB000600400000566616C7365F11480C0014413
:102FC0008280000028300000000000000865766163
:102FD0006C7561746500711106C0EFE06F9DA2878A
:102FE0009840C040A10461113AC23EC03707032097
:102FF000130747FA1C4371113EC081471CC3EFE021
:10300000CF98952037070320130747FA824711010D
:103010001CC3824712472101E114C0C098C03E84FE
:10302000824011016FE06F96543000008100000073
:103030000E686F6F6B2D696E7465727072657400C7
:10304000F11480C0370403201304C4F88280883050
:1030500000000000743000000000000009696E7478
:10306000657270726574B70703209387C7F89C4335
:10307000678007004C320000000000000B28696EDA
:103080007465727072657429711106C0370502206B
:103090001305C526637E9500EFE02FB310537461CE
:1030A000636B20756E646572666C6F770A00C1AAE7
:1030B000370502201305C506636D9500EFE0EFB0FC
:1030C0000F537461636B206F766572666C6F770A5D
:1030D0007DA2370702205107832307006395030071
:1030E000A68323207700EFE04FEE11E4C040A10457
:1030F0008240110182809C40E114C0C09CC0EFF06E
:103100008FDBA2859040C040A10405EA8840A285DB
:10311000912C22868040910435FAE114C0C088C009
:103120002E84EFE08FB7EFE04FAA0C206E6F742073
:10313000666F756E642E0A0099A2B7060320938607
:1031400086F99442A1E637070220510781432320E4
:10315000770093070003B3F6F5006391F602EFE002
:10316000CFB3EFE08FA61220697320636F6D706993
:103170006C652D6F6E6C792E0A0011A2C040A104FF
:10318000F11480C03284EFE07FCA09B7C040A104C7
:1031900013F5050819E9B3869340898213F50504F0
:1031A00019C913F5F50063E8A600F11480C0328454
:1031B000EFE0DFC7E1BD13B51600631DA00013F5F6
:1031C000052009C9F11480C03284EFE03F9DEFE093
:1031D000FFC56DBD912037070320130787F91843FA
:1031E00085476319F70013F7054009E7EFE0BFBC17
:1031F000EFE07FB8F11480C0328413F6050101C6F8
:10320000EFE0DFC261B513F6050201C6EFE01F8FE4
:10321000B5BDEFE05F869DBD711106C091CEFD1674
:10322000F11480C03684EFD04F9AEFE0DF81E5FAE9
:103230009384C3FF804091043707022051078143E4
:10324000232077008240110182800000703200004C
:103250008100000009686F6F6B2D71756974F1143E
:1032600080C037040320130484F88280EC3200000D
:10327000DC32000000000000047175697400370141
:1032800002201301C146B70402209384C426EFC074
:103290009FED370703203117A9471CC337070320C9
:1032A000130787F981471CC33707022051071CC346
:1032B00037070320130747FA1CC3370703201307F8
:1032C000C7F91CC3B70702209387C7465CC3B7077B
:1032D0000320938787F89C43678007000033000032
:1032E000000000000628717569742900EFD03FEFD7
:1032F0009D3BEFE08F8D05206F6B2E0AC5BF000050
:103300005433000000000000056469676974130409
:1033100004FD63640402A9476363F4026514636EE9
:10332000F40093074002636CF4000114A94763663C
:10333000F400930740026364F40001448280B707FD
:103340000320B1179C43E37AF4FEF11480C07D544E
:1033500082800000F434000000000000066E756DED
:1033600062657200111106CC16CA1AC82AC62EC48C
:1033700032C236C0B7070320B1179C4371113EC05B
:10338000A2858040910422850544854681420143FF
:103390008D47639FF500930770020347050063198B
:1033A000F700034725006315F700834215007DA051
:1033B000D5C5034605000505FD159307D002631426
:1033C000F600FD56F5B7930730026318F600A947DB
:1033D0003706032031161CC2E1BF93074002631871
:1033E000F600C1473706032031161CC2D1B7930738
:1033F00050026318F60089473706032031161CC2B5
:1034000045BF9307E0026314F600094455B79307DC
:10341000C002630CF608F11480C03284CD3DA2874F
:1034200080409104BDC3E114C0C023A054001A849D
:10343000F11480C03704032031140040F11480C01F
:103440000144D925EFC01FF5F11480C00144AD2D12
:10345000228383A20400C040A10499BF634DD00021
:10346000E114C0C023A054001A842925228383A21A
:103470000400C040A104F11423A054008547630553
:10348000F400F11423A0640011A00144824711014B
:103490003707032031171CC3E240D2424243324572
:1034A000A2451246824671018280168381420944F8
:1034B000D5D5FD15B307B50003C607009307E00295
:1034C000E308F6FEF11480C032849135A287804073
:1034D0009104C5DFF11423A05400F11480C0370417
:1034E000032031140040EF007005A282C040A10407
:1034F000C1B700002435000000000000062E6469FA
:1035000067697400A9476375F4001304040382809B
:10351000930740026375F40013047403828013045C
:1035200030028280783500000000000004686F6C73
:10353000640071112AC037050220130545020347B4
:103540000500930770046374F70205072300E50084
:103550003A958547630BF7007D1583470500A30067
:10356000F5007D178547E319F7FE230085008040AD
:103570009104024511018280B43500000000000072
:1035800005686F6C643C71112AC037050220130571
:10359000450203470500930770046378F7000507A9
:1035A0002300E5003A952300850080409104024500
:1035B00011018280D43500000000000004736967A7
:1035C0006E00634504008040910482801304D002A1
:1035D0008DB70000F43500000000000002233E001B
:1035E000B70702209387470203C4070085079CC0E2
:1035F000828000001836000000000000036623539C
:10360000611106C22AC01305000229287D1575FD27
:1036100092400245210182804036000000000000F7
:1036200002662300711106C0F11480C03704032024
:1036300031140040512AF93582401101A9B7000028
:10364000603600000000000002235300711106C024
:1036500029287DFC9C40EDFF824011018280000002
:1036600090360000000000000123711106C0F11423
:1036700080C03704032031140040F11480C001449D
:103680000527812480409104B53D8240110155B544
:10369000AC36000000000000023C23003707022087
:1036A0001307470281472300F7008280C4360000D9
:1036B0000000000002662E00F11480C01304000216
:1036C00001A80000143700000000000003662E6E01
:1036D000611106C22AC0228580409104EFC03FCA12
:1036E000BD2EF11480C00144553F8D3780409104B8
:1036F0001304C002493D01C535377D1575FD0245EE
:10370000110180409104753DF11480C0F11480C016
:1037100035A800002C370000000000000375642E5F
:10372000711106C0A53F1D3715A000005C370000D1
:103730000000000002642E00711106C0EFC03FC4FB
:10374000392EA93F2137EFC0FFC4A53D513DEFD031
:10375000DFD4824011016FD01FB600007037000027
:103760000000000002752E00F11480C001444DBF1E
:103770008437000000000000012EF11480C07D8419
:1037800065BF0000BC37000062060000012A9C40B3
:103790009104338487028280B707F402938737430A
:1037A000711106C0F1149CC0F11480C03D44EFE0DB
:1037B0000F9B824011016FE0DFA40000D8370000AA
:1037C0006204000003756D2A9C403387870298C00D
:1037D00033B4870282800000F437000062040000E6
:1037E000026D2A009C403387870298C03394870279
:1037F000828000001038000062040000066D756CC5
:10380000687375009C40910433A487028280000095
:103810003038000062060000012F9C40910433C440
:1038200087028280B747F4029387374395BF000031
:103830005038000062060000036D6F649C409104E4
:1038400033E487028280B767F4029387374389BFE6
:103850006C3800006204000005752F6D6F649C4099
:1038600033F7870298C033D48702828088380000FB
:1038700062040000042F6D6F64009C4033E78702F0
:1038800098C033C487028280A03800006204000020
:103890000432647570009C40E114C0C09CC08280FA
:1038A000B438000062040000053264726F70C040DA
:1038B000A1048280D43800004400000005327377F0
:1038C0006170A287C040DCC09C4098449CC498C0F2
:1038D00082800000EC3800006204000004326E694F
:1038E00070009C40A1049CC0828000000839000048
:1038F0004400000005326F766572E114C0C09C4838
:103900009CC0C044828000002C39000044000000AC
:1039100005327475636B98409C44E11498C098C854
:10392000D844D8C09CC4C0C4828000005039000074
:10393000460000000432726F74009C4098449CC49E
:103940009C4898C89CC0D840C0C0C044D8C482809D
:10395000743900004600000005322D726F749840E3
:103960009C4898C8984498C09CC4D844C0C4C040DF
:10397000D8C08280903900002000000003323E72DF
:10398000611122C0804022C2C040A1048280000098
:10399000AC390000200000000332723EE114C0C0C8
:1039A000124480C00244210182800000C43900001A
:1039B0002000000003327240E114C0C0124480C0F5
:1039C00002448280D8390000200000000632726470
:1039D000726F700021018280F43900004200000003
:1039E0000364322F9C401317F40105848583D98F1B
:1039F0009CC08280103A0000420000000364322A1A
:103A00009C4013D7F701BE972294598C9CC08280AA
:103A1000303A0000420000000464736872009C4069
:103A20001317F40105808583D98F9CC08280000024
:103A3000503A000042000000046473686C009C402F
:103A400013D7F701BE972294598C9CC08280000046
:103A5000643A000042000000046461627300634B3A
:103A6000040082808C3A00004200000007646E650A
:103A7000676174659C4093C7F7FF1344F4FF138795
:103A8000170098C0B337F7003E948280BC3A00001C
:103A90004400000002642D0071112AC09C4498402B
:103AA0003385E74088C433B5E700DC403384874082
:103AB000098CA1040245110182800000E83A00004F
:103AC0004400000002642B0071112AC09C449840FD
:103AD0003385E70088C43335F500DC403E942A94F2
:103AE000A104024511018280FC3A0000410000005F
:103AF00003733E64F11480C07D848280183B000013
:103B0000440000000375642A711106C02928C040D2
:103B1000A1048240110182807C3C0000440000002E
:103B20000475646D2A00011106CE16CC1ACA1EC88F
:103B30002AC62EC432C236C0F11480C0C040F1146F
:103B400080C080485131A2858840C040A104F11452
:103B500080C08040F11480C0C044BD31A286904036
:103B6000C040A104F11480C08040F11480C080489E
:103B7000A1398147B302860033B3C2003386F20015
:103B8000B3335600B3677300B382060033B3D20079
:103B9000B386F200B3B35600B3677300804091045C
:103BA0008147B382850033B3B200B385F200B3B36B
:103BB0005500B3677300B302060033B3C200338607
:103BC000F200B3335600B3677300B382060033B319
:103BD000D200B386F200B3B35600B36773008040DF
:103BE0009104F11480C0C040F11480C0C044E93E8B
:103BF0008147B302860033B3C2003386F200B33389
:103C00005600B3677300B382060033B3D200B386A5
:103C1000F200B3B35600B36773008040910481474C
:103C2000B382850033B3B200B385F200B3B355005D
:103C3000B3677300B302060033B3C2003386F200E9
:103C4000B3335600B3677300B382060033B3D200B8
:103C5000B386F200B3B35600B3677300804091049B
:103C6000368490C0CCC088C4F240E2425243C24382
:103C70003245A2451246824605618280A83C00007A
:103C800043000000022A2F00711106C0711122C0EA
:103C900080409104813EF11480C002441101D12082
:103CA0009104824011018280D43C00004300000056
:103CB000052A2F6D6F64711106C0711122C08040FA
:103CC00091040D36F11480C00244110182401101AB
:103CD00049A80000003D00004300000003752A2FA2
:103CE000711106C0711122C080409104F13CF114A1
:103CF00080C0024411019920910482401101828008
:103D00002C3D00004300000006752A2F6D6F6400F3
:103D1000711106C0711122C0804091047534F114F4
:103D200080C0024411018240110109A8543D0000E5
:103D30004300000006756D2F6D6F6400711106C0A1
:103D4000F11480C00144A92880409104910482406C
:103D500011018280903D000043000000056D2F6D31
:103D60006F64711106C0F11480C07D84CD20804045
:103D70009104910482401101828041112AC62EC40F
:103D800032C236C08146D0408C4401451DA000009F
:103D9000403E0000440000000675642F6D6F640013
:103DA00041112AC62EC432C236C081460146CC40DB
:103DB000884431110EC812C616C41AC21EC022820F
:103DC00083A104001304000486069357F601DD8ED8
:103DD000060693D7F5015D8E86059357F501DD8DB7
:103DE00006056366D20063EA4602636836028147CD
:103DF000B3023640333336003386F240B3B3F200B9
:103E0000B3677300B382464033B34600B386F240D3
:103E1000B3B3F200B367730005057D1455F42E8427
:103E200088C0D4C090C4C2413242A24212438243ED
:103E300051013245A245124682464101828000006E
:103E4000983E00004400000005642F6D6F647111FE
:103E500006C0635304023939AD34635A040019397A
:103E60008D343D3FB93C39318240110199BC913CC0
:103E7000053F82401101FDBEA934635B0400DD3EB5
:103E80008934393FC53E353CF5368240110115BCB9
:103E90000D3C8240110129B7B03E000044000000F3
:103EA00002642F00711106C05D378240110115BCFC
:103EB000FC3E00004400000002662A00711106C0AA
:103EC00063500402453EF53A635004026536A13959
:103ED000804091049C4091049CC0824011018280EA
:103EE000CD32E35604FE79363D39804091049C4042
:103EF00091049CC082401101B5BE00003C3F00000F
:103F00004400000002662F00711106C0635D0400CA
:103F10009536453A635D0400B13E6532B93DD13214
:103F2000824011018280713AE35904FEA136513A70
:103F3000A9358936824011016DB20000583F00005A
:103F400000000000023221009C40D8401CC058C034
:103F50008044B10482800000703F00000000000037
:103F600002324000F1145C409CC00040828000009E
:103F7000A83F0000440000000364753C71112AC092
:103F80009C44984033B5E700DC4033B7A700898FE5
:103F9000B3B7870033E4E7007D141344F4FFB104A2
:103FA0000245110182800000C03F00004400000073
:103FB0000364753E711106C02932824011017DBF34
:103FC000EC3F00004400000002643C00511106C4B4
:103FD0002AC22EC01355F441CC40FD854537298CAB
:103FE0002D8CA240124582453101828004400000A0
:103FF0004400000002643E00711106C0D9308240C6
:104000001101E9B718400000620400000364303C6D
:1040100091047D8482800000344000004200000052
:104020000364303D9C4091045D8C133414003304D0
:1040300080408280584000004400000003643C3E01
:10404000DC403D8C9C409844B98FB1045D8C1334A6
:1040500014007D14828000007C40000044000000B9
:1040600002643D00DC403D8C9C409844B98FB10413
:104070005D8C13341400330480408280C8400000FB
:104080004300000007326C73686966741374F403AC
:1040900071C8130704FE63490700DC403394E7004E
:1040A000910423A004008280DC4033978700D8C0AD
:1040B00013070002018FB3D7E7009840331487003D
:1040C0005D8C9104828000001841000043000000D4
:1040D00007327273686966741374F40341C413077A
:1040E00004FE634907009C40B3D7E70091049CC0DD
:1040F000014482809C4033D7870098C01307000298
:10410000018FB397E700D840335787005D8FD8C041
:1041100080409104828000006C4100004300000058
:10412000083261727368696674001374F4031DC801
:10413000130704FE634A07009C4013D4F741B3D72A
:10414000E74091049CC082809C4033D7874098C050
:1041500013070002018FB397E700D8403357870059
:104160005D8FD8C08040910482800000C041000073
:1041700000000000046D6F76650071112AC022876F
:104180009C40C040A10405CB6307F40263ED8700A7
:104190003A94BA970345F4FFA38FA7FE7D14FD1749
:1041A0007D176DFB09A8034504002380A7000504C3
:1041B00085077D176DFB80409104024511018280C7
:1041C000E8410000000000000466696C6C00228772
:1041D0009C40C040A10491C72300E4000504FD17E2
:1041E000E5FF8040910482806C42000020060000C0
:1041F000014000408280B727040093873740611157
:1042000006C22AC03E85711122C080409104FD166D
:10421000EFF08F80F11480C002441101EFD0DF83F2
:10422000930700803377F4006303F70011E7B78743
:10423000F0FFFD177D8D05A0856793870780E18FCF
:1042400099C385673E94F11480C0FD777D8C13641B
:104250007443EFD01FFB8567FD17E18FD2073364EE
:10426000F5009240024521016FD0BFF918430000CC
:104270002006000001219C401CC0C040A104828097
:104280003727870013073702B727F70093873702CE
:10429000611106C22AC0FD1691E63A851520EFE0AD
:1042A0007F9B19A83E85A28780409CC0F11480C0E6
:1042B0003D44EFD0CFEA292092400245210182807F
:1042C000711106C0930700803377F4006303F70091
:1042D00011E7B787F0FFFD177D8D05A085679387F0
:1042E0000780E18F99C385673E94F11480C0FD7704
:1042F0007D8C13647473EFD0DFF09377F4019E0725
:104300005D8D85678117E18F9583E6073364F5003E
:10431000824011016FD0FFEE344300000000000026
:10432000022B21009C401840BA971CC0C040A10439
:104330008280000050430000200600000268400018
:10434000035404008280B75704009387374045BD6B
:1043500074430000200600000868407369676E65BA
:104360006400031404008280B71704009387374069
:1043700079B50000A043000020060000026821007B
:104380009C402310F400C040A104828037178700AE
:1043900013073702B717F70093873702D5BD000020
:1043A000C04300000000000003682B219C4003571D
:1043B0000400BA972310F400C040A10482800000DA
:1043C000DC430000200600000263400003440400B8
:1043D0008280B74704009387374015B5004400003A
:1043E000200600000863407369676E65640003047B
:1043F00004008280B70704009387374009B50000A6
:104400002C44000020060000026321009C40230091
:10441000F400C040A10482803707870013073702E9
:10442000B707F70093873702A5B500004C4400009A
:104430000000000003632B219C4003470400BA974F
:104440002300F400C040A104828000006844000002
:10445000000000000462697321009C401840D98F5D
:104460001CC0C040A10482808844000000000000FD
:104470000462696321009C4093C7F7FF1840F98FDD
:104480001CC0C040A1048280A444000000000000C1
:1044900004786F7221009C401840B98F1CC0C04046
:1044A000A1048280C444000000000000046269741A
:1044B00040001C40804091047D8C133414007D1416
:1044C00082800000E444000000000000056862698A
:1044D00073219C4003570400D98F2310F400C0407F
:1044E000A1048280084500000000000005686269A0
:1044F00063219C4093C7F7FF03570400F98F2310F3
:10450000F400C040A10482802845000000000000A3
:104510000568786F72219C4003570400B98F2310FF
:10452000F400C040A1048280484500000000000063
:1045300005686269744083570400804091047D8C53
:10454000133414007D1482806845000000000000D0
:104550000563626973219C4003470400D98F2300DF
:10456000F400C040A10482808C45000000000000DF
:104570000563626963219C4093C7F7FF034704000A
:10458000F98F2300F400C040A1048280AC450000F4
:10459000000000000563786F72219C40034704000F
:1045A000B98F2300F400C040A1048280CC450000F4
:1045B0000000000005636269744083470400804086
:1045C00091047D8C133414007D148280005000000F
:1045D000FFFFFFFF182D2D2D20466C6173682044CE
:1045E000696374696F6E617279202D2D2D0073607F
:1045F0000430EFB07FAA3715004021059302400434
:104600002300550037150040290593022008230098
:104610005500EFB0DFA9EFC0FF8E0145C165F11570
:104620001306F0FFB7C6F9F7938616F183A20500CB
:104630006396D20090C1F115E3DAA5FE93028008DB
:1046400073A0023097C2FFFF9382029C93E2120094
:1046500073905230970200009382020173901234DB
:10466000730020308140370102201301C14681418F
:1046700001428142014381431304A002B704022096
:104680009384C426014581450146814601478147FF
:1046900037070220B7070220938747531CC3370709
:1046A0000220210797C7FFFF938747A11CC3F1147E
:1046B00080C017C4FFFF130464A0B70303204C405D
:1046C000FD566389D50893F60510ADC2711122C05D
:1046D0002104EFC03FE2EFD06FCC835604000355B6
:1046E00024004205C98EB383D340024411019DA02A
:1046F0002F01000000000020330120242544240362
:104700006718907900000000073631098AA042241A
:10471000A031B00386209483010006000800001831
:10472000200A2E275F2D60285C2F293C93F6050870
:1047300095C2BD898A05B383B340F11480C02104BA
:10474000EFC05FDBEFD08FC5E114C0C023A07400C1
:104750002E842534EFD01FF122858040910425D18D
:1047600037050220310500C1804091043705022041
:10477000410523207500416595651306F0FF630729
:10478000B50071151441E38CC6FE1105B705022072
:10479000910588C1EFB03F9DEFC03FC35B4D65639E
:1047A000726973702D5175696E74757320312E3175
:1047B0002E3120666F7220524953432D56203332DA
:1047C00020494D4143206279204D617474686961CC
:1047D00073204B6F63682C20706F72746564207453
:1047E0006F2043483536782062792048616E732007
:1047F00042616965720D0A0A370102201301C14640
:10480000B70402209384C426EFB0FF953707032036
:104810003117A9471CC337070320130787F98147BE
:104820001CC33707022051071CC337070320130797
:1048300047FA1CC3370703201307C7F91CC3B70780
:1048400002209387C7465CC3F11480C017040000A0
:1048500013048402F11480C01144EFD0DFE58040DE
:10486000910409C4EFD08FDC6FE07FA680409104F3
:104870006FE0FFA0696E6974130000001300000070
:00000001FF
