:100000006F40702113000000130000001300000077
:100010001300000013000000130000001300000094
:100020001300000013000000130000001300000084
:10003000130000006F40301E13000000130000008A
:10004000164A000000000000B00D0000400D000046
:1000500000000000B00D00000000000000000000E3
:10006000B00D0000B00D0000000000000000000016
:10007000900F000000000000E80D000000000000EC
:10008000B00D0000B00D0000B00D0000B00D00007C
:10009000B00D0000B00D0000880E0000BC0E000086
:1000A000F00E0000240F0000580F0000B00D0000FB
:1000B000B00D0000B00D0000B00D0000B00D00004C
:1000C000B00D0000B00D0000C40F0000B00D000026
:1000D000B00D0000B00D0000B00D0000B00D00002C
:1000E000B00D0000B00D0000B00D0000B00D00001C
:1000F000B00D0000B00D0000B00D0000B00D00000C
:10010000B00D0000B00D0000B00D0000B00D0000FB
:10011000B00D0000B00D0000B00D0000B00D0000EB
:10012000B00D0000B00D0000B00D0000B00D0000DB
:10013000B00D0000B00D0000B00D0000FC0100008B
:10014000FFFFFFFF1D2D2D2D204D6563726973701C
:100150002D5175696E74757320312E312E30202D1E
:100160002D2DB7270240984B1367070898CB828044
:10017000B72702403707674513073712D8C33797A9
:10018000EFCD1307B79AD8C38280B7270240D8476C
:10019000058B75FFD847418B19CFEF108046164568
:1001A000726173696E6720666C6173682065727234
:1001B0006F7220210A008280511106C42AC22EC00B
:1001C000EFF01FFB37250240EFF03FFC0C491147D1
:1001D00093070004D98D0CC90C49DD8D0CC9EFF0D3
:1001E000DFFA0C491307B0FFF98D0CC9EFF07FF768
:1001F000A24012458245310182800000C002000009
:10020000000000000768666C61736821511106C424
:100210002AC22EC0F11480C0EF20A01DA28780400A
:100220009104ADC795676363F4062285804091040D
:10023000A2858040910493771500A9EB83570500B0
:100240003967130797336393E704B9679387973345
:100250006389F502EFF0DFF1EFF03FF337070008B5
:100260003A95B7270240984B1367170098CB231095
:10027000B500984B1377E7FF98CBEFF01FF1EFF045
:100280005FEEA2401245824531018280EF10603757
:100290002A57726F6E672061646472657373206F92
:1002A00072206461746120666F722077726974696C
:1002B0006E6720666C61736820210A006F30A0347D
:1002C000FC0200000000000006666C6173682100FB
:1002D000711106C0F11480C0C040C167FD177D8C4C
:1002E000F11480C0C040EFF07FF209049C40C1834C
:1002F0009CC0EFF0BFF182401101828090030000AA
:10030000000000000E666C6173687061676565725D
:1003100061736500711106C0F11480C0EF20600D9B
:10032000A287804091049DCF9567636DF402EFF042
:10033000DFE5EFF0FFE3B7270240984B1367270094
:1003400098CB370700083A94C0CB80409104984B73
:100350001367070498CBEFF05FE3EFF09FE0824074
:1003600011018280EF10E0292257726F6E672061C1
:1003700064647265737320666F722065726173695D
:100380006E6720666C61736820210A006F30A027B9
:1003900014040000000000000A6572617365666C59
:1003A000617368001565C16537E639E31306963356
:1003B0001441638FC602F11480C02A84F11480C0F6
:1003C000EF10202410457261736520626C6F636BBF
:1003D000206174202000EF10003DEF1080220C20DF
:1003E00066726F6D20466C6173680A00EFF09FF2D1
:1003F0001105E31FB5FAEF10C0201246696E69734C
:100400006865642E20526573657420210A006F4070
:100410008060000034040000000000000E6572617E
:100420007365666C61736866726F6D0022858040CB
:10043000910495BF4804000020040000037370403D
:10044000F11480C0268482805C0400002004000037
:1004500003737021A28480409104828070040000A4
:100460002000000003727040F11480C00A84828072
:10047000840400002000000003727021228180406B
:100480009104828098040000610400000364757088
:10049000F11480C082800000AC0400006104000000
:1004A0000464726F7000804091048280C404000074
:1004B00061040000043F6475700019C0F11480C02D
:1004C00082800000DC040000620400000473776195
:1004D0007000A28780409CC082800000EC04000075
:1004E00062040000036E69709104828004050000BC
:1004F00062040000046F76657200F11480C0C04091
:10050000828000001C050000620400000474756312
:100510006B009C40F114C0C09CC082803405000078
:100520004300000003726F749C40D84080C0DCC060
:100530003A8482805005000043000000042D726F51
:1005400074009C40D84098C0C0C03E8482800000A7
:100550006805000020040000047069636B000A0451
:1005600026940040828000008C05000000000000FE
:10057000056465707468B70700209387C726858F68
:10058000F11480C013D4274082800000B40500001D
:10059000000000000672646570746800B7070020F0
:1005A0009387C746B3872740F11480C013D42740F0
:1005B00082800000CC05000020000000023E720096
:1005C000711122C08040910482800000E405000087
:1005D0002000000002723E00F11480C002441101AC
:1005E00082800000F8050000200000000272400038
:1005F000F11480C0024482800C060000200000003C
:10060000057264726F701101828000002406000080
:100610002000000005727069636B0A040A940040B0
:10062000828000003C0600006104000002303D00B2
:100630001334140033048040828000005006000010
:100640006104000003303C3E133414007D148280AA
:10065000600600006104000002303C007D8482805E
:100660007806000062040000023E3D009C409104B8
:1006700033A487007D14828090060000620400008D
:10068000023C3D009C4091043324F4007D148280A0
:10069000A806000062040000013C9C40910433A4C1
:1006A0008700330480408280C0060000620400009E
:1006B000013E9C4091043324F40033048040828046
:1006C000D80600006204000003753E3D9C40910482
:1006D00033B487007D148280F006000062040000BD
:1006E00003753C3D9C4091043334F4007D148280BA
:1006F0000C0700006204000002753C009C4091045D
:1007000033B4870033048040828000002807000053
:100710006204000002753E009C4091043334F400F2
:10072000330480408280000044070000620400001F
:10073000023C3E009C4091043D8C133414007D1417
:10074000828000006007000062040000013D9C40C0
:1007500091043D8C133414003304804082800000E7
:100760007807000062040000036D696E9C409104EC
:100770006343F4003E84828090070000620400001E
:10078000036D61789C40910463C387003E8482803E
:10079000AC0700006204000004756D696E009C40A7
:1007A00091046363F4003E8482800000C807000067
:1007B0006204000004756D6178009C40910463E35D
:1007C00087003E8482800000280800006206000046
:1007D000012B9C4091043E9482803707040013074C
:1007E0003741B707F40093873743711106C0611191
:1007F0003AC23EC0930700803377F4006303F700EA
:1008000011E75204924721015D8C11A8F11480C0B8
:100810003D44EF10403DF11480C00244210182406C
:1008200011016F10D04B0000440800006206000068
:10083000012D9C4091043384874082801344F4FF4F
:10084000050461BF6C0800006206000003736C744D
:100850009C40910433A4870082803727040013074B
:100860003741B727F4009387374341B79808000012
:100870006206000004736C7475009C40910433B4EC
:10088000870082803737040013073741B737F400F9
:100890009387374399BF0000A80800006104000057
:1008A00002312D007D148280B80800006104000030
:1008B00002312B0005048280C8080000610400009A
:1008C00002322D0079148280D808000061040000F3
:1008D00002322B0009048280EC0800006104000051
:1008E0000563656C6C2B1104828000000409000014
:1008F00061040000066E6567617465003304804022
:100900008280000014090000610400000373687213
:100910000580828024090000610400000373686C74
:1009200006048280340900006104000002322A00BB
:100930002294828048090000610400000563656C10
:100940006C730A04828000005809000061040000F2
:1009500002322F00058482807009000061040000CB
:10096000036162739357F4413E943D8C8280000092
:100970008809000061040000046576656E009377C5
:1009800014003E9482800000A8090000810000004D
:10099000046261736500F11480C037540020711443
:1009A00082800A0000000000BC0900000000000076
:1009B0000662696E61727900894715A0D00900004E
:1009C0000000000007646563696D616CA94701A8B8
:1009D000E80900000000000003686578C147375748
:1009E000002071171CC38280080A0000000000006C
:1009F0000565696E743FF11480C07324003021884E
:100A0000133414007D1482801C0A000020040000AE
:100A10000465696E7400736004308280300A0000DF
:100A2000200400000464696E7400737004308280D6
:100A3000440A000020040000037766697300501028
:100A400082800000740A00000000000008637963DF
:100A50006C6573363400F11480C0F32700C873242A
:100A600000C0732700C8E39AE7FEF11480C03E84FB
:100A700082800000900A0000000000000663796395
:100A80006C657300F11480C0732400C08280000084
:100A9000A80A000000000000056D69736140F114B0
:100AA00080C0732410308280C40A0000000000005F
:100AB000076D696D70696440F11480C0732430F172
:100AC00082800000E00A000000000000086D6172F2
:100AD000636869644000F11480C0732420F182804F
:100AE000F80A000000000000056D657063217310B6
:100AF0001434804091048280100B0000000000003C
:100B0000056D65706340F11480C0732410348280D9
:100B10002C0B000000000000076D636175736540D9
:100B2000F11480C07324203482800000480B000040
:100B300000000000066D7476616C4000F11480C006
:100B40007324303482800000780B00000000000025
:100B5000086D656D6661756C7400711106C0EF00FB
:100B6000502A134D656D6F727920616363657373ED
:100B7000206572726F7261A0C40B0000000000005B
:100B800013756E68616E646C65642D6E6F6E76654C
:100B900063746F72711106C0EF00B02622556E6843
:100BA000616E646C656420496E74657272757074F0
:100BB00020286E6F6E2D766563746F7265642900F0
:100BC0003DA80000080C00000000000009756E68D8
:100BD000616E646C6564711106C0EF0090221E5551
:100BE0006E68616E646C656420496E7465727275BE
:100BF00070742028766563746F7265642900EF0055
:100C00006005824011018280E80C000000000000B5
:100C1000056661756C74711106C0EF00901E135566
:100C20006E68616E646C6564204578636570746994
:100C30006F6EEF002002F327103403D7070013F77D
:100C400037007517890711E38907739017348240BD
:100C500011018280711106C0EF00B01A09206D6386
:100C6000617573653A20EFF0BFEBEF00D033EF0012
:100C70005019066D6570633A2000EFF0DFE8EF0071
:100C80009032EF001018076D7476616C3A20EFF027
:100C9000FFEAEF005031EF00D01602210A00824037
:100CA000110182803AD63ED442D246D04ACE4ECCB2
:100CB00052CA56C85AC65EC462C266C083A000004B
:100CC000E7800000824C124CA24B324BC24A524A7F
:100CD000E249724982581258A2573257C250130142
:100CE0004103730020300000500D0000810000001F
:100CF000096972712D6661756C74F11480C0375486
:100D0000002061148280160C000001001300000016
:100D10001300000013000000130000001300000087
:100D20001300000013000000130000001300000077
:100D30001300000013000000130000001300000067
:100D40001301C1FC06D8B7500020E110A1BF00007C
:100D5000880D0000810000000D6972712D6E6F6EAC
:100D6000766563746F72F11480C03754002051149B
:100D70008280940B000001001301C1FC06D8B7501B
:100D80000020D11005B70000C00D00008100000058
:100D90000E6972712D636F6C6C656374696F6E00A0
:100DA000F11480C03754002041148280D60B00001B
:100DB0001301C1FC06D8B7500020C110E5B50000F2
:100DC000F80D0000810000000C6972712D736F66D0
:100DD000747761726500F11480C0375400203114BB
:100DE0008280D60B000001001301C1FC06D8B75069
:100DF0000020B11045BD00002C0E00008100000055
:100E0000096972712D74696D6572F11480C037546F
:100E1000002021148280D60B000001001301C1FCC8
:100E200006D8B7500020A110B5BD0000640E000028
:100E3000810000000C6972712D6D656D6661756CC5
:100E40007400F11480C037540020111482805A0BB2
:100E5000000001001301C1FC06D8B750002091101A
:100E600091B50000980E00008100000009697271C0
:100E70002D6578746930F11480C037540020011456
:100E80008280D60B000001001301C1FC06D8B750C8
:100E90000020811001BD0000CC0E00008100000088
:100EA000096972712D6578746931F11480C0375405
:100EB00000201304C4FD8280D60B00001301C1FC86
:100EC00006D8B75000209380C0FDE9BB000F00009A
:100ED00081000000096972712D6578746932F1141E
:100EE00080C037540020130484FD8280D60B00009C
:100EF0001301C1FC06D8B7500020938080FD5DB37C
:100F0000340F000081000000096972712D6578744A
:100F10006933F11480C037540020130444FD8280EB
:100F2000D60B00001301C1FC06D8B75000209380F7
:100F300040FD8DBB680F00008100000009697271DF
:100F40002D6578746934F11480C03754002013047F
:100F500004FD8280D60B00001301C1FC06D8B750F7
:100F60000020938000FD3DBBA00F00008100000029
:100F70000B6972712D7379737469636BF11480C09E
:100F8000375400201304C4FC8280D60B00000100FB
:100F90001301C1FC06D8B75000209380C0FC19B3E0
:100FA000D40F000081000000076972712D61646335
:100FB000F11480C037540020130484FC8280D60BC7
:100FC000000001001301C1FC06D8B7500020938037
:100FD00080FCC9B9F80F00008100000009686F6F3C
:100FE0006B2D656D6974F11480C0375400201304B3
:100FF00044FC8280981100001C1000008100000059
:1010000008686F6F6B2D6B657900F11480C03754E1
:101010000020130404FC8280D4110000441000005E
:10102000810000000A686F6F6B2D656D69743F0069
:10103000F11480C0375400201304C4FB82801212C4
:1010400000000000681000008100000009686F6F58
:101050006B2D6B65793FF11480C037540020130469
:1010600084FB82804C120000901000008100000080
:101070000A686F6F6B2D706175736500F11480C025
:1010800037540020130444FB82809C1000000000B1
:10109000A010000000000000036E6F70828000004E
:1010A000BC1000000000000004656D697400B757B3
:1010B0000020938747FC9C4367800700D8100000FE
:1010C00000000000036B6579B7570020938707FC89
:1010D0009C43678007000000F4100000000000003F
:1010E00005656D69743FB75700209387C7FB9C4324
:1010F000678007001011000000000000046B657994
:101100003F00B7570020938787FB9C436780070009
:101110008411000000000000057061757365B75709
:101120000020938747FB9C4367800700B717024066
:10113000E1071167110798C337076000B71701402F
:10114000938707812390E70037578448130747FBAD
:10115000B71701409387478098C3B74701409387EB
:1011600007801307500498C73147D8C7096798CB41
:10117000D84789675D8FB747014093870780D8C7F5
:1011800082800000C0110000000000000B73657237
:1011900069616C2D656D6974711106C0EF0060079F
:1011A000A28780409104FDDBB74701409387078009
:1011B00023828700804091048240110182800000D8
:1011C000FC110000000000000A73657269616C2D5B
:1011D0006B657900711106C0EF004007A28780405F
:1011E0009104FDDBF11480C03744014013040480F6
:1011F0000304440082401101828000003812000084
:10120000000000000C73657269616C2D656D697476
:101210003F00711106C0EFF09FF0F11480C0374419
:1012200001401304048000401374040813341400B4
:101230007D148240110182807412000000000000C1
:101240000B73657269616C2D6B65793F711106C016
:10125000EFF0FFECF11480C0374401401304048028
:10126000004013740402133414007D1482401101F1
:101270008280000094120000000000000572657377
:101280006574B7F700E0938707D13707008098C3EC
:101290006F30607834130000000000000661636363
:1012A00065707400411106C62AC42EC232C08C403B
:1012B00091040146EFF05FE122858040910493079D
:1012C000F0076301F50493070002636EF500E37312
:1012D00086FEF11480C02A84EFF07FDD2380A50014
:1012E00085050506C1BFA5476315F5001305000276
:1012F000F9BFA9476309F502B5476306F502A1479F
:10130000E31AF5FA45DAEF00C02F030820085DD292
:10131000FD157D1603C5050093770508C1DF93779A
:101320000504C9FBEDB73284B2402245924502461E
:10133000410145AA50130000400000000374696297
:10134000F11480C0370400201304C44682800000DA
:101350007013000081000000033E696EF11480C02C
:1013600037540020130404FB8280000000000000BA
:10137000A0130000820000000E63757272656E7427
:101380002D736F7572636500F11480C037540020AF
:10139000130484FA8280000000006C040020000026
:1013A000C81300000000000009736574736F757244
:1013B0006365B7570020938787FA80C38040910404
:1013C000C0C3804091048280F81300000000000038
:1013D00006736F757263650071112AC0375500205E
:1013E000130585FAF11480C04041F11480C000411A
:1013F000024511018280000030140000000000004E
:10140000057175657279711106C0EFF03FF581477E
:101410001CC080409104EFF0BFF2F11480C0F114C1
:1014200080C01304800CEFF0FFE78240110151B738
:10143000A01400000000000007636F6D706172650A
:1014400051112AC42EC232C022858C40D040804423
:10145000B1046305C500130400002DA81DC903C60F
:1014600005001337160411E71337B60519C3130621
:1014700006028347040013B7170411E713B7B70533
:1014800019C393870702E318F6FC7D15850505044B
:10149000F1B77D5422459245024631018280000019
:1014A000BC1400000000000002637200711106C04D
:1014B000EF002015010A824011018280D41400003F
:1014C0000000000002626C00F11480C013040002EE
:1014D00082800000EC1400000000000005737061C1
:1014E0006365F11480C013040002D1B61815000022
:1014F000000000000673706163657300711106C01F
:1015000063568000EFF0FFFD7D14DDBF8040910445
:1015100082401101828000002C1500005000000064
:10152000065B636861725D0009A800005015000049
:1015300000000000046368617200711106C0EF00D2
:101540004050804091040344040082401101828095
:1015500064150000500000000128F11480C013043D
:10156000900209A88815000050000000015CF114E9
:1015700080C00144711106C0EF00204EC040A1049C
:101580008240110182800000BC1500003000000084
:10159000022E2200F11480C0170400001304A406D8
:1015A000711106C0EF002076F11480C013042002F0
:1015B000EF00A04A824011016F00100BD815000007
:1015C0003000000002632200F11480C01704000004
:1015D0001304A405F1B70000F4150000300000006A
:1015E00002732200F11480C01704000013042406C3
:1015F00045BF0000181600000000000004282E223D
:101600002900F11480C0068483C700008500BE90C5
:1016100093F71000BE9055A03C160000000000009B
:10162000042863222900F11480C0068483C70000C7
:101630008500BE9093F71000BE9082806016000077
:1016400000000000042873222900F11480C00684E1
:1016500083C700008500BE9093F71000BE9055A888
:10166000AC1600000000000004286E222900611161
:1016700006C22AC083470400BDCF05043305F40029
:101680008347040013D747002A9703470700BD8B01
:10169000AA97E114C0C098C003C40700EFF03FA1AF
:1016A000EFF0FFA00504E31DA4FCB1A0C8160000E4
:1016B00000000000056374797065611106C22AC0DC
:1016C00003450400050431A80417000000000000D1
:1016D000047479706500611106C22AC022858040B9
:1016E000910411C9F11480C003440400EFF03F9C41
:1016F00005047D1565F98040910492400245210161
:1017000082800000201700000000000005636F7554
:101710006E740504F11480C00344F4FF828000005D
:1017200044170000000000000A736B697073747244
:10173000696E67008347040005043E9493771400A4
:101740003E948280981700000000000006726973C2
:10175000632D7600711106C0EFF0BFEA324D65636C
:10176000726973702D5175696E74757320312E31E5
:101770002E3020666F7220524953432D56206279D5
:10178000204D61747468696173204B6F63680A004F
:101790008240110182800000E81700000000000074
:1017A000046865782E00411106C62AC42EC232C0D4
:1017B00022858040910493050002F11480C01354E7
:1017C000C5013D8829466363C4001D041304040356
:1017D000EFF0FF8D1205F115EDF1B2402245924573
:1017E00002464101FDB90000681800000000000039
:1017F000032E7273511106C42AC22EC0EFF07FE08F
:101800000F52657475726E737461636B3A205B205E
:10181000B70700209387C746B387274063CB0702EB
:1018200093D527008505F11480C02E84EFF0BFF713
:10183000EFF03FDD025D200089CD37050020130564
:10184000C546F11480C00041EFF0FFF57115FD159C
:10185000EDF9EFF01FDB04202A3E0A00A2401245FA
:101860008245310182800000141900000000000050
:1018700005776F726473711106C0EFF09FD8010A8B
:10188000EF10800DEFF0FFD7094164647265737348
:101890003A20F11480C0EFF01FF1EFF09FD6064C14
:1018A000696E6B3A2000F11480C00040EFF0BFEF8A
:1018B000EFF03FD507466C6167733A20F11480C0A2
:1018C0004040EFF05FEEEFF0DFD306436F64653A20
:1018D0002000F11480C02104EFF0DFE5EFF0BFEC51
:1018E000EFF03FD2064E616D653A2000F11480C0E2
:1018F0002104EFF09FDCEFF0DFD0010AEF10800948
:10190000A28780409104BDDF804091048240110194
:1019100082800000501900000000000006756E75FE
:1019200073656400711106C0EF003028EF00F049C4
:10193000A2878040910499E3C16731A0EF0030296C
:10194000A2878040910433848740824011018280C5
:10195000681900000000000003682E73970700005C
:101960009387A7E405A8000080190000000000008C
:10197000022E7300972700009387A71B21A8000061
:10198000341A00000000000003752E739727000032
:1019900093870719311106C82AC62EC432C236C031
:1019A0003E85EFF01FC609537461636B3A205B20DC
:1019B0003757002071171443A9471CC3B7050020EF
:1019C0009385C526858D63CF05028981F11480C07A
:1019D0002E84EF20C015EFF0DFC2025D20003757E4
:1019E0000020711714C363CF050089CD370600208E
:1019F00013068626F11480C00042E7000500711628
:101A0000FD15EDF9EFF0FFBF0620544F533A2000CB
:101A1000F11480C02284E7000500EFF09FBE04208F
:101A20002A3E0A00C2403245A24512468246510172
:101A3000828000004C1A00000000000005746F6BEB
:101A4000656EF11480C01304000201A8281B000079
:101A500000000000057061727365411106C62AC45A
:101A60002EC232C0EFF05F97A2858840C040A1042B
:101A7000EFF0DF8E1040804091043307C5009307DC
:101A80000002631EF400638AC502B307C50083C762
:101A900007006396870005063307C500EDB7638E20
:101AA000C500B307C50083C707000506E39987FE95
:101AB0003304C500198C7D1421A03304C500198C92
:101AC000F11498C0EFF09F8910C080409104B2409B
:101AD00022459245024641018280611106C22AC018
:101AE000228580409104856793870780E18F99C3A1
:101AF00085673E94F11480C0FD777D8C1364747B00
:101B0000F11480C02A84EF0070155204B7870700D3
:101B1000938777465D8CF11480C02A84110492402B
:101B2000024521016F0090136C1B00002000000093
:101B300005646F65733EF11480C0B72700006784A9
:101B400047B48280711106C0F11480C037040020B0
:101B5000710400402104937724003E94EFF0FFF7D6
:101B6000EF00C0731101824011018280A01B0000B0
:101B700000000000073C6275696C6473711106C057
:101B8000EF007035EF00004EEF002016EF00700AF6
:101B9000F11480C02144EF00D016824011018280F0
:101BA000CC1B0000000000000663726561746500D4
:101BB000711106C0EFF09FFCF11480C0B727000040
:101BC000678447B48240110182800000C41C000079
:101BD000000000001072656769737465726C697447
:101BE0006572616C2C0019E06F20A007611106C2BC
:101BF0002AC0228580409104930700803377F40047
:101C00006303F70021E381573377F4006303F700A0
:101C100005E39377F4018A071357F401320711643F
:101C200005045D8C598C1E05498CEF00F00671A0EF
:101C300052049167CD0713177500D98F5D8CEF00A3
:101C4000100AA5A8856793870780E18F99C3FD7760
:101C50003D8C89476308F50281773377F40063038D
:101C6000F7000DE3F11480C0298485679387C707C7
:101C70007D8C996785075D8C13177500598CEF0073
:101C8000B00121A8F11480C0FD777D8C136474032A
:101C900013177500598CEF009004520401E4804042
:101CA000910421A89167CD0713177500D98F1317D9
:101CB000F500D98F5D8CEF00900292400245210122
:101CC00082800000F81C000000000000086C6974AD
:101CD0006572616C2C00711106C0EF000001F114F7
:101CE00080C0214482401101FDBDF11480C017E481
:101CF000FFFF1304247A69A8801D00000000000083
:101D00000563616C6C2C711106C0F11480C0EF008A
:101D1000C069EFE01FB2EF100022A287804091045B
:101D200081CB9104896785075D8C82401101ADA745
:101D3000EF102014A2878040910481CB9104930777
:101D4000F00E5D8C8240110159AF8040910485678F
:101D500093870780E18F99C385673E94F11480C013
:101D6000FD777D8C1364747BEF0060775204B78736
:101D700007009387770E5D8C824011018DA70000CC
:101D80001C1E00000000000007696E6C696E652C67
:101D9000711106C08357040005671307171763996D
:101DA000E70083572400316719076393E7001104A4
:101DB00083570400116713072708639FE7008357C1
:101DC0002400130710116399E7008357440021672B
:101DD00013072708638FE70283570400216713075F
:101DE00027086388E7028357040013F73700751745
:101DF0006319E000F11480C003540400EF00C069CF
:101E00000904F11480C003540400EF00E0680904E1
:101E100051B780409104824011018280581E000019
:101E2000000000000E736B6970646566696E69740A
:101E3000696F6E008357040013F737007517630945
:101E4000E00009042167130727086385E700DDB771
:101E50001104CDB782800000D81E000000000000F1
:101E600007737472696E672C311106C82AC62EC4B6
:101E700032C236C01375F40F8C409104EF00400558
:101E8000EF00A00211C9F11480C003C40500EF00E7
:101E9000C0017D158505FDB7EF004002C240324507
:101EA000A24512468246510182803314C400C18E7D
:101EB000804091042106C147631EF60011CA7111CA
:101EC00006C0F11480C03684EF00005D824011012D
:101ED0000146814682800000E81E0000500000009C
:101EE000035B275D39A00000241F000000000000F4
:101EF0000127511106C42AC22EC0EFF09FB48840BA
:101F0000A285EF00902EA2878040910419E4F1147D
:101F100080C088C02E846F102059A240124582458F
:101F200031018280741F00003000000008706F7360
:101F300074706F6E6500711106C0EFF09FFB13F7B0
:101F400007010DE713F7070211CBEFF0DFD8F1140B
:101F500080C0170400001304E4E309A8EFF0BFD722
:101F6000F11480C017040000130424DA8240110128
:101F700059BB00009C1F0000300000000465786918
:101F80007400711106C0F11480C0374411011304AC
:101F90002408EF00C0548240110101A8B81F0000BE
:101FA00000000000047265742C00F11480C02164EC
:101FB00013042408D5A10000D81F00003000000041
:101FC0000772656375727365F11480C03704002071
:101FD000710400400DBB0000F81F000081000000EC
:101FE000057374617465F11480C0375400201304C4
:101FF00044FA8280000000001820000081000000E8
:10200000042873702900F11480C037540020130491
:1020100004FA828000000000282000000000000078
:10202000015DFD5701A800004020000010000000E5
:10203000015B814737570020130747FA1CC3828092
:102040007420000000000000013A711106C03757EB
:102050000020130707FA04C3EF00E0678240110174
:102060008547C9BFF11480C0371406C01304141784
:10207000BDA10000D420000030040000013B71111C
:1020800006C037570020130707FA1C4363819702E5
:10209000EFF02FD71520537461636B206E6F74209F
:1020A00062616C616E6365642E0A6F10C0553757AC
:1020B0000020130747FA184385476315F700EFF030
:1020C000DFEE19A0EFF0FFEBEF00401D82401101A1
:1020D0008DB70000F0200000000000000765786563
:1020E00063757465A28780409104678007000000D3
:1020F000082100001000000009696D6D65646961C8
:102100007465C14735A20000202100005000000086
:1021100006696E6C696E65009307000211AA0000E3
:102120003821000050000000076E6F6672616D6517
:1021300093070040F5A800005421000010000000A3
:102140000B636F6D70696C656F6E6C79930700033C
:10215000C5A0000070210000500000000A302D666C
:102160006F6C6461626C650093070004D1A000008D
:102170008C210000500000000A312D666F6C6461F4
:10218000626C65009307100465A00000A8210000A0
:10219000500000000A322D666F6C6461626C65004D
:1021A0009307200471A00000C4210000500000002B
:1021B0000A332D666F6C6461626C650093073004AE
:1021C00085A80000E0210000500000000A342D66C0
:1021D0006F6C6461626C65009307400491A8000015
:1021E000FC210000500000000A352D666F6C646110
:1021F000626C65009307500425A8000018220000B7
:10220000500000000A362D666F6C6461626C6500D8
:102210009307600431A8000038220000500000003D
:102220000A372D666F6C6461626C650093077004F9
:10223000F11480C03E84F1A8642200000000000078
:1022400008636F6E7374616E7400711106C0EF00E5
:102250008048EFF05FA8EFF05FD5EFF0FFF082402D
:1022600011012DA88C220000000000000932636FCC
:102270006E7374616E74711106C0EF00C045A28761
:1022800080409CC0EFF03FA5E9B7000000230000AC
:102290000000000006736D7564676500711106C06B
:1022A000EF002019EF006032A28780409104A9E777
:1022B000EF00A00F8327C4FF37E739E313079733F5
:1022C000804091046397E700F11480C00144EF005F
:1022D0000021F11480C037040020130404020040E0
:1022E000F11480C037040020210400401104EFD015
:1022F0003FFE824011018280F11480C0014405A894
:102300007C2300000000000008736574666C616740
:1023100073003757EA051307E71D63188700172472
:1023200000001304C47F6FF08FB4711106C0EF007A
:10233000C029A2878040910489EF37070020130746
:1023400007021C43C18F1CC38040910482401101CD
:10235000828037070020210718435C4371112AC08F
:102360007D556393A700A287C18F024511015CC30D
:102370008040910482401101828000009C23000073
:102380004100000007616C69676E65649377140013
:102390003E94937724003E9482800000B82300008E
:1023A00000000000046865726500F11480C0370405
:1023B0000020004082800000DC23000000000000BC
:1023C0000D666C6173687661722D68657265F114D3
:1023D00080C037040020410400408280F8230000C0
:1023E000000000000C61646472696E666C61736861
:1023F0003F000147C16739A8242400000000000005
:102400000A61646472696E72616D3F003707002073
:10241000B75700206366E4006374F4007D54828043
:10242000014482808C2400000000000005616C697A
:10243000676E711106C0EFF05FF7937714003E945A
:102440003707002000C3098809C40544EF00C00411
:1024500019A080409104824011018280711106C050
:102460009C40E114C0C09CC0EF008001A287804066
:102470009CC04180A28780409CC009048240110119
:10248000711106C0F11480C01DA00000D42400000A
:102490000000000002682C00711106C0EFF0FFF090
:1024A000F11480C0F11480C00944EF008005EFF002
:1024B0005FF4A2878040910481C7EFD03FD501A887
:1024C000A28780409104239087008040910482403D
:1024D00011018280F424000000000000012C711121
:1024E00006C0F11480C0EFF03FFB41808240110133
:1024F00065B70000742500000000000005616C6CE9
:102500006F74611106C22AC0228580409104EF00D9
:10251000C00BA2878040910495E3370700201C433D
:10252000AA97416563EFA702EFF0AF8D0B466C6190
:1025300073682066756C6C0A6F10E00CEFF03FE971
:10254000370700201C43AA9763EB8700EFF06F8BDF
:102550000952616D2066756C6C0A6F10C00A80406C
:1025600091041CC39240024521018280F11480C075
:10257000114441BFB42500000000000009666F72DD
:1025800067657472616D711106C0EF00C006370790
:102590000020B7070020938747531CC3370700204C
:1025A000210797E7FFFF9387A7B91CC3824011015A
:1025B00082800000E0250000000000000D636F6DC8
:1025C00070696C65746F72616D3F711106C0EFF0D8
:1025D000DFDDEFF01FE21344F4FF8240110182803F
:1025E0005C260000000000000C636F6D70696C6574
:1025F000746F72616D00711106C0EFF01FFDA2874C
:1026000080409104C1E3370700205C43184B63E628
:10261000E702EFE01FFF23205661726961626C657B
:102620007320636F6C6C69646520776974682064DB
:10263000696374696F6E6172790AF11480C037043E
:10264000002018405C4058C01CC018445C4458C46A
:102650001CC40144824011016DB500008C260000AD
:10266000000000000E636F6D70696C65746F666CBE
:1026700061736800711106C0EFF03FF5A2878040DA
:102680009104C5FF8240110182800000AC26000049
:102690004000000008286C61746573742900F1140F
:1026A00080C037040020210482800000C42600007E
:1026B00040000000042864702900F11480C0370431
:1026C00000208280DC2700000000000008286372E0
:1026D000656174652900711106C0EFF08FB605E0E1
:1026E000EFE03FF21520437265617465206E656509
:1026F0006473206E616D6520210A6F00D0709C406C
:10270000E114C0C09CC0EF00402E80409104A2871D
:102710008040910495C39C40E114C0C09CC0EFE090
:102720005FEE095265646566696E6520EFE0BFFA89
:10273000EFE03FED022E2000EFF0BFCFEFF0FFE81B
:10274000A28780409104A1EB3707002013070702FE
:1027500081471CC3EFF07FC5F11480C02144EFF026
:102760005FDAEFD01FDEEFF02FF0370500202105F4
:102770000C419041B7E639E3938696336319D6004E
:10278000F11480C0F11480C02E84EFD07FB400C15A
:102790008040910405A8EFF05FC1F11480C03704B8
:1027A000002021040040EFF09FD3370700202107CD
:1027B00000C380409104F11480C07D54EFF03FD2FB
:1027C000EFF08FEAEFF07FBE37070020710700C3FC
:1027D000804091048240110182800000F8270000AF
:1027E00000000000087661726961626C6500F11496
:1027F00080C005440DA8000014280000000000005F
:1028000009327661726961626C65F11480C00944B5
:1028100019A800007028000000000000096E766111
:10282000726961626C65511106C42AC22EC0EFF054
:102830009FEAEFF09FD9A28780409104D5EB3D88B5
:10284000711122C00A04EF000007EFF00FF6228595
:102850008040910419C580C19105EFF05FC87115E2
:102860007DF9F11480C0024411011364040889A0A9
:102870004029000000000000076275666665723A34
:10288000511106C42AC22EC0EFF05FB0EFF0BFE4D2
:10289000EFF0BFD3A28780409104B5E7EF00A0011D
:1028A000EFF0AFF0EFF0BFC3F11480C013040014D9
:1028B000EFF03FA69DA03705002041050C41818D1A
:1028C000370700201307475363DEE500EFE07FD3AF
:1028D0000F4E6F7420656E6F7567682052414D0A08
:1028E0006F0070520CC1F11480C02E846FF0AFBE27
:1028F000EF00400322858040910411C9EFF03FBEF4
:102900007D156DFD29A0EF00E001EFF09FBFF114F0
:1029100080C013040008EFF0DF9FA24012458245FB
:102920003101ADBA711106C0EFF0BFB0EFF0EFBBEF
:10293000F11480C02164130474468240110145B62D
:102940007C290000000000000F64696374696F6EE9
:102950006172797374617274711106C0EFF0FFC611
:102960008240110111E417D4FFFF1304647D8280BB
:10297000370400202104004082800000B8290000B4
:10298000000000000E64696374696F6E6172796E95
:1029900065787400B7E739E3938797331840E3828B
:1029A000E7189307900303478700E38CE71600407E
:1029B000F11480C001448280DC2900008100000005
:1029C00009686F6F6B2D66696E64F11480C03754AF
:1029D00000201304C4F98280082A0000F8290000AE
:1029E000000000000466696E6400B75700209387FA
:1029F000C7F99C4367800700A02A00000000000080
:102A0000062866696E642900411106C62AC42EC2D2
:102A100032C081450146611122C0804022C2C040BF
:102A2000A104EFF07FF34840FD57638AA704B7E79E
:102A300039E3938797336384A704F11480C021049A
:102A4000EFE03FCDE114C0C0124480C00244EFE08B
:102A50003F9FA287804091049DC3F11480C0210450
:102A6000EFE05FCDA285804091042A86F11480C0FA
:102A70002E84EFF01F98A2878040910499C7EFF051
:102A80007FF1A28780409104D9DF2E84F11480C0A9
:102A900032842101B24022459245024641018280A2
:102AA000B42A000020000000016BF11480C0224411
:102AB00082800000C82A000020000000016AF11492
:102AC00080C0024482800000DC2A00002000000058
:102AD0000169F11480C00E8482800000482B000040
:102AE00030000000056C65617665511106C42AC28C
:102AF0002EC03705002061050C412687F1141C43C8
:102B0000232EF7FE1107E31CB7FE2687F1141C43A2
:102B1000232EF7FE1107E31CB7FEEFF01F89EFF03D
:102B2000FFA4228780409104F11598C1F1159547C3
:102B30009CC10CC183A7C5FF850723AEF5FEA2404B
:102B40001245824531018280602B00002000000088
:102B50000428646F2900611112C20EC08280000037
:102B6000782B00002000000006756E6C6F6F7000FF
:102B70008241124221018280DC2B000030000000E3
:102B8000052B6C6F6F708D476311F44A8040910480
:102B9000611106C22AC0F11480C01704000013049A
:102BA0006401EFF04F96378507001305350695A0B1
:102BB000634C040033874140A29180409104B38765
:102BC0004140B3B7E700828033874140A291804003
:102BD0009104B3874140B337F7008280582C00003E
:102BE00030000000046C6F6F70008D47631FF4426B
:102BF00080409104611106C22AC0F11480C037845C
:102C0000110013043419EFF09F8D3795410013051F
:102C10003506EFF08FF9EFD0DFC1EF00C022498C0D
:102C2000EFF0FF8B22858040910409C5EF00203B27
:102C30007D15E5BFF11480C017040000130484F370
:102C4000EFF00F9537070020610700C38040910423
:102C50009240024521018280B42C00003000000027
:102C600002646F00711106C0EF0080023707002078
:102C70006107F11480C00043F11480C0014404C313
:102C8000EFF0AFF2F11480C00D4482401101828058
:102C9000F11480C0170400001304C4006FF04F8FBC
:102CA000611112C20EC0A28103A20400C040A1049F
:102CB00082800000042D000030000000033F646F9C
:102CC000711106C0EFF0DFFCF11480C03784414081
:102CD0001304347BEFF0BF80370700206107F11445
:102CE00080C00043EFF06FECEFF05F88F11480C01C
:102CF0000944F11480C0054437070020610704C36C
:102D000041B70000202D0000300000000463617313
:102D10006500F11480C00144F11480C02144828018
:102D2000482D000030000000033F6F66A147631E7E
:102D3000F42E80409104711106C0711122C08040B0
:102D40009104EF00203389A0B02D00003000000076
:102D5000026F6600A147631AF42C80409104711140
:102D600006C0711122C080409104F11480C0170484
:102D7000000013044403EFF0AF81EFF00FE3EFF036
:102D8000EFFEF11480C00944EF006023F11480C00D
:102D9000024411010504F11480C025448240110150
:102DA0008280A28780409104818F93B71700828030
:102DB000EC2D00003000000005656E646F66A547CD
:102DC0006315F42680409104711106C0711122C070
:102DD00080409104EF002028F11480C002441101CA
:102DE000F11480C021448240110182805C2E0000D9
:102DF0003000000007656E6463617365A147631668
:102E0000F42280409104611106C22AC022858040CC
:102E10009104EF00C01A09C5EF00601C7D15E5BFE5
:102E20009240024521018280EFE0AFFD0D4A756DB1
:102E30007020746F6F206661720AF1A7711106C06D
:102E4000EF00200329A0711106C0EF00C005A28782
:102E500080409104F1DB824011018280902E0000BD
:102E6000410000000C756A2D656E636F64696E67C2
:102E70003F00B707F8FF3377F4006304F700631EE1
:102E8000074A711106C0EF00C0038240110151A929
:102E9000202F0000410000000C73622D656E636FEF
:102EA00064696E673F00FD773377F4006304F700D1
:102EB00063150748711106C0EF00A003824011019D
:102EC0008DA19357C40093F7F70F1397C70093573B
:102ED000B400858BD2075D8F9357140093F7F73FAB
:102EE000D6075D8F93574401858BFE073364F70047
:102EF00082809357B400858B139777009357140003
:102F0000BD8BA2075D8F9357540093F7F703E60735
:102F10005D8F9357C400858BFE073364F700828072
:102F2000D02F0000410000000C636A2D656E636FB6
:102F300064696E673F00930700803377F400630491
:102F4000F700631C073E711106C0EF00A00082402D
:102F50001101C1AE93575400858B139727009357E7
:102F600014009D8B8E075D8F93577400858B9A0795
:102F70005D8F93576400858B9E075D8F9357A400E8
:102F8000858BA2075D8F935784008D8BA6075D8F7D
:102F900093574400858BAE075D8F9357B400858BA4
:102FA000B2073364F7008280711106C0F11480C04B
:102FB00021641304247AEFF02FCE82401101F11422
:102FC00080C017D4FFFF1304444E6FE07FDC000085
:102FD0004830000030000000047468656E00711114
:102FE00006C0A287804091041547639BE700EFF07D
:102FF000CFBB9C401D8CEFF07FE41364F40639A82E
:1030000009476394E702EFF04FBA9C401D8CEFF044
:103010009FE3B7870700938737065D8CA2878040C0
:103020009CC0824011016FF06FC3EFE08FDD17533A
:1030300074727563747572657320646F6E27742083
:103040006D617463680AC1A368300000300000003D
:1030500004656C736500711106C0EF00C003EF00DA
:10306000904182401101A5BF88300000300000006F
:1030700002696600711106C0EFF01FF3EFF0EFB2C6
:10308000F11480C0094439A8B030000030000000BD
:10309000056168656164711106C0EFF00FB1F1144C
:1030A00080C01544EFF08FCC824011018280000077
:1030B000D030000030000000067265706561740059
:1030C000711106C0EF0060078240110109BF0000C6
:1030D000F030000030000000057768696C65711100
:1030E00006C0EFF03FF9824011016F00D0380000B8
:1030F0002C3100003000000005756E74696C711190
:1031000006C0A287804091040547E390E7F2EFF004
:10311000BFE9EFF08FA9EFD0CFF1EFF0DFD2B787A3
:103120000700938737065D8C0DA80000643100000E
:103130003000000005616761696E711106C0A287E9
:10314000804091040547E392E7EEEFF00FA6EFD041
:103150004FEEEFF0BFCE1364F406824011016FF022
:103160000FB800008831000030000000056265677C
:10317000696E711106C0EFF04FA3F11480C00544D1
:103180008240110182800000B03100006206000020
:1031900003616E649C4091047D8C828037770400CB
:1031A00013073741B777F400938737436FD0EFE3C6
:1031B000D031000062060000036269639C40910404
:1031C0001344F4FF7D8C82801344F4FFC1BF0000E0
:1031D000F831000062060000026F72009C4091040A
:1031E0005D8C82803767040013073741B767F400AE
:1031F000938737436FD06FDF2032000062060000F4
:1032000003786F729C4091043D8C828037470400A4
:1032100013073741B747F400938737436FD0EFDC8C
:10322000443200004100000003636C7A93070002FF
:1032300019C481476345040006048507E5BF3E8441
:10324000828000005C3200006104000003726F7233
:103250009317F40105805D8C8280000074320000B9
:103260006104000003726F6C9357F40106045D8CD7
:1032700082800000983200006206000007617273CD
:10328000686966749C40910433D487408280B75744
:10329000044093873741A1A0BC32000062060000C1
:1032A00006727368696674009C40910433D4870089
:1032B0008280B75704009387374115A0E832000099
:1032C00062060000066C7368696674009C40910495
:1032D000339487008280B7170400938737417D8835
:1032E00052045D8C6FF0AF9FFC320000610400005F
:1032F000036E6F741344F4FF8280000014330000E7
:103300006104000006696E76657274001344F4FF70
:10331000828000002C330000600400000474727589
:103320006500F11480C07D548280000044330000A9
:10333000600400000566616C7365F11480C001448F
:1033400082800000AC330000000000000865766158
:103350006C7561746500711106C0EFE0EF87A2879C
:103360009840C040A10461113AC23EC037570020C6
:10337000130707FB1C4371113EC081471CC3EFE0DC
:103380004F83EF00800637570020130707FB824763
:1033900011011CC3824712472101E114C0C098C02B
:1033A0003E84824011016FE0CF800000D8330000DE
:1033B000810000000E686F6F6B2D696E746572700E
:1033C00072657400F11480C037540020130484F92E
:1033D00082800C3400000000F83300000000000080
:1033E00009696E74657270726574B75700209387AF
:1033F00087F99C4367800700D43500000000000077
:103400000B28696E7465727072657429711106C03B
:10341000370500201305C526637E9500EFE06F9EFB
:1034200010537461636B20756E646572666C6F77A0
:103430000A00D1AA370500201305C506636D950063
:10344000EFE02F9C0F537461636B206F766572669B
:103450006C6F770A4DAA37070020510783230700B6
:1034600063950300A68323207700EFE08FDD11E44E
:10347000C040A1048240110182809C40E114C0C080
:103480009CC0EFF08FD6A2859040C040A1040DEA09
:103490008840A285EF0040252286804091042DFAC5
:1034A000E114C0C088C02E84EFE0EFA2EFE06F957A
:1034B0000C206E6F7420666F756E642E0A00A1A2D8
:1034C000B7560020938646FA9442A1E637070020BB
:1034D000510781432320770093070003B3F6F500DB
:1034E0006391F602EFE02F9FEFE0AF911220697336
:1034F00020636F6D70696C652D6F6E6C792E0A009C
:1035000019A2C040A104F11480C03284EFE09FBD35
:1035100001B7C040A10413F5050819E9B38693402B
:10352000898213F5050419C913F5F50063E8A600AF
:10353000F11480C03284EFE0FFBAD9BD13B5160094
:10354000631DA00013F5052009C9F11480C0328461
:10355000EFE05F8EEFE01FB965BDEF006004375705
:103560000020130747FA184385476319F70013F73C
:10357000054009E7EFE01FAFEFE0BFAAF11480C0FC
:10358000328413F6050101C6EFE0DFB551B513F63D
:10359000050201C6EFE0CFFFA5BDEFE0CFF68DBD80
:1035A000711106C091CEFD16F11480C03684EFC0B3
:1035B0001FFBEFE04FF2E5FA9384C3FF80409104D4
:1035C00037070020510781432320770082401101F3
:1035D00082800000F83500008100000009686F6FEC
:1035E0006B2D71756974F11480C037540020130479
:1035F00044F9828070360000603600000000000050
:10360000047175697400370100201301C146B704C5
:1036100000209384C426375700207117A9471CC384
:1036200037570020130747FA81471CC3370700208C
:1036300051071CC337570020130707FB1CC337571C
:103640000020130787FA1CC3B70700209387C746DB
:103650005CC3B7570020938747F99C4367800700F6
:103660008436000000000000062871756974290086
:10367000EFD07FD9EFF07FD7EFD0BFF805206F6B89
:103680002E0AFDB7D8360000000000000564696707
:103690006974130404FD63640402A9476363F402BC
:1036A0006514636EF40093074002636CF400011428
:1036B000A9476366F400930740026364F400014481
:1036C0008280B7570020F1179C43E37AF4FEF1148F
:1036D00080C07D548280000080380000000000001F
:1036E000066E756D62657200111106CC16CA1AC895
:1036F0002AC62EC432C236C0B7570020F1179C43E9
:1037000071113EC0A2858040910422850544854602
:10371000814201438D47639FF50093077002034781
:1037200005006319F700034725006315F70083427E
:10373000150055A8CDC9034605000505FD159307DD
:10374000D0026314F600FD56F5B7930730026318F4
:10375000F600A9473756002071161CC2E1BF930737
:1037600040026318F600C1473756002071161CC28C
:10377000D1B7930750026318F600894737560020E7
:1037800071161CC245BF9307E0026314F60009449A
:1037900055B79307C0026300F60AF11480C0328463
:1037A000EFF03FEFA28780409104B5C7E114C0C09D
:1037B00023A054001A84F11480C0375400207114DF
:1037C0000040F11480C00144EF00406FEFC0DFD52E
:1037D000F11480C00144EF00606A228383A20400D8
:1037E000C040A10481BF634ED000E114C0C023A03B
:1037F00054001A84EF004063228383A20400C04077
:10380000A104F11423A0540085476305F400F114CA
:1038100023A0640011A00144824711013757002002
:1038200071171CC3E240D24242433245A2451246C0
:10383000824671018280168381420944CDD5FD15EF
:10384000B307B50003C607009307E002E308F6FEDE
:10385000F11480C03284EFF0DFE3A287804091044E
:10386000DDDBF11423A05400F11480C03754002094
:1038700071140040EF005009A282C040A1047DBF36
:10388000B038000000000000062E6469676974000B
:10389000A9476375F4001304040382809307400270
:1038A0006375F40013047403828013043002828071
:1038B000043900000000000004686F6C640071119E
:1038C0002AC037050020130545020347050093076A
:1038D00070046374F70205072300E5003A958547F5
:1038E000630BF7007D1583470500A300F5007D17E6
:1038F0008547E319F7FE23008500804091040245C7
:1039000011018280403900000000000005686F6CE2
:10391000643C71112AC03705002013054502034796
:103920000500930770046378F70005072300E5009E
:103930003A95230085008040910402451101828060
:103940006039000000000000047369676E00634581
:1039500004008040910482801304D0028DB70000DF
:10396000803900000000000002233E00B70700205D
:103970009387470203C4070085079CC0828000002C
:10398000A83900000000000003662353611106C23D
:103990002AC013050002EF00E0017D156DFD924085
:1039A0000245210182800000D4390000000000009F
:1039B00002662300711106C0F11480C03754002044
:1039C00071140040EF00801BEFF09FEC824011016A
:1039D00089B70000F4390000000000000223530002
:1039E000711106C0EF00A00175FC9C40E5FF82400C
:1039F000110182802C3A00000000000001237111A7
:103A000006C0F11480C03754002071140040F11436
:103A100080C00144EF00C075EF00E02580409104B4
:103A2000EFF01FE78240110159BD0000483A000045
:103A300000000000023C2300370700201307470264
:103A400081472300F7008280603A000000000000F8
:103A500002662E00F11480C01304000201A80000C9
:103A6000BC3A00000000000003662E6E611106C221
:103A70002AC0228580409104EFC0BFA9EF006039C1
:103A8000F11480C00144EFF03FFBEFF07FF5804080
:103A900091041304C002EFF0DFE709C5EFF09FF1D6
:103AA0007D156DFD0245110180409104EFF03FEA64
:103AB000F11480C0F11480C0A1A00000D83A000029
:103AC000000000000375642E711106C0EFF0DFF6F0
:103AD000EFF01FF135A00000103B000000000000D7
:103AE00002642E00711106C0EFC0BFA2EF00603269
:103AF000EFF09FF4EFF0DFEEEFC01FA3EFF03FE534
:103B0000EFF0DFE6EFD03FBD824011016FD07F9D27
:103B1000243B00000000000002752E00F11480C05C
:103B200001445DB7383B000000000000012EF11495
:103B300080C07D8445BF0000703B0000620600002D
:103B4000012A9C409104338487028280B707F402E3
:103B500093873743711106C0F1149CC0F11480C0E3
:103B60003D44EFE04F88824011016FE05F97000015
:103B70008C3B00006204000003756D2A9C40338773
:103B8000870298C033B4870282800000A83B0000FF
:103B900062040000026D2A009C403387870298C0AF
:103BA0003394870282800000C43B0000620400005E
:103BB000066D756C687375009C40910433A4870290
:103BC00082800000E43B000062060000012F9C4060
:103BD000910433C487028280B747F4029387374346
:103BE00095BF0000043C000062060000036D6F6496
:103BF0009C40910433E487028280B767F402938784
:103C0000374389BF203C00006204000005752F6D1A
:103C10006F649C4033F7870298C033D48702828058
:103C20003C3C000062040000042F6D6F64009C4067
:103C300033E7870298C033C487028280543C000077
:103C4000620400000432647570009C40E114C0C03E
:103C50009CC08280683C00006204000005326472EF
:103C60006F70C040A1048280883C000044000000C6
:103C7000053273776170A287C040DCC09C409844D5
:103C80009CC498C082800000A03C00006204000038
:103C900004326E6970009C40A1049CC082800000C8
:103CA000BC3C00004400000005326F766572E114F0
:103CB000C0C09C489CC0C04482800000E03C000022
:103CC0004400000005327475636B98409C44E11415
:103CD00098C098C8D844D8C09CC4C0C48280000092
:103CE000043D0000460000000432726F74009C40E6
:103CF00098449CC49C4898C89CC0D840C0C0C0444C
:103D0000D8C48280283D00004600000005322D7294
:103D10006F7498409C4898C8984498C09CC4D844F4
:103D2000C0C4C040D8C08280443D000020000000D4
:103D300003323E72611122C0804022C2C040A10401
:103D400082800000603D0000200000000332723ECF
:103D5000E114C0C0124480C00244210182800000EE
:103D6000783D00002000000003327240E114C0C022
:103D7000124480C0024482808C3D0000200000007C
:103D800006327264726F700021018280A83D0000CB
:103D9000420000000364322F9C401317F401058495
:103DA0008583D98F9CC08280C43D00004200000002
:103DB0000364322A9C4013D7F701BE972294598C92
:103DC0009CC08280E43D00004200000004647368EF
:103DD00072009C401317F40105808583D98F9CC025
:103DE00082800000043E000042000000046473680A
:103DF0006C009C4013D7F701BE972294598C9CC04D
:103E000082800000183E00004200000004646162ED
:103E10007300634B04008280403E000042000000BB
:103E200007646E65676174659C4093C7F7FF134430
:103E3000F4FF1387170098C0B337F7003E948280D1
:103E4000703E00004400000002642D0071112AC081
:103E50009C4498403385E74088C433B5E700DC4094
:103E600033848740098CA10402451101828000003F
:103E70009C3E00004400000002642B0071112AC027
:103E80009C4498403385E70088C43335F500DC4016
:103E90003E942A94A104024511018280B03E0000A4
:103EA0004100000003733E64F11480C07D84828071
:103EB000D03E0000440000000375642A711106C062
:103EC000EF00E001C040A1048240110182800000A7
:103ED0003C400000440000000475646D2A0001119C
:103EE00006CE16CC1ACA1EC82AC62EC432C236C086
:103EF000F11480C0C040F11480C08048EFF01FC8AA
:103F0000A2858840C040A104F11480C08040F11413
:103F100080C0C044EFF09FC6A2869040C040A1047C
:103F2000F11480C08040F11480C08048EFF01FC5BC
:103F30008147B302860033B3C2003386F200B33345
:103F40005600B3677300B382060033B3D200B38662
:103F5000F200B3B35600B367730080409104814709
:103F6000B382850033B3B200B385F200B3B355001A
:103F7000B3677300B302060033B3C2003386F200A6
:103F8000B3335600B3677300B382060033B3D20075
:103F9000B386F200B3B35600B36773008040910458
:103FA000F11480C0C040F11480C0C044EFF01FBDC8
:103FB0008147B302860033B3C2003386F200B333C5
:103FC0005600B3677300B382060033B3D200B386E2
:103FD000F200B3B35600B367730080409104814789
:103FE000B382850033B3B200B385F200B3B355009A
:103FF000B3677300B302060033B3C2003386F20026
:10400000B3335600B3677300B382060033B3D200F4
:10401000B386F200B3B35600B367730080409104D7
:10402000368490C0CCC088C4F240E2425243C243BE
:104030003245A24512468246056182806C400000EE
:1040400043000000022A2F00711106C0711122C026
:1040500080409104EFF05FB4F11480C0024411017C
:10406000EF00200D910482401101828098400000F1
:1040700043000000052A2F6D6F64711106C0711195
:1040800022C080409104EFF03FB1F11480C002449F
:1040900011018240110171A8C840000043000000D6
:1040A00003752A2F711106C0711122C0804091043E
:1040B000EFF0DFACF11480C002441101EF00C00446
:1040C0009104824011018280F8400000430000000A
:1040D00006752A2F6D6F6400711106C0711122C020
:1040E00080409104EFF09FA9F11480C002441101B7
:1040F0008240110111A8000024410000430000008B
:1041000006756D2F6D6F6400711106C0F11480C0CB
:104110000144EF00E00580409104910482401101C8
:10412000828000006041000043000000056D2F6D9B
:104130006F64711106C0F11480C07D84EF00200E01
:1041400080409104910482401101828041112AC66D
:104150002EC432C236C08146D0408C44014515A0E1
:1041600010420000440000000675642F6D6F64006B
:1041700041112AC62EC432C236C081460146CC4007
:10418000884431110EC812C616C41AC21EC022823B
:1041900083A104001304000486069357F601DD8E04
:1041A000060693D7F5015D8E86059357F501DD8DE3
:1041B00006056366D20063EA4602636836028147F9
:1041C000B3023640333336003386F240B3B3F200E5
:1041D000B3677300B382464033B34600B386F24000
:1041E000B3B3F200B367730005057D1455F42E8454
:1041F00088C0D4C090C4C2413242A242124382431A
:1042000051013245A245124682464101828000009A
:104210008C4200004400000005642F6D6F64711132
:1042200006C0635C0402EFF03FC0EFF0DFA4635F01
:104230000400EFF07FBFEFF01FA4EFF07FF3EFF08B
:104240009FA3EFF07FBE8240110135B4EFF0BFA213
:10425000EFF01FF282401101C1BEEFF0DFA1635108
:104260000402EFF07FBCEFF01FA1EFF07FF0EFF062
:10427000BFBBEFF05FA0EFF03FBB82401101E5BA9A
:10428000EFF07F9F82401101E5B50000A8420000D9
:104290004400000002642F00711106C0EFF03FF8E7
:1042A00082401101CDBA000000430000440000002C
:1042B00002662A00711106C063540402EFF0DFB6F3
:1042C000EFF07F9B63540402EFF01FB6EFF03FC1A5
:1042D000804091049C4091049CC0824011018280E6
:1042E000EFF07F99E35404FEEFF01FB4EFF03FBF0F
:1042F000804091049C4091049CC0824011012DB6E5
:10430000544300004400000002662F00711106C0F3
:1043100063530402EFF05FB1EFF0FF9563530402C3
:10432000EFF09FB0EFF03F95EFF05FE2EFF0BF9658
:10433000824011018280EFF01F94E35504FEEFF0FC
:10434000BFAEEFF05F93EFF07FE0EFF0FFAD8240A4
:10435000110191B270430000000000000232210000
:104360009C40D8401CC058C08044B10482800000EA
:10437000884300000000000002324000F1145C405D
:104380009CC0004082800000C04300004400000048
:104390000364753C71112AC09C44984033B5E70012
:1043A000DC4033B7A700898FB3B7870033E4E70059
:1043B0007D141344F4FFB104024511018280000012
:1043C000DC430000440000000364753E711106C028
:1043D000EFF07F8A8240110175BF00000C4400009D
:1043E0004400000002643C00511106C42AC22EC0E1
:1043F0001355F441CC40FD85EFF0DFF9298C2D8C6D
:10440000A24012458245310182800000284400000C
:104410004400000002643E00711106C0EFF0BF8549
:1044200082401101D1B700003C440000620400004A
:104430000364303C91047D84828000005844000075
:10444000420000000364303D9C4091045D8C1334B5
:1044500014003304804082807C440000440000004B
:1044600003643C3EDC403D8C9C409844B98FB104D1
:104470005D8C133414007D1482800000A044000081
:104480004400000002643D00DC403D8C9C409844A8
:10449000B98FB1045D8C13341400330480408280E2
:1044A000EC4400004300000007326C7368696674D6
:1044B0001374F40371C8130704FE63490700DC405A
:1044C0003394E700910423A004008280DC403397FA
:1044D0008700D8C013070002018FB3D7E7009840C8
:1044E000331487005D8C9104828000003C450000FD
:1044F0004300000007327273686966741374F40332
:1045000041C4130704FE634907009C40B3D7E7008A
:1045100091049CC0014482809C4033D7870098C09E
:1045200013070002018FB397E700D8403357870085
:104530005D8FD8C0804091048280000090450000CB
:104540004300000008326172736869667400137476
:10455000F4031DC8130704FE634A07009C4013D4EC
:10456000F741B3D7E74091049CC082809C4033D789
:10457000874098C013070002018FB397E700D84027
:10458000335787005D8FD8C080409104828000003F
:10459000E445000000000000046D6F7665007111B5
:1045A0002AC022879C40C040A10405CB6307F402C7
:1045B00063ED87003A94BA970345F4FFA38FA7FEF3
:1045C0007D14FD177D176DFB09A8034504002380AA
:1045D000A700050485077D176DFB80409104024507
:1045E000110182800C460000000000000466696C26
:1045F0006C0022879C40C040A10491C72300E400C6
:104600000504FD17E5FF804091048280904600007C
:1046100020060000014000408280B72704009387F5
:104620003740611106C22AC03E85711122C0804008
:104630009104FD16EFE0DFF6F11480C00244110191
:10464000EFD0AFEA930700803377F4006303F700FD
:1046500011E7B787F0FFFD177D8D05A0856793876C
:104660000780E18F99C385673E94F11480C0FD7780
:104670007D8C13647443EFD09FE68567FD17E18F4F
:10468000D2073364F5009240024521016FD03FE527
:10469000404700002006000001219C401CC0C04093
:1046A000A10482803727870013073702B727F70056
:1046B00093873702611106C22AC0FD1699E63A8532
:1046C000EF008002EFE0BF8F21A83E85A2878040E7
:1046D0009CC0F11480C03D44EFD0EFD0EF00C0008B
:1046E0009240024521018280711106C0930700802B
:1046F0003377F4006303F70011E7B787F0FFFD1786
:104700007D8D05A0856793870780E18F99C38567B5
:104710003E94F11480C0FD777D8C13647473EFD0E8
:104720001FDC9377F4019E075D8D85678117E18F0C
:104730009583E6073364F500824011016FD03FDABC
:104740005C47000000000000022B21009C40184044
:10475000BA971CC0C040A1048280000078470000C6
:104760002006000002684000035404008280B7570E
:1047700004009387374075B59C4700002006000071
:104780000868407369676E656400031404008280E2
:10479000B71704009387374069B50000C847000089
:1047A00020060000026821009C402310F400C04055
:1047B000A10482803717870013073702B717F70065
:1047C00093873702C5BD0000E847000000000000E5
:1047D00003682B219C4003570400BA972310F40070
:1047E000C040A104828000000448000020060000B0
:1047F00002634000034404008280B74704009387AB
:10480000374005B5284800002006000008634073C3
:1048100069676E656400030404008280B7070400C2
:1048200093873740FDBB000054480000200600007D
:10483000026321009C402300F400C040A104828058
:104840003707870013073702B707F7009387370248
:1048500095B50000744800000000000003632B21A0
:104860009C4003470400BA972300F400C040A10411
:10487000828000009048000000000000046269731C
:1048800021009C401840D98F1CC0C040A1048280E8
:10489000B0480000000000000462696321009C40F1
:1048A00093C7F7FF1840F98F1CC0C040A104828055
:1048B000CC4800000000000004786F7221009C408A
:1048C0001840B98F1CC0C040A1048280EC48000091
:1048D000000000000462697440001C4080409104A4
:1048E0007D8C133414007D14828000000C4900007C
:1048F000000000000568626973219C4003570400B2
:10490000D98F2310F400C040A104828030490000F8
:10491000000000000568626963219C4093C7F7FFAF
:1049200003570400F98F2310F400C040A1048280D3
:1049300050490000000000000568786F72219C401B
:1049400003570400B98F2310F400C040A1048280F3
:1049500070490000000000000568626974408357D8
:104960000400804091047D8C133414007D148280F7
:1049700090490000000000000563626973219C40BB
:1049800003470400D98F2300F400C040A1048280B3
:10499000B4490000000000000563626963219C4087
:1049A00093C7F7FF03470400F98F2300F400C040CA
:1049B000A1048280D4490000000000000563786FE4
:1049C00072219C4003470400B98F2300F400C040CB
:1049D000A1048280F44900000000000005636269C0
:1049E000744083470400804091047D8C133414008C
:1049F0007D14828000500000FFFFFFFF182D2D2D39
:104A000020466C6173682044696374696F6E6172DB
:104A100079202D2D2D00FD47739007BC8D47739095
:104A2000478097B7FFFF9387E76193E7370073905D
:104A3000573089679387878873A00730B71702407C
:104A400098431367170098C3D843B706FFF8758FCC
:104A5000D8C39843B706F7FEFD16758F98C39843E1
:104A6000B706FCFFFD16758F98C3D843B70681FFC4
:104A7000FD16758FD8C337079F0098C70100EFC098
:104A8000EFEA8140370100201301C1468141014214
:104A90008142014381431304A002B70400209384A0
:104AA000C4260145814501468146014781473707B4
:104AB0000020B7070020938747531CC33707002007
:104AC000210797B7FFFF9387A7671CC3F11480C026
:104AD00017B4FFFF1304C466B75300204C40FD56C3
:104AE0006380D50AB7E639E393869633638AD5089F
:104AF00093F60510ADC2711122C02104EFC09FC30F
:104B0000EFD04FB383560400035524004205C98EED
:104B1000B383D34002441101A5A02F01000000007F
:104B200000203301202425442403671890790000D5
:104B30000000073631098AA04224A031B003862044
:104B400094830100060008000018200A2E275F2D1C
:104B500060285C2F293C93F605089DC2BD898A0513
:104B6000B383B340F11480C02104EFC0BFBCEFD0C9
:104B70006FACE114C0C023A074002E84EFF03FA2FC
:104B8000EFD05FE122858040910429D937050020CC
:104B9000310500C1804091043705002041052320E4
:104BA00075004165956537E639E31306963363076B
:104BB000B50071151441E38CC6FE1105B705002040
:104BC000910588C1EFC0FFA34A4D65637269737098
:104BD0002D5175696E74757320312E312E3020661B
:104BE0006F7220524953432D562052563332494D4D
:104BF00043206F6E204348333256323033463850AC
:104C000036206279204D61747468696173204B6F3E
:104C100063680A00370100201301C146B704002071
:104C20009384C426375700207117A9471CC33757F0
:104C30000020130747FA81471CC33707002051079C
:104C40001CC337570020130707FB1CC3375700202E
:104C5000130787FA1CC3B70700209387C7465CC3B6
:104C6000F11480C01704000013048402F11480C002
:104C70001144EFD09FD78040910409C4EFD08FC674
:104C80006FE03F9D804091046FE0FF97696E69740B
:104C900013000000130000001300000013000000C8
:104CA00013000000130000001300000013000000B8
:104CB00013000000130000001300000013000000A8
:00000001FF
