:100000006F40A06013000000130000001300000008
:100010001300000013000000130000001300000094
:100020001300000013000000130000001300000084
:10003000130000006F40605D13000000130000001B
:100040000A46000000000000700C0000000C0000D8
:1000500000000000700C0000000000000000000024
:10006000700C0000700C0000000000000000000098
:10007000E00C000000000000A80C000000000000E0
:10008000700C0000700C0000700C000000000000FC
:10009000180D0000700C0000700C0000700C0000C7
:1000A000700C0000700C0000700C0000700C000060
:1000B000700C00004C0D0000700C0000700C000073
:1000C000700C0000700C0000700C0000700C000040
:1000D000700C0000700C0000700C0000700C000030
:1000E000700C0000700C0000700C0000700C000020
:1000F000700C0000700C0000700C0000800D0000FF
:10010000B40D0000700C0000700C0000700C0000BA
:10011000700C0000700C0000700C00004401000026
:10012000FFFFFFFF1D2D2D2D204D6563726973703C
:100130002D5175696E74757320312E312E31202D3D
:100140002D2D00006C010000810000000E686F6F13
:100150006B2D696E6974666C61736800F11480C000
:1001600037540020711482808C0E00009001000032
:10017000810000000B686F6F6B2D666C61736821E6
:10018000F11480C037540020611482809242000034
:10019000B8010000810000000F686F6F6B2D666C66
:1001A000757368666C617368F11480C03754002001
:1001B000511482808C0E0000D80100000000000065
:1001C00009696E6974666C617368B7570020F1172E
:1001D0009C436780070000004C0200000000000004
:1001E00006666C6173682100937734008DC7EF1049
:1001F000C01E1F666C61736821206E656564732084
:10020000342D6576656E2061646472657373657301
:100210002E0A6F30800815676368E400B757002026
:10022000E1179C4367800700EF10201B1943616EA4
:100230006E6F7420777269746520696E746F2063C5
:100240006F726520210A6F30400500006C020000CB
:10025000000000000A666C757368666C6173680064
:10026000B7570020D1179C43678007009402000015
:10027000810000000C686F6F6B2D68666C6173689D
:100280002100F11480C037540020411482809C4327
:100290000000000004030000000000000768666C16
:1002A000617368219377140085C7EF1000131D66F2
:1002B0006C61736821206E65656473206576656E78
:1002C000206164647265737365732E0A6F20F07C1D
:1002D00015676368E400B7570020C1179C43678027
:1002E0000700EF10800F1943616E6E6F74207772F4
:1002F00069746520696E746F20636F726520210ACE
:100300006F20B079180300002004000003737040D0
:10031000F11480C0268482802C0300002004000099
:1003200003737021A2848040910482804003000006
:100330002000000003727040F11480C00A848280A3
:1003400054030000200000000372702122818040CD
:1003500091048280680300006104000003647570EA
:10036000F11480C0828000007C0300006104000062
:100370000464726F700080409104828094030000D6
:1003800061040000043F6475700019C0F11480C05E
:1003900082800000AC0300006204000004737761F7
:1003A0007000A28780409CC082800000BC030000D7
:1003B00062040000036E697091048280D40300001F
:1003C00062040000046F76657200F11480C0C040C2
:1003D00082800000EC030000620400000474756376
:1003E0006B009C40F114C0C09CC0828004040000DB
:1003F0004300000003726F749C40D84080C0DCC092
:100400003A8482802004000043000000042D726FB3
:1004100074009C40D84098C0C0C03E8482800000D8
:100420003804000020040000047069636B000A04B3
:1004300026940040828000005C0400000000000060
:10044000056465707468B70700209387C726858F99
:10045000F11480C013D4274082800000840400007F
:10046000000000000672646570746800B707002021
:100470009387C746B3872740F11480C013D4274021
:10048000828000009C04000020000000023E7200F8
:10049000711122C08040910482800000B4040000E9
:1004A0002000000002723E00F11480C002441101DD
:1004B00082800000C804000020000000027240009A
:1004C000F11480C002448280DC040000200000009F
:1004D000057264726F70110182800000F4040000E4
:1004E0002000000005727069636B0A040A940040E2
:1004F000828000000C0500006104000002303D0015
:100500001334140033048040828000002005000072
:100510006104000003303C3E133414007D148280DB
:10052000300500006104000002303C007D848280C0
:100530004805000062040000023E3D009C4091041A
:1005400033A487007D1482806005000062040000EF
:10055000023C3D009C4091043324F4007D148280D1
:100560007805000062040000013C9C40910433A423
:100570008700330480408280900500006204000000
:10058000013E9C4091043324F40033048040828077
:10059000A80500006204000003753E3D9C409104E4
:1005A00033B487007D148280C0050000620400001F
:1005B00003753C3D9C4091043334F4007D148280EB
:1005C000DC0500006204000002753C009C409104C0
:1005D00033B487003304804082800000F8050000B7
:1005E0006204000002753E009C4091043334F40024
:1005F0003304804082800000140600006204000082
:10060000023C3E009C4091043D8C133414007D1448
:10061000828000003006000062040000013D9C4022
:1006200091043D8C13341400330480408280000018
:100630004806000062040000036D696E9C4091044E
:100640006343F4003E848280600600006204000080
:10065000036D61789C40910463C387003E8482806F
:100660007C0600006204000004756D696E009C4009
:1006700091046363F4003E848280000098060000C9
:100680006204000004756D6178009C40910463E38E
:1006900087003E8482800000F806000062060000A9
:1006A000012B9C4091043E9482803707040013077D
:1006B0003741B707F40093873743711106C06111C2
:1006C0003AC23EC0930700803377F4006303F7001B
:1006D00011E75204924721015D8C11A8F11480C0EA
:1006E0003D44EF100029F11480C0024421018240F2
:1006F00011016F1090320000140700006206000024
:10070000012D9C4091043384874082801344F4FF80
:10071000050461BF3C0700006206000003736C74AF
:100720009C40910433A4870082803727040013077C
:100730003741B727F4009387374341B76807000074
:100740006206000004736C7475009C40910433B41D
:10075000870082803737040013073741B737F4002A
:100760009387374399BF00007807000061040000B9
:1007700002312D007D148280880700006104000092
:1007800002312B00050482809807000061040000FC
:1007900002322D0079148280A80700006104000055
:1007A00002322B0009048280BC07000061040000B3
:1007B0000563656C6C2B110482800000D407000077
:1007C00061040000066E6567617465003304804053
:1007D00082800000E4070000610400000373687277
:1007E00005808280F4070000610400000373686CD8
:1007F00006048280040800006104000002322A001E
:100800002294828018080000610400000563656C72
:100810006C730A0482800000280800006104000054
:1008200002322F000584828040080000610400002D
:10083000036162739357F4413E943D8C82800000C3
:100840005808000061040000046576656E00937727
:1008500014003E94828000007808000081000000AF
:10086000046261736500F11480C0375400203114B4
:1008700082800A00000000008C08000000000000D8
:100880000662696E61727900894715A0A0080000B0
:100890000000000007646563696D616CA94701A8E9
:1008A000B80800000000000003686578C1473757AA
:1008B000002031171CC38280D8080000000000000F
:1008C0000565696E743FF11480C07324003021887F
:1008D000133414007D148280EC0800002004000012
:1008E0000465696E74007360043082800009000042
:1008F000200400000464696E740073700430828008
:10090000140900002004000003776669730050108A
:100910008280000044090000000000000863796341
:100920006C6573363400F11480C0F32700C873245B
:1009300000C0732700C8E39AE7FEF11480C03E842C
:1009400082800000600900000000000006637963F7
:100950006C657300F11480C0732400C082800000B5
:100960007809000000000000056D69736140F11412
:1009700080C07324103082809409000000000000C1
:10098000076D696D70696440F11480C0732430F1A3
:1009900082800000B009000000000000086D617254
:1009A000636869644000F11480C0732420F1828080
:1009B000C809000000000000056D65706321731018
:1009C0001434804091048280E0090000000000009F
:1009D000056D65706340F11480C07324103482800B
:1009E000FC09000000000000076D6361757365403D
:1009F000F11480C07324203482800000180A0000A3
:100A000000000000066D7476616C4000F11480C037
:100A10007324303482800000480A00000000000087
:100A2000086D656D6661756C7400711106C0EF002C
:100A3000D01A134D656D6F727920616363657373AE
:100A4000206572726F7261A0940A000000000000BD
:100A500013756E68616E646C65642D6E6F6E76657D
:100A600063746F72711106C0EF00301722556E6803
:100A7000616E646C656420496E7465727275707421
:100A800020286E6F6E2D766563746F726564290021
:100A90003DA80000D80A00000000000009756E683B
:100AA000616E646C6564711106C0EF0010131E5511
:100AB0006E68616E646C656420496E7465727275EF
:100AC00070742028766563746F72656429009128BC
:100AD0008240110182800000B00B00000000000085
:100AE000056661756C74711106C0EF00100F135527
:100AF0006E68616E646C65642045786365707469C6
:100B00006F6E0520F327103403D7070013F7370063
:100B10007517890711E38907739017348240110113
:100B20008280711106C0EF00500B09206D63617562
:100B300073653A20753DEF00D023EF00100A066D73
:100B40006570633A2000413DEF00B022EF00F008ED
:100B5000076D7476616C3A20553DEF009021EF00EF
:100B6000D00702210A008240110182803AD63ED489
:100B700042D246D04ACE4ECC52CA56C85AC65EC49D
:100B800062C266C083A00000E7800000824C124C65
:100B9000A24B324BC24A524AE24972498258125819
:100BA000A2573257C2501301410373002030000096
:100BB000100C000081000000096972712D666175DA
:100BC0006C74F11480C03754002021148280E60A2E
:100BD00000000100130000001300000013000000DB
:100BE00013000000130000001300000013000000B9
:100BF00013000000130000001300000013000000A9
:100C00001301C1FC06D8B7500020A11085B7000021
:100C1000480C0000810000000D6972712D6E6F6E2E
:100C2000766563746F72F11480C03754002011141C
:100C30008280640A000001001301C1FC06D8B7508D
:100C40000020911025B70000800C000081000000FA
:100C50000E6972712D636F6C6C656374696F6E00E1
:100C6000F11480C03754002001148280A60A0000CD
:100C70001301C1FC06D8B75000208110C5BD00008B
:100C8000B80C0000810000000C6972712D736F6652
:100C9000747761726500F11480C03754002013042A
:100CA000C4FD8280A60A00001301C1FC06D8B7501B
:100CB00000209380C0FD5DBDF00C000081000000AD
:100CC0000B6972712D7379737469636BF11480C051
:100CD00037540020130484FD8280A60A000001001E
:100CE0001301C1FC06D8B7500020938080FDBDBD24
:100CF000280D0000810000000B6972712D65787469
:100D000069375F30F11480C037540020130444FD6C
:100D10008280A60A000001001301C1FC06D8B7506A
:100D20000020938040FD99B55C0D0000810000001B
:100D3000076972712D616463F11480C0375400201B
:100D4000130404FD8280A60A000001001301C1FC07
:100D500006D8B7500020938000FD09BD900D00001B
:100D600081000000086972712D70696F6300F114D1
:100D700080C0375400201304C4FC8280A60A0000FF
:100D80001301C1FC06D8B75000209380C0FCF9BB0A
:100D9000C40D000081000000076972712D6F706141
:100DA000F11480C037540020130484FC8280A60A0A
:100DB000000001001301C1FC06D8B7500020938049
:100DC00080FC6DB3E80D00008100000009686F6FC2
:100DD0006B2D656D6974F11480C0375400201304C5
:100DE00044FC8280900F00000C0E00008100000087
:100DF00008686F6F6B2D6B657900F11480C03754F4
:100E00000020130404FC8280C80F0000340E000090
:100E1000810000000A686F6F6B2D656D69743F007B
:100E2000F11480C0375400201304C4FB82800210E8
:100E300000000000580E00008100000009686F6F7C
:100E40006B2D6B65793FF11480C03754002013047B
:100E500084FB82803C100000800E000081000000B6
:100E60000A686F6F6B2D706175736500F11480C037
:100E700037540020130444FB82808C0E00000000D5
:100E8000900E000000000000036E6F708280000072
:100E9000AC0E00000000000004656D697400B757D7
:100EA0000020938747FC9C4367800700C80E000022
:100EB00000000000036B6579B7570020938707FC9B
:100EC0009C43678007000000E40E00000000000063
:100ED00005656D69743FB75700209387C7FB9C4336
:100EE00067800700000F000000000000046B6579B8
:100EF0003F00B7570020938787FB9C43678007001C
:100F00007C0F000000000000057061757365B75725
:100F10000020938747FB9C4367800700B717024078
:100F2000154798CF37070200D8CFB70701401307FE
:100F30000010D8C3B717014093870780374744B4E0
:100F400013074744D8C33747444413078744D8CFCF
:100F50004167D8C7B747004093870740130750043D
:100F600098C73147D8C7096798CBD84789675D8F3D
:100F7000B747004093870740D8C78280B40F00006E
:100F8000000000000B73657269616C2D656D6974FA
:100F9000711106C0BD20A28780409104E5DFB747EC
:100FA000004093870740238287008040910482405D
:100FB00011018280EC0F0000000000000A736572CE
:100FC00069616C2D6B657900711106C08528A28757
:100FD00080409104E5DFF11480C0374400401304E1
:100FE0000440030444008240110182802810000064
:100FF000000000000C73657269616C2D656D697489
:101000003F00711106C02137F11480C03744004001
:1010100013040440004013740408133414007D14B6
:10102000824011018280000060100000000000007A
:101030000B73657269616C2D6B65793F711106C028
:10104000F935F11480C037440040130404400040D7
:1010500013740402133414007D1482401101828041
:101060008010000000000000057265736574B7F71A
:1010700000E0938707D13707008098C36F30E058AE
:101080001C110000000000000661636365707400BD
:10109000411106C62AC42EC232C08C4091040146BA
:1010A000213D2285804091049307F0076300F504F9
:1010B00093070002636DF500E37486FEF11480C0AF
:1010C0002A84F13B2380A50085050506D1BFA547ED
:1010D0006315F50013050002C5B7A9476308F502BB
:1010E000B5476305F502A147E31CF5FA55DAF52487
:1010F0000308200855D6FD157D1603C50500937716
:101100000508D9DF93770504C1FFEDB73284B240FB
:1011100022459245024641017DA20000381100009F
:101120004000000003746962F11480C0370400209D
:101130001304C446828000005811000081000000A2
:10114000033E696EF11480C037540020130404FB81
:101150008280000000000000881100008200000072
:101160000E63757272656E742D736F7572636500B0
:10117000F11480C037540020130484FA82800000E8
:1011800000006C0400200000B0110000000000000E
:1011900009736574736F75726365B7570020938721
:1011A00087FA80C380409104C0C38040910482804C
:1011B000E01100000000000006736F7572636500A7
:1011C00071112AC037550020130585FAF11480C02B
:1011D0004041F11480C000410245110182800000AD
:1011E000141200000000000005717565727971111C
:1011F00006C0893F81471CC0804091043537F114F7
:1012000080C0F11480C01304800C59358240110154
:1012100069B70000841200000000000007636F6DD2
:101220007061726551112AC42EC232C022858C4071
:10123000D0408044B1046305C500130400002DA80C
:101240001DC903C605001337160411E71337B60589
:1012500019C3130606028347040013B7170411E7E6
:1012600013B7B70519C393870702E318F6FC7D157A
:1012700085050504F1B77D542245924502463101AA
:1012800082800000A01200000000000002637200D3
:10129000711106C09922010A82401101828000006A
:1012A000B81200000000000002626C00F11480C05F
:1012B0001304000282800000D01200000000000031
:1012C000057370616365F11480C013040002C1BE30
:1012D000F81200000000000006737061636573007F
:1012E000711106C063558000F93F7D14E5BF804051
:1012F00091048240110182800C1300005000000014
:10130000065B636861725D0009A80000301300008D
:1013100000000000046368617200711106C0C12101
:101320008040910403440400824011018280000047
:1013300044130000500000000128F11480C0130481
:10134000900209A86413000050000000015CF11431
:1013500080C00144711106C07929C040A1048240B7
:10136000110182809413000030000000022E220040
:10137000F11480C01704000013046406711106C044
:101380002927F11480C013042002B52182401101E5
:101390006F005005B013000030000000026322000F
:1013A000F11480C0170400001304A405C1BF00009D
:1013B000CC1300003000000002732200F11480C042
:1013C000170400001304240655BF0000F0130000AA
:1013D0000000000004282E222900F11480C0068499
:1013E00083C700008500BE9093F71000BE9045A013
:1013F0001414000000000000042863222900F114E6
:1014000080C0068483C700008500BE9093F710005B
:10141000BE9082803814000000000000042873226F
:101420002900F11480C0068483C700008500BE90A7
:1014300093F71000BE9075A080140000000000001B
:1014400004286E222900611106C22AC083470400C5
:10145000A5CF05043305F4008347040013D74700E4
:101460002A9703470700BD8BAA97E114C0C098C014
:1014700003C407002D3425340504E31FA4FCA9A0F0
:101480009C14000000000000056374797065611110
:1014900006C22AC003450400050431A8D414000084
:1014A00000000000047479706500611106C22AC052
:1014B00022858040910409C9F11480C003440400CE
:1014C000F93A05047D156DF980409104924002457A
:1014D00021018280F01400000000000005636F7598
:1014E0006E740504F11480C00344F4FF8280000090
:1014F00014150000000000000A736B6970737472A9
:10150000696E67008347040005043E9493771400D6
:101510003E9482806415000000000000067269732A
:10152000632D7600711106C04D3D324D65637269C1
:1015300073702D5175696E74757320312E312E3193
:1015400020666F7220524953432D56206279204DF8
:1015500061747468696173204B6F63680A0082402C
:1015600011018280B0150000000000000468657859
:101570002E00411106C62AC42EC232C022858040E8
:10158000910493050002F11480C01354C5013D88F5
:1015900029466363C4001D041304040309321205C1
:1015A000F115F5F1B240224592450246410121BBB9
:1015B0002416000000000000032E7273511106C4AF
:1015C0002AC22EC0193D0F52657475726E73746114
:1015D000636B3A205B20B70700209387C746B38729
:1015E000274063C8070293D527008505F11480C002
:1015F0002E844137DD33025D200081CD3705002088
:101600001305C546F11480C00041A5377115FD15BD
:10161000F5F9E13304202A3E0A00A2401245824532
:1016200031018280B41600000000000005776F725F
:101630006473711106C05533010AEF10E000713B6D
:1016400009416464726573733A20F11480C01537E0
:101650006933064C696E6B3A2000F11480C000407B
:10166000093FA53B07466C6167733A20F11480C0BF
:10167000404001379D3306436F64653A2000F11402
:1016800080C021044135F535893B064E616D653AD0
:101690002000F11480C02104DD3B8133010AEF00FA
:1016A000307EA28780409104D9DB80409104824043
:1016B00011018280F41600000000000006756E75AE
:1016C00073656400711106C0EF007022EF003043B3
:1016D000A2878040910489E7C1679387078031A082
:1016E000EF003023A28780409104338487408240FA
:1016F000110182800C1700000000000003682E73A7
:1017000097070000938727E705A80000241700002B
:1017100000000000022E7300972700009387E70760
:1017200021A80000D01700000000000003752E73F0
:101730009727000093874705311106C82AC62EC493
:1017400032C236C03E85513909537461636B3A2009
:101750005B203757002031171443A9471CC3B70536
:1017600000209385C526858D63CE05028981F114FD
:1017700080C02E84EF2020028D31025D200037577B
:101780000020311714C363CF050089CD3706002030
:1017900013068626F11480C00042E700050071168A
:1017A000FD15EDF91D390620544F533A2000F11470
:1017B00080C02284E70005000D3104202A3E0A0083
:1017C000C2403245A2451246824651018280000045
:1017D000E81700000000000005746F6B656EF114DF
:1017E00080C01304000201A8C0180000000000001F
:1017F000057061727365411106C62AC42EC232C0DB
:10180000C132A2858840C040A1042D3A10408040DA
:1018100091043307C50093070002631EF400638A36
:10182000C502B307C50083C7070063968700050696
:101830003307C500EDB7638EC500B307C50083C786
:1018400007000506E39987FE3304C500198C7D1453
:1018500021A03304C500198CF11498C0E53010C0E4
:1018600080409104B2402245924502464101828067
:10187000611106C22AC02285804091048567938742
:101880000780E18F99C385673E94F11480C0FD778E
:101890007D8C1364747BF11480C02A84EF00501097
:1018A0005204B7870700938777465D8CF11480C098
:1018B0002A8411049240024521016F00700E00003D
:1018C000001900002000000005646F65733EF114EC
:1018D00080C0B72700006784C78D8280711106C061
:1018E000F11480C037040020710400402104937774
:1018F00024003E94B53FDD2D11018240110182800C
:101900003019000000000000073C6275696C6473C8
:10191000711106C0EF00B02E4D29892AEF00F005A5
:10192000F11480C02144EF005011824011018280E7
:1019300058190000000000000663726561746500BC
:10194000711106C0F137F11480C0B7270000678419
:10195000C78D824011018280481A000000000000FB
:101960001072656769737465726C69746572616C15
:101970002C0019E06F107075611106C22AC0228513
:1019800080409104930700803377F4006303F700ED
:1019900021E381573377F4006303F70005E393777E
:1019A000F4018A071357F4013207116405045D8CB2
:1019B000598C1E05498CEF00300259A052049167E2
:1019C000CD0713177500D98F5D8CEF0010058DA81A
:1019D000856793870780E18F99C3FD773D8C8947A1
:1019E0006307F50281773377F4006303F70005E3BB
:1019F000F11480C0298485679387C7077D8C996718
:101A000085075D8C13177500598CF92719A8F114F7
:101A100080C0FD777D8C1364740313177500598C97
:101A2000ED2F520401E48040910419A89167CD077D
:101A300013177500D98F1317F500D98F5D8CF12F0F
:101A400092400245210182807C1A000000000000C3
:101A5000086C69746572616C2C00711106C03920C4
:101A6000F11480C021448240110121B7F11480C0DB
:101A700017F4FFFF1304048F61A80000001B00008F
:101A8000000000000563616C6C2C711106C0F1143C
:101A900080C0B12DEFE0FFC6EF102015A287804077
:101AA000910481CB9104896785075D8C8240110187
:101AB00025A7EF104007A2878040910481CB9104B5
:101AC0009307F00E5D8C8240110181AF804091043C
:101AD000856793870780E18F99C385673E94F114EA
:101AE00080C0FD777D8C1364747B052F5204B7870B
:101AF00007009387770E5D8C8240110139AF00009B
:101B0000981B00000000000007696E6C696E652C70
:101B1000711106C0835704000567130717176399EF
:101B2000E70083572400316719076393E700110426
:101B300083570400116713072708639FE700835743
:101B40002400130710116399E700835744002167AD
:101B500013072708638DE7028357040021671307E3
:101B600027086386E7028357040013F737007517C9
:101B70006318E000F11480C003540400B12D09047F
:101B8000F11480C003540400812D090461B7804022
:101B90009104824011018280D41B000000000000EB
:101BA0000E736B6970646566696E6974696F6E0047
:101BB0008357040013F7370075176309E000090421
:101BC0002167130727086385E700DDB71104CDB748
:101BD00082800000481C000000000000077374723F
:101BE000696E672C311106C82AC62EC432C236C0AF
:101BF0001375F40F8C409104A920152009C9F11424
:101C000080C003C4050021287D158505C5BF0D20B2
:101C1000C2403245A24512468246510182803314A9
:101C2000C400C18E804091042106C147631DF600A7
:101C300009CA711106C0F11480C03684712B82402C
:101C40001101014681468280581C000050000000AE
:101C5000035B275D39A00000941C00000000000019
:101C60000127511106C42AC22EC0953E8840A28584
:101C7000EF003026A2878040910419E4F11480C05F
:101C800088C02E846F10A04BA240124582453101BE
:101C900082800000DC1C00003000000008706F73C0
:101CA00074706F6E6500711106C0653F13F7070110
:101CB0001DE313F7070209CB4D33F11480C017045D
:101CC0000000130424E501A8493BF11480C0170467
:101CD00000001304C4DB8240110145BB041D000059
:101CE00030000000046578697400711106C0F114B9
:101CF00080C03744110113042408052382401101D8
:101D000009A80000201D0000000000000472657496
:101D10002C00F11480C021641304240875A900006C
:101D2000401D000030000000077265637572736526
:101D3000F11480C03704002071040040B9B30000E2
:101D4000601D000081000000057374617465F1146A
:101D500080C037540020130444FA82800000000041
:101D6000801D000081000000042873702900F11418
:101D700080C037540020130404FA82800000000061
:101D8000901D000000000000015DFD5701A800004B
:101D9000A81D000010000000015B8147375700209C
:101DA000130747FA1CC38280D81D00000000000002
:101DB000013A711106C037570020130707FA04C310
:101DC0003D2D824011018547D1BFF11480C03714E9
:101DD00006C01304141791A1301E00003004000047
:101DE000013B711106C037570020130707FA1C4347
:101DF00063819702EFF06FDE1520537461636B20EF
:101E00006E6F742062616C616E6365642E0A6F1080
:101E1000C04837570020130747FA18438547631413
:101E2000F700C53D11A0D135D12282401101B5B7CF
:101E30004C1E00000000000007657865637574653E
:101E4000A28780409104678007000000641E0000A4
:101E50001000000009696D6D656469617465C147B2
:101E600035A200007C1E00005000000006696E6C68
:101E7000696E65009307000211AA0000941E00001D
:101E800050000000076E6F6672616D659307004039
:101E9000F5A80000B01E0000100000000B636F6D7D
:101EA00070696C656F6E6C7993070003C5A00000C4
:101EB000CC1E0000500000000A302D666F6C64617B
:101EC000626C650093070004D1A00000E81E0000CA
:101ED000500000000A312D666F6C6461626C650011
:101EE0009307100465A00000041F000050000000CC
:101EF0000A322D666F6C6461626C65009307200482
:101F000071A00000201F0000500000000A332D6661
:101F10006F6C6461626C65009307300485A80000F3
:101F20003C1F0000500000000A342D666F6C646195
:101F3000626C65009307400491A80000581F0000E0
:101F4000500000000A352D666F6C6461626C65009C
:101F50009307500425A80000741F000050000000E3
:101F60000A362D666F6C6461626C650093076004CD
:101F700031A80000941F0000500000000A372D66B1
:101F80006F6C6461626C650093077004F11480C02B
:101F90003E84E1A0B81F00000000000008636F6EDF
:101FA0007374616E7400711106C091297D3495338C
:101FB000113F824011011DA8DC1F0000000000003D
:101FC0000932636F6E7374616E74711106C00529F6
:101FD000A28780409CC05134D1BF0000482000003F
:101FE0000000000006736D7564676500711106C01E
:101FF00069223126A28780409104B9E3CD28832746
:10200000C4FF1307F0FF804091046396E700F114CA
:1020100080C001441924F11480C037040020130447
:1020200004020040F11480C0370400202104004065
:102030001104EFE06F9BEFE0AFA2824011018280BC
:10204000F11480C0014405A8C02000000000000079
:1020500008736574666C616773003757EA05130788
:10206000E71D63188700172400001304A4656FF0B0
:102070008FBD711106C06124A2878040910489EF51
:1020800037070020130707021C43C18F1CC3804081
:1020900091048240110182803707002021071843F4
:1020A0005C4371112AC07D556393A700A287C18F3D
:1020B000024511015CC3804091048240110182807D
:1020C000E02000004100000007616C69676E6564F4
:1020D000937714003E94937724003E94828000000E
:1020E000FC20000000000000046865726500F11427
:1020F00080C03704002000408280000020210000C2
:10210000000000000D666C6173687661722D686571
:102110007265F11480C037040020410400408280C1
:1021200040210000000000000C61646472696E666A
:102130006C6173683F000147C1679387078039A8C6
:102140006C210000000000000A61646472696E7214
:10215000616D3F0037070020B75700206366E40039
:102160006374F4007D54828001448280CC2100009D
:102170000000000005616C69676E711106C0853F43
:10218000937714003E943707002000C3098801C4E8
:102190000544992019A08040910482401101828059
:1021A000711106C09C40E114C0C09CC01928A287D0
:1021B00080409CC04180A28780409CC0090482402E
:1021C0001101711106C0F11480C005A01022000099
:1021D0000000000002682C00711106C0093FF114D4
:1021E00080C0F11480C009448928B137A28780409B
:1021F000910481C7EFE00F8B01A8A2878040910472
:102200002390870080409104824011018280000069
:102210002C22000000000000012C711106C0F114F6
:1022200080C05D3F4180824011017DB7AC2200003B
:102230000000000005616C6C6F74611106C22AC059
:102240002285804091046528A2878040910485E71B
:10225000370700201C43AA9741651305058063EEEC
:10226000A702EFF08F970B466C6173682066756C60
:102270006C0A6F108002713D370700201C43AA973B
:1022800063EB8700EFF06F950952616D2066756C06
:102290006C0A6F108000804091041CC3924002457C
:1022A00021018280F11480C0114441BFE822000066
:1022B0000000000009666F7267657472616D7111CC
:1022C00006C0952037070020B707002093874753A3
:1022D0001CC337070020210797E7FFFF938747E4D8
:1022E0001CC3824011018280102300000000000006
:1022F0000D636F6D70696C65746F72616D3F711104
:1023000006C0F5330D3D1344F4FF82401101828075
:1023100088230000000000000C636F6D70696C651D
:10232000746F72616D00711106C0D13FA287804049
:102330009104B5EF370700205C43184B63E6E702D2
:10234000EFF0AF8923205661726961626C6573207A
:10235000636F6C6C69646520776974682064696375
:1023600074696F6E6172790AF11480C037040020BD
:1023700018405C4058C01CC018445C4458C41CC47D
:1023800001448240110155BDB4230000000000004B
:102390000E636F6D70696C65746F666C6173680055
:1023A000711106C0A93FA28780409104D5FF8240E9
:1023B00011018280D42300004000000008286C61D5
:1023C000746573742900F11480C03704002021045F
:1023D00082800000EC2300004000000004286470AC
:1023E0002900F11480C0370400208280EC24000012
:1023F000000000000828637265617465290071118E
:1024000006C0EFF0CFBD05E0EFE03FFD15204372C1
:1024100065617465206E65656473206E616D65200D
:10242000210A6F0090679C40E114C0C09CC05524F5
:1024300080409104A2878040910495C39C40E114A0
:10244000C0C09CC0EFE07FF9095265646566696EA3
:102450006520EFF08F85EFE05FF8022E2000313B22
:10246000793DA28780409104A1E737070020130738
:10247000070281471CC3A539F11480C02144753B74
:10248000EFD03FF9EFF00FF63705002021050C41A2
:1024900090419306F0FF6319D600F11480C0F11447
:1024A00080C02E84EFD05FD400C1804091042DA065
:1024B0003D39F11480C03704002021040040B13BB5
:1024C00037070020210700C380409104F11480C029
:1024D0007D54A133EFF00FF1193937070020710750
:1024E00000C38040910482401101828008250000D1
:1024F00000000000087661726961626C6500F11489
:1025000080C005440DA80000242500000000000044
:1025100009327661726961626C65F11480C00944A8
:1025200019A800007825000000000000096E7661FF
:10253000726961626C65511106C42AC22EC0C13530
:102540007D3BA28780409104D5E33D88711122C074
:102550000A048520EFF0EFFB22858040910411C52D
:1025600080C191055D39711565FDF11480C002448B
:1025700011011364040825A83026000000000000A3
:10258000076275666665723A511106C42AC22EC08A
:102590008136B535AD33A28780409104ADE3112873
:1025A000EFF02FF79D39F11480C013040014753437
:1025B000B1A83705002041050C41818D3707002067
:1025C0001307475363DEE500EFE03FE10F4E6F7402
:1025D00020656E6F7567682052414D0A6F00F04BA1
:1025E0000CC1F11480C02E846FF02FC72D202285DE
:1025F0008040910419C515317D1575FD19A021285C
:102600002D39F11480C013040008813CA24012450A
:1026100082453101E1BA711106C08536EFF00FC570
:10262000F11480C021641304744682401101F5B690
:1026300068260000000000000F64696374696F6E13
:102640006172797374617274711106C04D39824080
:10265000110111E417E4FFFF130484AC82803704F6
:102660000020210400408280A0260000000000001D
:102670000E64696374696F6E6172796E6578740057
:102680009307F0FF1840E38CE7129307F00F03471E
:102690008700E386E7120040F11480C00144828085
:1026A000C42600008100000009686F6F6B2D666909
:1026B0006E64F11480C0375400201304C4F9828082
:1026C000F0260000E0260000000000000466696EAD
:1026D0006400B75700209387C7F99C4367800700C1
:1026E0007827000000000000062866696E64290053
:1026F000411106C62AC42EC232C08145014661116D
:1027000022C0804022C2C040A1043D3F4840FD5746
:102710006383A704F11480C02104EFE09FDCE1147F
:10272000C0C0124480C00244EFE0DFAFA287804007
:10273000910495C3F11480C02104EFE0BFDCA285B1
:10274000804091042A86F11480C02E84ED32A28745
:102750008040910491C72D37A28780409104DDD736
:102760002E84F11480C032842101B240224592456A
:1027700002464101828000008C27000020000000FA
:10278000016BF11480C0224482800000A027000069
:1027900020000000016AF11480C002448280000021
:1027A000B4270000200000000169F11480C00E84ED
:1027B000828000001C28000030000000056C65616C
:1027C0007665511106C42AC22EC037050020610566
:1027D0000C412687F1141C43232EF7FE1107E31C3E
:1027E000B7FE2687F1141C43232EF7FE1107E31CC6
:1027F000B7FEF538453C228780409104F11598C119
:10280000F11595479CC10CC183A7C5FF850723AE71
:10281000F5FEA24012458245310182803428000035
:10282000200000000428646F2900611112C20EC04C
:10283000828000004C2800002000000006756E6CAD
:102840006F6F70008241124221018280B028000027
:1028500030000000052B6C6F6F708D47631DF446D0
:1028600080409104611106C22AC0F11480C017048F
:10287000000013046401EFF04FA137850700130532
:1028800035068DA0634C040033874140A2918040FF
:102890009104B3874140B3B7E7008280338741405A
:1028A000A29180409104B3874140B337F700828002
:1028B0002429000030000000046C6F6F70008D4709
:1028C000631BF44080409104611106C22AC0F114D8
:1028D00080C03784110013043419813237954100C8
:1028E000130535062930EFD0DFE1092C498C35324C
:1028F00022858040910401C5592E7D15EDBFF1144C
:1029000080C017040000130424F4EFF06FA0370711
:102910000020610700C380409104924002452101DC
:10292000828000007C2900003000000002646F00FB
:10293000711106C01D20370700206107F11480C007
:102940000043F11480C0014404C3EFF04FFAF114C6
:1029500080C00D44824011018280F11480C01704B0
:1029600000001304C4006FF0AF9A611112C20EC0D0
:10297000A28103A20400C040A1048280C4290000F7
:1029800030000000033F646F711106C0F937F11485
:1029900080C0378441401304347B41303707002026
:1029A0006107F11480C00043EFF06FF4E538F114D3
:1029B00080C00944F11480C0054437070020610736
:1029C00004C361B7E02900003000000004636173B4
:1029D0006500F11480C00144F11480C0214482805C
:1029E000082A000030000000033F6F66A14763140F
:1029F000F42E80409104711106C0711122C08040F4
:102A00009104392E89A000006C2A000030000000DB
:102A1000026F6600A1476310F42C8040910471118D
:102A200006C0711122C080409104F11480C01704C7
:102A3000000013040403EFF0AF8DEFF04FEB9D3077
:102A4000F11480C009442D24F11480C00244110106
:102A50000504F11480C02544824011018280A287C0
:102A600080409104818F93B717008280A82A0000CC
:102A70003000000005656E646F66A547631DF42491
:102A800080409104711106C0711122C080409104F0
:102A90008D2CF11480C002441101F11480C0214436
:102AA0008240110182800000102B000030000000E5
:102AB00007656E6463617365A147631EF4208040FF
:102AC0009104611106C22AC02285804091044D22E2
:102AD00001C5752A7D15EDBF924002452101828016
:102AE000EFE0BF8F0D4A756D7020746F6F206661C7
:102AF000720A65A7711106C03D2021A0711106C0A0
:102B0000A928A28780409104E1DF824011018280E0
:102B1000442B0000410000000C756A2D656E636F48
:102B200064696E673F00B707F8FF3377F40063040A
:102B3000F7006312074A711106C02D288240110167
:102B4000BDA90000D42B0000410000000C73622DD1
:102B5000656E636F64696E673F00FD773377F400DD
:102B60006304F70063190746711106C025288240E7
:102B70001101B1A19357C40093F7F70F1397C70042
:102B80009357B400858BD2075D8F9357140093F74A
:102B9000F73FD6075D8F93574401858BFE0733645B
:102BA000F70082809357B400858B13977700935773
:102BB0001400BD8BA2075D8F9357540093F7F70362
:102BC000E6075D8F9357C400858BFE073364F700DB
:102BD00082800000802C0000410000000C636A2D00
:102BE000656E636F64696E673F009307008033779B
:102BF000F4006304F7006310073E711106C0212042
:102C0000824011016DAE93575400858B13972700B6
:102C1000935714009D8B8E075D8F93577400858B9F
:102C20009A075D8F93576400858B9E075D8F93573E
:102C3000A400858BA2075D8F935784008D8BA60718
:102C40005D8F93574400858BAE075D8F9357B4001B
:102C5000858BB2073364F7008280711106C0F114CE
:102C600080C021641304247AEFF00FD78240110151
:102C7000F11480C017D4FFFF130424706FE05FE9E4
:102C8000F42C000030000000047468656E007111BF
:102C900006C0A287804091041547639AE700EFF0D1
:102CA0000FC59C401D8CB9351364F40631A8094743
:102CB0006393E702EFF0AFC39C401D8C8135B7876B
:102CC0000700938737065D8CA28780409CC08240B6
:102CD00011016FF0EFCCEFE04FF017537472756392
:102CE000747572657320646F6E2774206D617463F0
:102CF000680A65A3142D00003000000004656C73A1
:102D00006500711106C03528EF00703D8240110149
:102D1000BDBF0000342D00003000000002696600D5
:102D2000711106C01D3FEFF08FBCF11480C0094443
:102D300005A000005C2D0000300000000561686502
:102D40006164711106C0EFF08FBAF11480C01544B0
:102D5000EFF04FD58240110182800000782D0000F5
:102D6000300000000672657065617400711106C064
:102D7000AD208240110121BF942D000030000000E1
:102D8000057768696C65711106C0593F8240110171
:102D90006F00F034CC2D00003000000005756E741B
:102DA000696C711106C0A287804091040547E394C5
:102DB000E7F26535EFF0AFB3EFD0BF948133B7875B
:102DC0000700938737065D8C05A80000002E0000E1
:102DD0003000000005616761696E711106C0A2874D
:102DE000804091040547E398E7EEEFF04FB0EFD055
:102DF0005F9109331364F406824011016FF0EFC153
:102E0000242E00003000000005626567696E7111B4
:102E100006C0EFF0CFADF11480C00544824011012F
:102E2000828000004C2E00006206000003616E6488
:102E30009C4091047D8C82803777040013073741D2
:102E4000B777F400938737436FD03F876C2E00002D
:102E500062060000036269639C4091041344F4FF1E
:102E60007D8C82801344F4FFC1BF0000942E0000CB
:102E700062060000026F72009C4091045D8C8280AB
:102E80003767040013073741B767F4009387374368
:102E90006FD0BF82BC2E00006206000003786F7204
:102EA0009C4091043D8C82803747040013073741D2
:102EB000B747F400938737436FD03F80E02E000080
:102EC0004100000003636C7A9307000219C4814734
:102ED0006345040006048507E5BF3E848280000048
:102EE000F82E00006104000003726F729317F40162
:102EF00005805D8C82800000102F000061040000BE
:102F000003726F6C9357F40106045D8C828000009D
:102F1000342F0000620600000761727368696674EE
:102F20009C40910433D487408280B75704409387F4
:102F30003741A1A0582F0000620600000672736896
:102F4000696674009C40910433D487008280B7572F
:102F500004009387374115A0842F0000620600000B
:102F6000066C7368696674009C4091043394870012
:102F70008280B7170400938737417D8852045D8CA7
:102F80006FF0AFA9982F000061040000036E6F740A
:102F90001344F4FF82800000B02F000061040000A1
:102FA00006696E76657274001344F4FF8280000037
:102FB000C82F000060040000047472756500F114ED
:102FC00080C07D5482800000E02F0000600400007B
:102FD0000566616C7365F11480C001448280000055
:102FE0004430000000000000086576616C75617473
:102FF0006500711106C0EFE0AF9CA2879840C04009
:10300000A10461113AC23EC037570020130707FBE5
:103010001C4371113EC081471CC3EFE00F989520FF
:1030200037570020130707FB824711011CC3824753
:1030300012472101E114C0C098C03E8482401101B2
:103040006FE0AF9570300000810000000E686F6F78
:103050006B2D696E7465727072657400F11480C0B6
:1030600037540020130484F98280A430000000004B
:10307000903000000000000009696E746572707283
:103080006574B7570020938787F99C4367800700D2
:1030900068320000000000000B28696E74657270D1
:1030A00072657429711106C0370500201305C52605
:1030B000637E9500EFE06FB210537461636B20750F
:1030C0006E646572666C6F770A00C1AA37050020CE
:1030D0001305C506636D9500EFE02FB00F537461C3
:1030E000636B206F766572666C6F770A7DA2370717
:1030F000002051078323070063950300A683232044
:103100007700EFE0CFED11E4C040A104824011014F
:1031100082809C40E114C0C09CC0EFF08FDBA28590
:103120009040C040A10405EA8840A285912C2286E7
:103130008040910435FAE114C0C088C02E84EFE0CD
:10314000CFB6EFE08FA90C206E6F7420666F756E9E
:10315000642E0A0099A2B7560020938646FA94423C
:10316000A1E637070020510781432320770093070A
:103170000003B3F6F5006391F602EFE00FB3EFE062
:10318000CFA51220697320636F6D70696C652D6F18
:103190006E6C792E0A0011A2C040A104F11480C007
:1031A0003284EFE0FFC909B7C040A10413F5050858
:1031B00019E9B3869340898213F5050419C913F5FB
:1031C000F50063E8A600F11480C03284EFE05FC729
:1031D000E1BD13B51600631DA00013F5052009C954
:1031E000F11480C03284EFE0BF9CEFE07FC56DBD7D
:1031F000912037570020130747FA18438547631972
:10320000F70013F7054009E7EFE03FBCEFE0FFB739
:10321000F11480C0328413F6050101C6EFE05FC2ED
:1032200061B513F6050201C6EFE09F8EB5BDEFE074
:10323000DF859DBD711106C091CEFD16F11480C0D1
:103240003684EFD0CF9EEFE05F81E5FA9384C3FF31
:1032500080409104370700205107814323207700E5
:1032600082401101828000008C3200008100000049
:1032700009686F6F6B2D71756974F11480C03754D4
:103280000020130444F9828008330000F832000063
:1032900000000000047175697400370100201301FB
:1032A000C146B70400209384C426EFC01FF23757ED
:1032B00000203117A9471CC337570020130747FACE
:1032C00081471CC33707002051071CC33757002014
:1032D000130707FB1CC337570020130787FA1CC3CB
:1032E000B70700209387C7465CC3B7570020938772
:1032F00047F99C43678007001C3300000000000072
:103300000628717569742900EFD07FEE9D3BEFE0D0
:10331000CF8C05206F6B2E0AC5BF000070330000F4
:1033200000000000056469676974130404FD6364A8
:103330000402A9476363F4026514636EF400930703
:103340004002636CF4000114A9476366F40093071C
:1033500040026364F40001448280B7570020B11733
:103360009C43E37AF4FEF11480C07D548280000017
:103370001035000000000000066E756D6265720079
:10338000111106CC16CA1AC82AC62EC432C236C0BB
:10339000B7570020B1179C4371113EC0A2858040F1
:1033A0009104228505448546814201438D47639FF0
:1033B000F50093077002034705006319F700034700
:1033C00025006315F700834215007DA0D5C503468F
:1033D00005000505FD159307D0026314F600FD56A0
:1033E000F5B7930730026318F600A9473756002057
:1033F00031161CC2E1BF930740026318F600C147B3
:103400003756002031161CC2D1B7930750026318FB
:10341000F60089473756002031161CC245BF930776
:10342000E0026314F600094455B79307C002630C29
:10343000F608F11480C03284CD3DA287804091040B
:10344000BDC3E114C0C023A054001A84F11480C08D
:103450003754002031140040F11480C00144D925B4
:10346000EFC09FF9F11480C00144AD2D228383A2E7
:103470000400C040A10499BF634DD000E114C0C056
:1034800023A054001A842925228383A20400C0406B
:10349000A104F11423A0540085476305F400F1143E
:1034A00023A0640011A00144824711013757002076
:1034B00031171CC3E240D24242433245A245124674
:1034C000824671018280168381420944D5D5FD155B
:1034D000B307B50003C607009307E002E308F6FE52
:1034E000F11480C032849135A28780409104C5DFF9
:1034F000F11423A05400F11480C03754002031147B
:103500000040EF007005A282C040A104C1B70000D6
:103510004035000000000000062E646967697400F1
:10352000A9476375F40013040403828093074002E3
:103530006375F400130474038280130430028280E4
:10354000943500000000000004686F6C6400711185
:103550002AC03705002013054502034705009307DD
:1035600070046374F70205072300E5003A95854768
:10357000630BF7007D1583470500A300F5007D1759
:103580008547E319F7FE230085008040910402453A
:1035900011018280D03500000000000005686F6CCA
:1035A000643C71112AC0370500201305450203470A
:1035B0000500930770046378F70005072300E50012
:1035C0003A952300850080409104024511018280D4
:1035D000F035000000000000047369676E00634569
:1035E00004008040910482801304D0028DB7000053
:1035F000103600000000000002233E00B707002044
:103600009387470203C4070085079CC0828000009F
:10361000343600000000000003662353611106C227
:103620002AC01305000229287D1575FD9240024528
:10363000210182805C360000000000000266230049
:10364000711106C0F11480C03754002031140040BD
:10365000512AF93582401101A9B700007C360000DB
:103660000000000002235300711106C029287DFCD0
:103670009C40EDFF8240110182800000AC360000CA
:10368000000000000123711106C0F11480C03754FE
:10369000002031140040F11480C00144052781242A
:1036A00080409104B53D8240110155B5C8360000F7
:1036B00000000000023C23003707002013074702E8
:1036C00081472300F7008280E03600000000000000
:1036D00002662E00F11480C01304000201A800004D
:1036E000303700000000000003662E6E611106C234
:1036F0002AC0228580409104EFC0BFCEBD2EF114B8
:1037000080C00144553F8D37804091041304C002AE
:10371000493D01C535377D1575FD024511018040D4
:103720009104753DF11480C0F11480C035A80000EB
:1037300048370000000000000375642E711106C0B8
:10374000A53F1D3715A000007837000000000000DD
:1037500002642E00711106C0EFC0BFC8392EA93F08
:103760002137EFC07FC9A53D513DEFD01FD4824026
:1037700011016FD05FB500008C3700000000000021
:1037800002752E00F11480C001444DBFA037000027
:1037900000000000012EF11480C07D8465BF000090
:1037A000D837000062060000012A9C40910433844F
:1037B00087028280B707F40293873743711106C0EE
:1037C000F1149CC0F11480C03D44EFE08F9A824018
:1037D00011016FE09FA40000F437000062040000B4
:1037E00003756D2A9C403387870298C033B48702E3
:1037F000828000001038000062040000026D2A0080
:103800009C403387870298C03394870282800000EF
:103810002C38000062040000066D756C687375003A
:103820009C40910433A48702828000004C38000041
:1038300062060000012F9C40910433C487028280FD
:10384000B747F4029387374395BF00006C380000F8
:1038500062060000036D6F649C40910433E48702AC
:103860008280B767F4029387374389BF88380000A6
:103870006204000005752F6D6F649C4033F787026A
:1038800098C033D487028280A4380000620400000C
:10389000042F6D6F64009C4033E7870298C033C4E7
:1038A00087028280BC380000620400000432647524
:1038B00070009C40E114C0C09CC08280D0380000E1
:1038C00062040000053264726F70C040A1048280FF
:1038D000F038000044000000053273776170A28761
:1038E000C040DCC09C4098449CC498C082800000CA
:1038F000083900006204000004326E6970009C40C8
:10390000A1049CC082800000243900004400000013
:1039100005326F766572E114C0C09C489CC0C044FB
:1039200082800000483900004400000005327475B0
:10393000636B98409C44E11498C098C8D844D8C0A0
:103940009CC4C0C4828000006C39000046000000A6
:103950000432726F74009C4098449CC49C4898C880
:103960009CC0D840C0C0C044D8C4828090390000F8
:103970004600000005322D726F7498409C4898C82C
:10398000984498C09CC4D844C0C4C040D8C0828069
:10399000AC3900002000000003323E72611122C0E9
:1039A000804022C2C040A10482800000C8390000CB
:1039B000200000000332723EE114C0C0124480C0F7
:1039C0000244210182800000E03900002000000054
:1039D00003327240E114C0C0124480C002448280AD
:1039E000F43900002000000006327264726F70002B
:1039F00021018280103A0000420000000364322F4F
:103A00009C401317F40105848583D98F9CC0828064
:103A10002C3A0000420000000364322A9C4013D775
:103A2000F701BE972294598C9CC082804C3A0000CA
:103A3000420000000464736872009C401317F40194
:103A400005808583D98F9CC0828000006C3A00007D
:103A500042000000046473686C009C4013D7F701B7
:103A6000BE972294598C9CC082800000803A00004E
:103A700042000000046461627300634B04008280B2
:103A8000A83A00004200000007646E656761746533
:103A90009C4093C7F7FF1344F4FF1387170098C0A7
:103AA000B337F7003E948280D83A0000440000000B
:103AB00002642D0071112AC09C4498403385E74070
:103AC00088C433B5E700DC4033848740098CA10407
:103AD0000245110182800000043B00004400000008
:103AE00002642B0071112AC09C4498403385E70082
:103AF00088C43335F500DC403E942A94A104024585
:103B000011018280183B00004100000003733E64F5
:103B1000F11480C07D848280343B000044000000AA
:103B20000375642A711106C02928C040A10482408F
:103B300011018280983C0000440000000475646D0F
:103B40002A00011106CE16CC1ACA1EC82AC62EC4D7
:103B500032C236C0F11480C0C040F11480C0804829
:103B60005131A2858840C040A104F11480C080403A
:103B7000F11480C0C044BD31A2869040C040A10471
:103B8000F11480C08040F11480C08048A139814781
:103B9000B302860033B3C2003386F200B33356005B
:103BA000B3677300B382060033B3D200B386F2006A
:103BB000B3B35600B3677300804091048147B3826A
:103BC000850033B3B200B385F200B3B35500B367D9
:103BD0007300B302060033B3C2003386F200B3337E
:103BE0005600B3677300B382060033B3D200B386C6
:103BF000F200B3B35600B367730080409104F11430
:103C000080C0C040F11480C0C044E93E8147B30287
:103C1000860033B3C2003386F200B3335600B36775
:103C20007300B382060033B3D200B386F200B3B39D
:103C30005600B3677300804091048147B3828500CA
:103C400033B3B200B385F200B3B35500B36773006A
:103C5000B302060033B3C2003386F200B33356001A
:103C6000B3677300B382060033B3D200B386F200A9
:103C7000B3B35600B367730080409104368490C09C
:103C8000CCC088C4F240E2425243C2433245A2450E
:103C90001246824605618280C43C00004300000059
:103CA000022A2F00711106C0711122C080409104B8
:103CB000813EF11480C002441101D1209104824060
:103CC00011018280F03C000043000000052A2F6DA6
:103CD0006F64711106C0711122C0804091040D36CD
:103CE000F11480C0024411018240110149A8000072
:103CF0001C3D00004300000003752A2F711106C00F
:103D0000711122C080409104F13CF11480C0024442
:103D1000110199209104824011018280483D0000E8
:103D20004300000006752A2F6D6F6400711106C0F4
:103D3000711122C0804091047534F11480C0024496
:103D400011018240110109A8703D000043000000EC
:103D500006756D2F6D6F6400711106C0F11480C07F
:103D60000144A9288040910491048240110182807D
:103D7000AC3D000043000000056D2F6D6F647111B4
:103D800006C0F11480C07D84CD2080409104910450
:103D900082401101828041112AC62EC432C236C02F
:103DA0008146D0408C4401451DA000005C3E0000CF
:103DB000440000000675642F6D6F640041112AC62F
:103DC0002EC432C236C081460146CC4088443111EF
:103DD0000EC812C616C41AC21EC0228283A10400D5
:103DE0001304000486069357F601DD8E060693D76A
:103DF000F5015D8E86059357F501DD8D0605636639
:103E0000D20063EA4602636836028147B302364055
:103E1000333336003386F240B3B3F200B367730036
:103E2000B382464033B34600B386F240B3B3F200E8
:103E3000B367730005057D1455F42E8488C0D4C083
:103E400090C4C2413242A2421243824351013245E0
:103E5000A24512468246410182800000B43E000025
:103E60004400000005642F6D6F64711106C0635338
:103E700004023939AD34635A040019398D343D3F99
:103E8000B93C39318240110199BC913C053F8240D7
:103E90001101FDBEA934635B0400DD3E8934393F66
:103EA000C53E353CF5368240110115BC0D3C8240C3
:103EB000110129B7CC3E00004400000002642F002D
:103EC000711106C05D378240110115BC183F00001A
:103ED0004400000002662A00711106C0635004020B
:103EE000453EF53A635004026536A139804091049D
:103EF0009C4091049CC0824011018280CD32E356E7
:103F000004FE79363D39804091049C4091049CC068
:103F100082401101B5BE0000583F0000440000007F
:103F200002662F00711106C0635D04009536453AA4
:103F3000635D0400B13E6532B93DD132824011016A
:103F40008280713AE35904FEA136513AA935893687
:103F5000824011016DB20000743F000000000000BB
:103F6000023221009C40D8401CC058C08044B1049B
:103F7000828000008C3F0000000000000232400000
:103F8000F1145C409CC0004082800000C43F0000EF
:103F9000440000000364753C71112AC09C449840A1
:103FA00033B5E700DC4033B7A700898FB3B787008C
:103FB00033E4E7007D141344F4FFB104024511011A
:103FC00082800000DC3F0000440000000364753E76
:103FD000711106C02932824011017DBF08400000E6
:103FE0004400000002643C00511106C42AC22EC0E5
:103FF0001355F441CC40FD854537298C2D8CA240CA
:1040000012458245310182802040000044000000BA
:1040100002643E00711106C0D93082401101E9B737
:1040200034400000620400000364303C91047D844D
:104030008280000050400000420000000364303DD8
:104040009C4091045D8C13341400330480408280C2
:10405000744000004400000003643C3EDC403D8CA2
:104060009C409844B98FB1045D8C133414007D14C6
:1040700082800000984000004400000002643D007F
:10408000DC403D8C9C409844B98FB1045D8C133466
:104090001400330480408280E440000043000000AC
:1040A00007326C73686966741374F40371C813077C
:1040B00004FE63490700DC403394E700910423A029
:1040C00004008280DC4033978700D8C013070002C9
:1040D000018FB3D7E7009840331487005D8C9104BB
:1040E00082800000344100004300000007327273F8
:1040F000686966741374F40341C4130704FE6349CA
:1041000007009C40B3D7E70091049CC00144828023
:104110009C4033D7870098C013070002018FB397E4
:10412000E700D840335787005D8FD8C080409104A6
:104130008280000088410000430000000832617264
:104140007368696674001374F4031DC8130704FED2
:10415000634A07009C4013D4F741B3D7E74091046A
:104160009CC082809C4033D7874098C013070002D0
:10417000018FB397E700D840335787005D8FD8C0D1
:104180008040910482800000DC41000000000000BB
:10419000046D6F76650071112AC022879C40C04073
:1041A000A10405CB6307F40263ED87003A94BA9744
:1041B0000345F4FFA38FA7FE7D14FD177D176DFB4C
:1041C00009A8034504002380A700050485077D177F
:1041D0006DFB804091040245110182800442000081
:1041E000000000000466696C6C0022879C40C0409F
:1041F000A10491C72300E4000504FD17E5FF8040FA
:1042000091048280884200002006000001400040A6
:104210008280B727040093873740611106C22AC005
:104220003E85711122C080409104FD16EFF08F8011
:10423000F11480C002441101EFD05F839307008026
:104240003377F4006303F70011E7B787F0FFFD173A
:104250007D8D05A0856793870780E18F99C385676A
:104260003E94F11480C0FD777D8C13647443EFD0CD
:10427000DFFA8567FD17E18FD2073364F5009240BE
:10428000024521016FD07FF9344300002006000071
:1042900001219C401CC0C040A104828037278700B8
:1042A00013073702B727F70093873702611106C259
:1042B0002AC0FD1691E63A851520EFE07F9B19A8EC
:1042C0003E85A28780409CC0F11480C03D44EFD061
:1042D0004FEA29209240024521018280711106C0D7
:1042E000930700803377F4006303F70011E7B78783
:1042F000F0FFFD177D8D05A0856793870780E18F0F
:1043000099C385673E94F11480C0FD777D8C13645A
:104310007473EFD09FF09377F4019E075D8D8567EE
:104320008117E18F9583E6073364F5008240110120
:104330006FD0BFEE5043000000000000022B2100B0
:104340009C401840BA971CC0C040A1048280000065
:104350006C43000020060000026840000354040083
:104360008280B75704009387374045BD90430000D3
:10437000200600000868407369676E6564000314D6
:1043800004008280B71704009387374079B5000096
:10439000BC43000020060000026821009C4023105E
:1043A000F400C040A104828037178700130737024A
:1043B000B717F70093873702D5BD0000DC43000034
:1043C0000000000003682B219C4003570400BA97AB
:1043D0002310F400C040A10482800000F8430000D4
:1043E0002006000002634000034404008280B747B7
:1043F00004009387374015B51C44000020060000D8
:104400000863407369676E6564000304040082807A
:10441000B70704009387374009B5000048440000FF
:1044200020060000026321009C402300F400C040ED
:10443000A10482803707870013073702B707F70008
:1044400093873702A5B50000684400000000000013
:1044500003632B219C4003470400BA972300F40018
:10446000C040A104828000008444000000000000DD
:104470000462697321009C401840D98F1CC0C04061
:10448000A1048280A444000000000000046269636B
:1044900021009C4093C7F7FF1840F98F1CC0C04013
:1044A000A1048280C04400000000000004786F7204
:1044B00021009C401840B98F1CC0C040A1048280DC
:1044C000E0440000000000000462697440001C40E9
:1044D000804091047D8C133414007D148280000090
:1044E00000450000000000000568626973219C40DF
:1044F00003570400D98F2310F400C040A104828028
:1045000024450000000000000568626963219C40AA
:1045100093C7F7FF03570400F98F2310F400C0403E
:10452000A104828044450000000000000568786F07
:1045300072219C4003570400B98F2310F400C0403F
:10454000A1048280644500000000000005686269E3
:10455000744083570400804091047D8C1334140010
:104560007D148280844500000000000005636269BC
:1045700073219C4003470400D98F2300F400C040FE
:10458000A1048280A8450000000000000563626964
:1045900063219C4093C7F7FF03470400F98F230072
:1045A000F400C040A1048280C84500000000000063
:1045B0000563786F72219C4003470400B98F230084
:1045C000F400C040A1048280E84500000000000023
:1045D00005636269744083470400804091047D8CC8
:1045E000133414007D14828000500000FFFFFFFF91
:1045F000182D2D2D20466C61736820446963746901
:104600006F6E617279202D2D2D00FD47739007BCD0
:104610008D477390478097C7FFFF9387A7A293E7C3
:1046200037007390573089679387878873A0073066
:10463000EFC0DF8E8140370100201301C146814168
:1046400001428142014381431304A002B7040020C8
:104650009384C4260145814501468146014781472F
:1046600037070020B7070020938747531CC337073D
:104670000020210797C7FFFF938787AA1CC3F11467
:1046800080C017C4FFFF1304A4A9B75300204C40F7
:10469000FD566389D50893F60510ADC2711122C08D
:1046A0002104EFC03FE6EFD0AFD08356040003559E
:1046B00024004205C98EB383D340024411019DA05A
:1046C0002F01000000000020330120242544240392
:1046D0006718907900000000073631098AA042244B
:1046E000A031B00386209483010006000800001862
:1046F000200A2E275F2D60285C2F293C93F60508A1
:1047000095C2BD898A05B383B340F11480C02104EA
:10471000EFC05FDFEFD0CFC9E114C0C023A07400A9
:104720002E84953CEFD0DFF522858040910425D181
:1047300037050020310500C1804091043705002075
:104740004105232075004165130505809565130615
:10475000F0FF6307B50071151441E38CC6FE110527
:10476000B7050020910588C1EFB03FA6EFC0FFC696
:10477000474D6563726973702D5175696E747573F9
:1047800020312E312E3120666F7220524953432D35
:10479000562052563332494D4143206F6E204348D4
:1047A000333258303335206279204D617474686932
:1047B0006173204B6F63680A370100201301C14603
:1047C000B70400209384C426EFB03FA037570020E1
:1047D0003117A9471CC337570020130747FA8147F1
:1047E0001CC33707002051071CC33757002013078D
:1047F00007FB1CC337570020130787FA1CC3B707F2
:1048000000209387C7465CC3F11480C017040000E2
:1048100013048402F11480C01144EFD09FEB804058
:10482000910409C4EFD0CFE16FE03FAC8040910428
:104830006FE0BFA6696E69741300000013000000EA
:00000001FF
