:020000042001D9
:100000006F40A01F2C000120FFFFFFFF1C2D2D2D96
:10001000204D6563726973702D5175696E747573C7
:1000200020302E3336202D2D2D00000040000120E1
:100030000000000006666C61736821006F30706319
:1000400054000120000000000768666C617368219D
:100050006F30D073680001202000000003737040EF
:10006000F11480C0268482807C00012020000000E2
:1000700003737021A284804091048280900001204B
:100080002000000003727040F11480C00A84828056
:10009000A400012020000000037270212281804012
:1000A00091048280B8000120610000000364757033
:1000B000F11480C082800000CC00012061000000AB
:1000C0000464726F7000804091048280E40001201B
:1000D00061000000043F6475700063040400F114C3
:1000E00080C08280FC000120620000000473776100
:1000F0007000A28780409CC0828000000C0101201B
:1001000062000000036E6970910482802401012066
:1001100062000000046F76657200F11480C0C04078
:10012000828000003C0101206200000004747563BD
:100130006B009C40F114C0C09CC08280540101201F
:100140004300000003726F749C40D84080C0DCC044
:100150003A8482807001012043000000042D726FF8
:1001600074009C40D84098C0C0C03E84828000008B
:100170008801012020000000047069636B000A04FC
:100180002694004082800000AC01012000000000A5
:10019000056465707468B707008093874726858F6C
:1001A000F11480C013D4274082800000D4010120C4
:1001B000000000000672646570746800B707008074
:1001C00093874746B3872740F11480C013D4274054
:1001D00082800000EC01012020000000023E72003D
:1001E000711122C08040910482800000040201202D
:1001F0002000000002723E00F11480C00244110190
:1002000082800000180201202000000002724000DD
:10021000F11480C0024482802C02012020000000E2
:10022000057264726F701101828000004402012027
:100230002000000005727069636B0A040A94004094
:10024000828000005C0201206100000002303D005D
:1002500013341400330480408280000070020120B7
:100260006100000003303C3E133414007D14828092
:10027000800201206100000002303C007D84828009
:100280009802012062000000023E3D009C40910463
:1002900033A487007D148280B00201206200000038
:1002A000023C3D009C4091043324F4007D14828084
:1002B000C802012062000000013C9C40910433A46C
:1002C0008700330480408280E00201206200000049
:1002D000013E9C4091043324F4003304804082802A
:1002E000F80201206200000003753E3D9C4091042D
:1002F00033B487007D148280100301206200000067
:1003000003753C3D9C4091043334F4007D1482809D
:100310002C0301206200000002753C009C40910407
:1003200033B48700330480408280000048030120FA
:100330006200000002753E009C4091043334F400DA
:1003400033048040828000006403012062000000CA
:10035000023C3E009C4091043D8C133414007D14FB
:10036000828000008003012062000000013D9C406B
:1003700091043D8C133414003304804082800000CB
:100380009803012062000000036D696E9C40910497
:100390006343F4003E848280B003012062000000C9
:1003A000036D61789C40910463C387003E84828022
:1003B000CC0301206200000004756D696E009C4052
:1003C00091046363F4003E8482800000E80301200E
:1003D0006200000004756D6178009C40910463E345
:1003E00087003E84828000004804012062020000F1
:1003F000012B9C4091043E94828037070400130730
:100400003741B707F40093873743711106C0611174
:100410003AC23EC0930700803377F4006304F700CC
:10042000631707005204924721015D8C11A8F11453
:1004300080C03D44EF102006F11480C00244210129
:10044000824011016F10B0146404012062020000A8
:10045000012D9C4091043384874082801344F4FF33
:10046000050461BF8C0401206202000003736C74F8
:100470009C40910433A4870082803727040013072F
:100480003741B727F4009387374341B7B8040120B9
:100490006202000004736C7475009C40910433B4D4
:1004A000870082803737040013073741B737F400DD
:1004B0009387374399BF0000C80401206100000002
:1004C00002312D007D148280D804012061000000DB
:1004D00002312B0005048280E80401206100000045
:1004E00002322D0079148280F8040120610000009E
:1004F00002322B00090482800C05012061000000FB
:100500000563656C6C2B11048280000024050120BA
:1005100061000000066E6567617465003304804009
:1005200082800000340501206100000003736872BE
:100530000580828044050120610000000373686C1F
:1005400006048280540501206100000002322A0066
:100550002294828068050120610000000563656CBB
:100560006C730A048280000078050120610000009D
:1005700002322F0005848280900501206100000076
:10058000036162739357F4413E943D8C8280000076
:10059000A805012061000000046576656E00937770
:1005A00014003E9482800000C805012081000000F4
:1005B000046261736500F11480C037440080130445
:1005C000C4FF82800A000000DC050120000000005A
:1005D0000662696E61727900894715A0F0050120F5
:1005E0000000000007646563696D616CA94701A89C
:1005F0000C0601200000000003686578C1473747FA
:1006000000801307C7FF1CC3828000002C06012056
:10061000000000000565696E743FF11480C073240A
:1006200000302188133414007D148280400601209C
:10063000200000000465696E7400736004308280DD
:1006400054060120200000000464696E7400737079
:10065000043082806806012020000000037766696C
:10066000730050108280000084060120000000000A
:10067000066D636175736500F11480C073242034C6
:10068000828000009C06012000000000046D65705F
:100690006300F11480C0732410348280B4060120FA
:1006A00000000000036D6965F11480C073244030C0
:1006B00082800000CC06012000000000036D6970FC
:1006C000F11480C07324403482800000E4060120CD
:1006D00000000000046D6965210073104430804003
:1006E00091048280FC06012000000000046D697006
:1006F0002100731044348040910482802C07012033
:1007000000000000076D74696D653634F11480C017
:1007100037C70002130787FF5C4300435843E39940
:10072000E7FEF11480C03E84828000005C07012057
:1007300000000000086379636C6573363400F114BF
:1007400080C0F32700B8732400B0732700B8E39A81
:10075000E7FEF11480C03E84828000007C07012007
:1007600000000000066379636C657300F11480C0BB
:1007700037C70002130787FF00438280BC070120B0
:100780000000000009756E68616E646C656471112B
:1007900006C0A12714556E68616E646C65642049BB
:1007A0006E746572727570742000F935EF00F00C8C
:1007B0002D2702210A008240110182804808012071
:1007C00000000000056661756C74711106C0312768
:1007D00014556E68616E646C656420496E74657250
:1007E000727570742000493DEF003009FD250361EA
:1007F00074204535EF007008CD2502210A008240A3
:10080000110182803AD63ED442D246D04ACE4ECC56
:1008100052CA56C85AC65EC462C266C083A00000EF
:10082000E7800000824C124CA24B324BC24A524A23
:10083000E249724982581258A2573257C2501301E6
:100840004103730020300000840801208100000073
:100850000E6972712D636F6C6C656374696F6E00E5
:10086000F11480C037440080130484FF8280CA07DB
:10087000012001001301C1FC06D8B740008093801D
:1008800080FF49B7A80801208100000009686F6F48
:100890006B2D656D6974F11480C0374400801304BA
:1008A00044FF8280780A0120CC08012081000000EA
:1008B00008686F6F6B2D6B657900F11480C0374449
:1008C0000080130404FF8280AC0A0120F408012098
:1008D000810000000A686F6F6B2D656D69743F00C1
:1008E000F11480C0374400801304C4FE8280EA0AF9
:1008F00001200000180901208100000009686F6FC5
:100900006B2D6B65793FF11480C037440080130470
:1009100084FE82801C0B0120400901208100000020
:100920000A686F6F6B2D706175736500F11480C07C
:1009300037440080130444FE82804C0901200000EB
:100940005009012000000000036E6F7082800000DB
:100950006C0901200000000004656D697400B74750
:100960000080938747FF9C43678007008809012028
:1009700000000000036B6579B7470080938707FF8D
:100980009C43678007000000A409012000000000CC
:1009900005656D69743FB74700809387C7FE9C4328
:1009A00067800700C009012000000000046B657922
:1009B0003F00B7470080938787FE9C43678007000E
:1009C000380A012000000000057061757365B747A3
:1009D0000080938747FE9C4367800700378500109F
:1009E000130545000C41370600C0E399C5FE378565
:1009F000001013058500B7150700938515DF0CC19E
:100A00003725011013058503B70503000CC13735E1
:100A10000110130585019305A0080CC1373501109D
:100A20001305850085450CC1373501101305C50038
:100A300085450CC182800000640A0120810000000D
:100A40000F73657269616C2D6C6173746368617298
:100A5000F11480C037440080130404FE8280FFFF3D
:100A6000FFFF0000980A0120000000000B73657270
:100A700069616C2D656D6974711106C0BD20A28716
:100A800080409104E38C07FE3737011000C380409B
:100A90009104824011018280D40A012000000000EC
:100AA0000A73657269616C2D6B657900711106C0FE
:100AB000B520A28780409104E38C07FE3747008071
:100AC000130707FEF11480C00043FD571CC382408A
:100AD00011018280080B0120000000000C73657278
:100AE00069616C2D656D69743F00711106C0C53573
:100AF000F11480C0B73701109C43FD8713C4F7FF82
:100B000082401101828000005C0B01200000000087
:100B10000B73657269616C2D6B65793F711106C04D
:100B20007D35F11480C037470080130707FE1C4352
:100B300013D4F741630E0400373701101307470041
:100B40001C4337470080130707FE1CC313D4F7412B
:100B50001344F4FF8240110182800000700B0120D9
:100B6000000000000572657365746F300069000055
:100B7000140C0120000000000661636365707400BE
:100B8000411106C62AC42EC232C08C4091040146CF
:100B9000E5332285804091049307F0076300F50454
:100BA00093070002636DF500E37486FEF11480C0C4
:100BB0002A8475332380A50085050506D1BFA54786
:100BC0006315F50013050002C5B7A947630CF502CC
:100BD000B5476309F502A147E31CF5FAE30A06FAF3
:100BE000ED2C03082008E30506FAFD157D1603C564
:100BF000050093770508E38D07F893770504E399DB
:100C000007F8D5B73284B2402245924502464101E9
:100C10005DAA0000300C01204000000003746962EE
:100C2000F11480C037040080130444468280000021
:100C3000500C012081000000033E696EF11480C059
:100C4000374400801304C4FD8280000000000000CF
:100C5000800C0120820000000E63757272656E7454
:100C60002D736F7572636500F11480C03744008086
:100C7000130444FD82800000000064040080000032
:100C8000A80C01200000000009736574736F757271
:100C90006365B7470080938747FD80C38040910418
:100CA000C0C3804091048280D80C01200000000065
:100CB00006736F757263650071112AC03745008035
:100CC000130545FDF11480C04041F11480C000417E
:100CD00002451101828000000C0D0120000000007F
:100CE000057175657279711106C0893F81471CC015
:100CF000804091043537F11480C0F11480C0130492
:100D0000800CBD3D8240110169B70000840D0120B7
:100D10000000000007636F6D7061726551112AC495
:100D20002EC232C022858C40D0408044B10463057D
:100D3000C5001304000091A06300050403C605006C
:100D400013371604631807001337B605630407004A
:100D5000130606028347040013B71704631807003D
:100D600013B7B7056304070093870702E313F6FC84
:100D70007D1585050504C9B77D5422459245024677
:100D800031018280A00D012000000000026372008A
:100D9000711106C09922010A82401101828000006F
:100DA000B80D01200000000002626C00F11480C048
:100DB0001304000282800000D00D0120000000001A
:100DC000057370616365F11480C01304000241BEB5
:100DD000F80D012000000000067370616365730068
:100DE000711106C063050400F93F7D14E5BF804022
:100DF00091048240110182800C0E012050000000FD
:100E0000065B636861725D0009A80000300E012076
:100E100000000000046368617200711106C0F129CE
:100E2000804091040344040082401101828000004C
:100E3000440E0120500000000128F11480C013046A
:100E4000900209A8640E012050000000015CF1141A
:100E500080C00144711106C06D29C040A1048240C8
:100E600011018280940E012030000000022E220029
:100E7000F11480C01704000013046406711106C049
:100E8000B92FF11480C013042002612182401101A6
:100E90006F00900CB00E01203000000002632200B1
:100EA000F11480C0170400001304A405C1BF0000A2
:100EB000CC0E01203000000002732200F11480C02B
:100EC000170400001304240655BF0000F00E012093
:100ED0000000000004282E222900F11480C006849E
:100EE00083C700008500BE9093F71000BE9055A008
:100EF000140F012000000000042863222900F114CF
:100F000080C0068483C700008500BE9093F7100060
:100F1000BE908280380F0120000000000428732258
:100F20002900F11480C0068483C700008500BE90AC
:100F300093F71000BE9055A8840F01200000000018
:100F400004286E222900611106C22AC083470400CA
:100F50006380070805043305F4008347040013D7B2
:100F600047002A9703470700BD8BAA97E114C0C02A
:100F700098C003C40700E532DD320504E31FA4FC7A
:100F800081A80000A00F0120000000000563747913
:100F90007065611106C22AC003450400050431A82A
:100FA000DC0F0120000000000474797065006111FD
:100FB00006C22AC0228580409104630B0500F1140B
:100FC00080C003440400613A05047D15E31905FE61
:100FD000804091049240024521018280F80F012057
:100FE0000000000005636F756E740504F11480C085
:100FF0000344F4FF828000001C1001200000000068
:101000000A736B6970737472696E670083470400BA
:1010100005043E94937714003E9482806C10012066
:101020000000000006726973632D7600711106C01E
:101030006D35314D6563726973702D5175696E74CC
:10104000757320302E333620666F72205249534319
:101050002D56206279204D61747468696173204B4C
:101060006F63680A8240110182800000BC10012079
:1010700000000000046865782E00411106C62AC4ED
:101080002EC232C022858040910493050002F114E3
:1010900080C01354C5013D8829466363C4001D0404
:1010A000130404036D381205F115E39205FEB240F6
:1010B000224592450246410139B300003411012016
:1010C00000000000032E7273511106C42AC22EC004
:1010D00029350F52657475726E737461636B3A20B3
:1010E0005B20B707008093874746B387274063CAD2
:1010F000070293D527008505F11480C02E84B53FE3
:10110000E93B025D2000638E050037050080130572
:101110004546F11480C000418D377115FD15E39AE5
:1011200005FE653B04202A3E0A00A2401245824586
:1011300031018280C81101200000000005776F7224
:101140006473711106C0513B010AEF10200A71331C
:1011500009416464726573733A20F11480C0313FB1
:10116000AD3B064C696E6B3A2000F11480C0004024
:101170002937A53307466C6167733A20F11480C0A4
:101180004040E53D993B06436F64653A2000F11409
:1011900080C02104A53DD5358933064E616D653A81
:1011A0002000F11480C02104ED33053B010AEF104B
:1011B000A007A28780409104E38B07F88040910448
:1011C000824011018280000008120120000000000E
:1011D00006756E7573656400711106C0EF00F02727
:1011E000EF007049A2878040910463950700B7071C
:1011F000402031A0EF00B028A287804091043384C2
:1012000087408240110182802012012000000000EE
:1012100003682E7397070000938767E605A8000010
:101220003812012000000000022E730097270000F2
:101230009387271321A80000EC1201200000000072
:1012400003752E739727000093878710311106C806
:101250002AC62EC432C236C03E854131095374615C
:10126000636B3A205B20374700801307C7FF1443A6
:10127000A9471CC3B705008093854526858D63C1AA
:1012800005048981F11480C02E84EF20400DB13116
:10129000025D2000374700801307C7FF14C363C1F6
:1012A0000502638F05003706008013060626F11439
:1012B00080C00042E70005007116FD15E39905FEA8
:1012C00029390620544F533A2000F11480C022845B
:1012D000E7000500193104202A3E0A00C2403245C9
:1012E000A24512468246510182800000041301206B
:1012F0000000000005746F6B656EF11480C013046C
:10130000000201A8E01301200000000005706172D6
:101310007365411106C62AC42EC232C0713AA28535
:101320008840C040A104193A10408040910433071E
:10133000C50093070002631EF400638AC502B30769
:10134000C50083C707006396870005063307C500FD
:10135000EDB7638EC500B307C50083C70700050658
:10136000E39987FE3304C500198C7D1421A0330452
:10137000C500198CF11498C0D13010C08040910480
:10138000B24022459245024641018280611106C267
:101390002AC0228580409104B717000093870780F8
:1013A000E18F6384070085673E94F11480C0B7F72E
:1013B000FFFF7D8C1364747BF11480C02A84EF00DE
:1013C00050155204B7870700938777465D8CF11458
:1013D00080C02A8411049240024521016F007013DD
:1013E000241401202000000005646F65733EF11491
:1013F00080C0B71701206784C73F8280711106C083
:10140000F11480C0370400801304C401004021049B
:10141000937724003E949D3F352F110182401101A6
:10142000828000005414012000000000073C627517
:10143000696C6473711106C0EF007034ED294922A4
:10144000EF00B00AF11480C02144EF005016824032
:10145000110182807C140120000000000663726587
:1014600061746500711106C0F137F11480C0B717BF
:1014700001206784C73F8240110182809C150120B2
:10148000000000001072656769737465726C69749E
:101490006572616C2C00631404006F10507F611141
:1014A00006C22AC0228580409104930700803377CA
:1014B000F4006304F70063190704B707001093876B
:1014C00007FE3377F4006304F70063130702937792
:1014D000F4018A071357F40132073744000013045C
:1014E00014005D8C598C1E05498CEF00300655A008
:1014F0005204B74700009387370113177500D98F3F
:101500005D8CEF00D00871A0B717000093870780AB
:10151000E18F63850700B7F7FFFF3D8C8947630CB8
:10152000F502B707FEFF3377F4006304F700631496
:101530000702F11480C02984B71700009387C707FA
:101540007D8CB7670000938717005D8C13177500BB
:10155000598CED2F29A8F11480C0B7F7FFFF7D8CBF
:101560001364740313177500598CEF005002520472
:10157000631504008040910429A8B74700009387B1
:10158000370113177500D98F1317F500D98F5D8CAC
:10159000FD2F92400245210182800000D0150120DC
:1015A00000000000086C69746572616C2C00711198
:1015B00006C03920F11480C0214482401101E1BDF0
:1015C000F11480C017F4FFFF1304C4AE55A000004F
:1015D00060160120000000000563616C6C2C711125
:1015E00006C0F11480C0952DEFE0BFE6EF10201C7F
:1015F000A28780409104638B07009104B727000005
:10160000938717005D8C8240110189A7EF10E00DD0
:10161000A287804091046389070091049307F00E2C
:101620005D8C82401101A5A780409104B71700008E
:1016300093870780E18F6384070085673E94F114E8
:1016400080C0B7F7FFFF7D8C1364747B8927520439
:10165000B78707009387770E5D8C8240110105AF35
:101660000C1701200000000007696E6C696E652C84
:10167000511106C42AC22EC0835704003717000038
:1016800013071717639BE7008357240037C7000031
:10169000130767006393E70011048357040037477B
:1016A0000000130727086390E702835724001307FD
:1016B0001011639AE700835744003787000013072F
:1016C0002708638EE702835704003787000013075B
:1016D00027086386E7028357040013F7370075175E
:1016E0006318E000F11480C0035404008525090448
:1016F000F11480C003540400912D090479BF804087
:101700009104A24012458245310182804817012090
:10171000000000000E736B6970646566696E697421
:10172000696F6E008357040013F737007517630A5B
:10173000E000090437870000130727086385E700E6
:10174000D5B71104C5B78280C01701200000000082
:1017500007737472696E672C311106C82AC62EC4CD
:1017600032C236C01375F40F8C409104B9201D208D
:10177000630A0500F11480C003C4050021287D150B
:101780008505FDB70D20C2403245A245124682466E
:10179000510182803314C400C18E8040910421061F
:1017A000C147631EF600630A0600711106C0F114FA
:1017B00080C03684612B82401101014681468280BF
:1017C000D017012050000000035B275D39A0000006
:1017D0000C180120000000000127511106C42AC284
:1017E0002EC0213E8840A285EF003029A28780408C
:1017F000910463180400F11480C088C02E846F1017
:101800000051A240124582453101828058180120C2
:101810003000000008706F7374706F6E6500711196
:1018200006C0653F13F707016315070213F70702A8
:10183000630A0700AD3BF11480C0170400001304D5
:1018400064E301A8AD33F11480C017040000130451
:1018500044D98240110161B38C180120300000008E
:10186000046578697400711106C0F11480C03744B2
:10187000110113042408212B8240110109A0F11445
:1018800080C03784000013042408C9A1AC180120CB
:10189000300000000772656375727365F11480C0D3
:1018A000370400801304C401004015BBCC1801208C
:1018B00081000000057374617465F11480C03744C1
:1018C0000080130404FD828000000000EC18012059
:1018D00081000000042873702900F11480C037448F
:1018E00000801304C4FC828000000000FC1801206A
:1018F00000000000015DFD5701A80000141901203F
:1019000010000000015B814737470080130707FD87
:101910001CC382804419012000000000013A7111AB
:1019200006C0374700801307C7FC04C3892D212058
:1019300082401101C9B7F11480C0371406C01304E6
:101940001417B1A18819012030000000013B71116A
:1019500006C0374700801307C7FC1C43638197020A
:10196000EFF0AFD71520537461636B206E6F742056
:1019700062616C616E6365642E0A6F10404EE535DE
:10198000D12A8240110141B7A419012000000000B2
:101990000765786563757465A287804091046780E8
:1019A00007000000C01901201000000009696D6DDA
:1019B000656469617465F11480C0414419A4000034
:1019C000DC1901205000000006696E6C696E65002C
:1019D000F11480C013040002EDA20000FC190120E4
:1019E000100000000B636F6D70696C656F6E6C7931
:1019F000F11480C013040003E9A200001C1A0120A6
:101A0000500000000A302D666F6C6461626C6500E6
:101A1000F11480C0130400046DA200003C1A0120E0
:101A2000500000000A312D666F6C6461626C6500C5
:101A3000F11480C01304100469A200005C1A012094
:101A4000500000000A322D666F6C6461626C6500A4
:101A5000F11480C013042004ADA200007C1A012000
:101A6000500000000A332D666F6C6461626C650083
:101A7000F11480C013043004A9A200009C1A0120B4
:101A8000500000000A342D666F6C6461626C650062
:101A9000F11480C0130440042DA20000BC1A0120E0
:101AA000500000000A352D666F6C6461626C650041
:101AB000F11480C01304500429A20000DC1A012094
:101AC000500000000A362D666F6C6461626C650020
:101AD000F11480C013046004EDA00000FC1A012082
:101AE000500000000A372D666F6C6461626C6500FF
:101AF000F11480C013047004E9A00000201B012031
:101B00000000000008636F6E7374616E74007111E1
:101B100006C0B521693CA533E53D824011011DA8F1
:101B2000441B0120000000000932636F6E73746172
:101B30006E74711106C0A121A28780409CC0853CB3
:101B4000D1BF0000B01B01200000000006736D75BE
:101B500064676500711106C0492A312EA287804052
:101B6000910463930704D5288327C4FF1307F0FF6C
:101B7000804091046396E700F11480C00144012C79
:101B8000F11480C037040080130404020040F114F3
:101B900080C0370400801304840000401104EFE08B
:101BA000EFC9824011018280F11480C0014405A870
:101BB0002C1C01200000000008736574666C6167CE
:101BC00073003757EA051307E71D631887001724CA
:101BD00000001304A46C6FF00FB7711106C0612CE4
:101BE000A28780409104639E070037070080130797
:101BF00007021C43C18F1CC3804091048240110125
:101C00008280370700801307870018435C437111F7
:101C10002AC07D556393A700A287C18F0245110199
:101C20005CC3804091048240110182804C1C0120E1
:101C30004100000007616C69676E6564937714006A
:101C40003E94937724003E9482800000681C01201B
:101C500000000000046865726500F11480C037045C
:101C60000080004082800000901C012000000000E5
:101C70000D666C6173687661722D68657265F1142A
:101C800080C03704008013040401004082800000FB
:101C9000B01C0120000000000C61646472696E6673
:101CA0006C6173683F0037070120B707402039A8EF
:101CB000DC1C0120000000000A61646472696E721D
:101CC000616D3F0037070080B74700806366E4001E
:101CD0006374F4007D54828001448280401D0120A1
:101CE0000000000005616C69676E711106C0B537B0
:101CF000937714003E943707008000C3098863057A
:101D000004000544A12019A08040910482401101E3
:101D10008280711106C09C40E114C0C09CC019288B
:101D2000A28780409CC04180A28780409CC009045B
:101D300082401101711106C0F11480C00DA0000095
:101D4000841D01200000000002682C00711106C0F3
:101D50002937F11480C0F11480C009448928A137C3
:101D6000A2878040910463850700EFE06FAE01A871
:101D7000A287804091042390870080409104824094
:101D800011018280A01D012000000000012C7111B2
:101D900006C0F11480C05D3F4180824011017DB7D3
:101DA000201E01200000000005616C6C6F74611141
:101DB00006C22AC02285804091047528A2878040EF
:101DC000910463940702370700801C43AA973705E4
:101DD000402063EEA702EFF04F900B466C617368F2
:101DE0002066756C6C0A6F108007513D37070080C4
:101DF0001C43AA9763EB8700EFF02F8E0952616DA9
:101E00002066756C6C0A6F108005804091041CC3BD
:101E10009240024521018280F11480C0114441BFEB
:101E2000601E01200000000009666F726765747211
:101E3000616D711106C0A52037070080B7070080CB
:101E40009387C7521CC3370700801307870097E7A3
:101E5000FFFF9387671B1CC3824011018280000033
:101E6000881E0120000000000D636F6D70696C65B5
:101E7000746F72616D3F711106C0C5332D35134407
:101E8000F4FF824011018280041F01200000000045
:101E90000C636F6D70696C65746F72616D007111A8
:101EA00006C0D13FA287804091046391070837079D
:101EB00000805C430327E70063E6E702EFF0EF8171
:101EC00023205661726961626C657320636F6C6C6C
:101ED00069646520776974682064696374696F6EEA
:101EE0006172790AF11480C03704008018405C40A8
:101EF00058C01CC018445C4458C41CC401448240EF
:101F0000110175B5341F0120000000000E636F6DD4
:101F100070696C65746F666C61736800711106C0DE
:101F2000993FA28780409104E39E07FA8240110105
:101F300082800000541F01204000000008286C61CE
:101F4000746573742900F11480C037040080130491
:101F5000840082806C1F012040000000042864700F
:101F60002900F11480C03704008082807C20012089
:101F70000000000008286372656174652900711112
:101F800006C0EFF08FB763110402EFE01FF51520D4
:101F9000437265617465206E65656473206E616D62
:101FA0006520210A6F00B06B9C40E114C0C09CC04A
:101FB000E92480409104A287804091046383070252
:101FC0009C40E114C0C09CC0EFE03FF10952656441
:101FD0006566696E6520EFE09FFDEFE01FF0022E61
:101FE00020002133493DA287804091046396070475
:101FF000370700801307070281471CC3B939F11462
:1020000080C021446D33EFE0CF95EFF0EFF437055A
:102010000080130585000C4190419306F0FF631981
:10202000D600F11480C0F11480C02E84EFE00F813F
:1020300000C18040910405A80D31F11480C037041F
:102040000080130484000040993337070080130791
:10205000870000C380409104F11480C01304F0FF96
:102060003D33EFF06FEFD53E370700801307C70110
:1020700000C3804091048240110182809820012099
:1020800000000000087661726961626C6500F114FD
:1020900080C005440DA80000B4200120000000000D
:1020A00009327661726961626C65F11480C009441D
:1020B00019A800001021012000000000096E7661BF
:1020C000726961626C65511106C42AC22EC0453D19
:1020D0005D33A287804091046398070A3D8871119F
:1020E00022C00A04A520EFF08FF9228580409104D8
:1020F0006308050080C1910559397115E31C05FE7F
:10210000F11480C0024411011364040835A80000D2
:10211000D421012000000000076275666665723AEE
:10212000511106C42AC22EC0113E913DA933A28787
:1021300080409104639507061128EFF04FF4813930
:10214000F11480C013040014AD3C8DA0370500804D
:10215000130505010C41818D370700801307C75215
:1021600063DEE500EFE07FD70F4E6F7420656E6F82
:102170007567682052414D0A6F00704E0CC1F11412
:1021800080C02E846FF0AFC23D2022858040910434
:1021900063090500ED3E7D15E31E05FE19A021280B
:1021A0003931F11480C013040008213CA2401245CB
:1021B0008245310145B2711106C0053EEFF04FC0B6
:1021C000F11480C03784000013047446824011016A
:1021D0007DBE000010220120000000000F64696332
:1021E00074696F6E6172797374617274711106C073
:1021F0005931824011016317040017E4FFFF1304F3
:10220000A4E08280370400801304840000408280B0
:1022100048220120000000000E64696374696F6E3B
:102220006172796E657874009307F0FF1840E38C53
:10223000E7149307F00F03478700E386E714004095
:10224000F11480C0014482806C22012081000000D2
:1022500009686F6F6B2D66696E64F11480C0374436
:102260000080130484FC82809822012088220120AF
:10227000000000000466696E6400B7470080938721
:1022800087FC9C4367800700282301200000000092
:10229000062866696E642900411106C62AC42EC24A
:1022A00032C081450146611122C0804022C2C04037
:1022B000A1042D3F9307F0FF48406385A704F11464
:1022C00080C02104EFE07FD2E114C0C0124480C07E
:1022D0000244EFE0BFA4A287804091046384070218
:1022E000F11480C02104EFE07FD2A28580409104E8
:1022F0002A86F11480C02E847D32A287804091040A
:10230000638807001537A28780409104E38407FAA9
:102310002E84F11480C032842101B24022459245BE
:1023200002464101828000003C2301202000000081
:10233000016BF11480C022448280000050230120F0
:1023400020000000016AF11480C002448280000075
:1023500064230120200000000169F11480C00E8474
:1023600082800000D023012030000000056C6561F0
:102370007665511106C42AC22EC0370500801305A8
:1023800085010C412687F1141C43232EF7FE11070B
:10239000E31CB7FE2687F1141C43232EF7FE11071A
:1023A000E31CB7FE5D388D3C228780409104F11517
:1023B00098C1F11595479CC10CC183A7C5FF85073E
:1023C00023AEF5FEA2401245824531018280000015
:1023D000E8230120200000000428646F2900611117
:1023E00012C20EC0828000000024012020000000E4
:1023F00006756E6C6F6F70008241124221018280FF
:102400006424012030000000052B6C6F6F708D4735
:102410006317F44880409104611106C22AC0F11488
:1024200080C01704000013046401EFF04F9B378550
:102430000700130535068DA0634C04003387414027
:10244000A29180409104B3874140B3B7E7008280F6
:1024500033874140A29180409104B3874140B33714
:10246000F7008280DC24012030000000046C6F6FD4
:1024700070008D476315F44280409104611106C2DB
:102480002AC0F11480C037841100130434190132BA
:102490003795410013053506EFF02FFCEFD07FFB99
:1024A000392C498CED30228580409104630505006C
:1024B0005D267D15E5BFF11480C0170400001304EC
:1024C000E4F3EFF0EF9A370700801307870100C3AA
:1024D00080409104924002452101828038250120EC
:1024E0003000000002646F00711106C0252037071C
:1024F000008013078701F11480C00043F11480C0ED
:10250000014404C3EFF06FF5F11480C00D44824024
:1025100011018280F11480C0170400001304C4006C
:102520006FF00F95611112C20EC0A28103A20400C8
:10253000C040A104828000008425012030000000FA
:10254000033F646F711106C0F137F11480C0378406
:1025500041401304347B2538370700801307870177
:10256000F11480C00043EFF04FEF7D30F11480C0D4
:102570000944F11480C00544370700801307870120
:1025800004C349B7A0250120300000000463617333
:102590006500F11480C00144F11480C021448280A0
:1025A000C825012030000000033F6F66A147631873
:1025B000F42E80409104711106C0711122C0804038
:1025C00091041D2689A000002C2601203000000067
:1025D000026F6600A1476314F42C804091047111CE
:1025E00006C0711122C080409104F11480C017040C
:1025F000000013040403EFF0AF87EFF00FE6293873
:10260000F11480C00944052CF11480C0024411016A
:102610000504F11480C02544824011018280A28704
:1026200080409104818F93B7170082806826012033
:102630003000000005656E646F66A5476311F426DF
:1026400080409104711106C0711122C08040910434
:10265000AD2CF11480C002441101F11480C021445A
:102660008240110182800000D42601203000000049
:1026700007656E6463617365A1476312F42280404D
:102680009104611106C22AC022858040910465220E
:1026900063050500C9227D15E5BF92400245210171
:1026A0008280EFE09F830D4A756D7020746F6F20FC
:1026B0006661720A6DA7711106C0052821A071110B
:1026C00006C0B128A28780409104E38C07FC8240B9
:1026D0001101828008270120410000000C756A2D3D
:1026E000656E636F64696E673F00B707F8FF337705
:1026F000F4006304F7006314074A711106C035281B
:102700008240110149A100009827012041000000EA
:102710000C73622D656E636F64696E673F00B7F777
:10272000FFFF3377F4006304F700631A0746711163
:1027300006C0252882401101B9A19357C40093F720
:10274000F70F1397C7009357B400858BD2075D8F9F
:102750009357140093F7F73FD6075D8F93574401C3
:10276000858BFE073364F70082809357B400858B16
:102770001397770093571400BD8BA2075D8F935773
:10278000540093F7F703E6075D8F9357C400858BDA
:10279000FE073364F70082804828012041000000D2
:1027A0000C636A2D656E636F64696E673F00930703
:1027B00000803377F4006304F7006312073E711161
:1027C00006C02120824011017DAE93575400858BB5
:1027D00013972700935714009D8B8E075D8F935797
:1027E0007400858B9A075D8F93576400858B9E07D5
:1027F0005D8F9357A400858BA2075D8F935784004C
:102800008D8BA6075D8F93574400858BAE075D8F38
:102810009357B400858BB2073364F700828071113F
:1028200006C0F11480C0378400001304247AEFF04E
:10283000EFD182401101F11480C017E4FFFF1304AF
:10284000C4886FE0FFE20000BC28012030000000D7
:10285000047468656E00711106C0A28780409104FF
:102860001547639AE700EFF04FBF9C401D8CA135E0
:102870001364F40631A809476393E702EFF0EFBD54
:102880009C401D8C2D3DB7870700938737065D8CD4
:10289000A28780409CC0824011016FF08FC7EFE09B
:1028A000CFE3175374727563747572657320646F28
:1028B0006E2774206D617463680A55A3DC280120BB
:1028C0003000000004656C736500711106C0352886
:1028D000EF00303D82401101BDBF0000FC28012007
:1028E0003000000002696600711106C00D3FEFF074
:1028F000CFB6F11480C0094405A0000024290120AE
:1029000030000000056168656164711106C0EFF078
:10291000CFB4F11480C01544EFF00FD08240110104
:10292000828000004029012030000000067265709E
:1029300065617400711106C0AD208240110121BF94
:102940005C29012030000000057768696C65711111
:1029500006C0593F824011016F00B0349429012014
:102960003000000005756E74696C711106C0A28795
:10297000804091040547E394E7F25535EFF0EFAD61
:10298000EFD03FAD2D3BB7870700938737065D8CAF
:1029900005A80000C829012030000000056167611A
:1029A000696E711106C0A287804091040547E398C3
:1029B000E7EEEFF08FAAEFD0DFA9F5391364F40644
:1029C000824011016FF0AFBCEC2901203000000003
:1029D00005626567696E711106C0EFF00FA8F1140A
:1029E00080C005448240110182800000142A012029
:1029F0006202000003616E649C4091047D8C8280C1
:102A00003777040013073741B777F40093873743CC
:102A10006FD0BF9F342A0120620200000362696305
:102A20009C4091041344F4FF7D8C82801344F4FF96
:102A3000C1BF00005C2A012062020000026F720028
:102A40009C4091045D8C82803767040013073741F6
:102A5000B767F400938737436FD03F9B842A0120E8
:102A60006202000003786F729C4091043D8C82806A
:102A70003747040013073741B747F40093873743BC
:102A80006FD0BF98A82A01204100000003636C7A30
:102A900093070002630804008147634504000604AD
:102AA0008507E5BF3E848280C02A012061000000C6
:102AB00003726F729317F40105805D8C82800000B1
:102AC000D82A01206100000003726F6C9357F40153
:102AD00006045D8C82800000FC2A01206202000056
:102AE00007617273686966749C40910433D48740AF
:102AF0008280B757044093873741A1A0202B012043
:102B00006202000006727368696674009C4091045A
:102B100033D487008280B75704009387374115A0CC
:102B20004C2B012062020000066C73686966740019
:102B30009C409104339487008280B71704009387E8
:102B400037417D8852045D8C6FF06FA4602B0120AB
:102B500061000000036E6F741344F4FF8280000074
:102B6000782B01206100000006696E7665727400A2
:102B70001344F4FF82800000902B012060000000CD
:102B8000047472756500F11480C07D548280000069
:102B9000A82B0120600000000566616C7365F114CC
:102BA00080C00144828000000C2C01200000000045
:102BB000086576616C7561746500711106C0EFE09F
:102BC000AF8FA2879840C040A10461113AC23EC0B5
:102BD000374700801307C7FD1C4371113EC0814772
:102BE0001CC3EFE00F8B9520374700801307C7FD0C
:102BF000824711011CC3824712472101E114C0C062
:102C000098C03E84824011016FE0AF88382C0120CB
:102C1000810000000E686F6F6B2D696E74657270B5
:102C200072657400F11480C037440080130444FCC2
:102C300082806C2C01200000582C01200000000034
:102C400009696E74657270726574B7470080938706
:102C500047FC9C43678007002C2E012000000000E9
:102C60000B28696E7465727072657429711106C0E3
:102C70003705008013054526637E9500EFE0EFA53C
:102C800010537461636B20756E646572666C6F7748
:102C90000A00F1A23705008013054506636D950013
:102CA000EFE0AFA30F537461636B206F76657266BC
:102CB0006C6F770A6DA237070080130747018323E3
:102CC000070063950300A68323207700EFE0EFE27F
:102CD00063170400C040A1048240110182809C401F
:102CE000E114C0C09CC0EFF04FD9A2859040C04015
:102CF000A104631A06028840A285A9242286804086
:102D00009104E31706F6E114C0C088C02E84EFE0FA
:102D10000FAAEFE08F9C0C206E6F7420666F756EAB
:102D2000642E0A002DAAB7460080938606FD9442C1
:102D30006396060437070080130747018143232069
:102D4000770093070003B3F6F5006391F602EFE016
:102D50000FA6EFE08F981220697320636F6D706982
:102D60006C652D6F6E6C792E0A00D5A8C040A10449
:102D7000F11480C03284EFE03FC2DDBDC040A10449
:102D800013F50508631D0500B3869340898213F58A
:102D90000504630C050013F5F50063E8A600F114C3
:102DA00080C03284EFE05FBFE1B513B51600631E4B
:102DB000A00013F50520630A0500F11480C03284D9
:102DC000EFE05F96EFE05FBD65B52D20F11480C0A8
:102DD000328413F6050163050600EFE0FFBB49BD31
:102DE00013F6050263050600EFE09F8851B5EFE09A
:102DF0000FFFBDBD711106C063800602FD16F11400
:102E000080C03684EFD0AFB7EFE06FFAE39806FEEC
:102E10009384C3FF80409104370700801307470164
:102E2000814323207700824011018280502E0120AF
:102E30008100000009686F6F6B2D71756974F11462
:102E400080C037440080130404FC8280CC2E012013
:102E5000BC2E012000000000047175697400370168
:102E6000008013014146B70400809384442637470D
:102E700000801307C7FFA9471CC33747008013070B
:102E800007FD81471CC337070080130747011CC398
:102E9000374700801307C7FD1CC33747008013075F
:102EA00047FD1CC3B7070080938747465CC3B747FD
:102EB0000080938707FC9C4367800700E02E012079
:102EC000000000000628717569742900EFD0BFE189
:102ED000AD3BEFE08F8005206F6B2E0AC5BF000071
:102EE000342F012000000000056469676974130431
:102EF00004FD63640402A9476363F4026514636E0E
:102F0000F40093074002636CF4000114A947636660
:102F1000F400930740026364F40001448280B747E1
:102F200000809387C7FF9C43E379F4FEF11480C0CF
:102F30007D548280C830012000000000066E756D4F
:102F400062657200111106CC16CA1AC82AC62EC4B0
:102F500032C236C0B74700809387C7FF9C437111C8
:102F60003EC0A28580409104228505448546814269
:102F70000143638C050A034605000505FD1593070B
:102F8000D0026314F600FD56EDB7930730026319C3
:102F9000F600A947374600801306C6FF1CC2D1BF02
:102FA000930740026319F600C147374600801306B5
:102FB000C6FF1CC27DBF930750026319F600894704
:102FC000374600801306C6FF1CC265B79307E002B0
:102FD0006314F600094471BF9307C002630FF6083B
:102FE000F11480C032842137A28780409104638528
:102FF0000706E114C0C023A054001A84F11480C055
:10300000374400801304C4FF0040F11480C0014421
:10301000E12DEFD06F93F11480C00144712522831C
:1030200083A20400C040A104A9B7634DD000E114FD
:10303000C0C023A054001A84312D228383A204002F
:10304000C040A104F11423A0540085476305F40097
:10305000F11423A0640011A00144824711013747F5
:1030600000801307C7FF1CC3E240D24242433245EF
:10307000A24512468246710182801683814209442C
:10308000E38505FAFD15B307B50003C607009307EE
:10309000E002E307F6FEF11480C03284893DA28786
:1030A00080409104E38A07FAF11423A05400F1143C
:1030B00080C0374400801304C4FF0040EF001006B6
:1030C000A282C040A1046DBFF830012000000000C2
:1030D000062E646967697400A9476375F4001304D8
:1030E00004038280930740026375F40013047403A1
:1030F00082801304300282804C31012000000000E5
:1031000004686F6C640071112AC0370500801305D4
:103110004502034705009307F0036374F7020507B0
:103120002300E5003A958547630BF7007D1583473B
:103130000500A300F5007D178547E319F7FE23007E
:103140008500804091040245110182808831012070
:103150000000000005686F6C643C71112AC03705DF
:10316000008013054502034705009307F0036378C9
:10317000F70005072300E5003A952300850080400D
:103180009104024511018280A83101200000000055
:10319000047369676E006345040080409104828077
:1031A0001304D0028DB70000C831012000000000D8
:1031B00002233E00B70700809387470203C407003D
:1031C00085079CC082800000F031012000000000D3
:1031D00003662353611106C22AC013050002392871
:1031E0007D15E31E05FE924002452101828000000C
:1031F000183201200000000002662300711106C091
:10320000F11480C0374400801304C4FF0040792AC1
:10321000E1358240110191B73C32012000000000ED
:1032200002235300711106C03928E31F04FE9C409D
:10323000E39C07FE82401101828000007032012071
:10324000000000000123711106C0F11480C0374452
:1032500000801304C4FF0040F11480C001440D2716
:103260008924804091048D3D8240110169BD000098
:103270008C32012000000000023C23003707008050
:103280001307470281472300F7008280A432012000
:103290000000000002662E00F11480C0130400023A
:1032A00001A80000F83201200000000003662E6E25
:1032B000611106C22AC0228580409104EFC07FE7D9
:1032C000BD2EF11480C00144553FA93F80409104B8
:1032D0001304C0025935630605000D377D15E31E42
:1032E00005FE02451101804091047535F11480C03E
:1032F000F11480C035A80000103301200000000048
:103300000375642E711106C0953F293F15A000007A
:10331000403301200000000002642E00711106C03D
:10332000EFC03FE1292E993FF53DEFC0FFE1A53504
:103330005135EFD0DFC7824011016FD0DFA8000008
:10334000543301200000000002752E00F11480C0EB
:1033500001444DBF6833012000000000012EF1142C
:1033600080C07D8465BF0000A033012062020000A0
:10337000012A9C409104338487028280B707F402BB
:1033800093873743711106C0F1149CC0F11480C0BB
:103390003D44EFE04F90824011016FE05F9F0000DD
:1033A000BC3301206200000003756D2A9C40338706
:1033B000870298C033B4870282800000D83301208E
:1033C00062000000026D2A009C403387870298C08B
:1033D0003394870282800000F033012062000000F5
:1033E000066D756C687375009C4033A487028280FB
:1033F0001034012062020000012F9C40910433C46C
:1034000087028280B747F40293873743A5BF000045
:103410003034012062020000036D6F649C4091040F
:1034200033E487028280B767F4029387374399BFFA
:103430004C3401206200000005752F6D6F649C40C4
:1034400033F7870298C033D4870282806834012022
:1034500062000000042F6D6F64009C4033E7870218
:1034600098C033C48702828080340120620000004B
:103470000432647570009C40E114C0C09CC082801E
:103480009434012062000000053264726F70C04005
:10349000A1048280B4340120440000000532737717
:1034A0006170A287C040DCC09C4098449CC498C016
:1034B00082800000CC3401206200000004326E697A
:1034C00070009C40A1049CC082800000E834012070
:1034D0004400000005326F766572E114C0C09C485C
:1034E0009CC0C044828000000C35012044000000D4
:1034F00005327475636B98409C44E11498C098C879
:10350000D844D8C09CC4C0C482800000303501209B
:10351000460000000432726F74009C4098449CC4C2
:103520009C4898C89CC0D840C0C0C044D8C48280C1
:10353000543501204600000005322D726F7498400A
:103540009C4898C8984498C09CC4D844C0C4C04003
:10355000D8C08280703501202000000003323E7206
:10356000611122C0804022C2C040A10482800000BC
:103570008C350120200000000332723EE114C0C0EF
:10358000124480C00244210182800000A435012041
:103590002000000003327240E114C0C0124480C019
:1035A00002448280B8350120200000000632726497
:1035B000726F700021018280D4350120420000002A
:1035C0000364322F9C401317F40105848583D98F3F
:1035D0009CC08280F0350120420000000364322A42
:1035E0009C4013D7F701BE972294598C9CC08280CF
:1035F00010360120420000000464736872009C4091
:103600001317F40105808583D98F9CC08280000048
:103610003036012042000000046473686C009C4056
:1036200013D7F701BE972294598C9CC0828000006A
:103630004436012042000000046461627300634B61
:10364000040082806C3601204200000007646E6531
:10365000676174659C4093C7F7FF1344F4FF1387B9
:10366000170098C0B337F7003E9482809C36012043
:103670004400000002642D0071112AC09C4498404F
:103680003385E74088C433B5E700DC4033848740A6
:10369000098CA1040245110182800000C836012076
:1036A0004400000002642B0071112AC09C44984021
:1036B0003385E70088C43335F500DC403E942A9416
:1036C000A104024511018280DC3601204100000086
:1036D00003733E64F11480C07D848280F83601203B
:1036E000440000000375642A711106C02928C040F7
:1036F000A1048240110182805C3801204400000056
:103700000475646D2A00011106CE16CC1ACA1EC8B3
:103710002AC62EC432C236C0F11480C0C040F11493
:1037200080C080486131A2858840C040A104F11466
:1037300080C08040F11480C0C0448D39A286904082
:10374000C040A104F11480C08040F11480C08048C2
:10375000B1398147B302860033B3C2003386F20029
:10376000B3335600B3677300B382060033B3D2009D
:10377000B386F200B3B35600B36773008040910480
:103780008147B382850033B3B200B385F200B3B38F
:103790005500B3677300B302060033B3C20033862B
:1037A000F200B3335600B3677300B382060033B33D
:1037B000D200B386F200B3B35600B3677300804003
:1037C0009104F11480C0C040F11480C0C044F93E9F
:1037D0008147B302860033B3C2003386F200B333AD
:1037E0005600B3677300B382060033B3D200B386CA
:1037F000F200B3B35600B367730080409104814771
:10380000B382850033B3B200B385F200B3B3550081
:10381000B3677300B302060033B3C2003386F2000D
:10382000B3335600B3677300B382060033B3D200DC
:10383000B386F200B3B35600B367730080409104BF
:10384000368490C0CCC088C4F240E2425243C243A6
:103850003245A245124682460561828088380120A1
:1038600043000000022A2F00711106C0711122C00E
:1038700080409104913EF11480C002441101D12096
:103880009104824011018280B4380120430000007D
:10389000052A2F6D6F64711106C0711122C080401E
:1038A00091041D36F11480C00244110182401101BF
:1038B00049A80000E03801204300000003752A2FCA
:1038C000711106C0711122C080409104C534F114F9
:1038D00080C002441101992091048240110182802C
:1038E0000C3901204300000006752A2F6D6F64001B
:1038F000711106C0711122C080409104453CF11441
:1039000080C0024411018240110109A8343901200C
:103910004300000006756D2F6D6F6400711106C0C5
:10392000F11480C00144A928804091049104824090
:10393000110182807039012043000000056D2F6D58
:103940006F64711106C0F11480C07D84CD20804069
:103950009104910482401101828041112AC62EC433
:1039600032C236C08146D0408C4401451DA00000C3
:10397000203A0120440000000675642F6D6F64003A
:1039800041112AC62EC432C236C081460146CC40FF
:10399000884431110EC812C616C41AC21EC0228233
:1039A00083A104001304000486069357F601DD8EFC
:1039B000060693D7F5015D8E86059357F501DD8DDB
:1039C00006056366D20063EA4602636836028147F1
:1039D000B3023640333336003386F240B3B3F200DD
:1039E000B3677300B382464033B34600B386F240F8
:1039F000B3B3F200B367730005057D14E31604FA50
:103A00002E8488C0D4C090C4C2413242A242124324
:103A1000824351013245A2451246824641018280CD
:103A2000783A01204400000005642F6D6F64711125
:103A300006C0635304023939AD34635A040019399E
:103A40008D343D3FB93C39318240110199BC913CE4
:103A5000053F82401101FDBEA934635B0400DD3ED9
:103A60008934393FC53E353CF5368240110115BCDD
:103A70000D3C8240110129B7903A0120440000001A
:103A800002642F00711106C05D378240110115BC20
:103A9000DC3A01204400000002662A00711106C0D1
:103AA00063500402453EF53A635004026536A1397D
:103AB000804091049C4091049CC08240110182800E
:103AC000CD32E35604FE79363D39804091049C4066
:103AD00091049CC082401101B5BE00001C3B012036
:103AE0004400000002662F00711106C0635D0400EF
:103AF0009536453A635D0400B13E6532B93DD13239
:103B0000824011018280713AE35904FEA136513A94
:103B1000A9358936824011016DB20000383B012081
:103B200000000000023221009C40D8401CC058C058
:103B30008044B10482800000503B0120000000005E
:103B400002324000F1145C409CC0004082800000C2
:103B5000883B0120440000000364753C71112AC0B9
:103B60009C44984033B5E700DC4033B7A700898F09
:103B7000B3B7870033E4E7007D141344F4FFB104C6
:103B80000245110182800000A03B0120440000009A
:103B90000364753E711106C02932824011017DBF58
:103BA000CC3B01204400000002643C00511106C4DB
:103BB0002AC22EC01355F441CC40FD854537298CCF
:103BC0002D8CA2401245824531018280E43B0120C8
:103BD0004400000002643E00711106C0D9308240EA
:103BE0001101E9B7F83B0120620000000364303C9A
:103BF00091047D8482800000143C0120420000007A
:103C00000364303D9C4091045D8C133414003304F4
:103C100080408280383C01204400000003643C3E28
:103C2000DC403D8C9C409844B98FB1045D8C1334CA
:103C300014007D14828000005C3C012044000000E0
:103C400002643D00DC403D8C9C409844B98FB10437
:103C50005D8C13341400330480408280A83C012022
:103C60004300000007326C73686966741374F403D0
:103C7000630B040C130704FE63490700DC40339414
:103C8000E700910423A004008280DC403397870082
:103C9000D8C013070002018FB3D7E7009840331450
:103CA00087005D8C91048280F83C01204300000075
:103CB00007327273686966741374F4036305040849
:103CC000130704FE634907009C40B3D7E700910443
:103CD0009CC0014482809C4033D7870098C0130762
:103CE0000002018FB397E700D840335787005D8FFC
:103CF000D8C08040910482804C3D012043000000E8
:103D0000083261727368696674001374F403630C9B
:103D10000402130704FE634A07009C4013D4F741D2
:103D2000B3D7E74091049CC082809C4033D7874042
:103D300098C013070002018FB397E700D8403357AC
:103D400087005D8FD8C0804091048280A83D01200B
:103D500000000000046D6F76650071112AC0228793
:103D60009C40C040A104630B07026309F40263EEA8
:103D700087003A94BA970345F4FFA38FA7FE7D14FA
:103D8000FD177D17E31907FE11A8034504002380E2
:103D9000A700050485077D17E31907FE80409104FD
:103DA0000245110182800000D43D01200000000086
:103DB0000466696C6C0022879C40C040A104638843
:103DC00007002300E4000504FD17E39C07FE804084
:103DD00091048280683E01202002000001400040E2
:103DE0008280B727040093873740611106C22AC03A
:103DF0003E85711122C080409104FD16EFE09FFFC7
:103E0000F11480C002441101EFD08FFB93070080B2
:103E10003377F4006304F70063180700B787F0FFF7
:103E20009387F7FF7D8D1DA0B7170000938707804C
:103E3000E18F6384070085673E94F11480C0B7F773
:103E4000FFFF7D8C13647443EFD07FF4B71700003D
:103E50009387F7FFE18FD2073364F5009240024564
:103E600021016FD0DFF20000243F0120200200007A
:103E700001219C401CC0C040A104828037278700DC
:103E800013073702B727F70093873702611106C27D
:103E90002AC0FD16639706003A851520EFE0BF990A
:103EA00019A83E85A28780409CC0F11480C03D4483
:103EB000EFD06FDE292092400245210182807111EE
:103EC00006C0930700803377F4006304F70063189B
:103ED0000700B787F0FF9387F7FF7D8D1DA0B71709
:103EE000000093870780E18F6384070085673E9415
:103EF000F11480C0B7F7FFFF7D8C13647473EFD0AB
:103F00001FE99377F4019E075D8DB7170000938733
:103F100007FEE18F9583E6073364F50082401101C7
:103F20006FD0FFE6403F012000000000022B21007F
:103F30009C401840BA971CC0C040A1048280000079
:103F40005C3F01202002000002684000035404008E
:103F50008280B75704009387374041BD803F0120DE
:103F6000200200000868407369676E6564000314EE
:103F700004008280B717040093873740BDB5000066
:103F8000AC3F012020020000026821009C40231069
:103F9000F400C040A104828037178700130737025E
:103FA000B717F70093873702D5B50000CC3F012043
:103FB0000000000003682B219C4003570400BA97BF
:103FC0002310F400C040A10482800000E83F0120DB
:103FD0002002000002634000034404008280B747CF
:103FE00004009387374011B50C40012020020000E7
:103FF0000863407369676E6564000304040082808F
:10400000B707040093873740CDB300003840012044
:1040100020020000026321009C402300F400C04005
:10402000A10482803707870013073702B707F7001C
:1040300093873702A1BD0000584001200000000016
:1040400003632B219C4003470400BA972300F4002C
:10405000C040A104828000007440012000000000E4
:104060000462697321009C401840D98F1CC0C04075
:10407000A104828094400120000000000462696372
:1040800021009C4093C7F7FF1840F98F1CC0C04027
:10409000A1048280B04001200000000004786F720B
:1040A00021009C401840B98F1CC0C040A1048280F0
:1040B000D0400120000000000462697440001C40F0
:1040C000804091047D8C133414007D1482800000A4
:1040D000F0400120000000000568626973219C40E7
:1040E00003570400D98F2310F400C040A10482803C
:1040F00014410120000000000568626963219C40B2
:1041000093C7F7FF03570400F98F2310F400C04052
:10411000A104828034410120000000000568786F0E
:1041200072219C4003570400B98F2310F400C04053
:10413000A1048280544101200000000005686269EA
:10414000744083570400804091047D8C1334140024
:104150007D148280744101200000000005636269C3
:1041600073219C4003470400D98F2300F400C04012
:10417000A10482809841012000000000056362696B
:1041800063219C4093C7F7FF03470400F98F230086
:10419000F400C040A1048280B8410120000000006A
:1041A0000563786F72219C4003470400B98F230098
:1041B000F400C040A1048280D8410120000000002A
:1041C00005636269744083470400804091047D8CDC
:1041D000133414007D14828000500120FFFFFFFF84
:1041E000182D2D2D20466C61736820446963746915
:1041F0006F6E617279202D2D2D0097C7FFFF938779
:10420000A76773A0573081403701008013014146F2
:10421000814101428142014381431304A002B7045A
:10422000008093844426014581450146814601472B
:10423000814737070080B70700809387C7521CC3A8
:10424000370700801307870097C7FFFF9387C7DBF7
:104250001CC3F11480C017C4FFFF1304E4DAB74392
:1042600000804C409306F0FF638BD50893F6051051
:1042700063820606711122C02104EFC03FD9EFD03E
:104280006FCA83560400035524004205C98EB383C8
:10429000D34002441101A5A02F010000000000201E
:1042A000330120242544240367189079000000007E
:1042B000073631098AA04224A031B00386209483B6
:1042C0000100060008000018200A2E275F2D602834
:1042D0005C2F293C93F6050863830602BD898A0595
:1042E000B383B340F11480C02104EFC03FD2EFD0BC
:1042F0006FC3E114C0C023A074002E84B93CEFD07A
:10430000BFF2228580409104E30D05F4370500805B
:104310001305C50000C180409104370500801305D6
:1043200005012320750037054020B75501201306ED
:10433000F0FF6307B50071151441E38CC6FE11054B
:10434000B70500809385450088C1EFC02FE9EFC015
:10435000DFB8444D6563726973702D5175696E7471
:10436000757320302E333620666F722052495343C6
:104370002D5620333220494D43206F6E2048694628
:104380006976653142206279204D61747468696193
:1043900073204B6F63680A003701008013014146A8
:1043A000B704008093844426374700801307C7FF73
:1043B000A9471CC337470080130707FD81471CC36B
:1043C00037070080130747011CC3374700801307D6
:1043D000C7FD1CC337470080130747FD1CC3B70741
:1043E0000080938747465CC3F11480C01704000027
:1043F0001304A402F11480C01144EFD01FE88040E0
:10440000910463060400EFD02FD96FE05FAA8040CB
:1044100091046FE0DFA4696E69740100FFFFFFFF84
:10442000FFFFFFFFFFFFFFFFFFFFFFFFFFFFFFFF9C
:10443000FFFFFFFFFFFFFFFFFFFFFFFFFFFFFFFF8C
:10444000FFFFFFFFFFFFFFFFFFFFFFFFFFFFFFFF7C
:10445000FFFFFFFFFFFFFFFFFFFFFFFFFFFFFFFF6C
:105000005050012000000000096E657874746F6BC9
:10501000656E711106C0EFC04FAEF11480C013343D
:10502000140033048040A28780409104638F0700FE
:10503000C040A104EFB07FEA04206F6B2E00EFB0F8
:105040003FD5EFB05FCA6FF01FFD82401101828033
:105050006C51012050000000065B656C73655D00BB
:10506000711106C0F11480C0054465379C40E114FD
:10507000C0C09CC0EFB0FFEA045B69665D00EFB0A2
:10508000FFC9711122C0804091049C40E114C0C04E
:105090009CC0EFB01FE9075B69666465665DEFB0B1
:1050A000FFC7F11480C0024411019C4091045D8C43
:1050B000711122C0804091049C40E114C0C09CC08A
:1050C000EFB03FE6085B69666E6465665D00EFB051
:1050D000FFC4F11480C0024411019C4091045D8C16
:1050E000A2878040910463870700C040A1040504A3
:1050F0006F00C0059C40E114C0C09CC0EFB07FE2CF
:10510000065B656C73655D00EFB05FC1A287804090
:105110009104638F0700C040A1047D14F11480C086
:10512000A287804091046383070005046F0000029A
:10513000EFB03FDF065B7468656E5D00EFB01FBEC9
:10514000A28780409104638307007D1463040400F8
:10515000F11480C01334140033048040A2878040CF
:105160009104E38407F0824011018280885101207C
:1051700050000000065B7468656E5D00711106C02A
:105180008240110182800100B451012051000000D1
:10519000045B69665D00711106C0133414003304AA
:1051A0008040A2878040910463830700553D824080
:1051B00011018280F051012050000000075B6966F8
:1051C0006465665D711106C0EFC02F93EFD0EF8A62
:1051D000804091041334140033048040A28780403F
:1051E000910463830700AD3D82401101828001007C
:1051F0002C52012050000000085B69666E646566F1
:105200005D00711106C0EFC04F8FEFD00F87804057
:105210009104133414007D14A287804091046383A9
:1052200007003D3D82401101828001007052012043
:1052300000000000046C69737400711106C0EFB0C7
:105240003FB5EFC0BFFAF11480C013048400EFB083
:105250005FD4EFB05FB7EFC03FFDA28780409104FD
:10526000E38307FE804091048240110182800100A7
:1052700094520120810000000864697361736D2DF0
:105280002400F11480C037C4FF7F1344C4FB828024
:105290000000000024530120000000000D64697329
:1052A00061736D2D737472696E67711106C0F114AC
:1052B00080C0374400800324C4FBF11480C0035431
:1052C000040013743400F11480C00D449C40910418
:1052D0003D8C1334140033048040A2878040910435
:1052E000638E070013044400F11480C0EFB07FCA3E
:1052F000EFB0DFD11304C4FF6F008001130424005A
:10530000F11480C0EFB0FFC8EFB05FD01304E4FF2A
:1053100037470080232E87FA804091048240110194
:10532000828001009C54012000000000056E616D28
:10533000652E711106C0711122C080409104EFC02A
:10534000FFEAF11480C013048400F11480C0EFB0B0
:10535000FFCBF11480C002449C4091043D8C133477
:10536000140033048040A28780409104638C0700BE
:10537000EFB0BFB60620202D2D3E2000EFB07FC13C
:105380006F00800080409104EFC01FEAA287804038
:105390009104E38807FA80409104F11480C002442C
:1053A0001101F11480C037F4FEDF1344A4EDA2878D
:1053B00080409104818F93B71700638C070280406F
:1053C0009104EFB09FB10820202D2D3E20202E000B
:1053D000F11480C013442002EFB06FD8EFB0BF9E2D
:1053E000E935F11480C013442002EFB04FD76F00AD
:1053F000800AF11480C037F4FEDF134424F2A28740
:1054000080409104818F93B71700638C070280401E
:105410009104EFB09FAC0820202D2D3E202073007A
:10542000F11480C013442002EFB06FD3EFB0BF99E6
:10543000AD3DF11480C013442002EFB04FD26F0095
:105440008005F11480C037F4FEDF1344E4EFA28737
:1054500080409104818F93B71700638C07028040CE
:105460009104EFB09FA70820202D2D3E202063003F
:10547000F11480C013442002EFB06FCEEFB0BF94A0
:105480002D35F11480C013442002EFB04FCD6F00D2
:10549000800080409104824011018280CC54012020
:1054A0000000000003752E32711106C0F11480C097
:1054B0000144EFD0BFDCEFD01FD9EFD0DFD8EFD061
:1054C0007FCFEFB0DFAE8240110182800455012012
:1054D0000000000003752E34711106C0F11480C065
:1054E0000144EFD0BFD9EFD01FD6EFD0DFD5EFD03A
:1054F0009FD5EFD05FD5EFD0FFCBEFB05FAB824051
:10550000110182804C5501200000000003752E38E7
:10551000711106C0F11480C00144EFD03FD6EFD026
:105520009FD2EFD05FD2EFD01FD2EFD0DFD1EFD03C
:105530009FD1EFD05FD1EFD01FD1EFD0DFD0EFD030
:105540007FC7EFB0DFA68240110182807C55012029
:105550000000000004752E6E7300711106C0F11476
:1055600080C00144EFD09FD1EFD0DFCBEFD09FC4FC
:10557000EFB0FFA38240110182800100A0550120FD
:105580000000000006636F6E73742E00711106C078
:10559000EFB0BF9402202300C937824011018280FE
:1055A000BC5501200000000005616464722E711179
:1055B00006C0B93F824011018280010008560120D7
:1055C00000000000082E646563696D616C00711154
:1055D00006C0F11480C0374400800324C4FF711159
:1055E00022C080409104EFB06F80EFD05FD7F114FC
:1055F00080C00244110137470080232E87FE80407F
:105600009104824011018280685601200000000050
:105610000972656769737465722E711106C013741F
:10562000F401F11480C00144A28780409104818F6D
:1056300093B71700638B070080409104EFB0FF8998
:10564000047A65726F006F00C001F11480C0EFB082
:10565000DF880178EFA09FF90937EFA03FFA80407B
:105660009104824011018280AC56012000000000AC
:1056700004696E737400711106C0F11480C0374460
:1056800000800324C4FBF11480C0130424000354DD
:10569000040013140401A28780409CC0035404003A
:1056A0009C4091045D8C824011018280D056012083
:1056B000000000000666756E63743300711106C049
:1056C0005D3F1354C4001374740082401101828042
:1056D000F0560120000000000666756E6374370006
:1056E000711106C0493F1354940182401101828018
:1056F0001057012000000000042E72733100711158
:1057000006C0953F1354F400093F82401101828086
:105710003057012000000000042E72733200711116
:1057200006C0913F13544401CD3D82401101828057
:105730005057012000000000032E7264711106C052
:105740001D3F13547400D13D82401101828001003D
:10575000705701200000000005696D6D5F697111CF
:1057600006C0113F13544441824011018280010060
:10577000A85701200000000005696D6D5F7371116D
:1057800006C0D53DB70700FE3374F40013544441FE
:10579000DD35135474001374F4019C4091045D8C46
:1057A00082401101828001000C580120000000009D
:1057B00006696D6D5F736200711106C06D3D135413
:1057C000340185673374F4007D3513544401137438
:1057D000047E9C4091045D8C793D135474001374D5
:1057E000E4019C4091045D8C793513144400FD77ED
:1057F00093C707803374F4009C4091045D8C1314AC
:105800003401135434418240110182802C5801200C
:105810000000000005696D6D5F75711106C0A13D46
:10582000FD773374F4008240110182809458012086
:105830000000000006696D6D5F756A00711106C099
:105840001D3D1354B400B70710003374F400253520
:10585000135444011374E47F9C4091045D8C213DFA
:1058600013549400FD7793C707803374F4009C4071
:1058700091045D8C0935B7F70F003374F4009C4038
:1058800091045D8C1314B4001354B4408240110190
:1058900082800100C45801208100000012646973F5
:1058A00061736D2D64657374696E6174696F6E00E8
:1058B000F11480C037C4FF7F134484FB8280000052
:1058C00000000100D8590120000000000B6469733A
:1058D00061736D2D6C6F6164711106C0C533F11475
:1058E00080C00144A28780409104818F93B7170044
:1058F000638C070080409104EFB02FDE076C6220BC
:10590000202020206F00000BF11480C00544A287E6
:1059100080409104818F93B71700638C070080400B
:105920009104EFB08FDB076C6820202020206F00EF
:105930006008F11480C00944A28780409104818FDF
:1059400093B71700638C070080409104EFB0EFD845
:10595000076C7720202020206F00C005F11480C044
:105960001144A28780409104818F93B71700638C04
:10597000070080409104EFB04FD6076C627520207D
:1059800020206F002003F11480C01544A2878040BE
:105990009104818F93B71700638C070080409104B6
:1059A000EFB0AFD3076C6875202020206F00800017
:1059B000804091046133EFB04FD2022C2000453378
:1059C000EFD0FF99EFB06FD10128153BEFB0EFD0CA
:1059D0000129824011018280B85B01200000000093
:1059E0001064697361736D2D696D6D6564696174AF
:1059F0006500711106C0A533D131F11480C0014496
:105A0000A28780409104818F93B71700638C0700B1
:105A100080409104EFB06FCC07616464692020205E
:105A20006F00A017F11480C00544A2878040910444
:105A3000818F93B71700638C070080409104EFB00B
:105A4000CFC907736C6C692020206F000015F1141A
:105A500080C00944A28780409104818F93B71700CA
:105A6000638C070080409104EFB02FC707736C74FC
:105A7000692020206F006012F11480C00D44A287BD
:105A800080409104818F93B71700638C070080409A
:105A90009104EFB08FC407736C74697520206F0098
:105AA000C00FF11480C01144A28780409104818FFF
:105AB00093B717006386070280409104EFB0EFC1EF
:105AC00007786F7269202020F11480C0F11480C023
:105AD00037C4FF7F134484FBEFE0AFDC6F00E00BC3
:105AE000F11480C01544A28780409104818F93B740
:105AF00017006388070480409104B53E1354A40145
:105B0000F11480C041449C4091043D8C1334140036
:105B100033048040A28780409104638A0700EFB07D
:105B2000CFBB07737261692020206F000001EFB0C6
:105B3000CFBA0773726C692020201374F4016F00D0
:105B4000C005F11480C01944A28780409104818F60
:105B500093B71700638C070080409104EFB0EFB754
:105B6000076F7269202020206F002003F11480C08D
:105B70001D44A28780409104818F93B71700638CE6
:105B8000070080409104EFB04FB507616E64692053
:105B900020206F008000804091044D36EFB0EFB3BD
:105BA000022C2000A93EEFB04FB3022C2000EFD012
:105BB0000FFB824011018280F45B01200000000095
:105BC0000C64697361736D2D617569706300711187
:105BD00006C0EFB08FB00761756970632020B93ED1
:105BE000EFB0AFAF022C20000D391D328240110101
:105BF00082800100B85C0120000000000C64697321
:105C000061736D2D73746F726500711106C07D3400
:105C1000F11480C00144A28780409104818F93B722
:105C20001700638C070080409104EFB00FAB07733F
:105C30006220202020206F00C005F11480C00544A0
:105C4000A28780409104818F93B71700638C07006F
:105C500080409104EFB06FA80773682020202020B7
:105C60006F002003F11480C00944A2878040910492
:105C7000818F93B71700638C070080409104EFB0C9
:105C8000CFA507737720202020206F008000804060
:105C900091047134EFB06FA4022C2000CD34EFD00A
:105CA0000FECEFB08FA30128993CEFB00FA30129AF
:105CB00082401101828001002C6001200000000060
:105CC0000F64697361736D2D7265676973746572B2
:105CD000711106C03134F11480C005449C40910418
:105CE0003D8C1334140033048040A287804091041B
:105CF000638F0714E132F11480C00144A287804011
:105D00009104818F93B71700638C07008040910442
:105D1000EFB0AF9C076D756C202020206F00E01263
:105D2000F11480C00544A28780409104818F93B70D
:105D30001700638C070080409104EFB00F9A076D45
:105D4000756C682020206F004010F11480C0094459
:105D5000A28780409104818F93B71700638C07005E
:105D600080409104EFB06F97076D756C6873752074
:105D70006F00A00DF11480C00D44A28780409104F3
:105D8000818F93B71700638C070080409104EFB0B8
:105D9000CF94076D756C687520206F00000BF114AF
:105DA00080C01144A28780409104818F93B717006F
:105DB000638C070080409104EFB02F9207646976EE
:105DC000202020206F006008F11480C01544A287B5
:105DD00080409104818F93B71700638C0700804047
:105DE0009104EFB08F8F07646976752020206F00D3
:105DF000C005F11480C01944A28780409104818FAE
:105E000093B71700638C070080409104EFB0EF8CCC
:105E10000772656D202020206F002003F11480C0E0
:105E20001D44A28780409104818F93B71700638C33
:105E3000070080409104EFB04F8A0772656D7520AE
:105E400020206F008000804091046F00001CBD3056
:105E5000F11480C00144A28780409104818F93B7E0
:105E6000170063850704804091049D38F11480C0B9
:105E7000134400029C4091043D8C133414003304FD
:105E80008040A28780409104638A0700EFB0EF84CE
:105E900007737562202020206F000001EFB0EF83B0
:105EA00007616464202020206F002016F11480C058
:105EB0000544A28780409104818F93B71700638CBB
:105EC000070080409104EFB04F8107736C6C202075
:105ED00020206F008013F11480C00944A287804005
:105EE0009104818F93B71700638C07008040910461
:105EF000EFA0BFFE07736C74202020206F00E0101D
:105F0000F11480C00D44A28780409104818F93B723
:105F10001700638C070080409104EFA01FFC0773FB
:105F20006C74752020206F00400EF11480C0114465
:105F3000A28780409104818F93B71700638C07007C
:105F400080409104EFA07FF907786F722020202015
:105F50006F00A00BF11480C01544A287804091040B
:105F6000818F93B717006386070480409104EFF098
:105F70002FF7F11480C0134400029C4091043D8C23
:105F80001334140033048040A28780409104638A54
:105F90000700EFA09FF407737261202020206F009C
:105FA0000001EFA09FF30773726C202020206F0088
:105FB000C005F11480C01944A28780409104818FEC
:105FC00093B71700638C070080409104EFA0FFF0A7
:105FD000076F7220202020206F002003F11480C062
:105FE0001D44A28780409104818F93B71700638C72
:105FF000070080409104EFA05FEE07616E642020EF
:1060000020206F00800080409104EFF02FF3EFA07C
:10601000DFEC022C2000EFF08FEEEFA01FEC022C43
:106020002000EFF0CFEF8240110182807C600120E0
:10603000000000000A64697361736D2D6C7569005E
:10604000711106C0EFA07FE9076C75692020202040
:10605000EFF0CFEEEFA07FE8022C2000EFF0EFFB97
:10606000EFF00FCBEFF06FFB37470080232C87FA60
:10607000804091048240110182800100D46101209E
:10608000000000000D64697361736D2D6272616EB2
:106090006368711106C0EFF06FE2F11480C0014433
:1060A000A28780409104818F93B71700638C07000B
:1060B00080409104EFA07FE20762657120202020DC
:1060C0006F00A00DF11480C00544A28780409104A8
:1060D000818F93B71700638C070080409104EFA075
:1060E000DFDF07626E65202020206F00000BF114B7
:1060F00080C01144A28780409104818F93B717001C
:10610000638C070080409104EFA03FDD07626C7450
:10611000202020206F006008F11480C01544A28761
:1061200080409104818F93B71700638C07008040F3
:106130009104EFA09FDA07626765202020206F009E
:10614000C005F11480C01944A28780409104818F5A
:1061500093B71700638C070080409104EFA0FFD72E
:1061600007626C74752020206F002003F11480C03A
:106170001D44A28780409104818F93B71700638CE0
:10618000070080409104EFA05FD507626765752026
:1061900020206F00800080409104EFF04FD6EFA0E8
:1061A000DFD3022C2000EFF08FD7EFA01FD3022CFB
:1061B0002000F11480C0374400800324C4FBEFF0BA
:1061C000AFDF9C4091043E94EFF08FB48240110108
:1061D0008280010068620120000000000B64697386
:1061E00061736D2D6A616C72711106C0EFA0FFCEF4
:1061F000076A616C72202020EFF04FD4EFA0FFCD32
:10620000022C2000EFF0AFD5EFD06F95EFA0FFCCC0
:106210000128EFF0CFCEEFA05FCC0129EFF0AFC5A2
:106220001354F4001374F401F11480C03D449C40F5
:1062300091043D8C1334140033048040A2878040C5
:106240009104638F0700F11480C037440080032459
:1062500084FBEFF0CFD09C4091043E94EFF06F8D23
:106260008240110182800100C06201200000000014
:106270000A64697361736D2D6A616C00711106C0E7
:10628000EFA0BFC5076A616C20202020EFF00FCB84
:10629000EFA0BFC4022C2000F11480C0374400805E
:1062A0000324C4FBEFF08FD99C4091043E94F11479
:1062B00080C0EFF0EFA5EFF0CF8782401101828020
:1062C0001C650120000000000D64697361736D2D71
:1062D00073797374656D711106C0EFF02FBE63049E
:1062E0000400F11480C0A2878040910463800716E7
:1062F000F11480C00544A28780409104818F93B738
:106300001700638C070080409104EFA01FBD076356
:106310007372727720206F00A00DF11480C00944C1
:10632000A28780409104818F93B71700638C070088
:1063300080409104EFA07FBA0763737272732020CC
:106340006F00000BF11480C00D44A28780409104BF
:10635000818F93B71700638C070080409104EFA0F2
:10636000DFB707637372726320206F006008F11457
:1063700080C01544A28780409104818F93B7170095
:10638000638C070080409104EFA03FB507637372F0
:10639000727769206F00C005F11480C01944A2878C
:1063A00080409104818F93B71700638C0700804071
:1063B0009104EFA09FB207637372727369206F003C
:1063C0002003F11480C01D44A28780409104818F76
:1063D00093B71700638C070080409104EFA0FFAFD4
:1063E00007637372726369206F00800080409104BC
:1063F000EFF0CFB4EFA07FAE022C2000EFF0AFA7FC
:1064000013544401EFF04F8DEFA03FAD022C20005C
:10641000EFF0CFAAF11480C015449C40910433B42E
:10642000870033048040A287804091046386070080
:10643000EFF0EFAC6F004001EFF0EFA31354F40066
:106440001374F401EFF04F866F00E00CEFF0AFA291
:1064500013544401F11480C00144A2878040910488
:10646000818F93B71700638B070080409104EFA0E2
:10647000DFA6056563616C6C6F00E009F11480C0F4
:106480000544A28780409104818F93B71700638CE5
:10649000070080409104EFA05FA406656272656109
:1064A0006B006F004007F11480C013445010A287A6
:1064B00080409104818F93B71700638A0700804062
:1064C0009104EFA09FA1037766696F00C004F114E7
:1064D00080C013442030A28780409104818F93B7FD
:1064E0001700638B070080409104EFA01F9F046D8D
:1064F000726574006F002002EFA03F9E15556E6B11
:106500006E6F776E2073797374656D206F70636F33
:1065100064658040910482401101828048650120B9
:1065200000000000087276632D696E7374007111AB
:1065300006C0F11480C0374400800324C4FB035418
:1065400004008240110182806C650120000000007F
:10655000097276632D66756E6333711106C0C13F93
:106560001354D400824011018280010094650120FF
:1065700000000000087276632D7265672E007111AD
:1065800006C01374740013048400EFF00F89824076
:1065900011018280D06501200000000007696D6D47
:1065A0005F637373711106C0593713547400137409
:1065B000340013146400A53F135494001374F400C2
:1065C000131424009C4091045D8C82401101828050
:1065D000206601200000000007696D6D5F63736C29
:1065E000711106C0A9371354C40013741400131496
:1065F0005400353F13542400137434001314640002
:106600009C4091045D8C253713544400137474002E
:10661000131424009C4091045D8C824011018280FF
:10662000586601200000000006696D6D5F6375000B
:10663000711106C0ED3D135424001374F401C53DDF
:106640001354C40013741400131454009C40910498
:106650005D8C82401101828098660120000000005C
:1066600005696D6D5F63711106C0D1351354240047
:106670001374F4016D3D1354C40013741400131407
