:020000042001D9
:100000006F40E00B2C000120FFFFFFFF1D2D2D2D69
:10001000204D6563726973702D5175696E747573C7
:1000200020312E312E31202D2D2D000040000120B9
:100030000000000006666C61736821006F30B050EC
:1000400054000120000000000768666C617368219D
:100050006F301060680001202004000003737040BE
:10006000F11480C0268482807C00012020040000DE
:1000700003737021A284804091048280900001204B
:100080002000000003727040F11480C00A84828056
:10009000A400012020000000037270212281804012
:1000A00091048280B800012061040000036475702F
:1000B000F11480C082800000CC00012061040000A7
:1000C0000464726F7000804091048280E40001201B
:1000D00061040000043F6475700019C0F11480C011
:1000E00082800000FC00012062040000047377613C
:1000F0007000A28780409CC0828000000C0101201B
:1001000062040000036E6970910482802401012062
:1001100062040000046F76657200F11480C0C04074
:10012000828000003C0101206204000004747563B9
:100130006B009C40F114C0C09CC08280540101201F
:100140004300000003726F749C40D84080C0DCC044
:100150003A8482807001012043000000042D726FF8
:1001600074009C40D84098C0C0C03E84828000008B
:100170008801012020040000047069636B000A04F8
:100180002694004082800000AC01012000000000A5
:10019000056465707468B70700809387C726858FEC
:1001A000F11480C013D4274082800000D4010120C4
:1001B000000000000672646570746800B707008074
:1001C0009387C746B3872740F11480C013D42740D4
:1001D00082800000EC01012020000000023E72003D
:1001E000711122C08040910482800000040201202D
:1001F0002000000002723E00F11480C00244110190
:1002000082800000180201202000000002724000DD
:10021000F11480C0024482802C02012020000000E2
:10022000057264726F701101828000004402012027
:100230002000000005727069636B0A040A94004094
:10024000828000005C0201206104000002303D0059
:1002500013341400330480408280000070020120B7
:100260006104000003303C3E133414007D1482808E
:10027000800201206104000002303C007D84828005
:100280009802012062040000023E3D009C4091045F
:1002900033A487007D148280B00201206204000034
:1002A000023C3D009C4091043324F4007D14828084
:1002B000C802012062040000013C9C40910433A468
:1002C0008700330480408280E00201206204000045
:1002D000013E9C4091043324F4003304804082802A
:1002E000F80201206204000003753E3D9C40910429
:1002F00033B487007D148280100301206204000063
:1003000003753C3D9C4091043334F4007D1482809D
:100310002C0301206204000002753C009C40910403
:1003200033B48700330480408280000048030120FA
:100330006204000002753E009C4091043334F400D6
:1003400033048040828000006403012062040000C6
:10035000023C3E009C4091043D8C133414007D14FB
:10036000828000008003012062040000013D9C4067
:1003700091043D8C133414003304804082800000CB
:100380009803012062040000036D696E9C40910493
:100390006343F4003E848280B003012062040000C5
:1003A000036D61789C40910463C387003E84828022
:1003B000CC0301206204000004756D696E009C404E
:1003C00091046363F4003E8482800000E80301200E
:1003D0006204000004756D6178009C40910463E341
:1003E00087003E84828000004804012062060000ED
:1003F000012B9C4091043E94828037070400130730
:100400003741B707F40093873743711106C0611174
:100410003AC23EC0930700803377F4006303F700CD
:1004200011E75204924721015D8C11A8F11480C09C
:100430003D44EF00D07FF11480C00244210182408E
:1004400011016F1010090000640401206206000011
:10045000012D9C4091043384874082801344F4FF33
:10046000050461BF8C0401206206000003736C74F4
:100470009C40910433A4870082803727040013072F
:100480003741B727F4009387374341B7B8040120B9
:100490006206000004736C7475009C40910433B4D0
:1004A000870082803737040013073741B737F400DD
:1004B0009387374399BF0000C804012061040000FE
:1004C00002312D007D148280D804012061040000D7
:1004D00002312B0005048280E80401206104000041
:1004E00002322D0079148280F8040120610400009A
:1004F00002322B00090482800C05012061040000F7
:100500000563656C6C2B11048280000024050120BA
:1005100061040000066E6567617465003304804005
:1005200082800000340501206104000003736872BA
:100530000580828044050120610400000373686C1B
:1005400006048280540501206104000002322A0062
:100550002294828068050120610400000563656CB7
:100560006C730A0482800000780501206104000099
:1005700002322F0005848280900501206104000072
:10058000036162739357F4413E943D8C8280000076
:10059000A805012061040000046576656E0093776C
:1005A00014003E9482800000C805012081000000F4
:1005B000046261736500F11480C0374400807114D7
:1005C00082800A0000000000DC050120000000001D
:1005D0000662696E61727900894715A0F0050120F5
:1005E0000000000007646563696D616CA94701A89C
:1005F000080601200000000003686578C1473747FE
:10060000008071171CC382802806012000000000B2
:100610000565696E743FF11480C073240030218831
:10062000133414007D1482803C0601202004000055
:100630000465696E74007360043082805006012086
:10064000200400000464696E7400737004308280BA
:1006500064060120200400000377666973005010CF
:10066000828000008006012000000000066D6361AA
:1006700075736500F11480C07324203482800000FB
:100680009806012000000000046D65706300F114FD
:1006900080C0732410348280B00601200000000066
:1006A000036D6965F11480C07324403082800000BE
:1006B000C806012000000000036D6970F11480C0BD
:1006C0007324403482800000E00601200000000016
:1006D000046D69652100731044308040910482806C
:1006E000F806012000000000046D697021007310FD
:1006F00044348040910482802407012000000000DF
:10070000076D74696D653634F11480C037C7000217
:1007100061175C4300435843E39AE7FEF11480C03D
:100720003E84828054070120000000000863796342
:100730006C6573363400F11480C0F32700B873245D
:1007400000B0732700B8E39AE7FEF11480C03E843E
:1007500082800000740701200000000006637963B6
:100760006C657300F11480C037C700026117004345
:1007700082800000B40701200000000009756E6847
:10078000616E646C6564711106C0312714556E6822
:10079000616E646C656420496E7465727275707404
:1007A0002000C93DEF00B008FD2502210A0082406B
:1007B000110182804008012000000000056661757B
:1007C0006C74711106C0C12D14556E68616E646C35
:1007D000656420496E746572727570742000593DAD
:1007E000EF00F0044D2D036174205535EF00300407
:1007F0005D2502210A008240110182803AD63ED452
:1008000042D246D04ACE4ECC52CA56C85AC65EC410
:1008100062C266C083A00000E7800000824C124CD8
:10082000A24B324BC24A524AE2497249825812588C
:10083000A2573257C2501301410373002030000009
:1008400078080120810000000E6972712D636F6CC1
:100850006C656374696F6E00F11480C0374400806A
:1008600061148280C20701201301C1FC06D8B74081
:100870000080E11061B700009C08012081000000A9
:1008800009686F6F6B2D656D6974F11480C0374412
:10089000008051148280500A01200000C00801200D
:1008A0008100000008686F6F6B2D6B657900F11493
:1008B00080C03744008041148280840A01200000F7
:1008C000E4080120810000000A686F6F6B2D656DE0
:1008D00069743F00F11480C0374400803114828075
:1008E000BE0A0120080901208100000009686F6F1D
:1008F0006B2D6B65793FF11480C037440080211463
:100900008280F00A012000002C09012081000000F3
:100910000A686F6F6B2D706175736500F11480C08C
:100920003744008011148280380901203C090120DD
:1009300000000000036E6F708280000058090120E3
:100940000000000004656D697400B7470080D1178E
:100950009C43678007000000700901200000000030
:10096000036B6579B7470080C1179C436780070018
:100970008C0901200000000005656D69743FB747D0
:100980000080B1179C43678007000000A809012080
:1009900000000000046B65793F00B7470080A11795
:1009A0009C43678007000000140A0120000000003B
:1009B000057061757365B747008091179C43678028
:1009C00007003785001011050C41370600C0E39A77
:1009D000C5FE378500102105B7150700938515DF83
:1009E0000CC13725011013058503B70503000CC1A1
:1009F0003735011061059305A0080CC1373501108A
:100A0000210585450CC137350110310585450CC1DF
:100A1000828000003C0A0120810000000F73657293
:100A200069616C2D6C61737463686172F11480C0CC
:100A30003744008001148280FFFFFFFF700A01200D
:100A4000000000000B73657269616C2D656D69743F
:100A5000711106C0AD20A28780409104E5DF3737D1
:100A6000011000C380409104824011018280000087
:100A7000A80A0120000000000A73657269616C2DEC
:100A80006B657900711106C0A520A2878040910492
:100A9000E5DF374700800117F11480C00043FD57A0
:100AA0001CC3824011018280DC0A0120000000008A
:100AB0000C73657269616C2D656D69743F0071110D
:100AC00006C0D53DF11480C0B73701109C43FD87A7
:100AD00013C4F7FF8240110182800000280B01201F
:100AE000000000000B73657269616C2D6B65793FC6
:100AF000711106C0C935F11480C037470080011755
:100B00001C4313D4F74119C83737011011071C4390
:100B10003747008001171CC313D4F7411344F4FF77
:100B200082401101828000003C0B01200000000087
:100B30000572657365746F3080580000D80B012012
:100B4000000000000661636365707400411106C611
:100B50002AC42EC232C08C40910401462135228520
:100B6000804091049307F0076300F50493070002A7
:100B7000636DF500E37486FEF11480C02A84F133BE
:100B80002380A50085050506D1BFA5476315F5009F
:100B900013050002C5B7A9476308F502B547630509
:100BA000F502A147E31CF5FA55DAF52403082008FD
:100BB00055D6FD157D1603C5050093770508D9DFC9
:100BC00093770504C1FFEDB73284B24022459245C8
:100BD000024641017DA20000F40B0120400000000C
:100BE00003746962F11480C0370400801304C446A2
:100BF00082800000140C012081000000033E696E19
:100C0000F11480C0374400801304C4FD82800000CA
:100C100000000000440C0120820000000E63757289
:100C200072656E742D736F7572636500F11480C008
:100C300037440080130444FD8280000000006C04EF
:100C4000008000006C0C0120000000000973657436
:100C5000736F75726365B7470080938747FD80C3E4
:100C600080409104C0C38040910482809C0C01208C
:100C70000000000006736F757263650071112AC071
:100C800037450080130545FDF11480C04041F11443
:100C900080C000410245110182800000D00C01207B
:100CA00000000000057175657279711106C0893FF9
:100CB00081471CC0804091043537F11480C0F11485
:100CC00080C01304800C59358240110169B70000BF
:100CD000400D01200000000007636F6D70617265B8
:100CE00051112AC42EC232C022858C40D04080448B
:100CF000B1046305C500130400002DA81DC903C677
:100D000005001337160411E71337B60519C3130688
:100D100006028347040013B7170411E713B7B7059A
:100D200019C393870702E318F6FC7D1585050504B2
:100D3000F1B77D5422459245024631018280000080
:100D40005C0D01200000000002637200711106C0FA
:100D50009922010A8240110182800000740D012055
:100D60000000000002626C00F11480C01304000255
:100D7000828000008C0D012000000000057370616E
:100D80006365F11480C013040002C1B6B40D0120E4
:100D9000000000000673706163657300711106C086
:100DA00063558000F93F7D14E5BF80409104824087
:100DB00011018280C80D012050000000065B6368AD
:100DC00061725D0009A80000EC0D01200000000028
:100DD000046368617200711106C0C12180409104F2
:100DE000034404008240110182800000000E0120B3
:100DF000500000000128F11480C01304900209A8DB
:100E0000200E012050000000015CF11480C001445C
:100E1000711106C07929C040A1048240110182806D
:100E2000500E012030000000022E2200F11480C07C
:100E30001704000013046406711106C02927F11479
:100E400080C013042002B521824011016F005005BB
:100E50006C0E01203000000002632200F11480C0FB
:100E6000170400001304A405C1BF0000880E012070
:100E70003000000002732200F11480C0170400004B
:100E80001304240655BF0000AC0E01200000000032
:100E900004282E222900F11480C0068483C7000094
:100EA0008500BE9093F71000BE9045A0D00E0120A3
:100EB00000000000042863222900F11480C0068489
:100EC00083C700008500BE9093F71000BE9082801B
:100ED000F40E012000000000042873222900F11400
:100EE00080C0068483C700008500BE9093F7100081
:100EF000BE9075A03C0F01200000000004286E2267
:100F00002900611106C22AC083470400A5CF050449
:100F10003305F4008347040013D747002A9703479B
:100F20000700BD8BAA97E114C0C098C003C4070096
:100F3000293C213C0504E31FA4FCA9A0580F012073
:100F400000000000056374797065611106C22AC053
:100F500003450400050431A8900F012000000000A3
:100F6000047479706500611106C22AC02285804030
:100F7000910409C9F11480C003440400F932050446
:100F80007D156DF9804091049240024521018280D7
:100F9000AC0F01200000000005636F756E7405043E
:100FA000F11480C00344F4FF82800000D00F0120C0
:100FB000000000000A736B6970737472696E6700D9
:100FC0008347040005043E94937714003E94828086
:100FD000201001200000000006726973632D760066
:100FE000711106C04D3D324D6563726973702D51AC
:100FF00075696E74757320312E312E3120666F72D3
:1010000020524953432D56206279204D61747468F3
:10101000696173204B6F63680A008240110182800E
:101020006C10012000000000046865782E0041115A
:1010300006C62AC42EC232C0228580409104930580
:101040000002F11480C01354C5013D882946636332
:10105000C4001D0413040403CD381205F115F5F185
:10106000B240224592450246410121BBE0100120D9
:1010700000000000032E7273511106C42AC22EC054
:10108000193D0F52657475726E737461636B3A200B
:101090005B20B70700809387C746B387274063C8A4
:1010A000070293D527008505F11480C02E844137AF
:1010B000DD33025D200081CD370500801305C54674
:1010C000F11480C00041A5377115FD15F5F9E13324
:1010D00004202A3E0A00A240124582453101828046
:1010E000701101200000000005776F7264737111A8
:1010F00006C05533010AEF10A000713B094164643A
:10110000726573733A20F11480C015376933064C49
:10111000696E6B3A2000F11480C00040093FA53B86
:1011200007466C6167733A20F11480C04040013774
:101130009D3306436F64653A2000F11480C021049A
:101140004135F535893B064E616D653A2000F11455
:1011500080C02104DD3B8133010AEF00F07DA287CE
:1011600080409104D9DB804091048240110182804B
:10117000B01101200000000006756E7573656400F3
:10118000711106C0EF003022EF00F042A2878040CC
:10119000910481E7B707402031A0EF001023A28718
:1011A0008040910433848740824011018280000096
:1011B000C81101200000000003682E73970700008B
:1011C000938727E705A80000E01101200000000038
:1011D000022E7300972700009387670721A800005D
:1011E0008C1201200000000003752E739727000069
:1011F0009387C704311106C82AC62EC432C236C02E
:101200003E85513909537461636B3A205B2037473F
:10121000008071171443A9471CC3B705008093854C
:10122000C526858D63CE05028981F11480C02E8488
:10123000EF20A0018D31025D20003747008071173B
:1012400014C363CF050089CD3706008013068626B8
:10125000F11480C00042E70005007116FD15EDF99C
:101260001D390620544F533A2000F11480C02284C7
:10127000E70005000D3104202A3E0A00C240324535
:10128000A24512468246510182800000A41201202C
:101290000000000005746F6B656EF11480C01304CC
:1012A000000201A87C13012000000000057061729B
:1012B0007365411106C62AC42EC232C0C132A2854E
:1012C0008840C040A1042D3A10408040910433076B
:1012D000C50093070002631EF400638AC502B307CA
:1012E000C50083C707006396870005063307C5005E
:1012F000EDB7638EC500B307C50083C707000506B9
:10130000E39987FE3304C500198C7D1421A03304B2
:10131000C500198CF11498C0E53010C080409104CC
:10132000B24022459245024641018280611106C2C7
:101330002AC0228580409104856793870780E18FCA
:1013400099C385673E94F11480C0FD777D8C13644A
:10135000747BF11480C02A84EF0010105204B78708
:101360000700938777465D8CF11480C02A841104AE
:101370009240024521016F00300E0000BC13012095
:101380002000000005646F65733EF11480C0B7173C
:101390000120678487398280711106C0F11480C0F2
:1013A00037040080710400402104937724003E94A8
:1013B000B53FDD2D1101824011018280EC13012027
:1013C00000000000073C6275696C6473711106C00F
:1013D000EF00702E4D29892AEF00B005F11480C06E
:1013E0002144EF0010118240110182801414012069
:1013F000000000000663726561746500711106C02B
:10140000F137F11480C0B717012067848739824013
:101410001101828004150120000000001072656730
:1014200069737465726C69746572616C2C0019E083
:101430006F10F074611106C22AC0228580409104A9
:10144000930700803377F4006303F70021E38157AB
:101450003377F4006303F70005E39377F4018A0719
:101460001357F4013207116405045D8C598C1E0575
:10147000498CEF00F00159A052049167CD07131772
:101480007500D98F5D8CEF00D0048DA88567938798
:101490000780E18F99C3FD773D8C89476307F5028B
:1014A00081773377F4006303F70005E3F11480C01C
:1014B000298485679387C7077D8C996785075D8C2D
:1014C00013177500598CE92719A8F11480C0FD770E
:1014D0007D8C1364740313177500598CDD2F52042F
:1014E00001E48040910419A89167CD071317750096
:1014F000D98F1317F500D98F5D8CE12F92400245EB
:10150000210182803815012000000000086C6974F8
:101510006572616C2C00711106C03920F11480C015
:1015200021448240110121B7F11480C017F4FFFF5C
:10153000130444B861A80000BC150120000000009D
:101540000563616C6C2C711106C0F11480C0A12D73
:10155000EFE03FF0EF10E014A2878040910481CBD0
:101560009104896785075D8C8240110115A7EF10F2
:101570000007A2878040910481CB91049307F00E6D
:101580005D8C82401101B1A78040910485679387EB
:101590000780E18F99C385673E94F11480C0FD7781
:1015A0007D8C1364747B35275204B78707009387BB
:1015B000770E5D8C8240110129AF00005416012086
:1015C0000000000007696E6C696E652C711106C021
:1015D000835704000567130717176399E7008357BC
:1015E0002400316719076393E7001104835704004F
:1015F000116713072708639FE70083572400130729
:1016000010116399E70083574400216713072708E7
:10161000638DE70283570400216713072708638659
:10162000E7028357040013F7370075176318E000CB
:10163000F11480C003540400A12D0904F11480C0EA
:1016400003540400B125090461B78040910482402D
:101650001101828090160120000000000E736B695A
:1016600070646566696E6974696F6E008357040003
:1016700013F7370075176309E000090421671307A2
:1016800027086385E700DDB71104CDB7828000002D
:10169000041701200000000007737472696E672C44
:1016A000311106C82AC62EC432C236C01375F40FD3
:1016B0008C409104A920152009C9F11480C003C4ED
:1016C000050021287D158505C5BF0D20C240324586
:1016D000A24512468246510182803314C400C18E55
:1016E000804091042106C147631DF60009CA7111AB
:1016F00006C0F11480C03684612B8240110101467E
:10170000814682801417012050000000035B275D92
:1017100039A00000501701200000000001275111DE
:1017200006C42AC22EC0953E8840A285EF00F0254F
:10173000A2878040910419E4F11480C088C02E84EF
:101740006F10604BA240124582453101828000003B
:10175000981701203000000008706F7374706F6E6E
:101760006500711106C0653F13F707011DE313F70C
:10177000070209CB4D33F11480C017040000130495
:1017800024E501A8493BF11480C0170400001304AC
:10179000C4DB8240110145BBC017012030000000AE
:1017A000046578697400711106C0F11480C0374473
:1017B000110113042408312B8240110109A80000F3
:1017C000DC17012000000000047265742C00F11485
:1017D00080C021641304240865A90000FC170120BF
:1017E000300000000772656375727365F11480C084
:1017F0003704008071040040B9B300001C180120B8
:1018000081000000057374617465F11480C0374471
:101810000080130404FD8280000000003C180120B9
:1018200081000000042873702900F11480C037443F
:1018300000801304C4FC8280000000004C180120CA
:1018400000000000015DFD5701A8000064180120A0
:1018500010000000015B814737470080130707FD38
:101860001CC382809418012000000000013A71110D
:1018700006C0374700801307C7FC04C32D2D8240E4
:1018800011018547D1BFF11480C0371406C013047D
:10189000141781A1EC18012030040000013B7111E4
:1018A00006C0374700801307C7FC1C4363819702BB
:1018B000EFF06FDE1520537461636B206E6F742040
:1018C00062616C616E6365642E0A6F1080483747F1
:1018D0000080130707FD184385476314F700C53DD3
:1018E00011A0D135D12282401101B5B708190120CC
:1018F000000000000765786563757465A287804005
:1019000091046780070000002019012010000000EA
:1019100009696D6D656469617465C14735A2000030
:10192000381901205000000006696E6C696E650070
:101930009307000211AA0000501901205000000076
:10194000076E6F6672616D6593070040F5A8000031
:101950006C190120100000000B636F6D70696C65DD
:101960006F6E6C7993070003C5A0000088190120F1
:10197000500000000A302D666F6C6461626C650077
:1019800093070004D1A00000A4190120500000001A
:101990000A312D666F6C6461626C650093071004F8
:1019A00065A00000C0190120500000000A322D6619
:1019B0006F6C6461626C65009307200471A0000085
:1019C000DC190120500000000A332D666F6C646141
:1019D000626C65009307300485A80000F8190120A7
:1019E000500000000A342D666F6C6461626C650003
:1019F0009307400491A80000141A01205000000031
:101A00000A352D666F6C6461626C65009307500443
:101A100025A80000301A0120500000000A362D666B
:101A20006F6C6461626C65009307600431A800000C
:101A3000501A0120500000000A372D666F6C646157
:101A4000626C650093077004F11480C03E84D1A0DD
:101A5000741A01200000000008636F6E7374616ED9
:101A60007400711106C081297D349533113F824085
:101A700011011DA8981A0120000000000932636FAF
:101A80006E7374616E74711106C03521A287804037
:101A90009CC05134D1BF0000001B01200000000099
:101AA00006736D7564676500711106C059222126A1
:101AB000A28780409104A9E3FD208327C4FF130778
:101AC000F0FF804091046396E700F11480C0014468
:101AD0000924F11480C0370400801304040200407C
:101AE000F11480C037040080210400401104EFE0AD
:101AF000EFD4824011018280F11480C0014405A816
:101B0000781B01200000000008736574666C616733
:101B100073003757EA051307E71D6318870017247A
:101B20000000130484636FF0CFBD711106C06124FF
:101B3000A2878040910489EF3707008013070702CE
:101B40001C43C18F1CC380409104824011018280DC
:101B500037070080210718435C4371112AC07D5567
:101B60006393A700A287C18F024511015CC3804027
:101B70009104824011018280981B012041000000E5
:101B800007616C69676E6564937714003E94937780
:101B900024003E9482800000B41B0120000000005D
:101BA000046865726500F11480C03704008000404D
:101BB00082800000D81B0120000000000D666C61CF
:101BC00073687661722D68657265F11480C03704A0
:101BD0000080410400408280F81B012000000000CA
:101BE0000C61646472696E666C6173683F003707EC
:101BF0000120B707402039A8241C01200000000064
:101C00000A61646472696E72616D3F00370700801B
:101C1000B74700806366E4006374F4007D548280FB
:101C200001448280841C01200000000005616C6971
:101C3000676E711106C0853F937714003E94370795
:101C4000008000C3098801C40544992019A0804080
:101C50009104824011018280711106C09C40E11400
:101C6000C0C09CC01928A28780409CC04180A28728
:101C700080409CC0090482401101711106C0F1141A
:101C800080C005A0C81C01200000000002682C00D4
:101C9000711106C0093FF11480C0F11480C00944DD
:101CA0008928B137A2878040910481C7EFE04FBAFD
:101CB00001A8A2878040910423908700804091046E
:101CC0008240110182800000E41C0120000000001D
:101CD000012C711106C0F11480C05D3F418082402B
:101CE00011017DB7641D01200000000005616C6CCE
:101CF0006F74611106C22AC0228580409104652854
:101D0000A287804091049DE3370700801C43AA9777
:101D10003705402063EEA702EFF0EF970B466C61AA
:101D200073682066756C6C0A6F10A002793D3707E6
:101D300000801C43AA9763EB8700EFF0CF95095210
:101D4000616D2066756C6C0A6F10A0008040910474
:101D50001CC39240024521018280F11480C01144CD
:101D600049BF0000A01D01200000000009666F723D
:101D700067657472616D711106C095203707008028
:101D8000B7070080938747531CC33707008021079C
:101D900097E7FFFF938747271CC38240110182808A
:101DA000C81D0120000000000D636F6D70696C6537
:101DB000746F72616D3F711106C0F5330D3D1344B0
:101DC000F4FF824011018280401E012000000000CB
:101DD0000C636F6D70696C65746F72616D00711169
:101DE00006C0D13FA28780409104B5EF370700803D
:101DF0005C43184B63E6E702EFF0EF89232056615E
:101E0000726961626C657320636F6C6C69646520D4
:101E1000776974682064696374696F6E6172790AA6
:101E2000F11480C03704008018405C4058C01CC0CA
:101E300018445C4458C41CC401448240110155BD7F
:101E40006C1E0120000000000E636F6D70696C65F0
:101E5000746F666C61736800711106C0A93FA28738
:101E600080409104D5FF8240110182808C1E0120A8
:101E70004000000008286C61746573742900F11437
:101E800080C037040080210482800000A41E01204D
:101E900040000000042864702900F11480C0370459
:101EA00000808280A41F01200000000008286372C7
:101EB000656174652900711106C0EFF00FBE05E081
:101EC000EFE07FFD1520437265617465206E6565E6
:101ED0006473206E616D6520210A6F0090679C40DD
:101EE000E114C0C09CC0552480409104A28780406A
:101EF000910495C39C40E114C0C09CC0EFE0BFF9C1
:101F0000095265646566696E6520EFF0CF85EFE084
:101F10009FF8022E2000313B793DA287804091043A
:101F2000A1E7370700801307070281471CC3A539C3
:101F3000F11480C02144753BEFE0AFA2EFF04FF603
:101F40003705008021050C4190419306F0FF63198D
:101F5000D600F11480C0F11480C02E84EFE00F8E03
:101F600000C1804091042DA03D39F11480C0370498
:101F7000008021040040B13B37070080210700C3E7
:101F800080409104F11480C07D54A133EFF04FF1F3
:101F9000193937070080710700C3804091048240DF
:101FA00011018280C01F01200000000008766172CC
:101FB0006961626C6500F11480C005440DA80000E1
:101FC000DC1F012000000000093276617269616245
:101FD0006C65F11480C0094419A80000302001206C
:101FE00000000000096E7661726961626C655111D2
:101FF00006C42AC22EC0C1357D3BA2878040910411
:10200000D5E33D88711122C00A048520EFF02FFC32
:1020100022858040910411C580C191055D397115FB
:1020200065FDF11480C0024411011364040825A861
:10203000E820012000000000076275666665723ABC
:10204000511106C42AC22EC08136B535AD33A287E0
:1020500080409104ADE31128EFF06FF79D39F11442
:1020600080C0130400147534B1A837050080410501
:102070000C41818D370700801307475363DEE5006D
:10208000EFE07FE10F4E6F7420656E6F756768201B
:1020900052414D0A6F00F04B0CC1F11480C02E84E8
:1020A0006FF06FC72D2022858040910419C515312E
:1020B0007D1575FD19A021282D39F11480C0130458
:1020C0000008813CA240124582453101F1BA7111EC
:1020D00006C08536EFF04FC5F11480C021641304AB
:1020E000744682401101F5B6202101200000000055
:1020F0000F64696374696F6E61727973746172746D
:10210000711106C04D398240110111E417E4FFFF3F
:10211000130484EF82803704008021040040828011
:1021200058210120000000000E64696374696F6E1D
:102130006172796E657874009307F0FF1840E38C44
:10214000E7129307F00F03478700E386E71200408A
:10215000F11480C0014482807C21012081000000B4
:1021600009686F6F6B2D66696E64F11480C0374427
:102170000080130484FC8280A82101209821012082
:10218000000000000466696E6400B7470080938712
:1021900087FC9C436780070030220120000000007C
:1021A000062866696E642900411106C62AC42EC23B
:1021B00032C081450146611122C0804022C2C04028
:1021C000A1043D3F4840FD576383A704F11480C03C
:1021D0002104EFE0DFDCE114C0C0124480C00244FF
:1021E000EFE01FB0A2878040910495C3F11480C036
:1021F0002104EFE0FFDCA285804091042A86F114DF
:1022000080C02E84ED32A2878040910491C72D3783
:10221000A28780409104DDD72E84F11480C03284DF
:102220002101B240224592450246410182800000D0
:102230004422012020000000016BF11480C02244E0
:10224000828000005822012020000000016AF11461
:1022500080C00244828000006C2201202000000027
:102260000169F11480C00E8482800000D422012014
:1022700030000000056C65617665511106C42AC204
:102280002EC03705008061050C412687F1141C43E0
:10229000232EF7FE1107E31CB7FE2687F1141C431B
:1022A000232EF7FE1107E31CB7FEF5387D34228795
:1022B00080409104F11598C1F11595479CC10CC15E
:1022C00083A7C5FF850723AEF5FEA24012458245D0
:1022D00031018280EC220120200000000428646F7C
:1022E0002900611112C20EC0828000000423012067
:1022F0002000000006756E6C6F6F70008241124204
:10230000210182806823012030000000052B6C6FC2
:102310006F708D47631DF44680409104611106C2C1
:102320002AC0F11480C01704000013046401EFF008
:102330008FA137850700130535068DA0634C040077
:1023400033874140A29180409104B3874140B3B7A5
:10235000E700828033874140A29180409104B38797
:102360004140B337F7008280DC23012030000000B9
:10237000046C6F6F70008D47631BF44080409104C4
:10238000611106C22AC0F11480C037841100130401
:102390003419813237954100130535062930EFE0B5
:1023A0004F8B092C498C353222858040910401C520
:1023B000592E7D15EDBFF11480C0170400001304E1
:1023C00024F4EFF0AFA037070080610700C380401E
:1023D00091049240024521018280000034240120B2
:1023E0003000000002646F00711106C01D20370725
:1023F00000806107F11480C00043F11480C00144E3
:1024000004C3EFF04FFAF11480C00D448240110173
:102410008280F11480C0170400001304C4006FF020
:10242000EF9A611112C20EC0A28103A20400C04043
:10243000A10482807C24012030000000033F646FEF
:10244000711106C0F937F11480C03784414013047C
:10245000347B4130370700806107F11480C00043AE
:10246000EFF06FF4DD38F11480C00944F11480C03E
:10247000054437070080610704C361B79824012031
:1024800030000000046361736500F11480C00144F2
:10249000F11480C021448280C0240120300000005B
:1024A000033F6F66A1476314F42E804091047111BD
:1024B00006C0711122C080409104392E89A000000D
:1024C0002425012030000000026F6600A147631040
:1024D000F42C80409104711106C0711122C080401B
:1024E0009104F11480C01704000013040403EFF0FA
:1024F000EF8DEFF04FEB9530F11480C009442D249F
:10250000F11480C0024411010504F11480C0254477
:10251000824011018280A28780409104818F93B70D
:1025200017008280602501203000000005656E6480
:102530006F66A547631DF42480409104711106C0A5
:10254000711122C0804091048D2CF11480C002448E
:102550001101F11480C021448240110182800000E9
:10256000C82501203000000007656E646361736553
:10257000A147631EF42080409104611106C22AC065
:102580002285804091044D2201C5752A7D15EDBF3D
:102590009240024521018280EFE0FF8F0D4A756D68
:1025A0007020746F6F206661720A65A7711106C092
:1025B0003D2021A0711106C0A928A2878040910466
:1025C000E1DF824011018280FC25012041000000F2
:1025D0000C756A2D656E636F64696E673F00B7079F
:1025E000F8FF3377F4006304F7006312074A7111B0
:1025F00006C02D2882401101BDA900008C260120B3
:10260000410000000C73622D656E636F64696E6734
:102610003F00FD773377F4006304F7006319074642
:10262000711106C0252882401101B1A19357C40041
:1026300093F7F70F1397C7009357B400858BD20712
:102640005D8F9357140093F7F73FD6075D8F93572D
:102650004401858BFE073364F70082809357B400F2
:10266000858B1397770093571400BD8BA2075D8F5E
:102670009357540093F7F703E6075D8F9357C40011
:10268000858BFE073364F700828000003827012025
:10269000410000000C636A2D656E636F64696E67AC
:1026A0003F00930700803377F4006304F700631062
:1026B000073E711106C02120824011016DAE935773
:1026C0005400858B13972700935714009D8B8E071A
:1026D0005D8F93577400858B9A075D8F93576400C5
:1026E000858B9E075D8F9357A400858BA2075D8F16
:1026F000935784008D8BA6075D8F93574400858B7D
:10270000AE075D8F9357B400858BB2073364F70033
:102710008280711106C0F11480C021641304247AF0
:10272000EFF00FD782401101F11480C017E4FFFFD2
:102730001304A4996FE09FE9AC270120300000004A
:10274000047468656E00711106C0A2878040910410
:102750001547639AE700EFF00FC59C401D8CB93513
:102760001364F40631A809476393E702EFF0AFC39F
:102770009C401D8C8135B7870700938737065D8C99
:10278000A28780409CC0824011016FF0EFCCEFE047
:102790008FF0175374727563747572657320646F6C
:1027A0006E2774206D617463680A65A3CC270120CD
:1027B0003000000004656C736500711106C0352897
:1027C000EF00303D82401101BDBF0000EC27012029
:1027D0003000000002696600711106C01D3FEFF075
:1027E0008FBCF11480C0094405A00000142801200A
:1027F00030000000056168656164711106C0EFF08A
:102800008FBAF11480C01544EFF02FD5824011012A
:1028100082800000302801203000000006726570C0
:1028200065617400711106C0AD208240110121BFA5
:102830004C28012030000000057768696C65711133
:1028400006C0593F824011016F00B0348428012036
:102850003000000005756E74696C711106C0A287A6
:10286000804091040547E394E7F26535EFF0AFB39C
:10287000EFD03FBE8133B7870700938737065D8C63
:1028800005A80000B828012030000000056167613C
:10289000696E711106C0A287804091040547E398D4
:1028A000E7EEEFF04FB0EFD0DFBA09331364F40670
:1028B000824011016FF0EFC1DC28012030000000E0
:1028C00005626567696E711106C0EFF0CFADF11456
:1028D00080C005448240110182800000042901204B
:1028E0006206000003616E649C4091047D8C8280CE
:1028F0003777040013073741B777F40093873743DE
:102900006FD0BFB024290120620600000362696312
:102910009C4091041344F4FF7D8C82801344F4FFA7
:10292000C1BF00004C29012062060000026F720046
:102930009C4091045D8C8280376704001307374107
:10294000B767F400938737436FD03FAC74290120F9
:102950006206000003786F729C4091043D8C828077
:102960003747040013073741B747F40093873743CD
:102970006FD0BFA9982901204100000003636C7A41
:102980009307000219C481476345040006048507C4
:10299000E5BF3E8482800000B02901206104000070
:1029A00003726F729317F40105805D8C82800000C2
:1029B000C82901206104000003726F6C9357F40171
:1029C00006045D8C82800000EC2901206206000074
:1029D00007617273686966749C40910433D48740C0
:1029E0008280B757044093873741A1A0102A012065
:1029F0006206000006727368696674009C40910468
:102A000033D487008280B75704009387374115A0DD
:102A10003C2A012062060000066C73686966740037
:102A20009C409104339487008280B71704009387F9
:102A300037417D8852045D8C6FF0AFA9502A012088
:102A400061040000036E6F741344F4FF8280000081
:102A5000682A01206104000006696E7665727400C0
:102A60001344F4FF82800000802A012060040000EB
:102A7000047472756500F11480C07D54828000007A
:102A8000982A0120600400000566616C7365F114EA
:102A900080C0014482800000FC2A01200000000068
:102AA000086576616C7561746500711106C0EFE0B0
:102AB000EF9CA2879840C040A10461113AC23EC079
:102AC000374700801307C7FD1C4371113EC0814783
:102AD0001CC3EFE04F989520374700801307C7FDD0
:102AE000824711011CC3824712472101E114C0C073
:102AF00098C03E84824011016FE0EF95282B0120A1
:102B0000810000000E686F6F6B2D696E74657270C6
:102B100072657400F11480C037440080130444FCD3
:102B200082805C2B01200000482B01200000000067
:102B300009696E74657270726574B7470080938717
:102B400047FC9C4367800700202D01200000000007
:102B50000B28696E7465727072657429711106C0F4
:102B6000370500801305C526637E9500EFE0AFB200
:102B700010537461636B20756E646572666C6F7759
:102B80000A00C1AA370500801305C506636D9500CC
:102B9000EFE06FB00F537461636B206F7665726600
:102BA0006C6F770A7DA237070080510783230700E7
:102BB00063950300A68323207700EFE00FEE11E476
:102BC000C040A1048240110182809C40E114C0C039
:102BD0009CC0EFF08FDBA2859040C040A10405EAC5
:102BE0008840A285812C22868040910435FAE11428
:102BF000C0C088C02E84EFE00FB7EFE0CFA90C2053
:102C00006E6F7420666F756E642E0A0099A2B746C7
:102C10000080938606FD9442A1E6370700805107A5
:102C200081432320770093070003B3F6F5006391F7
:102C3000F602EFE04FB3EFE00FA6122069732063B6
:102C40006F6D70696C652D6F6E6C792E0A0011A224
:102C5000C040A104F11480C03284EFE03FCA09B73C
:102C6000C040A10413F5050819E9B3869340898291
:102C700013F5050419C913F5F50063E8A600F1146E
:102C800080C03284EFE09FC7E1BD13B51600631D1D
:102C9000A00013F5052009C9F11480C03284EFE0CB
:102CA000FF9CEFE0BFC56DBD912037470080130743
:102CB00007FD184385476319F70013F7054009E737
:102CC000EFE07FBCEFE03FB8F11480C0328413F630
:102CD000050101C6EFE09FC261B513F6050201C60A
:102CE000EFE0DF8EB5BDEFE01F869DBD711106C020
:102CF00091CEFD16F11480C03684EFD04FC8EFE0BE
:102D00009F81E5FA9384C3FF8040910437070080D8
:102D10005107814323207700824011018280000007
:102D2000442D01208100000009686F6F6B2D7175C3
:102D30006974F11480C037440080130404FC82805D
:102D4000BC2D0120AC2D012000000000047175692C
:102D50007400370100801301C146B70400809384DA
:102D6000C426374700807117A9471CC33747008026
:102D7000130707FD81471CC33707008051071CC399
:102D8000374700801307C7FD1CC337470080130770
:102D900047FD1CC3B70700809387C7465CC3B7478E
:102DA0000080938707FC9C4367800700D02D01209B
:102DB000000000000628717569742900EFD0FFEE4D
:102DC000AD3BEFE04F8D05206F6B2E0AC5BF0000B5
:102DD000242E012000000000056469676974130453
:102DE00004FD63640402A9476363F4026514636E1F
:102DF000F40093074002636CF4000114A947636672
:102E0000F400930740026364F40001448280B747F2
:102E10000080F1179C43E37AF4FEF11480C07D54E6
:102E200082800000C42F012000000000066E756D36
:102E300062657200111106CC16CA1AC82AC62EC4C1
:102E400032C236C0B7470080F1179C4371113EC0B3
:102E5000A285804091042285054485468142014334
:102E60008D47639FF50093077002034705006319C0
:102E7000F700034725006315F700834215007DA086
:102E8000D5C5034605000505FD159307D00263145B
:102E9000F600FD56F5B7930730026318F600A94710
:102EA0003746008071161CC2E1BF930740026318C9
:102EB000F600C1473746008071161CC2D1B7930790
:102EC00050026318F60089473746008071161CC20D
:102ED00045BF9307E0026314F600094455B7930712
:102EE000C002630CF608F11480C03284CD3DA28785
:102EF00080409104BDC3E114C0C023A054001A84D3
:102F0000F11480C03744008071140040F11480C077
:102F10000144D925EFD04FA3F11480C00144AD2D59
:102F2000228383A20400C040A10499BF634DD00056
:102F3000E114C0C023A054001A842925228383A24F
:102F40000400C040A104F11423A054008547630588
:102F5000F400F11423A0640011A001448247110180
:102F60003747008071171CC3E240D24242433245CA
:102F7000A24512468246710182801683814209442D
:102F8000D5D5FD15B307B50003C607009307E002CA
:102F9000E308F6FEF11480C032849135A2878040A8
:102FA0009104C5DFF11423A05400F11480C037440C
:102FB000008071140040EF007005A282C040A1049F
:102FC000C1B70000F42F012000000000062E646944
:102FD00067697400A9476375F400130404038280D1
:102FE000930740026375F400130474038280130492
:102FF00030028280483001200000000004686F6CBD
:10300000640071112AC0370500801305450203478B
:103010000500930770046374F70205072300E500B9
:103020003A958547630BF7007D1583470500A3009C
:10303000F5007D178547E319F7FE230085008040E2
:1030400091040245110182808430012000000000BB
:1030500005686F6C643C71112AC037050080130548
:10306000450203470500930770046378F7000507DE
:103070002300E5003A952300850080409104024535
:1030800011018280A43001200000000004736967F0
:103090006E00634504008040910482801304D002D6
:1030A0008DB70000C43001200000000002233E0064
:1030B000B70700809387470203C4070085079CC0B9
:1030C00082800000E83001200000000003662353E6
:1030D000611106C22AC01305000229287D1575FD5D
:1030E0009240024521018280103101200000000041
:1030F00002662300711106C0F11480C037440080BD
:1031000071140040512AF93582401101A9B700001D
:10311000303101200000000002235300711106C06D
:1031200029287DFC9C40EDFF824011018280000037
:1031300060310120000000000123711106C0F1146C
:1031400080C03744008071140040F11480C00144F5
:103150000527812480409104B53D8240110155B579
:103160007C31012000000000023C23003707008072
:103170001307470281472300F70082809431012022
:103180000000000002662E00F11480C0130400024B
:1031900001A80000E43101200000000003662E6E4B
:1031A000611106C22AC0228580409104EFC07FF8D9
:1031B000BD2EF11480C00144553F8D3780409104ED
:1031C0001304C002493D01C535377D1575FD024523
:1031D000110180409104753DF11480C0F11480C04C
:1031E00035A80000FC310120000000000375642EAA
:1031F000711106C0A53F1D3715A000002C3201201B
:103200000000000002642E00711106C0EFC07FF2C2
:10321000392EA93F2137EFC03FF3A53D513DEFD0F7
:103220009FD4824011016FD0DFB5000040320120F1
:103230000000000002752E00F11480C001444DBF53
:103240005432012000000000012EF11480C07D8462
:1032500065BF00008C32012062060000012A9C40FC
:103260009104338487028280B707F402938737433F
:10327000711106C0F1149CC0F11480C03D44EFE010
:103280000F9B824011016FE0DFA40000A8320120F3
:103290006204000003756D2A9C403387870298C042
:1032A00033B4870282800000C4320120620400002F
:1032B000026D2A009C403387870298C033948702AE
:1032C00082800000E032012062040000066D756C0F
:1032D000687375009C40910433A4870282800000CB
:1032E0000033012062060000012F9C40910433C48A
:1032F00087028280B747F4029387374395BF000067
:103300002033012062060000036D6F649C4091042D
:1033100033E487028280B767F4029387374389BF1B
:103320003C3301206204000005752F6D6F649C40E2
:1033300033F7870298C033D4870282805833012044
:1033400062040000042F6D6F64009C4033E7870225
:1033500098C033C487028280703301206204000069
:103360000432647570009C40E114C0C09CC082802F
:103370008433012062040000053264726F70C04023
:10338000A1048280A4330120440000000532737739
:103390006170A287C040DCC09C4098449CC498C027
:1033A00082800000BC3301206204000004326E6998
:1033B00070009C40A1049CC082800000D833012092
:1033C0004400000005326F766572E114C0C09C486D
:1033D0009CC0C04482800000FC33012044000000F7
:1033E00005327475636B98409C44E11498C098C88A
:1033F000D844D8C09CC4C0C48280000020340120BE
:10340000460000000432726F74009C4098449CC4D3
:103410009C4898C89CC0D840C0C0C044D8C48280D2
:10342000443401204600000005322D726F7498402C
:103430009C4898C8984498C09CC4D844C0C4C04014
:10344000D8C08280603401202000000003323E7228
:10345000611122C0804022C2C040A10482800000CD
:103460007C340120200000000332723EE114C0C011
:10347000124480C002442101828000009434012063
:103480002000000003327240E114C0C0124480C02A
:1034900002448280A83401202000000006327264B9
:1034A000726F700021018280C4340120420000004C
:1034B0000364322F9C401317F40105848583D98F50
:1034C0009CC08280E0340120420000000364322A64
:1034D0009C4013D7F701BE972294598C9CC08280E0
:1034E00000350120420000000464736872009C40B3
:1034F0001317F40105808583D98F9CC0828000005A
:103500002035012042000000046473686C009C4078
:1035100013D7F701BE972294598C9CC0828000007B
:103520003435012042000000046461627300634B83
:10353000040082805C3501204200000007646E6553
:10354000676174659C4093C7F7FF1344F4FF1387CA
:10355000170098C0B337F7003E9482808C35012065
:103560004400000002642D0071112AC09C44984060
:103570003385E74088C433B5E700DC4033848740B7
:10358000098CA1040245110182800000B835012098
:103590004400000002642B0071112AC09C44984032
:1035A0003385E70088C43335F500DC403E942A9427
:1035B000A104024511018280CC35012041000000A8
:1035C00003733E64F11480C07D848280E83501205D
:1035D000440000000375642A711106C02928C04008
:1035E000A1048240110182804C3701204400000078
:1035F0000475646D2A00011106CE16CC1ACA1EC8C5
:103600002AC62EC432C236C0F11480C0C040F114A4
:1036100080C080485131A2858840C040A104F11487
:1036200080C08040F11480C0C044BD31A28690406B
:10363000C040A104F11480C08040F11480C08048D3
:10364000A1398147B302860033B3C2003386F2004A
:10365000B3335600B3677300B382060033B3D200AE
:10366000B386F200B3B35600B36773008040910491
:103670008147B382850033B3B200B385F200B3B3A0
:103680005500B3677300B302060033B3C20033863C
:10369000F200B3335600B3677300B382060033B34E
:1036A000D200B386F200B3B35600B3677300804014
:1036B0009104F11480C0C040F11480C0C044E93EC0
:1036C0008147B302860033B3C2003386F200B333BE
:1036D0005600B3677300B382060033B3D200B386DB
:1036E000F200B3B35600B367730080409104814782
:1036F000B382850033B3B200B385F200B3B3550093
:10370000B3677300B302060033B3C2003386F2001E
:10371000B3335600B3677300B382060033B3D200ED
:10372000B386F200B3B35600B367730080409104D0
:10373000368490C0CCC088C4F240E2425243C243B7
:103740003245A245124682460561828078370120C3
:1037500043000000022A2F00711106C0711122C01F
:1037600080409104813EF11480C002441101D120B7
:103770009104824011018280A4370120430000009F
:10378000052A2F6D6F64711106C0711122C080402F
:1037900091040D36F11480C00244110182401101E0
:1037A00049A80000D03701204300000003752A2FEC
:1037B000711106C0711122C080409104F13CF114D6
:1037C00080C002441101992091048240110182803D
:1037D000FC3701204300000006752A2F6D6F64003E
:1037E000711106C0711122C0804091047534F1142A
:1037F00080C0024411018240110109A8243801202F
:103800004300000006756D2F6D6F6400711106C0D6
:10381000F11480C00144A9288040910491048240A1
:10382000110182806038012043000000056D2F6D7A
:103830006F64711106C0F11480C07D84CD2080407A
:103840009104910482401101828041112AC62EC444
:1038500032C236C08146D0408C4401451DA00000D4
:1038600010390120440000000675642F6D6F64005C
:1038700041112AC62EC432C236C081460146CC4010
:10388000884431110EC812C616C41AC21EC0228244
:1038900083A104001304000486069357F601DD8E0D
:1038A000060693D7F5015D8E86059357F501DD8DEC
:1038B00006056366D20063EA460263683602814702
:1038C000B3023640333336003386F240B3B3F200EE
:1038D000B3677300B382464033B34600B386F24009
:1038E000B3B3F200B367730005057D1455F42E845D
:1038F00088C0D4C090C4C2413242A2421243824323
:1039000051013245A24512468246410182800000A3
:10391000683901204400000005642F6D6F64711147
:1039200006C0635304023939AD34635A04001939AF
:103930008D343D3FB93C39318240110199BC913CF5
:10394000053F82401101FDBEA934635B0400DD3EEA
:103950008934393FC53E353CF5368240110115BCEE
:103960000D3C8240110129B780390120440000003C
:1039700002642F00711106C05D378240110115BC31
:10398000CC3901204400000002662A00711106C0F3
:1039900063500402453EF53A635004026536A1398E
:1039A000804091049C4091049CC08240110182801F
:1039B000CD32E35604FE79363D39804091049C4077
:1039C00091049CC082401101B5BE00000C3A012058
:1039D0004400000002662F00711106C0635D040000
:1039E0009536453A635D0400B13E6532B93DD1324A
:1039F000824011018280713AE35904FEA136513AA6
:103A0000A9358936824011016DB20000283A0120A3
:103A100000000000023221009C40D8401CC058C069
:103A20008044B10482800000403A01200000000080
:103A300002324000F1145C409CC0004082800000D3
:103A4000783A0120440000000364753C71112AC0DB
:103A50009C44984033B5E700DC4033B7A700898F1A
:103A6000B3B7870033E4E7007D141344F4FFB104D7
:103A70000245110182800000903A012044000000BC
:103A80000364753E711106C02932824011017DBF69
:103A9000BC3A01204400000002643C00511106C4FD
:103AA0002AC22EC01355F441CC40FD854537298CE0
:103AB0002D8CA2401245824531018280D43A0120EA
:103AC0004400000002643E00711106C0D9308240FB
:103AD0001101E9B7E83A0120620400000364303CB8
:103AE00091047D8482800000043B0120420000009C
:103AF0000364303D9C4091045D8C13341400330406
:103B000080408280283B01204400000003643C3E4A
:103B1000DC403D8C9C409844B98FB1045D8C1334DB
:103B200014007D14828000004C3B01204400000002
:103B300002643D00DC403D8C9C409844B98FB10448
:103B40005D8C13341400330480408280983B012044
:103B50004300000007326C73686966741374F403E1
:103B600071C8130704FE63490700DC403394E70083
:103B7000910423A004008280DC4033978700D8C0E2
:103B800013070002018FB3D7E70098403314870072
:103B90005D8C910482800000E83B0120430000001E
:103BA00007327273686966741374F40341C41307AF
:103BB00004FE634907009C40B3D7E70091049CC012
:103BC000014482809C4033D7870098C013070002CD
:103BD000018FB397E700D840335787005D8FD8C077
:103BE00080409104828000003C3C012043000000A2
:103BF000083261727368696674001374F4031DC837
:103C0000130704FE634A07009C4013D4F741B3D75F
:103C1000E74091049CC082809C4033D7874098C085
:103C200013070002018FB397E700D840335787008E
:103C30005D8FD8C08040910482800000903C0120BC
:103C400000000000046D6F76650071112AC02287A4
:103C50009C40C040A10405CB6307F40263ED8700DC
:103C60003A94BA970345F4FFA38FA7FE7D14FD177E
:103C70007D176DFB09A8034504002380A7000504F8
:103C800085077D176DFB80409104024511018280FC
:103C9000B83C0120000000000466696C6C002287BB
:103CA0009C40C040A10491C72300E4000504FD1717
:103CB000E5FF8040910482803C3D01202006000009
:103CC000014000408280B72704009387374061118C
:103CD00006C22AC03E85711122C080409104FD16A3
:103CE000EFF0CF80F11480C002441101EFD0DF83E8
:103CF000930700803377F4006303F70011E7B78779
:103D0000F0FFFD177D8D05A0856793870780E18F04
:103D100099C385673E94F11480C0FD777D8C136450
:103D20007443EFD01FFB8567FD17E18FD207336423
:103D3000F5009240024521016FD0BFF9E83D012016
:103D40002006000001219C401CC0C040A1048280CC
:103D50003727870013073702B727F7009387370203
:103D6000611106C22AC0FD1691E63A851520EFE0E2
:103D7000BF9B19A83E85A28780409CC0F11480C0DB
:103D80003D44EFD0CFEA29209240024521018280B4
:103D9000711106C0930700803377F4006303F700C6
:103DA00011E7B787F0FFFD177D8D05A08567938725
:103DB0000780E18F99C385673E94F11480C0FD7739
:103DC0007D8C13647473EFD0DFF09377F4019E075A
:103DD0005D8D85678117E18F9583E6073364F50074
:103DE000824011016FD0FFEE043E01200000000070
:103DF000022B21009C401840BA971CC0C040A1046F
:103E000082800000203E0120200600000268400061
:103E1000035404008280B75704009387374045BDA0
:103E2000443E0120200600000868407369676E6503
:103E30006400031404008280B7170400938737409E
:103E400079B50000703E01202006000002682100C4
:103E50009C402310F400C040A104828037178700E3
:103E600013073702B717F70093873702D5BD000055
:103E7000903E01200000000003682B219C40035766
:103E80000400BA972310F400C040A104828000000F
:103E9000AC3E012020060000026340000344040001
:103EA0008280B74704009387374015B5D03E012084
:103EB000200600000863407369676E6564000304B0
:103EC00004008280B70704009387374009B50000DB
:103ED000FC3E012020060000026321009C402300DC
:103EE000F400C040A104828037078700130737021F
:103EF000B707F70093873702A5B500001C3F0120E4
:103F00000000000003632B219C4003470400BA9784
:103F10002300F400C040A10482800000383F01204B
:103F2000000000000462697321009C401840D98F92
:103F30001CC0C040A1048280583F01200000000046
:103F40000462696321009C4093C7F7FF1840F98F12
:103F50001CC0C040A1048280743F0120000000000A
:103F600004786F7221009C401840B98F1CC0C0407B
:103F7000A1048280943F0120000000000462697463
:103F800040001C40804091047D8C133414007D144B
:103F900082800000B43F01200000000005686269D3
:103FA00073219C4003570400D98F2310F400C040B4
:103FB000A1048280D83F01200000000005686269EA
:103FC00063219C4093C7F7FF03570400F98F231028
:103FD000F400C040A1048280F83F012000000000EE
:103FE0000568786F72219C4003570400B98F231035
:103FF000F400C040A10482801840012000000000AD
:1040000005686269744083570400804091047D8C88
:10401000133414007D148280384001200000000019
:104020000563626973219C4003470400D98F230014
:10403000F400C040A10482805C4001200000000028
:104040000563626963219C4093C7F7FF034704003F
:10405000F98F2300F400C040A10482807C4001203D
:10406000000000000563786F72219C400347040044
:10407000B98F2300F400C040A10482809C4001203D
:1040800000000000056362697440834704008040BB
:1040900091047D8C133414007D1482800050012023
:1040A000FFFFFFFF182D2D2D20466C617368204403
:1040B000696374696F6E617279202D2D2D0097C729
:1040C000FFFF9387A77A73A05730814037010080A4
:1040D0001301C146814101428142014381431304DE
:1040E000A002B70400809384C4260145814501469F
:1040F00081460147814737070080B70700809387D3
:1041000047531CC337070080210797C7FFFF9387DA
:10411000A7EF1CC3F11480C017C4FFFF1304C4EE43
:10412000B74300804C40FD566389D50893F60510CF
:10413000ADC2711122C02104EFC09FE8EFD00FD3B0
:1041400083560400035524004205C98EB383D3402F
:10415000024411019DA02F01000000000020330146
:1041600020242544240367189079000000000736B6
:1041700031098AA04224A031B00386209483010033
:10418000060008000018200A2E275F2D60285C2FEB
:10419000293C93F6050895C2BD898A05B383B340CF
:1041A000F11480C02104EFC0BFE1EFD02FCCE114A7
:1041B000C0C023A074002E84493CEFD0FFF72285B5
:1041C0008040910425D137050080310500C1804031
:1041D00091043705008041052320750037054020F4
:1041E000B75501201306F0FF6307B50071151441A0
:1041F000E38CC6FE1105B7050080910588C1EFC0AC
:104200004FFCEFC05FC9464D6563726973702D51F5
:1042100075696E74757320312E312E3120666F7280
:1042200020524953432D562052563332494D432094
:104230006F6E204869466976653142206279204D6B
:1042400061747468696173204B6F63680A00370199
:1042500000801301C146B70400809384C426374709
:1042600000807117A9471CC337470080130707FD5B
:1042700081471CC33707008051071CC337470080A4
:104280001307C7FD1CC337470080130747FD1CC336
:10429000B70700809387C7465CC3F11480C017043A
:1042A000000013048402F11480C01144EFD0FFED2C
:1042B0008040910409C4EFD06FE46FE05FAE8040AE
:1042C00091046FE01FA9696E69740100FFFFFFFF91
:1042D000FFFFFFFFFFFFFFFFFFFFFFFFFFFFFFFFEE
:1042E000FFFFFFFFFFFFFFFFFFFFFFFFFFFFFFFFDE
:1042F000FFFFFFFFFFFFFFFFFFFFFFFFFFFFFFFFCE
:10430000FFFFFFFFFFFFFFFFFFFFFFFFFFFFFFFFBD
:105000005050012000000000096E657874746F6BC9
:10501000656E711106C0EFC04FA8F11480C0133443
:10502000140033048040A28780409104638F0700FE
:10503000C040A104EFB03FE604206F6B2E00EFB03C
:10504000FFD0EFB09FC66FF01FFD8240110182803C
:105050006C51012050000000065B656C73655D00BB
:10506000F11480C00544711106C065379C40E114FD
:10507000C0C09CC0EFB0BFE6045B69665D00EFB0E6
:105080003FC6711122C0804091049C40E114C0C011
:105090009CC0EFB0DFE4075B69666465665DEFB0F6
:1050A0003FC4F11480C0024411019C4091045D8C06
:1050B000711122C0804091049C40E114C0C09CC08A
:1050C000EFB0FFE1085B69666E6465665D00EFB096
:1050D0003FC1F11480C0024411019C4091045D8CD9
:1050E000A2878040910463870700C040A1040504A3
:1050F0006F00C0059C40E114C0C09CC0EFB03FDE13
:10510000065B656C73655D00EFB09FBDA287804054
:105110009104638F0700C040A1047D14F11480C086
:10512000A287804091046383070005046F0000029A
:10513000EFB0FFDA065B7468656E5D00EFB05FBAD2
:10514000A28780409104638307007D1419C0F11485
:1051500080C01334140033048040A287804091043F
:10516000E38507F08240110182800100885101200F
:1051700050000000065B7468656E5D00711106C02A
:105180008240110182800100B451012051000000D1
:10519000045B69665D0013341400330480407111B0
:1051A00006C0A2878040910463830700553D82407A
:1051B00011018280F051012050000000075B6966F8
:1051C0006465665D711106C0EFC02F8DEFC0FFFBF7
:1051D000804091041334140033048040A28780403F
:1051E000910463830700AD3D82401101828001007C
:1051F0002C52012050000000085B69666E646566F1
:105200005D00711106C0EFC04F89EFC01FF88040EC
:105210009104133414007D14A287804091046383A9
:1052200007003D3D82401101828001007052012043
:1052300000000000046C69737400711106C0EFB0C7
:10524000FFB0EFC0FFEBF11480C013048400EFB097
:10525000DFCFEFB01FB3EFC03FEEA28780409104D5
:10526000E38307FE804091048240110182800100A7
:1052700094520120810000000864697361736D2DF0
:105280002400F11480C037C4FF7F1344C4FB828024
:105290000000000024530120000000000D64697329
:1052A00061736D2D737472696E67F11480C0374439
:1052B00000800324C4FBF11480C003540400137461
:1052C0003400F11480C00D449C4091043D8C133493
:1052D000140033048040711106C0A28780409104FD
:1052E000638E070013044400F11480C0EFB0FFC5C3
:1052F000EFB01FCD1304C4FF6F008001130424001E
:10530000F11480C0EFB07FC4EFB09FCB1304E4FF73
:1053100037470080232E87FA804091048240110194
:10532000828001009C54012000000000056E616D28
:10533000652E711106C0711122C080409104EFC02A
:105340003FDCF11480C013048400F11480C0EFB07E
:105350003FC7F11480C002449C4091043D8C13343B
:10536000140033048040A28780409104638C0700BE
:10537000EFB07FB20620202D2D3E2000EFB0FFBC05
:105380006F00800080409104EFC01FDBA287804047
:105390009104E38807FA80409104F11480C002442C
:1053A0001101F11480C037F4FEDF134464E9A287D1
:1053B00080409104818F93B71700638C070280406F
:1053C0009104EFB05FAD0820202D2D3E20202E004F
:1053D000F11480C013442002EFB02FD7EFB07F9AB2
:1053E000E935F11480C013442002EFB00FD66F00EE
:1053F000800AF11480C037F4FEDF1344E4EDA28785
:1054000080409104818F93B71700638C070280401E
:105410009104EFB05FA80820202D2D3E20207300BE
:10542000F11480C013442002EFB02FD2EFB07F956B
:10543000AD3DF11480C013442002EFB00FD16F00D6
:105440008005F11480C037F4FEDF1344A4EBA2877B
:1054500080409104818F93B71700638C07028040CE
:105460009104EFB05FA30820202D2D3E2020630083
:10547000F11480C013442002EFB02FCDEFB07F9025
:105480002D35F11480C013442002EFB00FCC6F0013
:10549000800080409104824011018280CC54012020
:1054A0000000000003752E32F11480C00144711118
:1054B00006C0EFD0BFCBEFD05FC8EFD01FC8EFD092
:1054C0003FBFEFB05FAA82401101828004550120E6
:1054D0000000000003752E34F11480C001447111E6
:1054E00006C0EFD0BFC8EFD05FC5EFD01FC5EFD06B
:1054F000DFC4EFD09FC4EFD0BFBBEFB0DFA68240C8
:10550000110182804C5501200000000003752E38E7
:10551000F11480C00144711106C0EFD03FC5EFD037
:10552000DFC1EFD09FC1EFD05FC1EFD01FC1EFD07F
:10553000DFC0EFD09FC0EFD05FC0EFD01FC0EFD073
:105540003FB7EFB05FA28240110182807C550120FD
:105550000000000004752E6E7300F11480C0014439
:10556000711106C0EFD09FC0EFD05FBBEFD05FB42A
:10557000EFB07F9F8240110182800100A055012081
:105580000000000006636F6E73742E00711106C078
:10559000EFB07F9002202300C93782401101828042
:1055A000BC5501200000000005616464722E711179
:1055B00006C0B93F824011018280010008560120D7
:1055C00000000000082E646563696D616C00F114D1
:1055D00080C0374400800324C4FF711106C07111DC
:1055E00022C080409104EFB06F80EFD01FC6F1144D
:1055F00080C00244110137470080232E87FE80407F
:105600009104824011018280685601200000000050
:105610000972656769737465722E1374F4017111F0
:1056200006C0F11480C00144A28780409104818F9C
:1056300093B71700638B070080409104EFB0BF85DC
:10564000047A65726F006F00C001F11480C0EFB082
:105650009F840178EFA09FF90937EFA03FFA8040BF
:105660009104824011018280A456012000000000B4
:1056700004696E737400F11480C037440080032401
:10568000C4FBF11480C01304240003540400131459
:105690000401A28780409CC0035404009C409104F4
:1056A0005D8C8280C8560120000000000666756E81
:1056B00063743300711106C07D3F1354C40013742A
:1056C0007400824011018280E85601200000000031
:1056D0000666756E63743700711106C0693F135416
:1056E00094018240110182800857012000000000CF
:1056F000042E72733100711106C0B53F1354F400CB
:10570000293F8240110182802857012000000000BB
:10571000042E72733200711106C0B13F135444015C
:10572000ED3D8240110182804857012000000000B9
:10573000032E7264711106C03D3F13547400F13D95
:1057400082401101828001006857012000000000A2
:1057500005696D6D5F69711106C0313F1354444195
:105760008240110182800100A0570120000000004A
:1057700005696D6D5F73711106C0F53DB70700FED9
:105780003374F40013544441FD35135474001374FE
:10579000F4019C4091045D8C8240110182800100E3
:1057A000045801200000000006696D6D5F736200FF
:1057B000711106C0C9351354340185673374F40080
:1057C0005D3D135444011374047E9C4091045D8C30
:1057D0005D35135474001374E4019C4091045D8C96
:1057E000593D13144400FD7793C707803374F400C8
:1057F0009C4091045D8C1314340113543441824055
:1058000011018280245801200000000005696D6D9F
:105810005F75711106C08535FD773374F4008240E1
:10582000110182808C5801200000000006696D6D16
:105830005F756A00711106C03D3D1354B400B7078F
:1058400010003374F400053D135444011374E47FD5
:105850009C4091045D8C053513549400FD7793C7EB
:1058600007803374F4009C4091045D8C2935B7F7B0
:105870000F003374F4009C4091045D8C1314B40049
:105880001354B4408240110182800100BC580120B1
:10589000810000001264697361736D2D6465737417
:1058A000696E6174696F6E00F11480C037C4FF7F48
:1058B000134484FB8280000000000100D0590120C5
:1058C000000000000B64697361736D2D6C6F61647F
:1058D000711106C0C533F11480C00144A287804015
:1058E0009104818F93B71700638C07008040910467
:1058F000EFB06FDA076C6220202020206F00000BD1
:10590000F11480C00544A28780409104818F93B731
:105910001700638C070080409104EFB0CFD7076C6D
:105920006820202020206F006008F11480C0094406
:10593000A28780409104818F93B71700638C070082
:1059400080409104EFB02FD5076C772020202020D5
:105950006F00C005F11480C01144A28780409104FB
:10596000818F93B71700638C070080409104EFB0DC
:105970008FD2076C6275202020206F002003F11465
:1059800080C01544A28780409104818F93B717008F
:10599000638C070080409104EFB0EFCF076C68750F
:1059A000202020206F008000804091046133EFB000
:1059B0008FCE022C20004533EFD03F89EFB0AFCD22
:1059C0000128153BEFB02FCD0129824011018280C3
:1059D000B05B0120000000001064697361736D2DDD
:1059E000696D6D65646961746500711106C0A533E8
:1059F000D131F11480C00144A28780409104818F8D
:105A000093B71700638C070080409104EFB0AFC8D4
:105A100007616464692020206F00A017F11480C022
:105A20000544A28780409104818F93B71700638C4F
:105A3000070080409104EFB00FC607736C6C6920BB
:105A400020206F000015F11480C00944A287804017
:105A50009104818F93B71700638C070080409104F5
:105A6000EFB06FC307736C74692020206F00601261
:105A7000F11480C00D44A28780409104818F93B7B8
:105A80001700638C070080409104EFB0CFC007730C
:105A90006C74697520206F00C00FF11480C0114430
:105AA000A28780409104818F93B717006386070215
:105AB00080409104EFB02FBE07786F7269202020DC
:105AC000F11480C0F11480C037C4FF7F134484FBFD
:105AD000EFE06FC96F00E00BF11480C01544A2879E
:105AE00080409104818F93B717006388070480403A
:105AF000910451361354A401F11480C041449C40D8
:105B000091043D8C1334140033048040A2878040FC
:105B10009104638A0700EFB00FB8077372616920C0
:105B200020206F000001EFB00FB70773726C69207F
:105B300020201374F4016F00C005F11480C01944D3
:105B4000A28780409104818F93B71700638C070070
:105B500080409104EFB02FB4076F7269202020209D
:105B60006F002003F11480C01D44A287804091047F
:105B7000818F93B71700638C070080409104EFB0CA
:105B80008FB107616E64692020206F008000804023
:105B900091044D36EFB02FB0022C2000A93EEFB09B
:105BA0008FAF022C2000EFD04FEA8240110182809B
:105BB000EC5B0120000000000C64697361736D2DC3
:105BC000617569706300711106C0EFB0CFAC0761F9
:105BD000756970632020B93EEFB0EFAB022C200056
:105BE0000D393D328240110182800100B05C0120FC
:105BF000000000000C64697361736D2D73746F7223
:105C00006500711106C07D34F11480C00144A28783
:105C100080409104818F93B71700638C0700804008
:105C20009104EFB04FA707736220202020206F005F
:105C3000C005F11480C00544A28780409104818F83
:105C400093B71700638C070080409104EFB0AFA4B6
:105C500007736820202020206F002003F11480C0EB
:105C60000944A28780409104818F93B71700638C09
:105C7000070080409104EFB00FA207737720202027
:105C800020206F008000804091047134EFB0AFA0FD
:105C9000022C2000CD34EFD04FDBEFB0CF9F012896
:105CA000993CEFB04F9F0129824011018280010091
:105CB00024600120000000000F64697361736D2D82
:105CC0007265676973746572711106C03134F114BD
:105CD00080C005449C4091043D8C1334140033046F
:105CE0008040A28780409104638F0714E132F11451
:105CF00080C00144A28780409104818F93B7170030
:105D0000638C070080409104EFB0EF98076D756CCD
:105D1000202020206F00E012F11480C00544A287EB
:105D200080409104818F93B71700638C07008040F7
:105D30009104EFB04F96076D756C682020206F00BE
:105D40004010F11480C00944A28780409104818FE3
:105D500093B71700638C070080409104EFB0AF93B6
:105D6000076D756C687375206F00A00DF11480C00D
:105D70000D44A28780409104818F93B71700638CF4
:105D8000070080409104EFB00F91076D756C687546
:105D900020206F00000BF11480C01144A2878040C6
:105DA0009104818F93B71700638C070080409104A2
:105DB000EFB06F8E07646976202020206F006008A6
:105DC000F11480C01544A28780409104818F93B75D
:105DD0001700638C070080409104EFB0CF8B0764FD
:105DE0006976752020206F00C005F11480C0194429
:105DF000A28780409104818F93B71700638C0700BE
:105E000080409104EFB02F890772656D202020201B
:105E10006F002003F11480C01D44A28780409104CC
:105E2000818F93B71700638C070080409104EFB017
:105E30008F860772656D752020206F00800080407E
:105E400091046F00001CBD30F11480C00144A28792
:105E500080409104818F93B71700638507048040C9
:105E600091049D38F11480C0134400029C409104B9
:105E70003D8C1334140033048040A2878040910489
:105E8000638A0700EFB02F810773756220202020FE
:105E90006F000001EFB02F80076164642020202094
:105EA0006F002016F11480C00544A2878040910441
:105EB000818F93B71700638C070080409104EFA097
:105EC0009FFD07736C6C202020206F008013F1145D
:105ED00080C00944A28780409104818F93B7170046
:105EE000638C070080409104EFA0FFFA07736C7485
:105EF000202020206F00E010F11480C00D44A28704
:105F000080409104818F93B71700638C0700804015
:105F10009104EFA05FF807736C74752020206F0068
:105F2000400EF11480C01144A28780409104818FFB
:105F300093B71700638C070080409104EFA0BFF572
:105F400007786F72202020206F00A00BF11480C012
:105F50001544A28780409104818F93B71700638610
:105F6000070480409104EFF02FF7F11480C0134430
:105F700000029C4091043D8C133414003304804093
:105F8000A28780409104638A0700EFA0DFF00773C7
:105F90007261202020206F000001EFA0DFEF077367
:105FA000726C202020206F00C005F11480C01944BD
:105FB000A28780409104818F93B71700638C0700FC
:105FC00080409104EFA03FED076F72202020202039
:105FD0006F002003F11480C01D44A287804091040B
:105FE000818F93B71700638C070080409104EFA066
:105FF0009FEA07616E64202020206F0080008040AF
:106000009104EFF02FF3EFA01FE9022C2000EFF036
:106010008FEEEFA05FE8022C2000EFF0CFEF824080
:106020001101828074600120000000000A6469731D
:1060300061736D2D6C756900711106C0EFA0BFE52D
:10604000076C756920202020EFF0CFEEEFA0BFE4B1
:10605000022C2000EFF0EFFBEFF08FCBEFF06FFBA7
:1060600037470080232C87FA804091048240110139
:1060700082800100CC610120000000000D64697382
:1060800061736D2D6272616E6368711106C0EFF00D
:106090006FE2F11480C00144A28780409104818F97
:1060A00093B71700638C070080409104EFA0BFDE18
:1060B00007626571202020206F00A00DF11480C0C0
:1060C0000544A28780409104818F93B71700638CA9
:1060D000070080409104EFA01FDC07626E6520205E
:1060E00020206F00000BF11480C01144A287804073
:1060F0009104818F93B71700638C0700804091044F
:10610000EFA07FD907626C74202020206F00600808
:10611000F11480C01544A28780409104818F93B709
:106120001700638C070080409104EFA0DFD6076260
:106130006765202020206F00C005F11480C019443D
:10614000A28780409104818F93B71700638C07006A
:1061500080409104EFA03FD407626C74752020202A
:106160006F002003F11480C01D44A2878040910479
:10617000818F93B71700638C070080409104EFA0D4
:106180009FD107626765752020206F0080008040E6
:106190009104EFF04FD6EFA01FD0022C2000EFF0BB
:1061A0008FD7EFA05FCF022C2000F11480C03744BE
:1061B00000800324C4FBEFF0AFDF9C4091043E94C9
:1061C000EFF00FB582401101828001006062012072
:1061D000000000000B64697361736D2D6A616C725D
:1061E000711106C0EFA03FCB076A616C72202020BE
:1061F000EFF04FD4EFA03FCA022C2000EFF0AFD554
:10620000EFD0AF84EFA03FC90128EFF0CFCEEFA0D1
:106210009FC80129EFF02FC61354F4001374F40142
:10622000F11480C03D449C4091043D8C1334140013
:1062300033048040A28780409104638F0700F114EB
:1062400080C037440080032484FBEFF0CFD09C4013
:1062500091043E94EFF0EF8D8240110182800100A5
:10626000B8620120000000000A64697361736D2D3B
:106270006A616C00711106C0EFA0FFC1076A616C12
:1062800020202020EFF00FCBEFA0FFC0022C200039
:10629000F11480C0374400800324C4FBEFF08FD991
:1062A0009C4091043E94F11480C0EFF06FA6EFF093
:1062B0004F88824011018280146501200000000097
:1062C0000D64697361736D2D73797374656D7111EC
:1062D00006C0EFF02FBE19C0F11480C0A287804025
:1062E000910463800716F11480C00544A2878040A2
:1062F0009104818F93B71700638C0700804091044D
:10630000EFA07FB907637372727720206F00A00D32
:10631000F11480C00944A28780409104818F93B713
:106320001700638C070080409104EFA0DFB607637D
:106330007372727320206F00000BF11480C00D4443
:10634000A28780409104818F93B71700638C070068
:1063500080409104EFA03FB4076373727263202002
:106360006F006008F11480C01544A287804091043A
:10637000818F93B71700638C070080409104EFA0D2
:106380009FB107637372727769206F00C005F114C3
:1063900080C01944A28780409104818F93B7170071
:1063A000638C070080409104EFA0FFAE0763737217
:1063B000727369206F002003F11480C01D44A2870E
:1063C00080409104818F93B71700638C0700804051
:1063D0009104EFA05FAC07637372726369206F0072
:1063E000800080409104EFF0EFB4EFA0DFAA022C10
:1063F0002000EFF04FA813544401EFF0EF8DEFA011
:106400009FA9022C2000EFF0EFAAF11480C01544E0
:106410009C40910433B4870033048040A2878040BD
:10642000910463860700EFF00FAD6F004001EFF0BD
:106430008FA41354F4001374F401EFF0EF866F008F
:10644000E00CEFF04FA313544401F11480C0014459
:10645000A28780409104818F93B71700638B070058
:1064600080409104EFA03FA3056563616C6C6F00F1
:10647000E009F11480C00544A28780409104818F17
:1064800093B71700638C070080409104EFA0BFA072
:106490000665627265616B006F004007F11480C091
:1064A00013445010A28780409104818F93B7170046
:1064B000638A070080409104EFA0FF9D037766691F
:1064C0006F00C004F11480C013442030A2878040C4
:1064D0009104818F93B71700638B0700804091046C
:1064E000EFA07F9B046D726574006F002002EFA027
:1064F0009F9A15556E6B6E6F776E20737973746506
:106500006D206F70636F646580409104824011015B
:106510008280010038650120000000000872766367
:106520002D696E737400F11480C037440080032419
:10653000C4FB0354040082805C650120000000005D
:10654000097276632D66756E6333711106C0E13F83
:106550001354D4008240110182800100846501201F
:1065600000000000087276632D7265672E001374B8
:10657000740013048400711106C0EFF00F8A82408A
:1065800011018280C06501200000000007696D6D67
:106590005F637373711106C07937135474001374F9
:1065A0003400131464004137135494001374F4003E
:1065B000131424009C4091045D8C82401101828060
:1065C000106601200000000007696D6D5F63736C49
:1065D000711106C0893F1354C400137414001314BE
:1065E00054009137135424001374340013146400BE
:1065F0009C4091045D8C053F135444001374740057
:10660000131424009C4091045D8C8240110182800F
:10661000486601200000000006696D6D5F6375002B
:10662000711106C00937135424001374F401E53DB9
:106630001354C40013741400131454009C409104A8
:106640005D8C82401101828088660120000000007C
:1066500005696D6D5F63711106C0F1351354240037
:106660001374F401C9351354C400137414001314C3
:1066700054009C4091045D8C1314A4011354A44154
:106680008240110182800100DC66012000000000D0
:1066900009696D6D5F636C777377711106C0613541
:1066A000135454001374140013146400AD3D1354B8
:1066B000640013741400131424009C4091045D8C36
:1066C0009D351354A40013747400131434009C40BB
:1066D00091045D8C82401101828001009867012045
:1066E0000000000006696D6D5F636A00711106C0ED
:1066F0001D3D135424001374140013145400253545
:106700001354340013747400131414009C40910447
:106710005D8C113D13546400137414001314740041
:106720009C4091045D8C0135135474001374140063
:10673000131464009C4091045D8CF5331354840061
:10674000137414001314A4009C4091045D8CE13B6D
:106750001354940013743400131484009C40910467
:106760005D8CD1331354B40013741400131444001B
:106770009C4091045D8C453B1354C4001374140079
:106780001314B4009C4091045D8C13144401135401
:1067900044418240110182801868012000000000FD
:1067A00006696D6D5F636200711106C0AD3B1354E5
:1067B00024001374140013145400B533135434001C
:1067C00013743400131414009C4091045D8CA13B9D
