:020000042001D9
:100000006F40602A2C000120FFFFFFFF1D2D2D2DCA
:10001000204D6563726973702D5175696E747573C7
:1000200020312E302E35202D2D2D000040000120B6
:100030000000000006666C61736821006F30F06E8E
:1000400054000120000000000768666C617368219D
:100050006F30907E68000120200400000373704020
:10006000F11480C0268482807C00012020040000DE
:1000700003737021A284804091048280900001204B
:100080002000000003727040F11480C00A84828056
:10009000A400012020000000037270212281804012
:1000A00091048280B800012061040000036475702F
:1000B000F11480C082800000CC00012061040000A7
:1000C0000464726F7000804091048280E40001201B
:1000D00061040000043F6475700019C0F11480C011
:1000E00082800000FC00012062040000047377613C
:1000F0007000A28780409CC0828000000C0101201B
:1001000062040000036E6970910482802401012062
:1001100062040000046F76657200F11480C0C04074
:10012000828000003C0101206204000004747563B9
:100130006B009C40F114C0C09CC08280540101201F
:100140004300000003726F749C40D84080C0DCC044
:100150003A8482807001012043000000042D726FF8
:1001600074009C40D84098C0C0C03E84828000008B
:100170008801012020040000047069636B000A04F8
:100180002694004082800000AC01012000000000A5
:10019000056465707468B707008093874726858F6C
:1001A000F11480C013D4274082800000D4010120C4
:1001B000000000000672646570746800B707008074
:1001C00093874746B3872740F11480C013D4274054
:1001D00082800000EC01012020000000023E72003D
:1001E000711122C08040910482800000040201202D
:1001F0002000000002723E00F11480C00244110190
:1002000082800000180201202000000002724000DD
:10021000F11480C0024482802C02012020000000E2
:10022000057264726F701101828000004402012027
:100230002000000005727069636B0A040A94004094
:10024000828000005C0201206104000002303D0059
:1002500013341400330480408280000070020120B7
:100260006104000003303C3E133414007D1482808E
:10027000800201206104000002303C007D84828005
:100280009802012062040000023E3D009C4091045F
:1002900033A487007D148280B00201206204000034
:1002A000023C3D009C4091043324F4007D14828084
:1002B000C802012062040000013C9C40910433A468
:1002C0008700330480408280E00201206204000045
:1002D000013E9C4091043324F4003304804082802A
:1002E000F80201206204000003753E3D9C40910429
:1002F00033B487007D148280100301206204000063
:1003000003753C3D9C4091043334F4007D1482809D
:100310002C0301206204000002753C009C40910403
:1003200033B48700330480408280000048030120FA
:100330006204000002753E009C4091043334F400D6
:1003400033048040828000006403012062040000C6
:10035000023C3E009C4091043D8C133414007D14FB
:10036000828000008003012062040000013D9C4067
:1003700091043D8C133414003304804082800000CB
:100380009803012062040000036D696E9C40910493
:100390006343F4003E848280B003012062040000C5
:1003A000036D61789C40910463C387003E84828022
:1003B000CC0301206204000004756D696E009C404E
:1003C00091046363F4003E8482800000E80301200E
:1003D0006204000004756D6178009C40910463E341
:1003E00087003E84828000004804012062060000ED
:1003F000012B9C4091043E94828037070400130730
:100400003741B707F40093873743711106C0611174
:100410003AC23EC0930700803377F4006303F700CD
:1004200011E75204924721015D8C11A8F11480C09C
:100430003D44EF100007F11480C0024421018240C6
:1004400011016F10D0150000640401206206000045
:10045000012D9C4091043384874082801344F4FF33
:10046000050461BF8C0401206206000003736C74F4
:100470009C40910433A4870082803727040013072F
:100480003741B727F4009387374341B7B8040120B9
:100490006206000004736C7475009C40910433B4D0
:1004A000870082803737040013073741B737F400DD
:1004B0009387374399BF0000C804012061040000FE
:1004C00002312D007D148280D804012061040000D7
:1004D00002312B0005048280E80401206104000041
:1004E00002322D0079148280F8040120610400009A
:1004F00002322B00090482800C05012061040000F7
:100500000563656C6C2B11048280000024050120BA
:1005100061040000066E6567617465003304804005
:1005200082800000340501206104000003736872BA
:100530000580828044050120610400000373686C1B
:1005400006048280540501206104000002322A0062
:100550002294828068050120610400000563656CB7
:100560006C730A0482800000780501206104000099
:1005700002322F0005848280900501206104000072
:10058000036162739357F4413E943D8C8280000076
:10059000A805012061040000046576656E0093776C
:1005A00014003E9482800000C805012081000000F4
:1005B000046261736500F11480C0374400807114D7
:1005C00082800A0000000000DC050120000000001D
:1005D0000662696E61727900894715A0F0050120F5
:1005E0000000000007646563696D616CA94701A89C
:1005F000080601200000000003686578C1473747FE
:10060000008071171CC382802806012000000000B2
:100610000565696E743FF11480C073240030218831
:10062000133414007D1482803C0601202004000055
:100630000465696E74007360043082805006012086
:10064000200400000464696E7400737004308280BA
:1006500064060120200400000377666973005010CF
:10066000828000008006012000000000066D6361AA
:1006700075736500F11480C07324203482800000FB
:100680009806012000000000046D65706300F114FD
:1006900080C0732410348280B00601200000000066
:1006A000036D6965F11480C07324403082800000BE
:1006B000C806012000000000036D6970F11480C0BD
:1006C0007324403482800000E00601200000000016
:1006D000046D69652100731044308040910482806C
:1006E000F806012000000000046D697021007310FD
:1006F00044348040910482802407012000000000DF
:10070000076D74696D653634F11480C037C7000217
:1007100061175C4300435843E39AE7FEF11480C03D
:100720003E84828054070120000000000863796342
:100730006C6573363400F11480C0F32700B873245D
:1007400000B0732700B8E39AE7FEF11480C03E843E
:1007500082800000740701200000000006637963B6
:100760006C657300F11480C037C700026117004345
:1007700082800000BC0701200000000009756E683F
:10078000616E646C6564711106C0EF0000731455EE
:100790006E68616E646C656420496E746572727512
:1007A00070742000EFF01FEDEF00700BEF00E070B1
:1007B00002210A00824011018280000050080120BD
:1007C00000000000056661756C74711106C0EF00D1
:1007D000C06E14556E68616E646C656420496E74F9
:1007E0006572727570742000EFF0DFE8EF0030077B
:1007F000EF00A06C03617420EFF07FE9EF0030069A
:10080000EF00A06B02210A008240110182803AD6DB
:100810003ED442D246D04ACE4ECC52CA56C85AC610
:100820005EC462C266C083A00000E7800000824C04
:10083000124CA24B324BC24A524AE2497249825888
:100840001258A2573257C25013014103730020308F
:1008500088080120810000000E6972712D636F6CA1
:100860006C656374696F6E00F11480C0374400805A
:1008700061148280CA0701201301C1FC06D8B74069
:100880000080E11069B70000AC0801208100000081
:1008900009686F6F6B2D656D6974F11480C0374402
:1008A000008051148280600A01200000D0080120DD
:1008B0008100000008686F6F6B2D6B657900F11483
:1008C00080C03744008041148280940A01200000D7
:1008D000F4080120810000000A686F6F6B2D656DC0
:1008E00069743F00F11480C0374400803114828065
:1008F000D20A0120180901208100000009686F6FE9
:100900006B2D6B65793FF11480C037440080211452
:100910008280040B012000003C09012081000000BE
:100920000A686F6F6B2D706175736500F11480C07C
:100930003744008011148280480901204C090120AD
:1009400000000000036E6F708280000068090120C3
:100950000000000004656D697400B7470080D1177E
:100960009C43678007000000800901200000000010
:10097000036B6579B7470080C1179C436780070008
:100980009C0901200000000005656D69743FB747B0
:100990000080B1179C43678007000000B809012060
:1009A00000000000046B65793F00B7470080A11785
:1009B0009C43678007000000240A0120000000001B
:1009C000057061757365B747008091179C43678018
:1009D00007003785001011050C41370600C0E39A67
:1009E000C5FE378500102105B7150700938515DF73
:1009F0000CC13725011013058503B70503000CC191
:100A00003735011061059305A0080CC13735011079
:100A1000210585450CC137350110310585450CC1CF
:100A2000828000004C0A0120810000000F73657273
:100A300069616C2D6C61737463686172F11480C0BC
:100A40003744008001148280FFFFFFFF800A0120ED
:100A5000000000000B73657269616C2D656D69742F
:100A6000711106C0EF00E006A28780409104FDDB13
:100A70003737011000C38040910482401101828009
:100A8000BC0A0120000000000A73657269616C2DC8
:100A90006B657900711106C0EF00C006A287804027
:100AA0009104FDDB374700800117F11480C000433B
:100AB000FD571CC38240110182800000F00A012012
:100AC000000000000C73657269616C2D656D6974BE
:100AD0003F00711106C0EFF01FEFF11480C0B7376F
:100AE00001109C43FD8713C4F7FF824011018280EF
:100AF0003C0B0120000000000B73657269616C2DD6
:100B00006B65793F711106C0EFF0FFEBF11480C007
:100B10003747008001171C4313D4F74119C83737F2
:100B2000011011071C433747008001171CC313D461
:100B3000F7411344F4FF824011018280500B0120E1
:100B4000000000000572657365746F30C0750000A9
:100B5000F00B012000000000066163636570740003
:100B6000411106C62AC42EC232C08C4091040146EF
:100B7000EFF05FE02285804091049307F007630166
:100B8000F50493070002636EF500E37386FEF1142B
:100B900080C02A84EFF07FDC2380A5008505050650
:100BA000C1BFA5476315F50013050002F9BFA947AA
:100BB0006309F502B5476306F502A147E31AF5FAA2
:100BC00045DAEF00802F030820085DD2FD157D1661
:100BD00003C5050093770508C1DF93770504C9FBBA
:100BE000EDB73284B240224592450246410145AA02
:100BF0000C0C01204000000003746962F11480C0F5
:100C00003704008013044446828000002C0C01202D
:100C100081000000033E696EF11480C037440080FB
:100C20001304C4FD82800000000000005C0C012061
:100C3000820000000E63757272656E742D736F759D
:100C400072636500F11480C037440080130444FDD2
:100C5000828000000000640400800000840C0120F9
:100C60000000000009736574736F75726365B747A0
:100C70000080938747FD80C380409104C0C38040BB
:100C800091048280B40C01200000000006736F758F
:100C90007263650071112AC037450080130545FD58
:100CA000F11480C04041F11480C00041024511019F
:100CB00082800000EC0C01200000000005717565C9
:100CC0007279711106C0EFF03FF581471CC080407A
:100CD0009104EFF0BFF2F11480C0F11480C013044E
:100CE000800CEFF0FFE78240110151B75C0D01204D
:100CF0000000000007636F6D7061726551112AC4B6
:100D00002EC232C022858C40D0408044B10463059D
:100D1000C500130400002DA81DC903C60500133724
:100D2000160411E71337B60519C3130606028347E5
:100D3000040013B7170411E713B7B70519C3938756
:100D40000702E318F6FC7D1585050504F1B77D540F
:100D5000224592450246310182800000780D012033
:100D60000000000002637200711106C0EF00E01481
:100D7000010A824011018280900D012000000000D4
:100D800002626C00F11480C0130400028280000033
:100D9000A80D012000000000057370616365F11467
:100DA00080C01304000255BED00D012000000000D9
:100DB0000673706163657300711106C009C4EFF0BA
:100DC0001FFE7D14E5BF80409104824011018280A6
:100DD000E40D012050000000065B636861725D0055
:100DE00009A80000080E01200000000004636861EB
:100DF0007200711106C0EF008050804091040344DE
:100E000004008240110182801C0E0120500000006D
:100E10000128F11480C01304900209A8400E01209B
:100E200050000000015CF11480C00144711106C043
:100E3000EF00604EC040A10482401101828000009A
:100E4000740E012030000000022E2200F11480C038
:100E5000170400001304A406711106C0EF00A07669
:100E6000F11480C013042002EF00E04A8240110117
:100E70006F00900B900E01203000000002632200F2
:100E8000F11480C0170400001304A405F1B700009A
:100E9000AC0E01203000000002732200F11480C06B
:100EA000170400001304240645BF0000D00E0120E3
:100EB0000000000004282E222900F11480C00684BE
:100EC00083C700008500BE9093F71000BE9055A028
:100ED000F40E012000000000042863222900F11410
:100EE00080C0068483C700008500BE9093F7100081
:100EF000BE908280180F0120000000000428732299
:100F00002900F11480C0068483C700008500BE90CC
:100F100093F71000BE9055A8640F01200000000058
:100F200004286E222900611106C22AC083470400EA
:100F3000BDCF05043305F4008347040013D74700F1
:100F40002A9703470700BD8BAA97E114C0C098C039
:100F500003C40700EFF07FA0EFF03FA00504E31DFE
:100F6000A4FCB1A0800F012000000000056374798B
:100F70007065611106C22AC003450400050431A84A
:100F8000BC0F01200000000004747970650061113D
:100F900006C22AC022858040910411C9F11480C084
:100FA00003440400EFF07F9B05047D1565F9804044
:100FB000910492400245210182800000D80F012057
:100FC0000000000005636F756E740504F11480C0A5
:100FD0000344F4FF82800000FC0F012000000000A9
:100FE0000A736B6970737472696E670083470400DB
:100FF00005043E94937714003E94828050100120A3
:101000000000000006726973632D7600711106C03E
:10101000EFF0BFEA324D6563726973702D517569E7
:101020006E74757320312E302E3520666F7220520B
:101030004953432D56206279204D6174746869616B
:1010400073204B6F63680A008240110182800000A8
:10105000A010012000000000046865782E004111F6
:1010600006C62AC42EC232C0228580409104930550
:101070000002F11480C01354C5013D882946636302
:10108000C4001D0413040403EFF03F8D1205F11595
:10109000EDF1B240224592450246410109B30000FC
:1010A0002011012000000000032E7273511106C4AC
:1010B0002AC22EC0EFF07FE00F52657475726E7316
:1010C0007461636B3A205B20B707008093874746C3
:1010D000B387274063CB070293D527008505F1141A
:1010E00080C02E84EFF0BFF7EFF03FDD025D2000FF
:1010F00089CD3705008013054546F11480C00041B5
:10110000EFF0FFF57115FD15EDF9EFF01FDB042091
:101110002A3E0A00A2401245824531018280000029
:10112000CC1101200000000005776F72647371110B
:1011300006C0EFF09FD8010AEF10000EEFF0FFD7C6
:1011400009416464726573733A20F11480C0EFF052
:101150001FF1EFF09FD6064C696E6B3A2000F11438
:1011600080C00040EFF0BFEFEFF03FD507466C6165
:1011700067733A20F11480C04040EFF05FEEEFF06B
:10118000DFD306436F64653A2000F11480C0210468
:10119000EFF0DFE5EFF0BFECEFF03FD2064E616D10
:1011A000653A2000F11480C02104EFF09FDCEFF0DD
:1011B000DFD0010AEF10000AA28780409104BDDF52
:1011C0008040910482401101828000000C120120B5
:1011D0000000000006756E7573656400711106C02D
:1011E000EF007028EF00B04AA2878040910481E7A9
:1011F000B707402031A0EF005029A287804091041A
:101200003384874082401101828000002412012033
:101210000000000003682E7397070000938767E4BF
:1012200005A800003C12012000000000022E7300FF
:10123000972700009387271921A80000F0120120AA
:101240000000000003752E73972700009387871610
:10125000311106C82AC62EC432C236C03E85EFF010
:10126000DFC509537461636B3A205B203747008008
:1012700071171443A9471CC3B70500809385452601
:10128000858D63CF05028981F11480C02E84EF2003
:101290004013EFF09FC2025D2000374700807117B6
:1012A00014C363CF050089CD3706008013060626D8
:1012B000F11480C00042E70005007116FD15EDF93C
:1012C000EFF0BFBF0620544F533A2000F11480C006
:1012D0002284E7000500EFF05FBE04202A3E0A00EA
:1012E000C2403245A245124682465101828000002A
:1012F000081301200000000005746F6B656EF11487
:1013000080C01304000201A8E413012000000000C3
:10131000057061727365411106C62AC42EC232C0BF
:10132000EFF05F97A2858840C040A104EFF0DF8E08
:101330001040804091043307C50093070002631EEC
:10134000F400638AC502B307C50083C7070063962C
:10135000870005063307C500EDB7638EC500B307E8
:10136000C50083C707000506E39987FE3304C5005F
:10137000198C7D1421A03304C500198CF11498C078
:10138000EFF09F8910C080409104B2402245924501
:10139000024641018280611106C22AC02285804036
:1013A0009104856793870780E18F99C385673E9491
:1013B000F11480C0FD777D8C1364747BF11480C0C0
:1013C0002A84EF00B0155204B78707009387774649
:1013D0005D8CF11480C02A841104924002452101E1
:1013E0006F00D013281401202000000005646F65F1
:1013F000733EF11480C0B7170120678407408280D4
:10140000711106C0F11480C03704008071040040DF
:101410002104937724003E94EFF0FFF7EF0000746F
:1014200011018240110182805C1401200000000043
:10143000073C6275696C6473711106C0EF00F0358A
:10144000EF00404EEF006016EF00B00AF11480C0CC
:101450002144EF001017824011018280881401207E
:10146000000000000663726561746500711106C0BA
:10147000EFF09FFCF11480C0B7170120678407408C
:1014800082401101828000008415012000000000CC
:101490001072656769737465726C69746572616CEA
:1014A0002C0019E06F20E004611106C22AC02285D9
:1014B00080409104930700803377F4006303F700C2
:1014C00031E3B707001081173377F4006303F700A7
:1014D00005E39377F4018A071357F4013207116487
:1014E00005045D8C598C1E05498CEF00F00671A037
:1014F00052049167CD0713177500D98F5D8CEF00EB
:10150000100AA5A8856793870780E18F99C3FD77A7
:101510003D8C89476308F50281773377F4006303D4
:10152000F7000DE3F11480C0298485679387C7070E
:101530007D8C996785075D8C13177500598CEF00BA
:10154000B00121A8F11480C0FD777D8C1364740371
:1015500013177500598CEF009004520401E4804089
:10156000910421A89167CD0713177500D98F131720
:10157000F500D98F5D8CEF00900292400245210169
:1015800082800000B815012000000000086C69741A
:101590006572616C2C00711106C0EF000001F1143E
:1015A00080C0214482401101EDBDF11480C017F4C8
:1015B000FFFF130424B069A84016012000000000BA
:1015C0000563616C6C2C711106C0F11480C0EF00D2
:1015D0008069EFE01FE8EF104021A287804091046E
:1015E00081CB9104896785075D8C82401101ADA78D
:1015F000EF106013A2878040910481CB9104930780
:10160000F00E5D8C8240110159AF804091048567D6
:1016100093870780E18F99C385673E94F11480C05A
:10162000FD777D8C1364747BEF0060775204B7877D
:1016300007009387770E5D8C824011018DA7000013
:10164000DC1601200000000007696E6C696E652CD5
:10165000711106C0835704000567130717176399B4
:10166000E70083572400316719076393E7001104EB
:1016700083570400116713072708639FE700835708
:101680002400130710116399E70083574400216772
:1016900013072708638FE7028357040021671307A6
:1016A00027086388E7028357040013F7370075178C
:1016B0006319E000F11480C003540400EF00C06916
:1016C0000904F11480C003540400EF00E068090429
:1016D00051B7804091048240110182801817012087
:1016E000000000000E736B6970646566696E697452
:1016F000696F6E008357040013F73700751763098D
:10170000E00009042167130727086385E700DDB7B8
:101710001104CDB78280000098170120000000005E
:1017200007737472696E672C311106C82AC62EC4FD
:1017300032C236C01375F40F8C409104EF0040059F
:10174000EF00A00211C9F11480C003C40500EF002E
:10175000C0017D158505FDB7EF004002C24032454E
:10176000A24512468246510182803314C400C18EC4
:10177000804091042106C147631EF60011CA711111
:1017800006C0F11480C03684EF00005D8240110174
:101790000146814682800000A81701205000000009
:1017A000035B275D39A00000E41701200000000062
:1017B0000127511106C42AC22EC0EFF05FB4884041
:1017C000A285EF00502EA2878040910419E4F11405
:1017D00080C088C02E846F106058A2401245824598
:1017E00031018280341801203000000008706F73CE
:1017F00074706F6E6500711106C0EFF09FFB13F7F8
:1018000007010DE713F7070211CBEFF0DFD8F11452
:1018100080C0170400001304E4E309A8EFF0BFD769
:10182000F11480C017040000130424DA824011016F
:1018300059BB00005C180120300000000465786985
:101840007400711106C0F11480C0374411011304F3
:101850002408EF00C0548240110101A8781801202B
:1018600000000000047265742C00F11480C0216433
:1018700013042408D5A100009818012030000000AE
:101880000772656375727365F11480C03704008058
:10189000710400400DBB0000B81801208100000059
:1018A000057374617465F11480C0374400801304BB
:1018B00004FD828000000000D81801208100000093
:1018C000042873702900F11480C037440080130489
:1018D000C4FC828000000000E81801200000000025
:1018E000015DFD5701A80000001901201000000053
:1018F000015B814737470080130707FD1CC38280C7
:101900003419012000000000013A711106C0374768
:1019100000801307C7FC04C3EF0020688240110158
:101920008547C9BFF11480C0371406C013041417CB
:10193000BDA100009419012030040000013B711189
:1019400006C0374700801307C7FC1C43638197021A
:10195000EFF0AFD61520537461636B206E6F742067
:1019600062616C616E6365642E0A6F1000553747C3
:101970000080130707FD184385476315F700EFF054
:10198000DFEE19A0EFF0FFEBEF00401D82401101E8
:101990008DB70000B01901200000000007657865D0
:1019A00063757465A287804091046780070000001A
:1019B000C81901201000000009696D6D6564696136
:1019C0007465C14735A20000E019012050000000F5
:1019D00006696E6C696E65009307000211AA00002B
:1019E000F819012050000000076E6F6672616D6586
:1019F00093070040F5A80000141A01201000000011
:101A00000B636F6D70696C656F6E6C799307000383
:101A1000C5A00000301A0120500000000A302D66D9
:101A20006F6C6461626C650093070004D1A00000D4
:101A30004C1A0120500000000A312D666F6C646161
:101A4000626C65009307100465A00000681A01200D
:101A5000500000000A322D666F6C6461626C650094
:101A60009307200471A00000841A01205000000098
:101A70000A332D666F6C6461626C650093073004F5
:101A800085A80000A01A0120500000000A342D662D
:101A90006F6C6461626C65009307400491A800005C
:101AA000BC1A0120500000000A352D666F6C64617D
:101AB000626C65009307500425A80000D81A012025
:101AC000500000000A362D666F6C6461626C650020
:101AD0009307600431A80000F81A012050000000AC
:101AE0000A372D666F6C6461626C65009307700441
:101AF000F11480C03E84E1A8241B012000000000F6
:101B000008636F6E7374616E7400711106C0EF002C
:101B1000C048EFF05FA8EFF05FD5EFF0FFF0824034
:101B200011012DA84C1B0120000000000932636F39
:101B30006E7374616E74711106C0EF000046A28767
:101B400080409CC0EFF03FA5E9B70000BC1B01201E
:101B50000000000006736D7564676500711106C0B2
:101B6000EF002019EF00A032A28780409104B9E372
:101B7000EF00600F8327C4FF1307F0FF804091043C
:101B80006397E700F11480C00144EF004021F11495
:101B900080C037040080130404020040F11480C0A8
:101BA00037040080210400401104EFE02FC9824077
:101BB00011018280F11480C0014405A8381C012065
:101BC0000000000008736574666C61677300375726
:101BD000EA051307E71D63188700172400001304A4
:101BE00064766FF04FB4711106C0EF00402AA287EF
:101BF0008040910489EF37070080130707021C43D8
:101C0000C18F1CC38040910482401101828037073C
:101C10000080210718435C4371112AC07D556393EE
:101C2000A700A287C18F024511015CC380409104C7
:101C30008240110182800000581C012041000000F8
:101C400007616C69676E6564937714003E949377BF
:101C500024003E9482800000741C012000000000DB
:101C6000046865726500F11480C03704008000408C
:101C700082800000981C0120000000000D666C614D
:101C800073687661722D68657265F11480C03704DF
:101C90000080410400408280B81C01200000000048
:101CA0000C61646472696E666C6173683F0037072B
:101CB0000120B707402039A8E41C012000000000E3
:101CC0000A61646472696E72616D3F00370700805B
:101CD000B74700806366E4006374F4007D5482803B
:101CE000014482804C1D01200000000005616C69E8
:101CF000676E711106C0EFF01FF7937714003E94E2
:101D00003707008000C3098809C40544EF00C004F8
:101D100019A080409104824011018280711106C097
:101D20009C40E114C0C09CC0EF008001A2878040AD
:101D30009CC04180A28780409CC009048240110160
:101D4000711106C0F11480C01DA00000941D012077
:101D50000000000002682C00711106C0EFF0BFF017
:101D6000F11480C0F11480C00944EF008005EFF049
:101D70001FF4A2878040910481C7EFE06FAD01A8F6
:101D8000A287804091042390870080409104824084
:101D900011018280B41D012000000000012C71118E
:101DA00006C0F11480C0EFF03FFB4180824011017A
:101DB00065B70000381E01200000000005616C6C52
:101DC0006F74611106C22AC0228580409104EF0021
:101DD000000CA287804091049DE3370700801C43DC
:101DE000AA973705402063EFA702EFF00F8D0B464F
:101DF0006C6173682066756C6C0A6F10000CEFF0F4
:101E0000DFE8370700801C43AA9763EB8700EFF0F9
:101E1000CF8A0952616D2066756C6C0A6F10E009FB
:101E2000804091041CC39240024521018280F1143C
:101E300080C0114479B70000781E01200000000026
:101E400009666F7267657472616D711106C0EF008B
:101E5000C00637070080B70700809387C7521CC3AE
:101E600037070080210797E7FFFF9387E7191CC317
:101E70008240110182800000A41E012000000000A9
:101E80000D636F6D70696C65746F72616D3F711178
:101E900006C0EFF05FDDEFF09FE11344F4FF8240F6
:101EA00011018280201F0120000000000C636F6D73
:101EB00070696C65746F72616D00711106C0EFF02E
:101EC0001FFDA28780409104C1E3370700805C4377
:101ED000184B63E6E702EFE05FFE2320566172696C
:101EE00061626C657320636F6C6C696465207769EF
:101EF00074682064696374696F6E6172790AF114A1
:101F000080C03704008018405C4058C01CC0184492
:101F10005C4458C41CC40144824011015DB50000FA
:101F2000501F0120000000000E636F6D70696C652A
:101F3000746F666C61736800711106C0EFF03FF555
:101F4000A28780409104C5FF824011018280000079
:101F5000701F01204000000008286C6174657374D4
:101F60002900F11480C03704008021048280000021
:101F7000881F012040000000042864702900F1142B
:101F800080C03704008082809C2001200000000077
:101F900008286372656174652900711106C0EFF04D
:101FA0000FB605E0EFE07FF11520437265617465BF
:101FB000206E65656473206E616D6520210A6F0077
:101FC000D06F9C40E114C0C09CC0EF00C02D804089
:101FD0009104A2878040910495C39C40E114C0C045
:101FE0009CC0EFE09FED095265646566696E6520EF
:101FF000EFE0FFF9EFE07FEC022E2000EFF07FCF63
:10200000EFF0FFE8A28780409104B1E73707008036
:102010001307070281471CC3EFF0FFC4F11480C00F
:102020002144EFF01FDAEFE0CF93EFF0EFEF370549
:10203000008021050C4190419306F0FF6319D60002
:10204000F11480C0F11480C02E84EFD03FFF00C196
:10205000804091040DA8EFF01FC1F11480C0370437
:10206000008021040040EFF09FD337070080210754
:1020700000C380409104F11480C01304F0FFEFF01E
:102080001FD2EFF06FEAEFF01FBE37070080710735
:1020900000C380409104824011018280B820012059
:1020A00000000000087661726961626C6500F114DD
:1020B00080C005440DA80000D420012000000000CD
:1020C00009327661726961626C65F11480C00944FD
:1020D00019A800003021012000000000096E76617F
:1020E000726961626C65511106C42AC22EC0EFF09C
:1020F000DFEAEFF0DFD9A28780409104D5EB3D887D
:10210000711122C00A04EF000007EFF00FF62285DC
:102110008040910419C580C19105EFF05FC8711529
:102120007DF9F11480C0024411011364040889A0F0
:102130000022012000000000076275666665723AA1
:10214000511106C42AC22EC0EFF01FB0EFF0FFE419
:10215000EFF0FFD3A28780409104B5E7EF00A00124
:10216000EFF0AFF0EFF0BFC3F11480C01304001420
:10217000EFF0FFA59DA03705008041050C41818D42
:10218000370700801307C75263DEE500EFE0FFD298
:102190000F4E6F7420656E6F7567682052414D0A4F
:1021A0006F00B0510CC1F11480C02E846FF0AFBE2F
:1021B000EF00400322858040910411C9EFF03FBE3B
:1021C0007D156DFD29A0EF00E001EFF09FBFF11438
:1021D00080C013040008EFF09F9FA2401245824583
:1021E0003101ADBA711106C0EFF0BFB0EFF0EFBB37
:1021F000F11480C02164130474468240110145B675
:102200003C220120000000000F64696374696F6E56
:102210006172797374617274711106C0EFF03FC717
:102220008240110111E417E4FFFF1304E4DD828012
:1022300037040080210400408280000074220120C5
:10224000000000000E64696374696F6E6172796EDC
:10225000657874009307F0FF1840E38EE716930744
:10226000F00F03478700E388E7160040F11480C0B1
:1022700001448280982201208100000009686F6F6C
:102280006B2D66696E64F11480C0374400801304BE
:1022900084FC8280C4220120B422012000000000BE
:1022A0000466696E6400B7470080938787FC9C438F
:1022B000678007005423012000000000062866699B
:1022C0006E642900411106C62AC42EC232C081455F
:1022D0000146611122C0804022C2C040A104EFF03B
:1022E000BFF348409307F0FF6384A704F11480C054
:1022F0002104EFE09FCDE114C0C0124480C002442D
:10230000EFE0DF9FA287804091049DC3F11480C05D
:102310002104EFE0BFCDA285804091042A86F1140C
:1023200080C02E84EFF0BF98A2878040910499C7A7
:10233000EFF05FF2A28780409104C5D72E84F1149C
:1023400080C032842101B2402245924502464101BB
:10235000828000006823012020000000016BF1143E
:1023600080C02244828000007C23012020000000E5
:10237000016AF11480C00244828000009023012091
:10238000200000000169F11480C00E8482800000EA
:10239000FC23012030000000056C65617665511159
:1023A00006C42AC22EC03705008061050C4126876D
:1023B000F1141C43232EF7FE1107E31CB7FE2687FA
:1023C000F1141C43232EF7FE1107E31CB7FEEFF0B8
:1023D0009F89EFF0DFA5228780409104F11598C115
:1023E000F11595479CC10CC183A7C5FF850723AE96
:1023F000F5FEA2401245824531018280142401205D
:10240000200000000428646F2900611112C20EC070
:10241000828000002C2401202000000006756E6CD4
:102420006F6F70008241124221018280902401204E
:1024300030000000052B6C6F6F708D476311F44AFC
:1024400080409104611106C22AC0F11480C01704B3
:10245000000013046401EFF00F97378507001305A0
:10246000350695A0634C040033874140A29180401B
:102470009104B3874140B3B7E7008280338741407E
:10248000A29180409104B3874140B337F700828026
:102490000C25012030000000046C6F6F70008D4728
:1024A000631FF44280409104611106C22AC0F114F6
:1024B00080C03784110013043419EFF05F8E379514
:1024C000410013053506EFF00FFAEFD09FF8EF004B
:1024D000C022498CEFF0BF8C22858040910409C551
:1024E000EF00203B7D15E5BFF11480C0170400000C
:1024F000130484F3EFF0CF9537070080610700C322
:10250000804091049240024521018280682501208B
:102510003000000002646F00711106C0EF008002FD
:10252000370700806107F11480C00043F11480C0B8
:10253000014404C3EFF02FF3F11480C00D44824036
:1025400011018280F11480C0170400001304C4003C
:102550006FF00F90611112C20EC0A28103A204009D
:10256000C040A10482800000B82501203000000096
:10257000033F646F711106C0EFF0DFFCF11480C0FF
:10258000378441401304347BEFF07F8137070080AC
:102590006107F11480C00043EFF0EFECEFF03F89EA
:1025A000F11480C00944F11480C00544370700804D
:1025B000610704C341B70000D425012030000000AA
:1025C000046361736500F11480C00144F11480C09C
:1025D00021448280FC25012030000000033F6F660B
:1025E000A147631EF42E80409104711106C0711141
:1025F00022C080409104EF00203389A0642601208E
:1026000030000000026F6600A147631AF42C80407E
:102610009104711106C0711122C080409104F1141F
:1026200080C01704000013044403EFF06F82EFF042
:102630008FE3EFF0CFFFF11480C00944EF00602377
:10264000F11480C0024411010504F11480C0254436
:10265000824011018280A28780409104818F93B7CC
:1026600017008280A02601203000000005656E64FE
:102670006F66A5476315F42680409104711106C06A
:10268000711122C080409104EF002028F11480C015
:1026900002441101F11480C0214482401101828062
:1026A000102701203000000007656E6463617365C8
:1026B000A1476316F42280409104611106C22AC02A
:1026C000228580409104EF00C01A09C5EF00601C0C
:1026D0007D15E5BF9240024521018280EFE0EFFDCC
:1026E0000D4A756D7020746F6F206661720AF1A7D4
:1026F000711106C0EF00200329A0711106C0EF0080
:10270000C005A28780409104F1DB824011018280E4
:1027100044270120410000000C756A2D656E636F2F
:1027200064696E673F00B707F8FF3377F40063040E
:10273000F700631E074A711106C0EF00C003824014
:10274000110151A9D4270120410000000C73622D12
:10275000656E636F64696E673F00FD773377F400E1
:102760006304F70063150748711106C0EF00A0036A
:10277000824011018DA19357C40093F7F70F13976F
:10278000C7009357B400858BD2075D8F9357140011
:1027900093F7F73FD6075D8F93574401858BFE076C
:1027A0003364F70082809357B400858B13977700CA
:1027B00093571400BD8BA2075D8F9357540093F776
:1027C000F703E6075D8F9357C400858BFE073364DC
:1027D000F700828084280120410000000C636A2DEC
:1027E000656E636F64696E673F009307008033779F
:1027F000F4006304F700631C073E711106C0EF008C
:10280000A00082401101C1AE93575400858B1397ED
:102810002700935714009D8B8E075D8F935774008C
:10282000858B9A075D8F93576400858B9E075D8F1C
:102830009357A400858BA2075D8F935784008D8BDF
:10284000A6075D8F93574400858BAE075D8F935726
:10285000B400858BB2073364F7008280711106C023
:10286000F11480C021641304247AEFF0EFCE82408B
:102870001101F11480C017E4FFFF130404856FE019
:102880003FDD0000FC280120300000000474686572
:102890006E00711106C0A287804091041547639BAA
:1028A000E700EFF04FBC9C401D8CEFF07FE4136419
:1028B000F40639A809476394E702EFF0CFBA9C40C9
:1028C0001D8CEFF09FE3B7870700938737065D8C79
:1028D000A28780409CC0824011016FF02FC4EFE0BE
:1028E000CFDD175374727563747572657320646FEE
:1028F0006E2774206D617463680AC1A31C290120CE
:102900003000000004656C736500711106C0EF00B3
:10291000C003EF00503F82401101A5BF3C290120B8
:102920003000000002696600711106C0EFF01FF36D
:10293000EFF06FB3F11480C0094439A86429012075
:1029400030000000056168656164711106C0EFF038
:102950008FB1F11480C01544EFF06FCD82401101AA
:10296000828000008429012030000000067265701A
:1029700065617400711106C0EF00600782401101AB
:1029800009BF0000A4290120300000000577686914
:102990006C65711106C0EFF03FF9824011016F00C4
:1029A00090360000E02901203000000005756E74AB
:1029B000696C711106C0A287804091040547E390BD
:1029C000E7F2EFF0BFE9EFF00FAAEFD09FA8EFF02A
:1029D000DFD2B7870700938737065D8C0DA800000C
:1029E000182A01203000000005616761696E7111CD
:1029F00006C0A287804091040547E392E7EEEFF01E
:102A00008FA6EFD01FA5EFF0BFCE1364F40682406F
:102A100011016FF0CFB800003C2A01203000000007
:102A200005626567696E711106C0EFF0CFA3F114FE
:102A300080C005448240110182800000642A012088
:102A40006206000003616E649C4091047D8C82806C
:102A50003777040013073741B777F400938737437C
:102A60006FD0BF9A842A0120620600000362696366
:102A70009C4091041344F4FF7D8C82801344F4FF46
:102A8000C1BF0000AC2A012062060000026F720084
:102A90009C4091045D8C82803767040013073741A6
:102AA000B767F400938737436FD03F96D42A01204D
:102AB0006206000003786F729C4091043D8C828016
:102AC0003747040013073741B747F400938737436C
:102AD0006FD0BF93F82A01204100000003636C7A95
:102AE0009307000219C48147634504000604850763
:102AF000E5BF3E8482800000102B012061040000AD
:102B000003726F729317F40105805D8C8280000060
:102B1000282B01206104000003726F6C9357F401AD
:102B200006045D8C828000004C2B012062060000B0
:102B300007617273686966749C40910433D487405E
:102B40008280B757044093873741A1A0702B0120A2
:102B50006206000006727368696674009C40910406
:102B600033D487008280B75704009387374115A07C
:102B70009C2B012062060000066C73686966740075
:102B80009C409104339487008280B7170400938798
:102B900037417D8852045D8C6FF06FA0B02B01200F
:102BA00061040000036E6F741344F4FF8280000020
:102BB000C82B01206104000006696E7665727400FE
:102BC0001344F4FF82800000E02B01206004000029
:102BD000047472756500F11480C07D548280000019
:102BE000F82B0120600400000566616C7365F11428
:102BF00080C0014482800000602C012000000000A1
:102C0000086576616C7561746500711106C0EFE04E
:102C10006F88A2879840C040A10461113AC23EC0AB
:102C2000374700801307C7FD1C4371113EC0814721
:102C30001CC3EFE0CF83EF00800637470080130707
:102C4000C7FD824711011CC3824712472101E114CD
:102C5000C0C098C03E84824011016FE04F810000E7
:102C60008C2C0120810000000E686F6F6B2D696E47
:102C70007465727072657400F11480C0374400800E
:102C8000130444FC8280C02C01200000AC2C0120E5
:102C90000000000009696E74657270726574B74750
:102CA0000080938747FC9C4367800700882E0120A3
:102CB000000000000B28696E7465727072657429DB
:102CC000711106C03705008013054526637E950007
:102CD000EFE0AF9E10537461636B20756E64657294
:102CE000666C6F770A00D1AA370500801305450688
:102CF000636D9500EFE06F9C0F537461636B206F01
:102D0000766572666C6F770A4DAA370700805107A7
:102D10008323070063950300A68323207700EFE059
:102D20000FDE11E4C040A1048240110182809C406A
:102D3000E114C0C09CC0EFF00FD7A2859040C04006
:102D4000A1040DEA8840A285EF004025228680403C
:102D500091042DFAE114C0C088C02E84EFE02FA3A7
:102D6000EFE0AF950C206E6F7420666F756E642E69
:102D70000A00A1A2B7460080938606FD9442A1E610
:102D80003707008051078143232077009307000312
:102D9000B3F6F5006391F602EFE06F9FEFE0EF917D
:102DA0001220697320636F6D70696C652D6F6E6C96
:102DB000792E0A0019A2C040A104F11480C0328407
:102DC000EFE05FBE01B7C040A10413F5050819E9A3
:102DD000B3869340898213F5050419C913F5F500EC
:102DE00063E8A600F11480C03284EFE0BFBBD9BD18
:102DF00013B51600631DA00013F5052009C9F114D1
:102E000080C03284EFE01F8FEFE0DFB965BDEF00D7
:102E1000600437470080130707FD1843854763198F
:102E2000F70013F7054009E7EFE0DFAFEFE07FAB16
:102E3000F11480C0328413F6050101C6EFE09FB69D
:102E400051B513F6050201C6EFE09F80A5BDEFE086
:102E50008FF78DBD711106C091CEFD16F11480C0A3
:102E60003684EFD0CFB1EFE00FF3E5FA9384C3FFE0
:102E70008040910437070080510781432320770069
:102E80008240110182800000AC2E012081000000F0
:102E900009686F6F6B2D71756974F11480C03744C8
:102EA0000080130404FC8280242F0120142F0120B1
:102EB000000000000471756974003701008013017F
:102EC0004146B70400809384442637470080711739
:102ED000A9471CC337470080130707FD81471CC360
:102EE0003707008051071CC3374700801307C7FD11
:102EF0001CC337470080130747FD1CC3B70700807A
:102F0000938747465CC3B7470080938707FC9C4381
:102F100067800700382F0120000000000628717527
:102F200069742900EFD0FFD9EFF07FD7EFD0FFF819
:102F300005206F6B2E0AFDB78C2F012000000000CA
:102F4000056469676974130404FD63640402A94796
:102F50006363F4026514636EF40093074002636CCC
:102F6000F4000114A9476366F40093074002636408
:102F7000F40001448280B7470080F1179C43E37A54
:102F8000F4FEF11480C07D548280000014310120D1
:102F900000000000066E756D62657200111106CCAE
:102FA00016CA1AC82AC62EC432C236C0B747008015
:102FB000F1179C4371113EC0A28580409104228587
:102FC0000544854681420143CDC9034605000505F8
:102FD000FD159307D0026314F600FD56F5B793076D
:102FE00030026318F600A9473746008071161CC2EC
:102FF000E1BF930740026318F600C14737460080DF
:1030000071161CC2D1B7930750026318F6008947A6
:103010003746008071161CC245BF9307E002631457
:10302000F600094455B79307C0026300F60AF1148D
:1030300080C03284EFF03FF1A28780409104B5C791
:10304000E114C0C023A054001A84F11480C0374496
:10305000008071140040F11480C00144EF00006F43
:10306000EFD08F8EF11480C00144EF00206A2283DC
:1030700083A20400C040A10481BF634ED000E114CC
:10308000C0C023A054001A84EF000063228383A2EF
:103090000400C040A104F11423A054008547630537
:1030A000F400F11423A0640011A00144824711012F
:1030B0003747008071171CC3E240D2424243324579
:1030C000A2451246824671018280168381420944DC
:1030D000CDD5FD15B307B50003C607009307E00281
:1030E000E308F6FEF11480C03284EFF0DFE5A2873A
:1030F00080409104DDDBF11423A05400F11480C062
:103100003744008071140040EF001009A282C040D3
:10311000A1047DBF4431012000000000062E646937
:1031200067697400A9476375F4001304040382807F
:10313000930740026375F400130474038280130440
:1031400030028280983101200000000004686F6C1A
:10315000640071112AC0370500801305450203473A
:1031600005009307F0036374F70205072300E500E9
:103170003A958547630BF7007D1583470500A3004B
:10318000F5007D178547E319F7FE23008500804091
:103190009104024511018280D43101200000000019
:1031A00005686F6C643C71112AC0370500801305F7
:1031B0004502034705009307F0036378F70005070E
:1031C0002300E5003A9523008500804091040245E4
:1031D00011018280F431012000000000047369674E
:1031E0006E00634504008040910482801304D00285
:1031F0008DB70000143201200000000002233E00C1
:10320000B70700809387470203C4070085079CC067
:10321000828000003C32012000000000036623533E
:10322000611106C22AC013050002EF00E0017D15FE
:103230006DFD92400245210182800000683201202C
:103240000000000002662300711106C0F11480C066
:103250003744008071140040EF00801BEFF09FECBA
:103260008240110189B7000088320120000000006F
:1032700002235300711106C0EF00A00175FC9C40B1
:10328000E5FF824011018280C03201200000000071
:103290000123711106C0F11480C0374400807114FD
:1032A0000040F11480C00144EF008075EF00A025BC
:1032B00080409104EFF01FE78240110159BD0000EA
:1032C000DC32012000000000023C230037070080B0
:1032D0001307470281472300F7008280F432012060
:1032E0000000000002662E00F11480C013040002EA
:1032F00001A80000503301200000000003662E6E7C
:10330000611106C22AC0228580409104EFC07FE28D
:10331000EF002039F11480C00144EFF03FFBEFF0E3
:103320007FF5804091041304C002EFF0DFE709C588
:10333000EFF09FF17D156DFD024511018040910474
:10334000EFF03FEAF11480C0F11480C0A1A00000AA
:103350006C330120000000000375642E711106C05B
:10336000EFF0DFF6EFF01FF135A00000A4330120ED
:103370000000000002642E00711106C0EFC07FDB68
:10338000EF002032EFF09FF4EFF0DFEEEFC0DFDB75
:10339000EFF03FE5EFF0DFE6EFD07FBF82401101B5
:1033A0006FD0FF9FB83301200000000002752E008F
:1033B000F11480C001445DB7CC330120000000004F
:1033C000012EF11480C07D8445BF0000043401202B
:1033D00062060000012A9C409104338487028280A7
:1033E000B707F40293873743711106C0F1149CC0EC
:1033F000F11480C03D44EFE0CF8A824011016FE0BC
:103400001F9A0000203401206204000003756D2A19
:103410009C403387870298C033B4870282800000C3
:103420003C34012062040000026D2A009C40338776
:10343000870298C0339487028280000054340120B0
:1034400062040000066D756C687375009C4033A4BF
:10345000870282807434012062060000012F9C40A4
:10346000910433C487028280B747F40293873743BD
:10347000A5BF00009434012062060000036D6F6454
:103480009C40910433E487028280B767F4029387FB
:10349000374399BFB03401206204000005752F6DD9
:1034A0006F649C4033F7870298C033D487028280D0
:1034B000CC34012062040000042F6D6F64009C4036
:1034C00033E7870298C033C487028280E434012046
:1034D000620400000432647570009C40E114C0C0B6
:1034E0009CC08280F83401206204000005326472BE
:1034F0006F70C040A1048280183501204400000094
:10350000053273776170A287C040DCC09C4098444C
:103510009CC498C082800000303501206204000005
:1035200004326E6970009C40A1049CC0828000003F
:103530004C3501204400000005326F766572E114BD
:10354000C0C09C489CC0C0448280000070350120EF
:103550004400000005327475636B98409C44E1148C
:1035600098C098C8D844D8C09CC4C0C48280000009
:1035700094350120460000000432726F74009C40B4
:1035800098449CC49C4898C89CC0D840C0C0C044C3
:10359000D8C48280B83501204600000005322D7263
:1035A0006F7498409C4898C8984498C09CC4D8446C
:1035B000C0C4C040D8C08280D435012020000000A3
:1035C00003323E72611122C0804022C2C040A10479
:1035D00082800000F0350120200000000332723E9E
:1035E000E114C0C0124480C0024421018280000066
:1035F000083601202000000003327240E114C0C0F0
:10360000124480C0024482801C3601202000000049
:1036100006327264726F7000210182803836012098
:10362000420000000364322F9C401317F40105840C
:103630008583D98F9CC082805436012042000000CF
:103640000364322A9C4013D7F701BE972294598C09
:103650009CC08280743601204200000004647368BC
:1036600072009C401317F40105808583D98F9CC09C
:1036700082800000943601204200000004647368D8
:103680006C009C4013D7F701BE972294598C9CC0C4
:1036900082800000A83601204200000004646162BC
:1036A0007300634B04008280D0360120420000008A
:1036B00007646E65676174659C4093C7F7FF1344A8
:1036C000F4FF1387170098C0B337F7003E94828049
:1036D000003701204400000002642D0071112AC04F
:1036E0009C4498403385E74088C433B5E700DC400C
:1036F00033848740098CA1040245110182800000B7
:103700002C3701204400000002642B0071112AC0F4
:103710009C4498403385E70088C43335F500DC408D
:103720003E942A94A1040245110182804037012071
:103730004100000003733E64F11480C07D848280E8
:1037400060370120440000000375642A711106C02F
:10375000EF00E001C040A10482401101828000001E
:10376000CC380120440000000475646D2A0001116A
:1037700006CE16CC1ACA1EC82AC62EC432C236C0FD
:10378000F11480C0C040F11480C08048EFF05FC8E1
:10379000A2858840C040A104F11480C08040F1148B
:1037A00080C0C044EFF0DFC6A2869040C040A104B4
:1037B000F11480C08040F11480C08048EFF05FC5F4
:1037C0008147B302860033B3C2003386F200B333BD
:1037D0005600B3677300B382060033B3D200B386DA
:1037E000F200B3B35600B367730080409104814781
:1037F000B382850033B3B200B385F200B3B3550092
:10380000B3677300B302060033B3C2003386F2001D
:10381000B3335600B3677300B382060033B3D200EC
:10382000B386F200B3B35600B367730080409104CF
:10383000F11480C0C040F11480C0C044EFF05FBDFF
:103840008147B302860033B3C2003386F200B3333C
:103850005600B3677300B382060033B3D200B38659
:10386000F200B3B35600B367730080409104814700
:10387000B382850033B3B200B385F200B3B3550011
:10388000B3677300B302060033B3C2003386F2009D
:10389000B3335600B3677300B382060033B3D2006C
:1038A000B386F200B3B35600B3677300804091044F
:1038B000368490C0CCC088C4F240E2425243C24336
:1038C0003245A2451246824605618280FC380120BD
:1038D00043000000022A2F00711106C0711122C09E
:1038E00080409104EFF09FB4F11480C002441101B4
:1038F000EF00200D910482401101828028390120BF
:1039000043000000052A2F6D6F64711106C071110C
:1039100022C080409104EFF07FB1F11480C00244D6
:1039200011018240110171A85839012043000000A3
:1039300003752A2F711106C0711122C080409104B5
:10394000EFF01FADF11480C002441101EF00C0047C
:1039500091048240110182808839012043000000D7
:1039600006752A2F6D6F6400711106C0711122C097
:1039700080409104EFF0DFA9F11480C002441101EE
:103980008240110111A80000B43901204300000059
:1039900006756D2F6D6F6400711106C0F11480C043
:1039A0000144EF00E0058040910491048240110140
:1039B00082800000F039012043000000056D2F6D6A
:1039C0006F64711106C0F11480C07D84EF00200E79
:1039D00080409104910482401101828041112AC6E5
:1039E0002EC432C236C08146D0408C44014515A059
:1039F000A03A0120440000000675642F6D6F64003A
:103A000041112AC62EC432C236C081460146CC407E
:103A1000884431110EC812C616C41AC21EC02282B2
:103A200083A104001304000486069357F601DD8E7B
:103A3000060693D7F5015D8E86059357F501DD8D5A
:103A400006056366D20063EA460263683602814770
:103A5000B3023640333336003386F240B3B3F2005C
:103A6000B3677300B382464033B34600B386F24077
:103A7000B3B3F200B367730005057D1455F42E84CB
:103A800088C0D4C090C4C2413242A2421243824391
:103A900051013245A2451246824641018280000012
:103AA0001C3B01204400000005642F6D6F64711100
:103AB00006C0635C0402EFF03FC0EFF0DFA4635F79
:103AC0000400EFF07FBFEFF01FA4EFF07FF3EFF003
:103AD0009FA3EFF07FBE8240110135B4EFF0BFA28B
:103AE000EFF01FF282401101C1BEEFF0DFA1635180
:103AF0000402EFF07FBCEFF01FA1EFF07FF0EFF0DA
:103B0000BFBBEFF05FA0EFF03FBB82401101E5BA11
:103B1000EFF07F9F82401101E5B50000383B0120A6
:103B20004400000002642F00711106C0EFF03FF85E
:103B300082401101CDBA0000903B012044000000FA
:103B400002662A00711106C063540402EFF0DFB66A
:103B5000EFF07F9B63540402EFF01FB6EFF03FC11C
:103B6000804091049C4091049CC08240110182805D
:103B7000EFF07F99E35404FEEFF01FB4EFF03FBF86
:103B8000804091049C4091049CC0824011012DB65C
:103B9000E43B01204400000002662F00711106C0C2
:103BA00063530402EFF05FB1EFF0FF95635304023B
:103BB000EFF09FB0EFF03F95EFF05FE2EFF0BF96D0
:103BC000824011018280EFF01F94E35504FEEFF074
:103BD000BFAEEFF05F93EFF07FE0EFF0FFAD82401C
:103BE000110191B2003C01200000000002322100CE
:103BF0009C40D8401CC058C08044B1048280000062
:103C0000183C01200000000002324000F1145C402A
:103C10009CC0004082800000503C01204400000015
:103C20000364753C71112AC09C44984033B5E70089
:103C3000DC4033B7A700898FB3B7870033E4E700D0
:103C40007D141344F4FFB104024511018280000089
:103C50006C3C0120440000000364753E711106C0F5
:103C6000EFF07F8A8240110175BF00009C3C01206B
:103C70004400000002643C00511106C42AC22EC058
:103C80001355F441CC40FD85EFF0DFF9298C2D8CE4
:103C9000A24012458245310182800000B83C0120DB
:103CA0004400000002643E00711106C0EFF0BF85C1
:103CB00082401101D1B70000CC3C01206204000019
:103CC0000364303C91047D8482800000E83C012044
:103CD000420000000364303D9C4091045D8C13342D
:103CE00014003304804082800C3D01204400000019
:103CF00003643C3EDC403D8C9C409844B98FB10449
:103D00005D8C133414007D1482800000303D01204E
:103D10004400000002643D00DC403D8C9C4098441F
:103D2000B98FB1045D8C1334140033048040828059
:103D30007C3D01204300000007326C7368696674A3
:103D40001374F40371C8130704FE63490700DC40D1
:103D50003394E700910423A004008280DC40339771
:103D60008700D8C013070002018FB3D7E70098403F
:103D7000331487005D8C910482800000CC3D0120CB
:103D80004300000007327273686966741374F403A9
:103D900041C4130704FE634907009C40B3D7E70002
:103DA00091049CC0014482809C4033D7870098C016
:103DB00013070002018FB397E700D84033578700FD
:103DC0005D8FD8C08040910482800000203E012099
:103DD00043000000083261727368696674001374EE
:103DE000F4031DC8130704FE634A07009C4013D464
:103DF000F741B3D7E74091049CC082809C4033D701
:103E0000874098C013070002018FB397E700D8409E
:103E1000335787005D8FD8C08040910482800000B6
:103E2000743E012000000000046D6F766500711182
:103E30002AC022879C40C040A10405CB6307F4023E
:103E400063ED87003A94BA970345F4FFA38FA7FE6A
:103E50007D14FD177D176DFB09A803450400238021
:103E6000A700050485077D176DFB8040910402457E
:103E7000110182809C3E0120000000000466696CF4
:103E80006C0022879C40C040A10491C72300E4003D
:103E90000504FD17E5FF804091048280203F01204A
:103EA00020060000014000408280B727040093876D
:103EB0003740611106C22AC03E85711122C0804080
:103EC0009104FD16EFE01FF9F11480C002441101C6
:103ED000EFD0AFED930700803377F4006303F70072
:103EE00011E7B787F0FFFD177D8D05A085679387E4
:103EF0000780E18F99C385673E94F11480C0FD77F8
:103F00007D8C13647443EFD09FE98567FD17E18FC3
:103F1000D2073364F5009240024521016FD03FE89B
:103F2000D03F01202006000001219C401CC0C04061
:103F3000A10482803727870013073702B727F700CD
:103F400093873702611106C22AC0FD1699E63A85A9
:103F5000EF008002EFE0FF9121A83E85A28780401C
:103F60009CC0F11480C03D44EFD0AFD3EF00C0003F
:103F70009240024521018280711106C093070080A2
:103F80003377F4006303F70011E7B787F0FFFD17FD
:103F90007D8D05A0856793870780E18F99C385672D
:103FA0003E94F11480C0FD777D8C13647473EFD060
:103FB0001FDF9377F4019E075D8D85678117E18F81
:103FC0009583E6073364F500824011016FD03FDD31
:103FD000EC3F012000000000022B21009C40184013
:103FE000BA971CC0C040A104828000000840012094
:103FF0002006000002684000035404008280B75786
:1040000004009387374075B52C400120200600003E
:104010000868407369676E65640003140400828059
:10402000B71704009387374069B500005840012056
:1040300020060000026821009C402310F400C040CC
:10404000A10482803717870013073702B717F700DC
:1040500093873702C5BD00007840012000000000B2
:1040600003682B219C4003570400BA972310F400E7
:10407000C040A1048280000094400120200600007E
:1040800002634000034404008280B7470400938722
:10409000374005B5B8400120200600000863407392
:1040A00069676E656400030404008280B70704003A
:1040B00093873740FDBB0000E4400120200600004C
:1040C000026321009C402300F400C040A1048280D0
:1040D0003707870013073702B707F70093873702C0
:1040E00095B50000044101200000000003632B216E
:1040F0009C4003470400BA972300F400C040A10489
:1041000082800000204101200000000004626973E9
:1041100021009C401840D98F1CC0C040A10482805F
:1041200040410120000000000462696321009C40BE
:1041300093C7F7FF1840F98F1CC0C040A1048280CC
:104140005C4101200000000004786F7221009C4057
:104150001840B98F1CC0C040A10482807C4101205E
:10416000000000000462697440001C40804091041B
:104170007D8C133414007D14828000009C4101204A
:10418000000000000568626973219C400357040029
:10419000D98F2310F400C040A1048280C0410120C7
:1041A000000000000568626963219C4093C7F7FF27
:1041B00003570400F98F2310F400C040A10482804B
:1041C000E0410120000000000568786F72219C40EA
:1041D00003570400B98F2310F400C040A10482806B
:1041E00000420120000000000568626974408357A6
:1041F0000400804091047D8C133414007D1482806F
:1042000020420120000000000563626973219C4088
:1042100003470400D98F2300F400C040A10482802A
:1042200044420120000000000563626963219C4054
:1042300093C7F7FF03470400F98F2300F400C04041
:10424000A104828064420120000000000563786FB1
:1042500072219C4003470400B98F2300F400C04042
:10426000A10482808442012000000000056362698D
:10427000744083470400804091047D8C1334140003
:104280007D14828000500120FFFFFFFF182D2D2D8F
:1042900020466C6173682044696374696F6E617253
:1042A00079202D2D2D0097C7FFFF9387275D73A0E1
:1042B000573081403701008013014146814101425E
:1042C0008142014381431304A002B7040080938418
:1042D000442601458145014681460147814737070C
:1042E0000080B70700809387C7521CC33707008040
:1042F000210797C7FFFF938727D11CC3F11480C004
:1043000017C4FFFF130444D0B74300804C4093060A
:10431000F0FF638AD50893F60510ADC2711122C073
:104320002104EFC0BFCCEFD0EFBC8356040003558F
:1043300024004205C98EB383D34002441101A5A0D5
:104340002F01000000000020330120242544240315
:104350006718907900000000073631098AA04224CE
:10436000A031B003862094830100060008000018E5
:10437000200A2E275F2D60285C2F293C93F6050824
:104380009DC2BD898A05B383B340F11480C0210466
:10439000EFC0DFC5EFD00FB6E114C0C023A074009A
:1043A0002E84EFF0DFA8EFD0FFEA22858040910451
:1043B00031DD37050080310500C1804091043705AB
:1043C000008041052320750037054020B7550120A6
:1043D0001306F0FF6307B50071151441E38CC6FEA8
:1043E0001105B7050080910588C1EFC08FDEEFC0D1
:1043F000DFAC464D6563726973702D5175696E74DB
:10440000757320312E302E3520666F72205249533D
:10441000432D562052563332494D43206F6E20486B
:1044200069466976653142206279204D617474680D
:10443000696173204B6F63680A00370100801301C4
:104440004146B704008093844426374700807117A3
:10445000A9471CC337470080130707FD81471CC3CA
:104460003707008051071CC3374700801307C7FD7B
:104470001CC337470080130747FD1CC3B7070080E4
:10448000938747465CC3F11480C0170400001304EF
:104490008402F11480C01144EFD0FFE08040910409
:1044A00009C4EFD02FD06FE01FA6804091046FE0C9
:0844B000DFA0696E69740100D0
:0400000520010000D6
:00000001FF
