:100000006F40300A130000001300000013000000CE
:100010001300000013000000130000001300000094
:100020001300000013000000130000001300000084
:10003000130000006F40F0061300000013000000E2
:10004000A248000000000000300E0000C00D0000BB
:1000500000000000300E0000000000000000000062
:10006000300E0000300E0000000000000000000014
:100070001010000000000000680E000000000000EA
:10008000300E0000300E0000300E0000300E000078
:10009000300E0000300E0000080F00003C0F000082
:1000A000700F0000A40F0000D80F0000300E0000F9
:1000B000300E0000300E0000300E0000300E000048
:1000C000300E0000300E000044100000300E000022
:1000D000300E0000300E0000300E0000300E000028
:1000E000300E0000300E0000300E0000300E000018
:1000F000300E0000300E0000300E0000300E000008
:10010000300E0000300E0000300E0000300E0000F7
:10011000300E0000300E0000300E0000300E0000E7
:10012000300E0000300E0000300E0000300E0000D7
:10013000300E0000300E0000300E0000300E0000C7
:1001400000000000300E0000300E0000300E0000F5
:10015000300E0000300E0000300E0000300E0000A7
:10016000300E0000300E0000300E0000300E000097
:10017000300E0000300E0000300E0000300E000087
:10018000300E0000300E0000300E0000300E000077
:10019000300E0000300E0000300E0000300E000067
:1001A000300E0000300E0000300E0000300E000057
:1001B000300E0000300E0000300E0000300E000047
:1001C000300E0000300E0000300E0000300E000037
:1001D000300E0000300E0000300E0000300E000027
:1001E00098020000FFFFFFFF1D2D2D2D204D6563A0
:1001F000726973702D5175696E74757320312E316B
:100200002E31202D2D2DB7270240984B136707085C
:1002100098CB8280B727024037076745130737120C
:10022000D8C33797EFCD1307B79AD8C38280B727C3
:100230000240D847058B75FFD847418B19CFEF1087
:1002400040421645726173696E6720666C6173681F
:10025000206572726F7220210A008280511106C4DB
:100260002AC22EC0453F37250240D1370C491147DD
:1002700093070004D98D0CC90C49DD8D0CC9453F8D
:100280000C491307B0FFF98D0CC9B53FA2401245C8
:10029000824531018280000054030000000000000C
:1002A0000768666C61736821511106C42AC22EC0AA
:1002B000F11480C0EF20A010A28780409104ADC34C
:1002C0009567636FF404228580409104A285804085
:1002D000910493771500A9E7835705003967130741
:1002E0009733639FE702B967938797336385F50276
:1002F0001537353F370700083A95B7270240984B26
:100300001367170098CB2310B500984B1377E7FFBE
:1003100098CB313FCD3DA2401245824531018280CC
:10032000EF1020342A57726F6E6720616464726523
:100330007373206F72206461746120666F7220771E
:10034000726974696E6720666C61736820210A00A7
:100350006F30601E8C0300000000000006666C61B8
:1003600073682100711106C0F11480C0C040C167DC
:10037000FD177D8CF11480C0C0403D3709049C40BE
:10038000C1839CC01537824011018280180400008F
:10039000000000000E666C617368706167656572CD
:1003A00061736500711106C0F11480C0EF20200157
:1003B000A287804091049DCB95676369F402853DD7
:1003C000913DB7270240984B1367270098CB37071A
:1003D00000083A94C0CB80409104984B13670704FF
:1003E00098CBB1350D35824011018280EF10602726
:1003F0002257726F6E672061646472657373206642
:100400006F722065726173696E6720666C617368D4
:1004100020210A006F3020129C0400000000000020
:100420000A6572617365666C617368001565B7056E
:10043000040037E639E3130696331441638EC6028F
:10044000F11480C02A84F11480C0EF10802110457F
:100450007261736520626C6F636B20617420200091
:10046000EF10A039EF10E01F0C2066726F6D204670
:100470006C6173680A003D371105E310B5FCEF109D
:10048000401E1246696E69736865642E205265735A
:10049000657420210A006F40C0400000BC040000C9
:1004A000000000000E6572617365666C61736866BA
:1004B000726F6D0022858040910495BFD0040000CA
:1004C0002004000003737040F11480C026848280F1
:1004D000E40400002004000003737021A284804023
:1004E00091048280F8040000200000000372704034
:1004F000F11480C00A8482800C05000020000000F6
:1005000003727021228180409104828020050000C6
:100510006104000003647570F11480C082800000E3
:1005200034050000610400000464726F70008040B4
:10053000910482804C05000061040000043F647552
:10054000700019C0F11480C08280000064050000B2
:1005500062040000047377617000A28780409CC031
:10056000828000007405000062040000036E697060
:10057000910482808C05000062040000046F76659F
:100580007200F11480C0C04082800000A405000009
:1005900062040000047475636B009C40F114C0C0D9
:1005A0009CC08280BC0500004300000003726F7491
:1005B0009C40D84080C0DCC03A848280D8050000CE
:1005C00043000000042D726F74009C40D84098C016
:1005D000C0C03E8482800000F005000020040000BE
:1005E000047069636B000A04269400408280000056
:1005F0001406000000000000056465707468B70709
:1006000000209387C726858FF11480C013D427401C
:10061000828000003C060000000000000672646555
:1006200070746800B70700209387C746B3872740D8
:10063000F11480C013D427408280000054060000CB
:1006400020000000023E7200711122C0804091041F
:10065000828000006C0600002000000002723E0054
:10066000F11480C002441101828000008006000065
:100670002000000002724000F11480C00244828019
:100680009406000020000000057264726F70110172
:1006900082800000AC060000200000000572706936
:1006A000636B0A040A94004082800000C4060000C4
:1006B0006104000002303D00133414003304804014
:1006C00082800000D80600006104000003303C3E38
:1006D000133414007D148280E806000061040000D9
:1006E00002303C007D84828000070000620400002C
:1006F000023E3D009C40910433A487007D1482801B
:100700001807000062040000023C3D009C40910478
:100710003324F4007D14828030070000620400005E
:10072000013C9C40910433A48700330480408280C4
:100730004807000062040000013E9C4091043324FD
:10074000F4003304804082806007000062040000EF
:1007500003753E3D9C40910433B487007D14828034
:10076000780700006204000003753C3D9C40910442
:100770003334F4007D14828094070000620400008A
:1007800002753C009C40910433B4870033048040E0
:1007900082800000B00700006204000002753E0085
:1007A0009C4091043334F400330480408280000084
:1007B000CC07000062040000023C3E009C40910413
:1007C0003D8C133414007D1482800000E807000083
:1007D00062040000013D9C4091043D8C13341400E0
:1007E00033048040828000000008000062040000A2
:1007F000036D696E9C4091046343F4003E848280E3
:100800001808000062040000036D61789C409104A8
:1008100063C387003E8482803408000062040000C5
:1008200004756D696E009C4091046363F4003E841E
:1008300082800000500800006204000004756D61B1
:1008400078009C40910463E387003E84828000002E
:10085000B008000062060000012B9C4091043E9409
:1008600082803707040013073741B707F4009387E6
:100870003743711106C061113AC23EC09307008030
:100880003377F4006303F70011E752049247210124
:100890005D8C11A8F11480C03D44EF100036F114B6
:1008A00080C002442101824011016F10903F00007E
:1008B000CC08000062060000012D9C4091043384A6
:1008C000874082801344F4FF050461BFF4080000F0
:1008D0006206000003736C749C40910433A487008B
:1008E00082803727040013073741B727F400938726
:1008F000374341B7200900006206000004736C749E
:1009000075009C40910433B487008280373704001F
:1009100013073741B737F4009387374399BF000077
:10092000300900006104000002312D007D14828036
:10093000400900006104000002312B0005048280A0
:10094000500900006104000002322D0079148280F9
:10095000600900006104000002322B00090482805B
:1009600074090000610400000563656C6C2B1104C0
:10097000828000008C09000061040000066E65673B
:100980006174650033048040828000009C0900008F
:10099000610400000373687205808280AC09000066
:1009A000610400000373686C06048280BC090000C7
:1009B0006104000002322A0022948280D0090000E3
:1009C000610400000563656C6C730A04828000009A
:1009D000E00900006104000002322F0005848280DB
:1009E000F809000061040000036162739357F44149
:1009F0003E943D8C82800000100A000061040000DB
:100A0000046576656E00937714003E948280000042
:100A1000300A000081000000046261736500F11477
:100A200080C037040120711482800A000000000099
:100A3000440A0000000000000662696E61727900DD
:100A4000894715A0580A000000000000076465638C
:100A5000696D616CA94701A8700A000000000000E0
:100A600003686578C1473707012071171CC382806E
:100A7000900A0000000000000565696E743FF114E3
:100A800080C0732400302188133414007D148280C8
:100A9000A40A0000200400000465696E74007360FD
:100AA00004308280B80A0000200400000464696EEB
:100AB0007400737004308280CC0A000020040000AF
:100AC000037766697300501082800000FC0A000002
:100AD00000000000086379636C6573363400F1141C
:100AE00080C0F32700C8732400C0732700C8E39AAE
:100AF000E7FEF11480C03E8482800000180B0000E5
:100B000000000000066379636C657300F11480C017
:100B1000732400C082800000300B00000000000041
:100B2000056D69736140F11480C0732410308280B8
:100B30004C0B000000000000076D696D7069644097
:100B4000F11480C0732430F182800000680B000033
:100B500000000000086D6172636869644000F11470
:100B600080C0732420F18280800B00000000000010
:100B7000056D657063217310143480409104828088
:100B8000980B000000000000056D65706340F114D3
:100B900080C0732410348280B40B00000000000079
:100BA000076D636175736540F11480C07324203450
:100BB00082800000D00B000000000000066D7476FB
:100BC000616C4000F11480C07324303482800000D6
:100BD000000C000000000000086D656D6661756C1A
:100BE0007400711106C0EF00D027134D656D6F7250
:100BF0007920616363657373206572726F7261A09F
:100C00004C0C00000000000013756E68616E646C8F
:100C100065642D6E6F6E766563746F72711106C0B8
:100C2000EF00302422556E68616E646C6564204963
:100C30006E7465727275707420286E6F6E2D766595
:100C400063746F72656429003DA80000900C000079
:100C50000000000009756E68616E646C6564711156
:100C600006C0EF0010201E556E68616E646C6564EE
:100C700020496E746572727570742028766563748D
:100C80006F72656429009128824011018280000002
:100C9000680D000000000000056661756C7471113C
:100CA00006C0EF00101C13556E68616E646C6564BD
:100CB00020457863657074696F6E0520F3271034E2
:100CC00003D7070013F737007517890711E3890762
:100CD00073901734824011018280711106C0EF00B9
:100CE000501809206D63617573653A20753DEF00FA
:100CF000D030EF001017066D6570633A2000413D5B
:100D0000EF00B02FEF00F015076D7476616C3A209C
:100D1000553DEF00902EEF00D01402210A008240D2
:100D2000110182803AD63ED442D246D04ACE4ECC31
:100D300052CA56C85AC65EC462C266C083A00000CA
:100D4000E7800000824C124CA24B324BC24A524AFE
:100D5000E249724982581258A2573257C2501301C1
:100D60004103730020300000D00D0000810000001E
:100D7000096972712D6661756C74F11480C0370455
:100D80000120611482809E0C00000100130000000D
:100D90001300000013000000130000001300000007
:100DA00013000000130000001300000013000000F7
:100DB00013000000130000001300000013000000E7
:100DC0001301C1FC06D8B7000120E110A1BF00004B
:100DD000080E0000810000000D6972712D6E6F6EAB
:100DE000766563746F72F11480C03704012051146A
:100DF00082801C0C000001001301C1FC06D8B70062
:100E00000120D11005B70000400E00008100000055
:100E10000E6972712D636F6C6C656374696F6E001F
:100E2000F11480C037040120411482805E0C000060
:100E30001301C1FC06D8B7000120C110E5B50000C0
:100E4000780E0000810000000C6972712D736F66CE
:100E5000747761726500F11480C037040120311489
:100E600082805E0C000001001301C1FC06D8B700AF
:100E70000120B11045BD0000AC0E00008100000053
:100E8000096972712D74696D6572F11480C037043F
:100E90000120211482805E0C000001001301C1FCBE
:100EA00006D8B7000120A110B5BD0000E40E000077
:100EB000810000000C6972712D6D656D6661756C45
:100EC0007400F11480C03704012011148280E20BF9
:100ED000000001001301C1FC06D8B70001209110E9
:100EE00091B50000180F00008100000009697271BF
:100EF0002D6578746930F11480C037040120011425
:100F000082805E0C000001001301C1FC06D8B7000E
:100F10000120811001BD00004C0F00008100000085
:100F2000096972712D6578746931F11480C03704D4
:100F300001201304C4FD82805E0C00001301C1FC7B
:100F400006D8B70001209380C0FDE9BB800F0000E8
:100F500081000000096972712D6578746932F1149D
:100F600080C037040120130484FD82805E0C0000E1
:100F70001301C1FC06D8B7000120938080FD5DB34A
:100F8000B40F000081000000096972712D6578744A
:100F90006933F11480C037040120130444FD8280BA
:100FA0005E0C00001301C1FC06D8B700012093803D
:100FB00040FD8DBBE80F00008100000009697271DF
:100FC0002D6578746934F11480C03704012013044E
:100FD00004FD82805E0C00001301C1FC06D8B7003E
:100FE0000120938000FD3DBB201000008100000027
:100FF0000B6972712D7379737469636BF11480C01E
:10100000370401201304C4FC82805E0C0000010040
:101010001301C1FC06D8B70001209380C0FC19B3AE
:101020005410000081000000076972712D61646333
:10103000F11480C037040120130484FC82805E0C0C
:10104000000001001301C1FC06D8B7000120938005
:1010500080FCC9B9781000008100000009686F6F3A
:101060006B2D656D6974F11480C037040120130481
:1010700044FC8280181200009C10000081000000D7
:1010800008686F6F6B2D6B657900F11480C03704B1
:101090000120130404FC828050120000C4100000E0
:1010A000810000000A686F6F6B2D656D69743F00E9
:1010B000F11480C0370401201304C4FB82808A121B
:1010C00000000000E81000008100000009686F6F58
:1010D0006B2D6B65793FF11480C037040120130438
:1010E00084FB8280C4120000101100008100000007
:1010F0000A686F6F6B2D706175736500F11480C0A5
:1011000037040120130444FB82801C1100000000FE
:101110002011000000000000036E6F70828000004C
:101120003C1100000000000004656D697400B70701
:101130000120938747FC9C436780070058110000FB
:1011400000000000036B6579B7070120938707FC57
:101150009C4367800700000074110000000000003D
:1011600005656D69743FB70701209387C7FB9C43F2
:10117000678007009011000000000000046B657993
:101180003F00B7070120938787FB9C4367800700D8
:101190000412000000000000057061757365B70758
:1011A0000120938747FB9C4367800700B7170240E5
:1011B000E1071167110798C337076000B7170140AF
:1011C000938707812390E70037578448130747FB2D
:1011D000B71701409387478098C3B747014093876B
:1011E00007801307500498C73147D8C7096798CBC1
:1011F000D84789675D8FB747014093870780D8C775
:10120000828000003C120000000000000B73657239
:1012100069616C2D656D6974711106C0BD20A2876E
:1012200080409104E5DFB747014093870780238220
:101230008700804091048240110182807412000076
:10124000000000000A73657269616C2D6B6579009E
:10125000711106C08528A28780409104E5DFF11452
:1012600080C03744014013040480030444008240DA
:1012700011018280B0120000000000000C73657242
:1012800069616C2D656D69743F00711106C0013F85
:10129000F11480C0374401401304048000401374EB
:1012A0000408133414007D14824011018280000070
:1012B000E8120000000000000B73657269616C2D7C
:1012C0006B65793F711106C0D93DF11480C0374478
:1012D000014013040480004013740402133414000A
:1012E0007D1482401101828008130000000000007C
:1012F000057265736574B7F700E0938707D1370708
:10130000008098C36F30E059A41300000000000073
:101310000661636365707400411106C62AC42EC25B
:1013200032C08C40910401460535228580409104ED
:101330009307F0076300F50493070002636DF5005F
:10134000E37486FEF11480C02A84D5332380A5007F
:1013500085050506D1BFA5476315F50013050002F5
:10136000C5B7A9476308F502B5476305F502A1476C
:10137000E31CF5FA55DAF5240308200855D6FD15C7
:101380007D1603C5050093770508D9DF937705041B
:10139000C1FFEDB73284B240224592450246410179
:1013A0007DA20000C01300004000000003746962C9
:1013B000F11480C0370400201304C446828000006A
:1013C000E013000081000000033E696EF11480C04C
:1013D00037040120130404FB828000000000000099
:1013E00010140000820000000E63757272656E7446
:1013F0002D736F7572636500F11480C0370401208E
:10140000130484FA8280000000006C0400200000B5
:10141000381400000000000009736574736F757262
:101420006365B7070120938787FA80C380409104E2
:10143000C0C3804091048280681400000000000056
:1014400006736F757263650071112AC0370501203C
:10145000130585FAF11480C04041F11480C00041A9
:1014600002451101828000009C1400000000000071
:10147000057175657279711106C0893F81471CC07D
:10148000804091043537F11480C0F11480C01304FA
:10149000800C59358240110169B700000C1500001D
:1014A0000000000007636F6D7061726551112AC4FE
:1014B0002EC232C022858C40D0408044B1046305E6
:1014C000C500130400002DA81DC903C6050013376D
:1014D000160411E71337B60519C31306060283472E
:1014E000040013B7170411E713B7B70519C393879F
:1014F0000702E318F6FC7D1585050504F1B77D5458
:1015000022459245024631018280000028150000E4
:101510000000000002637200711106C09922010AE6
:101520008240110182800000401500000000000090
:1015300002626C00F11480C013040002828000007B
:101540005815000000000000057370616365F11418
:1015500080C013040002E1BE8015000000000000FE
:101560000673706163657300711106C06355800076
:10157000F93F7D14E5BF80409104824011018280D3
:101580009415000050000000065B636861725D0006
:1015900009A80000B815000000000000046368619D
:1015A0007200711106C0C1218040910403440400FF
:1015B0008240110182800000CC1500005000000024
:1015C0000128F11480C01304900209A8EC15000052
:1015D00050000000015CF11480C00144711106C08C
:1015E0007929C040A1048240110182801C160000AC
:1015F00030000000022E2200F11480C01704000009
:1016000013046406711106C02927F11480C0130465
:101610002002B521824011016F00500538160000EC
:101620003000000002632200F11480C017040000A3
:101630001304A405C1BF00005416000030000000D0
:1016400002732200F11480C0170400001304240662
:1016500055BF0000781600000000000004282E226C
:101660002900F11480C0068483C700008500BE9065
:1016700093F71000BE9045A09C16000000000000EB
:10168000042863222900F11480C0068483C7000067
:101690008500BE9093F71000BE908280C0160000B7
:1016A00000000000042873222900F11480C0068481
:1016B00083C700008500BE9093F71000BE9075A010
:1016C000081700000000000004286E2229006111A4
:1016D00006C22AC083470400A5CF05043305F400E1
:1016E0008347040013D747002A9703470700BD8BA1
:1016F000AA97E114C0C098C003C407000D3C053C84
:101700000504E31FA4FCA9A02417000000000000AA
:10171000056374797065611106C22AC0034504002F
:10172000050431A85C170000000000000474797003
:101730006500611106C22AC022858040910409C952
:10174000F11480C003440400DD3205047D156DF9F9
:101750008040910492400245210182807817000068
:101760000000000005636F756E740504F11480C0FD
:101770000344F4FF828000009C170000000000007A
:101780000A736B6970737472696E67008347040033
:1017900005043E94937714003E948280EC17000079
:1017A0000000000006726973632D7600711106C097
:1017B0004D3D324D6563726973702D5175696E745C
:1017C000757320312E312E3120666F7220524953AD
:1017D000432D56206279204D6174746869617320CD
:1017E0004B6F63680A008240110182803818000044
:1017F00000000000046865782E00411106C62AC466
:101800002EC232C022858040910493050002F1145B
:1018100080C01354C5013D8829466363C4001D047C
:101820001304040329321205F115F5F1B2402245E3
:1018300092450246410121BBAC18000000000000A7
:10184000032E7273511106C42AC22EC0193D0F52C5
:10185000657475726E737461636B3A205B20B707B1
:1018600000209387C746B387274063C8070293D5F4
:1018700027008505F11480C02E844137DD33025DD9
:10188000200081CD370500201305C546F11480C026
:101890000041A5377115FD15F5F9E13304202A3E05
:1018A0000A00A24012458245310182803C190000A5
:1018B0000000000005776F726473711106C0553324
:1018C000010AEF102001713B094164647265737372
:1018D0003A20F11480C015376933064C696E6B3AB3
:1018E0002000F11480C00040093FA53B07466C6111
:1018F00067733A20F11480C0404001379D3306439E
:101900006F64653A2000F11480C021044135F5353B
:10191000893B064E616D653A2000F11480C02104B8
:10192000DD3B8133010AEF00707EA2878040910485
:10193000D9DB804091048240110182807C19000033
:101940000000000006756E7573656400711106C0B5
:10195000EF007022EF003043A2878040910481E7BE
:10196000B707040031A0EF005023A2878040910404
:101970003384874082401101828000009419000066
:101980000000000003682E7397070000938727E785
:1019900005A80000AC19000000000000022E730032
:1019A000972700009387E70821A80000581A000035
:1019B0000000000003752E739727000093874706E9
:1019C000311106C82AC62EC432C236C03E855139EE
:1019D00009537461636B3A205B203707012071174C
:1019E0001443A9471CC3B70500209385C526858DE0
:1019F00063CE05028981F11480C02E84EF2020037C
:101A00008D31025D200037070120711714C363CFA9
:101A1000050089CD3706002013068626F11480C004
:101A20000042E70005007116FD15EDF91D3906208D
:101A3000544F533A2000F11480C02284E70005007F
:101A40000D3104202A3E0A00C2403245A24512460A
:101A50008246510182800000701A000000000000E0
:101A600005746F6B656EF11480C01304000201A849
:101A7000481B000000000000057061727365411191
:101A800006C62AC42EC232C0C132A2858840C040D8
:101A9000A1042D3A1040804091043307C5009307FC
:101AA0000002631EF400638AC502B307C50083C742
:101AB00007006396870005063307C500EDB7638E00
:101AC000C500B307C50083C707000506E39987FE75
:101AD0003304C500198C7D1421A03304C500198C72
:101AE000F11498C0E53010C080409104B240224506
:101AF0009245024641018280611106C22AC02285B8
:101B000080409104856793870780E18F99C385673B
:101B10003E94F11480C0FD777D8C1364747BF114C6
:101B200080C02A84EF0050105204B78707009387C3
:101B300077465D8CF11480C02A84110492400245DE
:101B400021016F00700E0000881B000020000000C3
:101B500005646F65733EF11480C0B7270000678489
:101B600047B68280711106C0F11480C0370400208E
:101B7000710400402104937724003E94B53FDD2D8D
:101B80001101824011018280B81B0000000000009A
:101B9000073C6275696C6473711106C0EF00B02E6A
:101BA0004D29892AEF00F005F11480C02144EF008F
:101BB0005011824011018280E01B000000000000F3
:101BC0000663726561746500711106C0F137F11426
:101BD00080C0B7270000678447B682401101828029
:101BE000D01C000000000000107265676973746506
:101BF000726C69746572616C2C0019E06F107076FC
:101C0000611106C22AC0228580409104930700809A
:101C10003377F4006303F70021E381573377F4004F
:101C20006303F70005E39377F4018A071357F40180
:101C30003207116405045D8C598C1E05498CEF0038
:101C4000300259A052049167CD0713177500D98F40
:101C50005D8CEF0010058DA8856793870780E18F65
:101C600099C3FD773D8C89476307F5028177337708
:101C7000F4006303F70005E3F11480C0298485674D
:101C80009387C7077D8C996785075D8C131775004F
:101C9000598CF92719A8F11480C0FD777D8C136445
:101CA000740313177500598CED2F520401E4804022
:101CB000910419A89167CD0713177500D98F1317D1
:101CC000F500D98F5D8CF12F924002452101828071
:101CD000041D000000000000086C69746572616CEE
:101CE0002C00711106C03920F11480C021448240BB
:101CF000110121B7F11480C017F4FFFF130404820F
:101D000061A80000881D0000000000000563616CF0
:101D10006C2C711106C0F11480C0B12DEFE0FFB939
:101D2000EF106016A2878040910481CB91048967EF
:101D300085075D8C8240110125A7EF108008A287DE
:101D40008040910481CB91049307F00E5D8C82401A
:101D5000110181AF80409104856793870780E18FEF
:101D600099C385673E94F11480C0FD777D8C136420
:101D7000747B052F5204B78707009387770E5D8C1D
:101D80008240110139AF0000201E00000000000059
:101D900007696E6C696E652C711106C0835704006B
:101DA0000567130717176399E70083572400316706
:101DB00019076393E70011048357040011671307A1
:101DC0002708639FE70083572400130710116399C6
:101DD000E70083574400216713072708638DE70254
:101DE000835704002167130727086386E702835798
:101DF000040013F7370075176318E000F11480C072
:101E000003540400B12D0904F11480C003540400EC
:101E1000812D090461B780409104824011018280C4
:101E20005C1E0000000000000E736B697064656644
:101E3000696E6974696F6E008357040013F7370089
:101E400075176309E00009042167130727086385F4
:101E5000E700DDB71104CDB782800000D01E00007E
:101E60000000000007737472696E672C311106C898
:101E70002AC62EC432C236C01375F40F8C409104AA
:101E8000A920152009C9F11480C003C40500212828
:101E90007D158505C5BF0D20C2403245A2451246BD
:101EA0008246510182803314C400C18E8040910467
:101EB0002106C147631DF60009CA711106C0F1145D
:101EC00080C03684712B8240110101468146828098
:101ED000E01E000050000000035B275D39A00000F9
:101EE0001C1F0000000000000127511106C42AC277
:101EF0002EC0953E8840A285EF00B026A287804084
:101F0000910419E4F11480C088C02E846F10E04C55
:101F1000A24012458245310182800000641F00000A
:101F20003000000008706F7374706F6E650071117F
:101F300006C0653F13F707011DE313F7070209CB3E
:101F40004D33F11480C017040000130424E501A8E8
:101F5000493BF11480C0170400001304C4DB824025
:101F6000110145BB8C1F000030000000046578693A
:101F70007400711106C0F11480C0374411011304BC
:101F8000240805238240110109A80000A81F0000B1
:101F900000000000047265742C00F11480C02164FC
:101FA0001304240875A90000C81F000030000000B9
:101FB0000772656375727365F11480C03704002081
:101FC00071040040B9B30000E81F00008100000068
:101FD000057374617465F11480C037040120130423
:101FE00044FA828000000000082000008100000008
:101FF000042873702900F11480C0370401201304F1
:1020000004FA828000000000182000000000000098
:10201000015DFD5701A80000302000001000000005
:10202000015B814737070120130747FA1CC38280F1
:102030006020000000000000013A711106C037075F
:102040000120130707FA04C33D2D82401101854783
:10205000D1BFF11480C0371406C01304141791A126
:10206000B820000030040000013B711106C03707A2
:102070000120130707FA1C4363819702EFF06FDE1C
:102080001520537461636B206E6F742062616C6104
:102090006E6365642E0A6F10004A3707012013072C
:1020A00047FA184385476314F700C53D11A0D135A1
:1020B000D12282401101B5B7D420000000000000F9
:1020C0000765786563757465A287804091046780B1
:1020D00007000000EC2000001000000009696D6D91
:1020E000656469617465C14735A200000421000080
:1020F0005000000006696E6C696E6500930700026F
:1021000011AA00001C21000050000000076E6F663D
:1021100072616D6593070040F5A80000382100004A
:10212000100000000B636F6D70696C656F6E6C79E9
:1021300093070003C5A000005421000050000000D8
:102140000A302D666F6C6461626C65009307000451
:10215000D1A0000070210000500000000A312D665F
:102160006F6C6461626C65009307100465A00000E9
:102170008C210000500000000A322D666F6C6461F3
:10218000626C65009307200471A00000A821000084
:10219000500000000A332D666F6C6461626C65004C
:1021A0009307300485A80000C421000050000000FF
:1021B0000A342D666F6C6461626C6500930740049D
:1021C00091A80000E0210000500000000A352D66B3
:1021D0006F6C6461626C65009307500425A8000071
:1021E000FC210000500000000A362D666F6C64610F
:1021F000626C65009307600431A800001C22000097
:10220000500000000A372D666F6C6461626C6500D7
:1022100093077004F11480C03E84E1A040220000C6
:102220000000000008636F6E7374616E74007111BA
:1022300006C091297D349533113F824011011DA8BC
:1022400064220000000000000932636F6E73746145
:102250006E74711106C00529A28780409CC051345C
:10226000D1BF0000D02200000000000006736D7591
:1022700064676500711106C069223126A28780401B
:102280009104B9E3CD288327C4FF37E739E3130767
:102290009733804091046396E700F11480C00144B5
:1022A0000924F11480C03704002013040402004004
:1022B000F11480C037040020210400401104EFE035
:1022C0006F8A824011018280F11480C0014405A808
:1022D000482300000000000008736574666C6167A5
:1022E00073003757EA051307E71D631887001724A3
:1022F00000001304846B6FF08FBD711106C0612460
:10230000A2878040910489EF370700201307070256
:102310001C43C18F1CC38040910482401101828004
:1023200037070020210718435C4371112AC07D55EF
:102330006393A700A287C18F024511015CC380404F
:102340009104824011018280682300004100000056
:1023500007616C69676E6564937714003E949377A8
:1023600024003E94828000008423000000000000CE
:10237000046865726500F11480C0370400200040D5
:1023800082800000A8230000000000000D666C6140
:1023900073687661722D68657265F11480C03704C8
:1023A0000020410400408280C8230000000000009B
:1023B0000C61646472696E666C6173683F0001470A
:1023C000B707040005A00000F4230000000000008F
:1023D0000A61646472696E72616D3F0037070020A4
:1023E000B70701206366E4006374F4007D548280C3
:1023F00001448280542400000000000005616C69E3
:10240000676E711106C0853F937714003E943707BD
:10241000002000C3098801C40544992019A0804008
:102420009104824011018280711106C09C40E11428
:10243000C0C09CC01928A28780409CC04180A28750
:1024400080409CC0090482401101711106C0F11442
:1024500080C005A0982400000000000002682C0045
:10246000711106C0093FF11480C0F11480C0094405
:102470008928B137A2878040910481C7EFD0DFE27D
:1024800001A8A28780409104239087008040910496
:102490008240110182800000B4240000000000008E
:1024A000012C711106C0F11480C05D3F4180824053
:1024B00011017DB7342500000000000005616C6C3F
:1024C0006F74611106C22AC022858040910465287C
:1024D000A287804091049DE3370700201C43AA9700
:1024E0003705040063EEA702EFF0AF970B466C616F
:1024F00073682066756C6C0A6F10E003793D3707CE
:1025000000201C43AA9763EB8700EFF08F950952D8
:10251000616D2066756C6C0A6F10E001804091045B
:102520001CC39240024521018280F11480C01144F5
:1025300049BF0000702500000000000009666F72AE
:1025400067657472616D711106C0952037070020B0
:10255000B7070020938747531CC337070020210784
:1025600097E7FFFF938707C81CC382401101828051
:1025700098250000000000000D636F6D70696C65A8
:10258000746F72616D3F711106C0F5330D3D1344D8
:10259000F4FF82401101828010260000000000003C
:1025A0000C636F6D70696C65746F72616D00711191
:1025B00006C0D13FA28780409104B5EF37070020C5
:1025C0005C43184B63E6E702EFF0AF8923205661C6
:1025D000726961626C657320636F6C6C69646520FD
:1025E000776974682064696374696F6E6172790ACF
:1025F000F11480C03704002018405C4058C01CC053
:1026000018445C4458C41CC401448240110155BDA7
:102610003C260000000000000E636F6D70696C6561
:10262000746F666C61736800711106C0A93FA28760
:1026300080409104D5FF8240110182805C26000019
:102640004000000008286C61746573742900F1145F
:1026500080C037040020210482800000742600001E
:1026600040000000042864702900F11480C0370481
:102670000020828078270000000000000828637294
:10268000656174652900711106C0EFF0CFBD05E0EA
:10269000EFE03FFD1520437265617465206E65654E
:1026A0006473206E616D6520210A6F00D0689C40C4
:1026B000E114C0C09CC0752480409104A287804072
:1026C000910495C39C40E114C0C09CC0EFE07FF929
:1026D000095265646566696E6520EFF08F85EFE0ED
:1026E0005FF8022E2000313B793DA28780409104A3
:1026F000B1E7370700201307070281471CC3A5393C
:10270000F11480C02144753BEFD03FECEFF00FF6A1
:102710003705002021050C419041B7E639E3938647
:1027200096336319D600F11480C0F11480C02E8452
:10273000EFD05FC300C1804091042DA02D39F1146A
:1027400080C03704002021040040A13B370700204F
:10275000210700C380409104F11480C07D5491335F
:10276000EFF0CFF0093937070020710700C3804030
:102770009104824011018280942700000000000033
:10278000087661726961626C6500F11480C005446D
:102790000DA80000B027000000000000093276619B
:1027A000726961626C65F11480C0094419A8000067
:1027B0000428000000000000096E76617269616201
:1027C0006C65511106C42AC22EC0753D6D3BA287AF
:1027D00080409104D5E33D88711122C00A04852010
:1027E000EFF0AFFB22858040910411C580C19105B7
:1027F0004D39711565FDF11480C002441101136457
:10280000040825A8BC2800000000000007627566C7
:102810006665723A511106C42AC22EC0353EA535EE
:102820009D33A28780409104ADE31128EFF0EFF6CD
:102830008D39F11480C0130400146534B1A8370534
:10284000002041050C41818D3707002013074753B5
:1028500063DEE500EFE0FFE00F4E6F7420656E6F02
:102860007567682052414D0A6F00F04C0CC1F1149D
:1028700080C02E846FF0EFC62D2022858040910409
:1028800019C505317D1575FD19A021281D39F114D3
:1028900080C013040008B134A240124582453101C2
:1028A000D1BA711106C0B13EEFF0CFC4F11480C0AF
:1028B00021641304744682401101E5B6F428000037
:1028C000000000000F64696374696F6E6172797350
:1028D00074617274711106C07D318240110111E47E
:1028E00017E4FFFF130404908280370400202104C2
:1028F0000040828030290000000000000E646963FF
:1029000074696F6E6172796E65787400B7E739E348
:10291000938797331840E382E714930790030347A4
:102920008700E38CE7120040F11480C001448280EC
:10293000542900008100000009686F6F6B2D6669E3
:102940006E64F11480C0370401201304C4F982803E
:102950008029000070290000000000000466696EF4
:102960006400B70701209387C7F99C43678007007D
:10297000142A000000000000062866696E64290021
:10298000411106C62AC42EC232C0814501466111DA
:1029900022C0804022C2C040A1042D3F4840FD57C4
:1029A0006389A704B7E739E3938797336383A70461
:1029B000F11480C02104EFE05FDBE114C0C01244D9
:1029C00080C00244EFE09FAEA2878040910495C38F
:1029D000F11480C02104EFE07FDBA28580409104E8
:1029E0002A86F11480C02E84D93AA28780409104AF
:1029F00091C7293FA28780409104CDD32E84F11442
:102A000080C032842101B2402245924502464101F4
:102A100082800000282A000020000000016BF114D1
:102A200080C02244828000003C2A00002000000078
:102A3000016AF11480C0024482800000502A000024
:102A4000200000000169F11480C00E848280000023
:102A5000B82A000030000000056C656176655111F0
:102A600006C42AC22EC03705002061050C41268706
:102A7000F1141C43232EF7FE1107E31CB7FE268733
:102A8000F1141C43232EF7FE1107E31CB7FEE530BB
:102A9000693C228780409104F11598C1F115954752
:102AA0009CC10CC183A7C5FF850723AEF5FEA240DC
:102AB0001245824531018280D02A000020000000AA
:102AC0000428646F2900611112C20EC082800000C8
:102AD000E82A00002000000006756E6C6F6F700021
:102AE00082411242210182804C2B00003000000004
:102AF000052B6C6F6F708D47631DF4468040910409
:102B0000611106C22AC0F11480C01704000013042A
:102B10006401EFF00FA037850700130535068DA07F
:102B2000634C040033874140A29180409104B387F5
:102B30004140B3B7E700828033874140A291804093
:102B40009104B3874140B337F7008280C02B000067
:102B500030000000046C6F6F70008D47631BF44001
:102B600080409104611106C22AC0F11480C03784EC
:102B70001100130434193532379541001305350619
:102B8000EFF06FFFEFD07FD3012C498C193A2285EB
:102B90008040910401C5512E7D15EDBFF11480C018
:102BA00017040000130404F4EFF00F9F3707002010
:102BB000610700C380409104924002452101828058
:102BC000182C00003000000002646F00711106C074
:102BD0001D20370700206107F11480C00043F11465
:102BE00080C0014404C3EFF00FF9F11480C00D441C
:102BF000824011018280F11480C017040000130488
:102C0000C4006FF06F99611112C20EC0A28103A2BD
:102C10000400C040A1048280602C0000300000004D
:102C2000033F646F711106C0F937F11480C0378417
:102C300041401304347BB530370700206107F1149D
:102C400080C00043EFF02FF3CD30F11480C0094471
:102C5000F11480C0054437070020610704C361B741
:102C60007C2C000030000000046361736500F114E7
:102C700080C00144F11480C021448280A42C000053
:102C800030000000033F6F66A1476314F42E8040BC
:102C90009104711106C0711122C080409104392E37
:102CA00089A00000082D000030000000026F6600BF
:102CB000A1476310F42C80409104711106C071117A
:102CC00022C080409104F11480C017040000130456
:102CD0000403EFF06F8CEFF00FEA8138F11480C03D
:102CE00009442D24F11480C0024411010504F1149B
:102CF00080C02544824011018280A28780409104D7
:102D0000818F93B717008280442D000030000000AF
:102D100005656E646F66A547631DF42480409104C9
:102D2000711106C0711122C0804091048D2CF114E4
:102D300080C002441101F11480C02144824011017D
:102D400082800000AC2D00003000000007656E643A
:102D500063617365A147631EF42080409104611193
:102D600006C22AC02285804091044D2201C5752AE1
:102D70007D15EDBF9240024521018280EFE07F8EFC
:102D80000D4A756D7020746F6F206661720A65A7B9
:102D9000711106C03D2021A0711106C0A928A2878B
:102DA00080409104E1DF824011018280E02D00002B
:102DB000410000000C756A2D656E636F64696E6773
:102DC0003F00B707F8FF3377F4006304F70063129E
:102DD000074A711106C02D2882401101BDA90000CB
:102DE000702E0000410000000C73622D656E636F51
:102DF00064696E673F00FD773377F4006304F70082
:102E000063190746711106C0252882401101B1A13E
:102E10009357C40093F7F70F1397C7009357B40065
:102E2000858BD2075D8F9357140093F7F73FD60732
:102E30005D8F93574401858BFE073364F7008280D2
:102E40009357B400858B1397770093571400BD8B6D
:102E5000A2075D8F9357540093F7F703E6075D8F42
:102E60009357C400858BFE073364F700828000000F
:102E70001C2F0000410000000C636A2D656E636F1B
:102E800064696E673F00930700803377F400630442
:102E9000F7006310073E711106C021208240110126
:102EA0006DAE93575400858B1397270093571400EA
:102EB0009D8B8E075D8F93577400858B9A075D8F6E
:102EC00093576400858B9E075D8F9357A400858B75
:102ED000A2075D8F935784008D8BA6075D8F935754
:102EE0004400858BAE075D8F9357B400858BB20786
:102EF0003364F7008280711106C0F11480C0216430
:102F00001304247AEFF0CFD582401101F11480C070
:102F100017D4FFFF1304E4616FE01FE8902F000057
:102F200030000000047468656E00711106C0A2874D
:102F3000804091041547639AE700EFF0CFC39C40AF
:102F40001D8CB9351364F40631A809476393E70271
:102F5000EFF06FC29C401D8C8135B78707009387C7
:102F600037065D8CA28780409CC0824011016FF0C3
:102F7000AFCBEFE00FEF1753747275637475726522
:102F80007320646F6E2774206D617463680A65A393
:102F9000B02F00003000000004656C7365007111F3
:102FA00006C03528EF00303D82401101BDBF000052
:102FB000D02F00003000000002696600711106C0C9
:102FC0001D3FEFF04FBBF11480C0094405A0000085
:102FD000F82F000030000000056168656164711120
:102FE00006C0EFF04FB9F11480C01544EFF0EFD3F5
:102FF0008240110182800000143000003000000087
:103000000672657065617400711106C0AD20824062
:10301000110121BF303000003000000005776869E1
:103020006C65711106C0593F824011016F00B034C8
:10303000683000003000000005756E74696C711115
:1030400006C0A287804091040547E394E7F2653506
:10305000EFF06FB2EFD07F868133B7870700938799
:1030600037065D8C05A800009C3000003000000091
:1030700005616761696E711106C0A2878040910485
:103080000547E398E7EEEFF00FAFEFD01F8309336A
:103090001364F406824011016FF0AFC0C03000002D
:1030A0003000000005626567696E711106C0EFF0BF
:1030B0008FACF11480C00544824011018280000071
:1030C000E83000006206000003616E649C409104D9
:1030D0007D8C82803777040013073741B777F4007F
:1030E000938737436FD0EFF8083100006206000085
:1030F000036269639C4091041344F4FF7D8C8280D9
:103100001344F4FFC1BF000030310000620600002C
:10311000026F72009C4091045D8C828037670400CE
:1031200013073741B767F400938737436FD06FF4C5
:10313000583100006206000003786F729C409104D1
:103140003D8C82803747040013073741B747F400AE
:10315000938737436FD0EFF17C31000041000000CE
:1031600003636C7A9307000219C481476345040026
:1031700006048507E5BF3E8482800000943100008C
:103180006104000003726F729317F40105805D8C77
:1031900082800000AC3100006104000003726F6C9B
:1031A0009357F40106045D8C82800000D03100004A
:1031B0006206000007617273686966749C4091043E
:1031C00033D487408280B757044093873741A1A00A
:1031D000F4310000620600000672736869667400CC
:1031E0009C40910433D487008280B75704009387B2
:1031F000374115A02032000062060000066C73689B
:10320000696674009C409104339487008280B717EC
:103210000400938737417D8852045D8C6FF06FA85E
:103220003432000061040000036E6F741344F4FF35
:10323000828000004C3200006104000006696E7656
:10324000657274001344F4FF828000006432000051
:1032500060040000047472756500F11480C07D5430
:10326000828000007C320000600400000566616C12
:103270007365F11480C0014482800000E0320000D8
:1032800000000000086576616C756174650071115D
:1032900006C0EFE06F9BA2879840C040A104611177
:1032A0003AC23EC037070120130707FB1C437111C8
:1032B0003EC081471CC3EFE0CF9695203707012021
:1032C000130707FB824711011CC3824712472101E4
:1032D000E114C0C098C03E84824011016FE06F9439
:1032E0000C330000810000000E686F6F6B2D696E5B
:1032F0007465727072657400F11480C03704012027
:10330000130484F982804033000000002C33000055
:103310000000000009696E74657270726574B70709
:103320000120938787F99C436780070004350000DC
:10333000000000000B28696E746572707265742954
:10334000711106C0370500201305C526637E950060
:10335000EFE02FB110537461636B20756E6465727A
:10336000666C6F770A00C1AA370500201305C506F1
:10337000636D9500EFE0EFAE0F537461636B206FE8
:10338000766572666C6F770A7DA237070020510759
:103390008323070063950300A68323207700EFE0D3
:1033A0008FEC11E4C040A1048240110182809C4056
:1033B000E114C0C09CC0EFF0CFDAA2859040C040BD
:1033C000A10405EA8840A285812C228680409104D0
:1033D00035FAE114C0C088C02E84EFE08FB5EFE06D
:1033E0004FA80C206E6F7420666F756E642E0A00F5
:1033F00099A2B7060120938646FA9442A1E63707C0
:103400000020510781432320770093070003B3F680
:10341000F5006391F602EFE0CFB1EFE08FA4122048
:10342000697320636F6D70696C652D6F6E6C792E9A
:103430000A0011A2C040A104F11480C03284EFE060
:10344000BFC809B7C040A10413F5050819E9B38640
:103450009340898213F5050419C913F5F50063E853
:10346000A600F11480C03284EFE01FC6E1BD13B5A1
:103470001600631DA00013F5052009C9F11480C0D2
:103480003284EFE07F9BEFE03FC46DBD91203707B2
:103490000120130747FA184385476319F70013F70C
:1034A000054009E7EFE0FFBAEFE0BFB6F11480C0D6
:1034B000328413F6050101C6EFE01FC161B513F6B2
:1034C000050201C6EFE05F8DB5BDEFE09F849DBDB5
:1034D000711106C091CEFD16F11480C03684EFD074
:1034E0008F90EFE01F80E5FA9384C3FF8040910442
:1034F00037070020510781432320770082401101C4
:1035000082800000283500008100000009686F6F8C
:103510006B2D71756974F11480C037040120130498
:1035200044F98280A03500009035000000000000C2
:10353000047175697400370100201301C146B70496
:1035400000209384C426370701207117A9471CC3A4
:1035500037070120130747FA81471CC337070020AC
:1035600051071CC337070120130707FB1CC337078C
:103570000120130787FA1CC3B70700209387C746AB
:103580005CC3B7070120938747F99C436780070016
:10359000B435000000000000062871756974290028
:1035A000EFD07FEDAD3BEFE0CF8B05206F6B2E0AA8
:1035B000C5BF000008360000000000000564696710
:1035C0006974130404FD63640402A9476363F4028D
:1035D0006514636EF40093074002636CF4000114F9
:1035E000A9476366F400930740026364F400014452
:1035F0008280B7070120F1179C43E37AF4FEF114AF
:1036000080C07D5482800000A837000000000000C8
:10361000066E756D62657200111106CC16CA1AC865
:103620002AC62EC432C236C0B7070120F1179C4308
:1036300071113EC0A28580409104228505448546D3
:10364000814201438D47639FF50093077002034752
:1036500005006319F700034725006315F70083424F
:1036600015007DA0D5C5034605000505FD1593078A
:10367000D0026314F600FD56F5B7930730026318C5
:10368000F600A9473706012071161CC2E1BF930757
:1036900040026318F600C1473706012071161CC2AC
:1036A000D1B7930750026318F60089473706012007
:1036B00071161CC245BF9307E0026314F60009446B
:1036C00055B79307C002630CF608F11480C032842A
:1036D000CD3DA28780409104BDC3E114C0C023A0AA
:1036E00054001A84F11480C0370401207114004082
:1036F000F11480C00144D925EFC09FEBF11480C0C4
:103700000144AD2D228383A20400C040A10499BFCF
:10371000634DD000E114C0C023A054001A842925B1
:10372000228383A20400C040A104F11423A054000A
:1037300085476305F400F11423A0640011A001443F
:10374000824711013707012071171CC3E240D242A2
:1037500042433245A2451246824671018280168359
:1037600081420944D5D5FD15B307B50003C607004E
:103770009307E002E308F6FEF11480C0328491352D
:10378000A28780409104C5DFF11423A05400F114F6
:1037900080C03704012071140040EF007005A28240
:1037A000C040A104C1B70000D837000000000000ED
:1037B000062E646967697400A9476375F4001304F1
:1037C00004038280930740026375F40013047403BA
:1037D00082801304300282802C3800000000000038
:1037E00004686F6C640071112AC03705002013054E
:1037F000450203470500930770046374F702050749
:103800002300E5003A958547630BF7007D15834754
:103810000500A300F5007D178547E319F7FE230097
:1038200085008040910402451101828068380000C3
:103830000000000005686F6C643C71112AC03705F8
:1038400000201305450203470500930770046378C1
:10385000F70005072300E5003A9523008500804026
:1038600091040245110182808838000000000000A8
:10387000047369676E006345040080409104828090
:103880001304D0028DB70000A8380000000000002B
:1038900002233E00B70700209387470203C40700B6
:1038A00085079CC082800000CC380000000000002A
:1038B00003662353611106C22AC01305000229289A
:1038C0007D1575FD9240024521018280F43800008B
:1038D0000000000002662300711106C0F11480C0D0
:1038E0003704012071140040512AF935824011013A
:1038F000A9B70000143900000000000002235300A3
:10390000711106C029287DFC9C40EDFF8240110109
:103910008280000044390000000000000123711182
:1039200006C0F11480C03704012071140040F11466
:1039300080C001440527812480409104B53D824028
:10394000110155B56039000000000000023C230061
:10395000370700201307470281472300F7008280C2
:10396000783900000000000002662E00F11480C0CB
:103970001304000201A80000C83900000000000084
:1039800003662E6E611106C22AC022858040910412
:10399000EFC0BFC0BD2EF11480C00144553F8D372C
:1039A000804091041304C002493D01C535377D159F
:1039B00075FD0245110180409104753DF11480C0F0
:1039C000F11480C035A80000E039000000000000BC
:1039D0000375642E711106C0A53F1D3715A00000A8
:1039E000103A00000000000002642E00711106C0B1
:1039F000EFC0BFBA392EA93F2137EFC07FBBA53D2D
:103A0000513DEFD01FD3824011016FD05FB4000051
:103A1000243A00000000000002752E00F11480C05E
:103A200001444DBF383A000000000000012EF1149F
:103A300080C07D8465BF0000703A0000620600000F
:103A4000012A9C409104338487028280B707F402E4
:103A500093873743711106C0F1149CC0F11480C0E4
:103A60003D44EFE08F99824011016FE09FA3000079
:103A70008C3A00006204000003756D2A9C40338775
:103A8000870298C033B4870282800000A83A000001
:103A900062040000026D2A009C403387870298C0B0
:103AA0003394870282800000C43A00006204000060
:103AB000066D756C687375009C40910433A4870291
:103AC00082800000E43A000062060000012F9C4062
:103AD000910433C487028280B747F4029387374347
:103AE00095BF0000043B000062060000036D6F6498
:103AF0009C40910433E487028280B767F402938785
:103B0000374389BF203B00006204000005752F6D1C
:103B10006F649C4033F7870298C033D48702828059
:103B20003C3B000062040000042F6D6F64009C4069
:103B300033E7870298C033C487028280543B000079
:103B4000620400000432647570009C40E114C0C03F
:103B50009CC08280683B00006204000005326472F1
:103B60006F70C040A1048280883B000044000000C8
:103B7000053273776170A287C040DCC09C409844D6
:103B80009CC498C082800000A03B0000620400003A
:103B900004326E6970009C40A1049CC082800000C9
:103BA000BC3B00004400000005326F766572E114F2
:103BB000C0C09C489CC0C04482800000E03B000024
:103BC0004400000005327475636B98409C44E11416
:103BD00098C098C8D844D8C09CC4C0C48280000093
:103BE000043C0000460000000432726F74009C40E8
:103BF00098449CC49C4898C89CC0D840C0C0C0444D
:103C0000D8C48280283C00004600000005322D7296
:103C10006F7498409C4898C8984498C09CC4D844F5
:103C2000C0C4C040D8C08280443C000020000000D6
:103C300003323E72611122C0804022C2C040A10402
:103C400082800000603C0000200000000332723ED1
:103C5000E114C0C0124480C00244210182800000EF
:103C6000783C00002000000003327240E114C0C024
:103C7000124480C0024482808C3C0000200000007E
:103C800006327264726F700021018280A83C0000CD
:103C9000420000000364322F9C401317F401058496
:103CA0008583D98F9CC08280C43C00004200000004
:103CB0000364322A9C4013D7F701BE972294598C93
:103CC0009CC08280E43C00004200000004647368F1
:103CD00072009C401317F40105808583D98F9CC026
:103CE00082800000043D000042000000046473680C
:103CF0006C009C4013D7F701BE972294598C9CC04E
:103D000082800000183D00004200000004646162EF
:103D10007300634B04008280403D000042000000BD
:103D200007646E65676174659C4093C7F7FF134431
:103D3000F4FF1387170098C0B337F7003E948280D2
:103D4000703D00004400000002642D0071112AC083
:103D50009C4498403385E74088C433B5E700DC4095
:103D600033848740098CA104024511018280000040
:103D70009C3D00004400000002642B0071112AC029
:103D80009C4498403385E70088C43335F500DC4017
:103D90003E942A94A104024511018280B03D0000A6
:103DA0004100000003733E64F11480C07D84828072
:103DB000CC3D0000440000000375642A711106C068
:103DC0002928C040A104824011018280303F0000B8
:103DD000440000000475646D2A00011106CE16CC63
:103DE0001ACA1EC82AC62EC432C236C0F11480C0F8
:103DF000C040F11480C080485131A2858840C04045
:103E0000A104F11480C08040F11480C0C044BD31D1
:103E1000A2869040C040A104F11480C08040F114FB
:103E200080C08048A1398147B302860033B3C20005
:103E30003386F200B3335600B3677300B3820600D3
:103E400033B3D200B386F200B3B35600B367730046
:103E5000804091048147B382850033B3B200B385BB
:103E6000F200B3B35500B3677300B302060033B377
:103E7000C2003386F200B3335600B3677300B382D7
:103E8000060033B3D200B386F200B3B35600B36773
:103E9000730080409104F11480C0C040F11480C0D0
:103EA000C044E93E8147B302860033B3C200338683
:103EB000F200B3335600B3677300B382060033B326
:103EC000D200B386F200B3B35600B36773008040EC
:103ED00091048147B382850033B3B200B385F20009
:103EE000B3B35500B3677300B302060033B3C20027
:103EF0003386F200B3335600B3677300B382060013
:103F000033B3D200B386F200B3B35600B367730085
:103F100080409104368490C0CCC088C4F240E24214
:103F20005243C2433245A245124682460561828011
:103F30005C3F000043000000022A2F00711106C000
:103F4000711122C080409104813EF11480C002446E
:103F50001101D1209104824011018280883F00002C
:103F600043000000052A2F6D6F64711106C07111A6
:103F700022C0804091040D36F11480C0024411012A
:103F80008240110149A80000B43F00004300000036
:103F900003752A2F711106C0711122C0804091044F
:103FA000F13CF11480C00244110199209104824037
:103FB00011018280E03F00004300000006752A2FB7
:103FC0006D6F6400711106C0711122C080409104B0
:103FD0007534F11480C0024411018240110109A816
:103FE000084000004300000006756D2F6D6F6400EF
:103FF000711106C0F11480C00144A92880409104C9
:10400000910482401101828044400000430000007E
:10401000056D2F6D6F64711106C0F11480C07D8431
:10402000CD20804091049104824011018280411191
:104030002AC62EC432C236C08146D0408C440145C7
:104040001DA00000F4400000440000000675642F2D
:104050006D6F640041112AC62EC432C236C081463B
:104060000146CC40884431110EC812C616C41AC28B
:104070001EC0228283A10400130400048606935705
:10408000F601DD8E060693D7F5015D8E8605935702
:10409000F501DD8D06056366D20063EA46026368BA
:1040A00036028147B3023640333336003386F2405E
:1040B000B3B3F200B3677300B382464033B3460034
:1040C000B386F240B3B3F200B367730005057D1405
:1040D00055F42E8488C0D4C090C4C2413242A2425A
:1040E0001243824351013245A245124682464101A4
:1040F000828000004C4100004400000005642F6DE8
:104100006F64711106C0635304023939AD34635AC8
:10411000040019398D343D3FB93C393182401101D9
:1041200099BC913C053F82401101FDBEA934635BFF
:104130000400DD3E8934393FC53E353CF5368240CA
:10414000110115BC0D3C8240110129B764410000EA
:104150004400000002642F00711106C05D378240E8
:10416000110115BCB04100004400000002662A00A5
:10417000711106C063500402453EF53A63500402D3
:104180006536A139804091049C4091049CC08240D6
:1041900011018280CD32E35604FE79363D398040EC
:1041A00091049C4091049CC082401101B5BE000066
:1041B000F04100004400000002662F00711106C0AB
:1041C000635D04009536453A635D0400B13E653297
:1041D000B93DD132824011018280713AE35904FE27
:1041E000A136513AA9358936824011016DB20000DD
:1041F0000C42000000000000023221009C40D84028
:104200001CC058C08044B1048280000024420000D9
:104210000000000002324000F1145C409CC00040ED
:10422000828000005C420000440000000364753C92
:1042300071112AC09C44984033B5E700DC4033B785
:10424000A700898FB3B7870033E4E7007D141344D8
:10425000F4FFB104024511018280000074420000A5
:10426000440000000364753E711106C0293282408B
:1042700011017DBFA04200004400000002643C0028
:10428000511106C42AC22EC01355F441CC40FD85FD
:104290004537298C2D8CA240124582453101828000
:1042A000B84200004400000002643E00711106C0E4
:1042B000D93082401101E9B7CC420000620400000D
:1042C0000364303C91047D8482800000E842000059
:1042D000420000000364303D9C4091045D8C133427
:1042E00014003304804082800C430000440000002E
:1042F00003643C3EDC403D8C9C409844B98FB10443
:104300005D8C133414007D14828000003043000063
:104310004400000002643D00DC403D8C9C40984419
:10432000B98FB1045D8C1334140033048040828053
:104330007C4300004300000007326C7368696674B8
:104340001374F40371C8130704FE63490700DC40CB
:104350003394E700910423A004008280DC4033976B
:104360008700D8C013070002018FB3D7E700984039
:10437000331487005D8C910482800000CC430000E0
:104380004300000007327273686966741374F403A3
:1043900041C4130704FE634907009C40B3D7E700FC
:1043A00091049CC0014482809C4033D7870098C010
:1043B00013070002018FB397E700D84033578700F7
:1043C0005D8FD8C0804091048280000020440000AE
:1043D00043000000083261727368696674001374E8
:1043E000F4031DC8130704FE634A07009C4013D45E
:1043F000F741B3D7E74091049CC082809C4033D7FB
:10440000874098C013070002018FB397E700D84098
:10441000335787005D8FD8C08040910482800000B0
:104420007444000000000000046D6F766500711197
:104430002AC022879C40C040A10405CB6307F40238
:1044400063ED87003A94BA970345F4FFA38FA7FE64
:104450007D14FD177D176DFB09A80345040023801B
:10446000A700050485077D176DFB80409104024578
:10447000110182809C440000000000000466696C09
:104480006C0022879C40C040A10491C72300E40037
:104490000504FD17E5FF804091048280204500005F
:1044A00020060000014000408280B7270400938767
:1044B0003740611106C22AC03E85711122C080407A
:1044C0009104FD16EFF0CF80F11480C00244110179
:1044D000EFD05F82930700803377F4006303F70027
:1044E00011E7B787F0FFFD177D8D05A085679387DE
:1044F0000780E18F99C385673E94F11480C0FD77F2
:104500007D8C13647443EFD0DFF98567FD17E18F6D
:10451000D2073364F5009240024521016FD07FF845
:10452000CC4500002006000001219C401CC0C0407A
:10453000A10482803727870013073702B727F700C7
:1045400093873702611106C22AC0FD1691E63A85AB
:104550001520EFE0BF9B19A83E85A28780409CC034
:10456000F11480C03D44EFD04FE92920924002452C
:1045700021018280711106C0930700803377F40017
:104580006303F70011E7B787F0FFFD177D8D05A0E6
:10459000856793870780E18F99C385673E94F114FF
:1045A00080C0FD777D8C13647473EFD09FEF937799
:1045B000F4019E075D8D85678117E18F9583E6077E
:1045C0003364F500824011016FD0BFEDE845000073
:1045D00000000000022B21009C401840BA971CC02C
:1045E000C040A104828000000446000020060000B4
:1045F00002684000035404008280B7570400938788
:10460000374045BD2846000020060000086840737A
:1046100069676E656400031404008280B7170400A4
:104620009387374079B5000054460000200600000B
:10463000026821009C402310F400C040A104828045
:104640003717870013073702B717F700938737022A
:10465000D5BD0000744600000000000003682B2157
:104660009C4003570400BA972310F400C040A104F3
:104670008280000090460000200600000263400097
:10468000034404008280B74704009387374015B580
:10469000B4460000200600000863407369676E6539
:1046A0006400030404008280B70704009387374046
:1046B00009B50000E046000020060000026321006A
:1046C0009C402300F400C040A1048280370787008B
:1046D00013073702B707F70093873702A5B5000025
:1046E000004700000000000003632B219C400347AB
:1046F0000400BA972300F400C040A10482800000A7
:104700001C470000000000000462697321009C4007
:104710001840D98F1CC0C040A10482803C470000D3
:10472000000000000462696321009C4093C7F7FF0A
:104730001840F98F1CC0C040A10482805847000077
:104740000000000004786F7221009C401840B98F6F
:104750001CC0C040A1048280784700000000000017
:104760000462697440001C40804091047D8C1334C5
:1047700014007D14828000009847000000000000B3
:104780000568626973219C4003570400D98F231088
:10479000F400C040A1048280BC470000000000007B
:1047A0000568626963219C4093C7F7FF03570400C3
:1047B000F98F2310F400C040A1048280DC47000080
:1047C000000000000568786F72219C4003570400C8
:1047D000B98F2310F400C040A1048280FC47000080
:1047E000000000000568626974408357040080403F
:1047F00091047D8C133414007D1482801C480000C9
:10480000000000000563626973219C4003470400B7
:10481000D98F2300F400C040A104828040480000EA
:10482000000000000563626963219C4093C7F7FFA5
:1048300003470400F98F2300F400C040A1048280E4
:1048400060480000000000000563786F72219C4002
:1048500003470400B98F2300F400C040A104828004
:1048600080480000000000000563626974408347CF
:104870000400804091047D8C133414007D148280E8
:1048800000500000FFFFFFFF182D2D2D20466C610A
:1048900073682044696374696F6E617279202D2D8D
:1048A0002D00FD47739007BC8D477390478097B7E5
:1048B000FFFF9387277993E7370073905730896715
:1048C0009387878873A00730B71702409843136710
:1048D000170098C3D843B706FFF8758FD8C398431D
:1048E000B706F7FEFD16758F98C39843B706FCFF11
:1048F000FD16758F98C3D843B70681FFFD16758FD7
:10490000D8C337079F0098C70100EFC03F8A814096
:10491000370100201301C146814101428142014318
:1049200081431304A002B70400209384C4260145E8
:104930008145014681460147814737070020B70777
:104940000020938747531CC337070020210797C7D0
:10495000FFFF938727891CC3F11480C017C4FFFF92
:1049600013044488B70301204C40FD56638FD508DB
:10497000B7E639E3938696336389D50893F6051035
:10498000ADC2711122C02104EFC05FE0EFD0CFCAE9
:1049900083560400035524004205C98EB383D340D7
:1049A000024411019DA02F010000000000203301EE
:1049B000202425442403671890790000000007365E
:1049C00031098AA04224A031B003862094830100DB
:1049D000060008000018200A2E275F2D60285C2F93
:1049E000293C93F6050895C2BD898A05B383B34077
:1049F000F11480C02104EFC07FD9EFD0EFC3E114E0
:104A0000C0C023A074002E841D34EFD03FF0228557
:104A10008040910431D937050020310500C1804024
:104A20009104370500204105232075003705040057
:104A3000956537E639E3130696336307B5007115BC
:104A40001441E38CC6FE1105B7050020910588C10D
:104A5000EFC03FC14C4D6563726973702D5175692C
:104A60006E74757320312E312E3120666F72205294
:104A70004953432D562052563332494D4143462027
:104A80006F6E204348333256333037564354362006
:104A90006279204D61747468696173204B6F63683B
:104AA0000A00370100201301C146B7040020938497
:104AB000C426370701207117A9471CC337070120F7
:104AC000130747FA81471CC33707002051071CC34F
:104AD00037070120130707FB1CC337070120130703
:104AE00087FA1CC3B70700209387C7465CC3F1143D
:104AF00080C01704000013048402F11480C0114424
:104B0000EFD03FE68040910409C4EFD0EFDB6FE0C7
:104B10005FA7804091046FE01FA2696E6974010075
:104B20001300000013000000130000001300000039
:104B30001300000013000000130000001300000029
:00000001FF
